{
  "_format": "hh-sol-artifact-1",
  "contractName": "RealEnvironmentalOracle",
  "sourceName": "contracts/RealEnvironmentalOracle.sol",
  "abi": [
    {
      "inputs": [],
      "stateMutability": "nonpayable",
      "type": "constructor"
    },
    {
      "anonymous": false,
      "inputs": [
        {
          "indexed": true,
          "internalType": "address",
          "name": "oldUpdater",
          "type": "address"
        },
        {
          "indexed": true,
          "internalType": "address",
          "name": "newUpdater",
          "type": "address"
        }
      ],
      "name": "DataUpdaterChanged",
      "type": "event"
    },
    {
      "anonymous": false,
      "inputs": [
        {
          "indexed": true,
          "internalType": "string",
          "name": "metric",
          "type": "string"
        },
        {
          "indexed": false,
          "internalType": "int256",
          "name": "value",
          "type": "int256"
        },
        {
          "indexed": false,
          "internalType": "uint256",
          "name": "timestamp",
          "type": "uint256"
        },
        {
          "indexed": false,
          "internalType": "uint80",
          "name": "roundId",
          "type": "uint80"
        },
        {
          "indexed": false,
          "internalType": "string",
          "name": "dataSource",
          "type": "string"
        }
      ],
      "name": "EnvironmentalDataUpdated",
      "type": "event"
    },
    {
      "anonymous": false,
      "inputs": [
        {
          "indexed": false,
          "internalType": "string",
          "name": "oldMetric",
          "type": "string"
        },
        {
          "indexed": false,
          "internalType": "string",
          "name": "newMetric",
          "type": "string"
        }
      ],
      "name": "PrimaryMetricChanged",
      "type": "event"
    },
    {
      "inputs": [
        {
          "internalType": "string[]",
          "name": "metrics",
          "type": "string[]"
        },
        {
          "internalType": "int256[]",
          "name": "values",
          "type": "int256[]"
        },
        {
          "internalType": "string",
          "name": "dataSource",
          "type": "string"
        }
      ],
      "name": "batchUpdateEnvironmentalData",
      "outputs": [],
      "stateMutability": "nonpayable",
      "type": "function"
    },
    {
      "inputs": [],
      "name": "dataUpdater",
      "outputs": [
        {
          "internalType": "address",
          "name": "",
          "type": "address"
        }
      ],
      "stateMutability": "view",
      "type": "function"
    },
    {
      "inputs": [],
      "name": "decimals",
      "outputs": [
        {
          "internalType": "uint8",
          "name": "",
          "type": "uint8"
        }
      ],
      "stateMutability": "view",
      "type": "function"
    },
    {
      "inputs": [],
      "name": "description",
      "outputs": [
        {
          "internalType": "string",
          "name": "",
          "type": "string"
        }
      ],
      "stateMutability": "view",
      "type": "function"
    },
    {
      "inputs": [],
      "name": "getEnvironmentalReport",
      "outputs": [
        {
          "internalType": "int256",
          "name": "pm25Value",
          "type": "int256"
        },
        {
          "internalType": "int256",
          "name": "co2Value",
          "type": "int256"
        },
        {
          "internalType": "int256",
          "name": "forestValue",
          "type": "int256"
        },
        {
          "internalType": "int256",
          "name": "aqiValue",
          "type": "int256"
        },
        {
          "internalType": "uint256",
          "name": "lastUpdated",
          "type": "uint256"
        }
      ],
      "stateMutability": "view",
      "type": "function"
    },
    {
      "inputs": [],
      "name": "getLatestAQIData",
      "outputs": [
        {
          "internalType": "int256",
          "name": "",
          "type": "int256"
        }
      ],
      "stateMutability": "view",
      "type": "function"
    },
    {
      "inputs": [],
      "name": "getLatestCO2Data",
      "outputs": [
        {
          "internalType": "int256",
          "name": "",
          "type": "int256"
        }
      ],
      "stateMutability": "view",
      "type": "function"
    },
    {
      "inputs": [
        {
          "internalType": "string",
          "name": "metric",
          "type": "string"
        }
      ],
      "name": "getLatestEnvironmentalData",
      "outputs": [
        {
          "internalType": "uint80",
          "name": "roundId",
          "type": "uint80"
        },
        {
          "internalType": "int256",
          "name": "answer",
          "type": "int256"
        },
        {
          "internalType": "uint256",
          "name": "startedAt",
          "type": "uint256"
        },
        {
          "internalType": "uint256",
          "name": "updatedAt",
          "type": "uint256"
        },
        {
          "internalType": "uint80",
          "name": "answeredInRound",
          "type": "uint80"
        }
      ],
      "stateMutability": "view",
      "type": "function"
    },
    {
      "inputs": [],
      "name": "getLatestForestCoverData",
      "outputs": [
        {
          "internalType": "int256",
          "name": "",
          "type": "int256"
        }
      ],
      "stateMutability": "view",
      "type": "function"
    },
    {
      "inputs": [],
      "name": "getLatestPM25Data",
      "outputs": [
        {
          "internalType": "int256",
          "name": "",
          "type": "int256"
        }
      ],
      "stateMutability": "view",
      "type": "function"
    },
    {
      "inputs": [
        {
          "internalType": "uint80",
          "name": "_roundId",
          "type": "uint80"
        }
      ],
      "name": "getRoundData",
      "outputs": [
        {
          "internalType": "uint80",
          "name": "roundId",
          "type": "uint80"
        },
        {
          "internalType": "int256",
          "name": "answer",
          "type": "int256"
        },
        {
          "internalType": "uint256",
          "name": "startedAt",
          "type": "uint256"
        },
        {
          "internalType": "uint256",
          "name": "updatedAt",
          "type": "uint256"
        },
        {
          "internalType": "uint80",
          "name": "answeredInRound",
          "type": "uint80"
        }
      ],
      "stateMutability": "view",
      "type": "function"
    },
    {
      "inputs": [],
      "name": "latestRoundData",
      "outputs": [
        {
          "internalType": "uint80",
          "name": "roundId",
          "type": "uint80"
        },
        {
          "internalType": "int256",
          "name": "answer",
          "type": "int256"
        },
        {
          "internalType": "uint256",
          "name": "startedAt",
          "type": "uint256"
        },
        {
          "internalType": "uint256",
          "name": "updatedAt",
          "type": "uint256"
        },
        {
          "internalType": "uint80",
          "name": "answeredInRound",
          "type": "uint80"
        }
      ],
      "stateMutability": "view",
      "type": "function"
    },
    {
      "inputs": [],
      "name": "owner",
      "outputs": [
        {
          "internalType": "address",
          "name": "",
          "type": "address"
        }
      ],
      "stateMutability": "view",
      "type": "function"
    },
    {
      "inputs": [],
      "name": "primaryMetric",
      "outputs": [
        {
          "internalType": "string",
          "name": "",
          "type": "string"
        }
      ],
      "stateMutability": "view",
      "type": "function"
    },
    {
      "inputs": [
        {
          "internalType": "address",
          "name": "_newUpdater",
          "type": "address"
        }
      ],
      "name": "setDataUpdater",
      "outputs": [],
      "stateMutability": "nonpayable",
      "type": "function"
    },
    {
      "inputs": [
        {
          "internalType": "string",
          "name": "_newMetric",
          "type": "string"
        }
      ],
      "name": "setPrimaryMetric",
      "outputs": [],
      "stateMutability": "nonpayable",
      "type": "function"
    },
    {
      "inputs": [
        {
          "internalType": "uint256",
          "name": "",
          "type": "uint256"
        }
      ],
      "name": "supportedMetrics",
      "outputs": [
        {
          "internalType": "string",
          "name": "",
          "type": "string"
        }
      ],
      "stateMutability": "view",
      "type": "function"
    },
    {
      "inputs": [
        {
          "internalType": "address",
          "name": "_newOwner",
          "type": "address"
        }
      ],
      "name": "transferOwnership",
      "outputs": [],
      "stateMutability": "nonpayable",
      "type": "function"
    },
    {
      "inputs": [
        {
          "internalType": "string",
          "name": "metric",
          "type": "string"
        },
        {
          "internalType": "int256",
          "name": "value",
          "type": "int256"
        },
        {
          "internalType": "string",
          "name": "dataSource",
          "type": "string"
        }
      ],
      "name": "updateEnvironmentalData",
      "outputs": [],
      "stateMutability": "nonpayable",
      "type": "function"
    },
    {
      "inputs": [],
      "name": "version",
      "outputs": [
        {
          "internalType": "uint256",
          "name": "",
          "type": "uint256"
        }
      ],
      "stateMutability": "view",
      "type": "function"
    }
  ],
  "bytecode": "0x6080604052346107e4576100116107e9565b61001b6040610808565b6004815263706d323560e01b602082015281526100386040610808565b600381526231b79960e91b602082015260208201526100576040610808565b600c81526b3337b932b9ba2fb1b7bb32b960a11b6020820152604082015261007f6040610808565b600381526261716960e81b6020820152606082015261009e6040610808565b600b81526a74656d706572617475726560a81b6020820152608082015260045460056004558060051061072d575b50600460009081527f8a35acfbc15ff81a39ae7d344fd709f28e8600b4aa8c65c6b64bfe7fe36bd19b915b600582106105fa5761010a60055461082d565b601f81116105d7575b50600863706d323560e01b0160055560065461012e9061082d565b601f811161058c575b6073600690815560009081527f5265616c20456e7669726f6e6d656e74616c2044617461204f7261636c65202d600080516020611c99833981519152557f20504d322e352c20434f322c20466f7265737420436f766572000000000000007ff652222313e28459528d920b65115c16c04f3efc82aaedc97be59f3f377c0d4055600160078190558154336001600160a01b0319918216811790935581541690911790556101e26107e9565b6104e281524260208201818152604080840192835260016060850181815260808601828152835163706d323560e01b808252600260048084018290526024938490209a518b5597518a8701559751978901979097559151600397880180549251600160501b600160a01b0360509190911b166001600160501b039092166001600160a01b03199093169290921717905591519384529183019390935291902080546001600160501b031916909117905561029a6107e9565b61a4a68152426020820181815260408084019283526001606085018181526080860182815283516231b79960e91b808252600260038381018290526023938490209a518b5597518a8701559751978901979097559151968501805491516001600160a01b03199092166001600160501b03989098169790971760509190911b600160501b600160a01b03161790955590519283528282019190915291902080546001600160501b03191690911790556103516107e9565b611ac28152426020820181815260408084019283526001606085018181526080860182815283516b3337b932b9ba2fb1b7bb32b960a11b8082526002600c808401829052602c938490209a518b5597518a8701559751978901979097559151600397880180549251600160501b600160a01b0360509190911b166001600160501b039092166001600160a01b03199093169290921717905591519384529183019390935291902080546001600160501b03191690911790556104116107e9565b6121348152426020820181815260408084019283526001606085018181526080860182815283516261716960e81b808252600260038381018290526023938490209a518b5597518a8701559751978901979097559151968501805491516001600160a01b03199092166001600160501b03989098169790971760509190911b600160501b600160a01b03161790955590519283528282019190915291902080546001600160501b03191690911790556104c86107e9565b6105f58152426020820181815260408084019283526001606085018181526080860182815283516a74656d706572617475726560a81b8082526002600b808401829052602b938490209a518b5597518a8701559751978901979097559151600397880180549251600160501b600160a01b0360509190911b166001600160501b039092166001600160a01b031990931692909217179055825194855292840194909452912080546001600160501b0319169092179091555161141a908161087f8239f35b60066000526105d190601f0160051c600080516020611c99833981519152017ff652222313e28459528d920b65115c16c04f3efc82aaedc97be59f3f377c0d41610867565b80610137565b6105f4906005600052601f6020600020910160051c810190610867565b80610113565b80518051906001600160401b03821161071757610617855461082d565b601f81116106da575b50602090601f831160011461066d579282600194936020938695600092610662575b5050600019600383901b1c191690841b1786555b019301910190916100f7565b015190503880610642565b90601f1983169186600052816000209260005b8181106106c257509360209360019693879693838895106106a9575b505050811b018655610656565b015160001960f88460031b161c1916905538808061069c565b82840151855560019094019360209384019301610680565b61070790866000526020600020601f850160051c8101916020861061070d575b601f0160051c0190610867565b38610620565b90915081906106fa565b634e487b7160e01b600052604160045260246000fd5b60046000527f8a35acfbc15ff81a39ae7d344fd709f28e8600b4aa8c65c6b64bfe7fe36bd19b017f8a35acfbc15ff81a39ae7d344fd709f28e8600b4aa8c65c6b64bfe7fe36bd1a05b81811061078357506100cc565b806107906001925461082d565b8061079d575b5001610776565b601f811183146107b35750600081555b38610796565b6107d1908260005283601f6020600020920160051c82019101610867565b80600052600060208120818355556107ad565b600080fd5b6040519060a082016001600160401b0381118382101761071757604052565b6040519190601f01601f191682016001600160401b0381118382101761071757604052565b90600182811c9216801561085d575b602083101461084757565b634e487b7160e01b600052602260045260246000fd5b91607f169161083c565b818110610872575050565b6000815560010161086756fe6080604052600436101561001257600080fd5b60003560e01c80630aa621b814610c8957806319e1b8a214610bf9578063313ce56714610bdd57806336701a3e14610aaa5780633a48081114610a2b57806354fd4d5014610a0d5780635db8b00b14610921578063711703b4146108ef5780637284e416146108225780638409c4e61461060a578063893b2694146105e15780638da5cb5b146105b85780639a6fc8f514610540578063a3c4f4c1146103b7578063b53eeb6f14610384578063bb99b96914610349578063bf0eca7e14610317578063d27cd36b146102e7578063f2fde38b146102505763feaf968c146100f857600080fd5b3461024b57600036600319011261024b57604051631b380d1f60e11b81526020600482015260008160055461012c81610f4d565b9081602484015260018116908160001461022957506001146101e0575b508060a0920381305afa80156101d457600080918182908392610198575b604080516001600160501b039586168152602081019690965285015260608401521660808201528060a081015b0390f35b50505050506101c16101949160a03d60a0116101cd575b6101b98183610ebf565b810190611157565b92945084939291610167565b503d6101af565b6040513d6000823e3d90fd5b600560009081529192506000805160206113c58339815191525b81831061020f57505081016044019080610149565b8054604484870101528493506020909201916001016101fa565b60a094506044915091839260ff191682840152151560051b8201019250610149565b600080fd5b3461024b57602036600319011261024b576004356001600160a01b0381169081900361024b5760005461028d336001600160a01b038316146110ec565b81156102a3576001600160a01b03191617600055005b606460405162461bcd60e51b815260206004820152602060248201527f4e6577206f776e65722063616e6e6f74206265207a65726f20616464726573736044820152fd5b3461024b57600036600319011261024b57610194610303610f87565b604051918291602083526020830190611051565b3461024b57600036600319011261024b57602060236040516231b79960e91b8152600260038201522054604051908152f35b3461024b57600036600319011261024b576020602c6040516b3337b932b9ba2fb1b7bb32b960a11b81526002600c8201522054604051908152f35b3461024b57600036600319011261024b576020602460405163706d323560e01b8152600260048201522054604051908152f35b3461024b57600036600319011261024b576001602460405163706d323560e01b81526002600482015220015480600160236040516231b79960e91b81526002600382015220015411610520575b806001602c6040516b3337b932b9ba2fb1b7bb32b960a11b81526002600c820152200154116104f7575b80600160236040516261716960e81b815260026003820152200154116104d6575b60a090602460405163706d323560e01b81526002600482015220549060236040516231b79960e91b8152600260038201522054602c6040516b3337b932b9ba2fb1b7bb32b960a11b81526002600c820152205460236040516261716960e81b8152600260038201522054916040519485526020850152604084015260608301526080820152f35b506040516261716960e81b815260026003820152602390206001015461044f565b506001602c6040516b3337b932b9ba2fb1b7bb32b960a11b81526002600c82015220015461042e565b50600160236040516231b79960e91b815260026003820152200154610404565b3461024b57602036600319011261024b576004356001600160501b0381160361024b57604051633fabe5a360e21b815260a081600481305afa80156101d45760008091818290839261019857604080516001600160501b0395861681526020810196909652850152606084015216608082015260a090f35b3461024b57600036600319011261024b576000546040516001600160a01b039091168152602090f35b3461024b57600036600319011261024b576001546040516001600160a01b039091168152602090f35b3461024b57602036600319011261024b576004356001600160401b03811161024b5761063a903690600401610ef7565b61064f60018060a01b036000541633146110ec565b610657610f87565b8151916001600160401b03831161080c57610673600554610f4d565b601f811161079f575b50602092601f8111600114610706576106e89291816106f6927fcdd4e2a39ff07b5539d8722eea44204c1fc6a85e94fa22e0ce552c88908fbdca966000916106fb575b508160011b916000199060031b1c1916176005555b604051938493604085526040850190611051565b908382036020850152611051565b0390a1005b9050820151876106bf565b601f19811660056000526000805160206113c58339815191529060005b8181106107875750826106e89594927fcdd4e2a39ff07b5539d8722eea44204c1fc6a85e94fa22e0ce552c88908fbdca976106f6956001941061076e575b5050811b016005556106d4565b84015160001960f88460031b161c191690558780610761565b84870151835560209687019660019093019201610723565b6005600052601f840160051c6000805160206113c58339815191520190602085106107f6575b601f0160051c6000805160206113c583398151915201905b8181106107ea575061067c565b600081556001016107dd565b6000805160206113c583398151915291506107c5565b634e487b7160e01b600052604160045260246000fd5b3461024b57600036600319011261024b57604051600060065461084481610f4d565b80845290600181169081156108cb575060011461086c575b6101948361030381850382610ebf565b600660009081527ff652222313e28459528d920b65115c16c04f3efc82aaedc97be59f3f377c0d3f939250905b8082106108b15750909150810160200161030361085c565b919260018160209254838588010152019101909291610899565b60ff191660208086019190915291151560051b84019091019150610303905061085c565b3461024b57600036600319011261024b57602060236040516261716960e81b8152600260038201522054604051908152f35b3461024b57602036600319011261024b5760043560045481101561024b57600090600482527f8a35acfbc15ff81a39ae7d344fd709f28e8600b4aa8c65c6b64bfe7fe36bd19b0190604051918181549161097a83610f4d565b80865292600181169081156109e357506001146109a2575b6101948561030381870382610ebf565b815260208120939250905b8082106109c95750909150810160200161030382610194610992565b9192600181602092548385880101520191019092916109ad565b8695506101949693506020925061030394915060ff191682840152151560051b8201019293610992565b3461024b57600036600319011261024b576020600754604051908152f35b3461024b57602036600319011261024b576004356001600160a01b0381169081900361024b57610a6660018060a01b036000541633146110ec565b600180546001600160a01b0319811683179091556001600160a01b03167fd92fa636ac165804c9c0d4135eaccffea632b9a9b969e83e96e71be118e77004600080a3005b3461024b57602036600319011261024b576004356001600160401b03811161024b576020610adf610af2923690600401610ef7565b816040519382858094519384920161102e565b81016002815203019020604051610b0881610ea4565b81548152600182015460208201818152600360028501549460408501958652015460608401926001600160501b03821684526001600160501b03608086019260501c16825215610b8e5791519251935190519151604080516001600160501b0395861681526020810196909652850191909152606084019190915216608082015260a090f35b60405162461bcd60e51b815260206004820152602160248201527f4e6f206461746120617661696c61626c6520666f722074686973206d657472696044820152606360f81b6064820152608490fd5b3461024b57600036600319011261024b57602060405160028152f35b3461024b57606036600319011261024b576004356001600160401b03811161024b57610c29903690600401610ef7565b604435906001600160401b03821161024b57610c4c610c73923690600401610ef7565b9060018060a01b036000541633148015610c75575b610c6a90611076565b6024359061118c565b005b506001546001600160a01b03163314610c61565b3461024b57606036600319011261024b576004356001600160401b03811161024b573660238201121561024b578060040135610cc481610ee0565b91610cd26040519384610ebf565b8183526024602084019260051b8201019036821161024b5760248101925b828410610e7557602435856001600160401b03821161024b573660238301121561024b57816004013591610d2383610ee0565b92610d316040519485610ebf565b8084526024602085019160051b8301019136831161024b57602401905b828210610e65575050506044356001600160401b03811161024b57610d77903690600401610ef7565b9060018060a01b036000541633148015610e51575b610d9590611076565b8051835103610e1357805115610dda5760005b8151811015610c735780610dd484610dc2600194866110c2565b51610dcd84896110c2565b519061118c565b01610da8565b60405162461bcd60e51b81526020600482015260116024820152704e6f206461746120746f2075706461746560781b6044820152606490fd5b60405162461bcd60e51b8152602060048201526016602482015275082e4e4c2f2e640d8cadccee8d040dad2e6dac2e8c6d60531b6044820152606490fd5b506001546001600160a01b03163314610d8c565b8135815260209182019101610d4e565b83356001600160401b03811161024b57602091610e99839260243691870101610ef7565b815201930192610cf0565b60a081019081106001600160401b0382111761080c57604052565b90601f801991011681019081106001600160401b0382111761080c57604052565b6001600160401b03811161080c5760051b60200190565b81601f8201121561024b578035906001600160401b03821161080c5760405192610f2b601f8401601f191660200185610ebf565b8284526020838301011161024b57816000926020809301838601378301015290565b90600182811c92168015610f7d575b6020831014610f6757565b634e487b7160e01b600052602260045260246000fd5b91607f1691610f5c565b6040519060008260055491610f9b83610f4d565b808352926001811690811561100f5750600114610fc1575b610fbf92500383610ebf565b565b506005600090815290916000805160206113c58339815191525b818310610ff3575050906020610fbf92820101610fb3565b6020919350806001915483858901015201910190918492610fdb565b60209250610fbf94915060ff191682840152151560051b820101610fb3565b60005b8381106110415750506000910152565b8181015183820152602001611031565b9060209161106a8151809281855285808601910161102e565b601f01601f1916010190565b1561107d57565b60405162461bcd60e51b815260206004820152601d60248201527f4e6f7420617574686f72697a656420746f2075706461746520646174610000006044820152606490fd5b80518210156110d65760209160051b010190565b634e487b7160e01b600052603260045260246000fd5b156110f357565b60405162461bcd60e51b815260206004820152602260248201527f4f6e6c79206f776e65722063616e20706572666f726d2074686973206163746960448201526137b760f11b6064820152608490fd5b51906001600160501b038216820361024b57565b908160a091031261024b5761116b81611143565b91602082015191604081015191611189608060608401519301611143565b90565b90815115611386576000811261132f576040519060016001600160501b03845193602081818801966111bf81838a61102e565b81016003815203019020541601916001600160501b038311611319576112ea611314917f67329a4d8bca5f2a3c3c192170162450f36af6bf1e618a9f6cb25b8fbc59adb9956040519561121187610ea4565b858752602087014281526001600160501b0380600360408b019a428c52826060820196169b8c875260808201958d875261125960208b8b60405193849283925192839161102e565b810160028152030190209251835551600183015551600282015501935116166001600160501b0319835416178255518154906001600160501b0360501b9060501b16906001600160501b0360501b191617905560405160208183516112bf81838861102e565b81016003815203019020866001600160501b031982541617905560405192839283925192839161102e565b81010390209460405193849384524260208501526040840152608060608401526080830190611051565b0390a2565b634e487b7160e01b600052601160045260246000fd5b60405162461bcd60e51b815260206004820152602960248201527f456e7669726f6e6d656e74616c2076616c756573206d757374206265206e6f6e6044820152682d6e6567617469766560b81b6064820152608490fd5b60405162461bcd60e51b81526020600482015260166024820152754d65747269632063616e6e6f7420626520656d70747960501b6044820152606490fdfe036b6384b5eca791c62761152d0c79bb0604c104a5fb6f4eb0703f3154bb3db0a2646970667358221220b5712e068ea9b5f949293b4c94ab2c93a2b990060b6988303af9ab0654f666f464736f6c634300081c0033f652222313e28459528d920b65115c16c04f3efc82aaedc97be59f3f377c0d3f",
  "linkReferences": {},
  "deployedLinkReferences": {}
}