{
  "_format": "hh-sol-artifact-1",
  "contractName": "ChainlinkEnvironmentalOracle",
  "sourceName": "contracts/ChainlinkEnvironmentalOracle.sol",
  "abi": [
    {
      "inputs": [],
      "stateMutability": "nonpayable",
      "type": "constructor"
    },
    {
      "anonymous": false,
      "inputs": [
        {
          "indexed": true,
          "internalType": "bytes32",
          "name": "id",
          "type": "bytes32"
        }
      ],
      "name": "ChainlinkCancelled",
      "type": "event"
    },
    {
      "anonymous": false,
      "inputs": [
        {
          "indexed": true,
          "internalType": "bytes32",
          "name": "id",
          "type": "bytes32"
        }
      ],
      "name": "ChainlinkFulfilled",
      "type": "event"
    },
    {
      "anonymous": false,
      "inputs": [
        {
          "indexed": true,
          "internalType": "bytes32",
          "name": "id",
          "type": "bytes32"
        }
      ],
      "name": "ChainlinkRequested",
      "type": "event"
    },
    {
      "anonymous": false,
      "inputs": [
        {
          "indexed": true,
          "internalType": "bytes32",
          "name": "requestId",
          "type": "bytes32"
        },
        {
          "indexed": false,
          "internalType": "string",
          "name": "metric",
          "type": "string"
        },
        {
          "indexed": false,
          "internalType": "int256",
          "name": "value",
          "type": "int256"
        }
      ],
      "name": "EnvironmentalDataReceived",
      "type": "event"
    },
    {
      "anonymous": false,
      "inputs": [
        {
          "indexed": true,
          "internalType": "bytes32",
          "name": "requestId",
          "type": "bytes32"
        },
        {
          "indexed": false,
          "internalType": "string",
          "name": "metric",
          "type": "string"
        },
        {
          "indexed": false,
          "internalType": "string",
          "name": "apiEndpoint",
          "type": "string"
        }
      ],
      "name": "EnvironmentalDataRequested",
      "type": "event"
    },
    {
      "anonymous": false,
      "inputs": [
        {
          "indexed": false,
          "internalType": "address",
          "name": "oracle",
          "type": "address"
        },
        {
          "indexed": false,
          "internalType": "bytes32",
          "name": "jobId",
          "type": "bytes32"
        },
        {
          "indexed": false,
          "internalType": "uint256",
          "name": "fee",
          "type": "uint256"
        }
      ],
      "name": "OracleConfigUpdated",
      "type": "event"
    },
    {
      "anonymous": false,
      "inputs": [
        {
          "indexed": true,
          "internalType": "address",
          "name": "from",
          "type": "address"
        },
        {
          "indexed": true,
          "internalType": "address",
          "name": "to",
          "type": "address"
        }
      ],
      "name": "OwnershipTransferRequested",
      "type": "event"
    },
    {
      "anonymous": false,
      "inputs": [
        {
          "indexed": true,
          "internalType": "address",
          "name": "from",
          "type": "address"
        },
        {
          "indexed": true,
          "internalType": "address",
          "name": "to",
          "type": "address"
        }
      ],
      "name": "OwnershipTransferred",
      "type": "event"
    },
    {
      "inputs": [],
      "name": "acceptOwnership",
      "outputs": [],
      "stateMutability": "nonpayable",
      "type": "function"
    },
    {
      "inputs": [],
      "name": "decimals",
      "outputs": [
        {
          "internalType": "uint8",
          "name": "",
          "type": "uint8"
        }
      ],
      "stateMutability": "view",
      "type": "function"
    },
    {
      "inputs": [],
      "name": "description",
      "outputs": [
        {
          "internalType": "string",
          "name": "",
          "type": "string"
        }
      ],
      "stateMutability": "view",
      "type": "function"
    },
    {
      "inputs": [
        {
          "internalType": "string",
          "name": "",
          "type": "string"
        }
      ],
      "name": "environmentalData",
      "outputs": [
        {
          "internalType": "int256",
          "name": "value",
          "type": "int256"
        },
        {
          "internalType": "uint256",
          "name": "timestamp",
          "type": "uint256"
        },
        {
          "internalType": "uint80",
          "name": "roundId",
          "type": "uint80"
        },
        {
          "internalType": "bool",
          "name": "isValid",
          "type": "bool"
        }
      ],
      "stateMutability": "view",
      "type": "function"
    },
    {
      "inputs": [
        {
          "internalType": "bytes32",
          "name": "_requestId",
          "type": "bytes32"
        },
        {
          "internalType": "int256",
          "name": "_temperature",
          "type": "int256"
        }
      ],
      "name": "fulfillCO2Data",
      "outputs": [],
      "stateMutability": "nonpayable",
      "type": "function"
    },
    {
      "inputs": [
        {
          "internalType": "bytes32",
          "name": "_requestId",
          "type": "bytes32"
        },
        {
          "internalType": "int256",
          "name": "_vegIndex",
          "type": "int256"
        }
      ],
      "name": "fulfillForestCoverData",
      "outputs": [],
      "stateMutability": "nonpayable",
      "type": "function"
    },
    {
      "inputs": [
        {
          "internalType": "bytes32",
          "name": "_requestId",
          "type": "bytes32"
        },
        {
          "internalType": "int256",
          "name": "_value",
          "type": "int256"
        }
      ],
      "name": "fulfillPM25Data",
      "outputs": [],
      "stateMutability": "nonpayable",
      "type": "function"
    },
    {
      "inputs": [],
      "name": "getLatestCO2Data",
      "outputs": [
        {
          "internalType": "int256",
          "name": "",
          "type": "int256"
        }
      ],
      "stateMutability": "view",
      "type": "function"
    },
    {
      "inputs": [],
      "name": "getLatestForestCoverData",
      "outputs": [
        {
          "internalType": "int256",
          "name": "",
          "type": "int256"
        }
      ],
      "stateMutability": "view",
      "type": "function"
    },
    {
      "inputs": [],
      "name": "getLatestPM25Data",
      "outputs": [
        {
          "internalType": "int256",
          "name": "",
          "type": "int256"
        }
      ],
      "stateMutability": "view",
      "type": "function"
    },
    {
      "inputs": [
        {
          "internalType": "uint80",
          "name": "_roundId",
          "type": "uint80"
        }
      ],
      "name": "getRoundData",
      "outputs": [
        {
          "internalType": "uint80",
          "name": "roundId",
          "type": "uint80"
        },
        {
          "internalType": "int256",
          "name": "answer",
          "type": "int256"
        },
        {
          "internalType": "uint256",
          "name": "startedAt",
          "type": "uint256"
        },
        {
          "internalType": "uint256",
          "name": "updatedAt",
          "type": "uint256"
        },
        {
          "internalType": "uint80",
          "name": "answeredInRound",
          "type": "uint80"
        }
      ],
      "stateMutability": "view",
      "type": "function"
    },
    {
      "inputs": [],
      "name": "latestRoundData",
      "outputs": [
        {
          "internalType": "uint80",
          "name": "roundId",
          "type": "uint80"
        },
        {
          "internalType": "int256",
          "name": "answer",
          "type": "int256"
        },
        {
          "internalType": "uint256",
          "name": "startedAt",
          "type": "uint256"
        },
        {
          "internalType": "uint256",
          "name": "updatedAt",
          "type": "uint256"
        },
        {
          "internalType": "uint80",
          "name": "answeredInRound",
          "type": "uint80"
        }
      ],
      "stateMutability": "view",
      "type": "function"
    },
    {
      "inputs": [
        {
          "internalType": "string",
          "name": "",
          "type": "string"
        }
      ],
      "name": "latestRoundIds",
      "outputs": [
        {
          "internalType": "uint80",
          "name": "",
          "type": "uint80"
        }
      ],
      "stateMutability": "view",
      "type": "function"
    },
    {
      "inputs": [],
      "name": "owner",
      "outputs": [
        {
          "internalType": "address",
          "name": "",
          "type": "address"
        }
      ],
      "stateMutability": "view",
      "type": "function"
    },
    {
      "inputs": [],
      "name": "primaryMetric",
      "outputs": [
        {
          "internalType": "string",
          "name": "",
          "type": "string"
        }
      ],
      "stateMutability": "view",
      "type": "function"
    },
    {
      "inputs": [],
      "name": "requestAllEnvironmentalData",
      "outputs": [],
      "stateMutability": "nonpayable",
      "type": "function"
    },
    {
      "inputs": [
        {
          "internalType": "string",
          "name": "lat",
          "type": "string"
        },
        {
          "internalType": "string",
          "name": "lon",
          "type": "string"
        }
      ],
      "name": "requestCO2Data",
      "outputs": [
        {
          "internalType": "bytes32",
          "name": "requestId",
          "type": "bytes32"
        }
      ],
      "stateMutability": "nonpayable",
      "type": "function"
    },
    {
      "inputs": [
        {
          "internalType": "string",
          "name": "lat",
          "type": "string"
        },
        {
          "internalType": "string",
          "name": "lon",
          "type": "string"
        }
      ],
      "name": "requestForestCoverData",
      "outputs": [
        {
          "internalType": "bytes32",
          "name": "requestId",
          "type": "bytes32"
        }
      ],
      "stateMutability": "nonpayable",
      "type": "function"
    },
    {
      "inputs": [
        {
          "internalType": "string",
          "name": "location",
          "type": "string"
        }
      ],
      "name": "requestPM25Data",
      "outputs": [
        {
          "internalType": "bytes32",
          "name": "requestId",
          "type": "bytes32"
        }
      ],
      "stateMutability": "nonpayable",
      "type": "function"
    },
    {
      "inputs": [
        {
          "internalType": "string",
          "name": "_metric",
          "type": "string"
        }
      ],
      "name": "setPrimaryMetric",
      "outputs": [],
      "stateMutability": "nonpayable",
      "type": "function"
    },
    {
      "inputs": [
        {
          "internalType": "address",
          "name": "to",
          "type": "address"
        }
      ],
      "name": "transferOwnership",
      "outputs": [],
      "stateMutability": "nonpayable",
      "type": "function"
    },
    {
      "inputs": [
        {
          "internalType": "address",
          "name": "_oracle",
          "type": "address"
        },
        {
          "internalType": "bytes32",
          "name": "_jobId",
          "type": "bytes32"
        },
        {
          "internalType": "uint256",
          "name": "_fee",
          "type": "uint256"
        }
      ],
      "name": "updateOracleConfig",
      "outputs": [],
      "stateMutability": "nonpayable",
      "type": "function"
    },
    {
      "inputs": [],
      "name": "version",
      "outputs": [
        {
          "internalType": "uint256",
          "name": "",
          "type": "uint256"
        }
      ],
      "stateMutability": "view",
      "type": "function"
    },
    {
      "inputs": [],
      "name": "withdrawLink",
      "outputs": [],
      "stateMutability": "nonpayable",
      "type": "function"
    }
  ],
  "bytecode": "0x6080806040523461047b576001600455331561043957600680546001600160a01b03191633179055600d5461003390610480565b601f81116103ef575b50600863706d323560e01b01600d55600e5461005790610480565b601f8111610399575b6063600e9081556000527f436861696e6c696e6b20456e7669726f6e6d656e74616c2044617461204f72616000805160206129618339815191525570636c65202d204e4153412f4f70656e415160781b7fbb7b4a454dc3493923482f07822329ed19e8244eff582cc204f8554c3620c3fe556001600f55600280546001600160a01b031990811673779877a7b0d9e8603169ddbd7836e478b46247891790915560088054909116736090149792daaee9d1d568c9f9a6f6b46aa29efd1790557f636139383336366363373331343935376238633031326337326630356165656260095567016345785d8a0000600a556101576104ba565b6104e28152602081014281526002604083019260018452606081019260018452602460405163706d323560e01b8152600b60048201522091518255516001820155019160018060501b039060018060501b039051161660018060501b03198354161782555115156aff0000000000000000000082549160501b16906aff000000000000000000001916179055602460405163706d323560e01b8152600c6004820152206001808060501b03198254161790556102116104ba565b61a4a6815260208101428152600260408301926001845260608101926001845260236040516231b79960e91b8152600b60038201522091518255516001820155019160018060501b039060018060501b039051161660018060501b03198354161782555115156aff0000000000000000000082549160501b16906aff00000000000000000000191617905560236040516231b79960e91b8152600c6003820152206001808060501b03198254161790556102c96104ba565b611ac28152602081014281526002604083019260018452606081019260018452602c6040516b3337b932b9ba2fb1b7bb32b960a11b8152600b600c8201522091518255516001820155019160018060501b039060018060501b039051161660018060501b03198354161782555115156aff0000000000000000000082549160501b16906aff000000000000000000001916179055602c6040516b3337b932b9ba2fb1b7bb32b960a11b8152600c80820152206001808060501b031982541617905560405161247190816104f08239f35b600e600052601f0160051c600080516020612961833981519152017fbb7b4a454dc3493923482f07822329ed19e8244eff582cc204f8554c3620c3ff5b8181106103e35750610060565b600081556001016103d6565b600d600052601f0160051c7fd7b6990105719101dabeb77144f2a3385c8033acd3af97e9423a695e81ad1eb5908101905b81811061042d575061003c565b60008155600101610420565b62461bcd60e51b815260206004820152601860248201527f43616e6e6f7420736574206f776e657220746f207a65726f00000000000000006044820152606490fd5b600080fd5b90600182811c921680156104b0575b602083101461049a57565b634e487b7160e01b600052602260045260246000fd5b91607f169161048f565b60405190608082016001600160401b038111838210176104d957604052565b634e487b7160e01b600052604160045260246000fdfe6080604052600436101561001257600080fd5b60003560e01c806323fb9bc314610197578063313ce5671461019257806331a51c1d1461018d57806354fd4d501461018857806360c0e35f1461018357806361e279171461017e5780637284e4161461017957806379ba5097146101745780638002a7f81461016f57806382984c0c1461016a5780638409c4e6146101655780638da5cb5b146101605780638dc654a21461015b5780639a6fc8f514610156578063b53eeb6f14610151578063bb99b9691461014c578063bf0eca7e14610147578063c8e2457c14610142578063cee6fce01461013d578063d27cd36b14610138578063d4ec83c514610133578063e2eb188e1461012e578063f2fde38b146101295763feaf968c1461012457600080fd5b6113be565b611303565b6112b4565b6111ab565b611103565b61100e565b610f1e565b610ed6565b610e9b565b610e68565b610d88565b610c5d565b610c34565b610b3b565b6109ef565b61096b565b610894565b6107b4565b610622565b6104ab565b61048d565b61034b565b61032f565b610305565b634e487b7160e01b600052604160045260246000fd5b6080810190811067ffffffffffffffff8211176101ce57604052565b61019c565b90601f8019910116810190811067ffffffffffffffff8211176101ce57604052565b81601f8201121561024c5780359067ffffffffffffffff82116101ce576040519261022a601f8401601f1916602001856101d3565b8284526020838301011161024c57816000926020809301838601378301015290565b600080fd5b602060031982011261024c576004359067ffffffffffffffff821161024c5761027c916004016101f5565b90565b60005b8381106102925750506000910152565b8181015183820152602001610282565b906102b56020928281519485920161027f565b0190565b60206102d291816040519382858094519384920161027f565b8101600c81520301902090565b60206102f891816040519382858094519384920161027f565b8101600b81520301902090565b3461024c5760206001600160501b0361032561032036610251565b6102b9565b5416604051908152f35b3461024c57600036600319011261024c57602060405160028152f35b3461024c5760206104826103e660008051602061241c83398151915261047361037336610251565b61037b6119d9565b61042d61038b6009543090611a9d565b9161041f6040519687927f68747470733a2f2f6170692e6f70656e61712e6f72672f76322f6c61746573748b850152783f706172616d657465723d706d3235266c6f636174696f6e3d60381b604085015260598401906102a2565b7f266c696d69743d31266f726465725f62793d6c6173745570646174656426736f81526672743d6465736360c81b602082015260270190565b03601f1981018652856101d3565b61043f846104396114d2565b83611b7b565b61045961044a6114f3565b610452611515565b9083611b7b565b61046a610464611542565b82611b96565b600a5490611bc7565b92839260405191829182611565565b0390a2604051908152f35b3461024c57600036600319011261024c576020600f54604051908152f35b3461024c57600036600319011261024c576104c46119d9565b604060008051602061241c83398151915261059e6103e661059384516104ea86826101d3565b60088152674e657720596f726b60c01b60208201526105076119d9565b6105876105176009543090611a9d565b916105798851958692610573602085016039907f68747470733a2f2f6170692e6f70656e61712e6f72672f76322f6c61746573748152783f706172616d657465723d706d3235266c6f636174696f6e3d60381b60208201520190565b906102a2565b03601f1981018552846101d3565b61043f836104396114d2565b935191829182611565565b0390a26105ba6105ac611594565b6105b46115b9565b906116f7565b506105d46105c6611594565b6105ce6115b9565b906115df565b005b90604060031983011261024c5760043567ffffffffffffffff811161024c5782610602916004016101f5565b916024359067ffffffffffffffff821161024c5761027c916004016101f5565b3461024c5760206104826106c160008051602061241c83398151915261073561070561064d366105d6565b6106589291926119d9565b61041f6106d261066b6009543090611ae7565b94610573604051998a957f68747470733a2f2f6170692e6e6173612e676f762f706c616e65746172792f658e88015273617274682f737461746973746963733f6c6f6e3d60601b604088015260548701906102a2565b64266c61743d60d81b815260050190565b7f26646174653d323032342d30312d3031266170695f6b65793d44454d4f5f4b458152605960f81b602082015260210190565b610711846104396114d2565b61072461071c6114f3565b61045261168f565b61046a61072f611542565b82611bb1565b928392604051918291826116ca565b90600182811c92168015610774575b602083101461075e57565b634e487b7160e01b600052602260045260246000fd5b91607f1691610753565b906020916107978151809281855285808601910161027f565b601f01601f1916010190565b90602061027c92818152019061077e565b3461024c57600036600319011261024c57604051600e54600090816107d882610744565b808552916001811690811561086d5750600114610810575b61080c84610800818603826101d3565b604051918291826107a3565b0390f35b600e81527fbb7b4a454dc3493923482f07822329ed19e8244eff582cc204f8554c3620c3fd939250905b80821061085357509091508101602001610800826107f0565b91926001816020925483858801015201910190929161083a565b60ff191660208087019190915292151560051b8501909201925061080091508390506107f0565b3461024c57600036600319011261024c576007546001600160a01b03163303610917576006546001600160a01b0316600680546001600160a01b03191633179055600780546001600160a01b031916905533906001600160a01b03167f8be0079c531659141344cd1fd0a4f28419497f9722a3daafe3b4186f6b6457e0600080a3005b60405162461bcd60e51b815260206004820152601660248201527526bab9ba10313290383937b837b9b2b21037bbb732b960511b6044820152606490fd5b600435906001600160a01b038216820361024c57565b3461024c57606036600319011261024c577fc9d2a8c28a526d1f330842e83e25eba06aca2ab0fd2db6016ce82b191e0d44b660606109a7610955565b60243590604435906109b76119d9565b60018060a01b031691826001600160601b0360a01b60085416176008558060095581600a5560405192835260208301526040820152a1005b3461024c576020610482610abd60008051602061241c833981519152610b2c610b0d610a1a366105d6565b610a259291926119d9565b61041f610ad3610a386009543090611b31565b94610573604051998a957f68747470733a2f2f706f7765722e6c6172632e6e6173612e676f762f6170692f8e8801527f74656d706f72616c2f6461696c792f706f696e743f706172616d65746572733d60408801527f54324d26636f6d6d756e6974793d5245266c6f6e6769747564653d00000000006060880152607b8701906102a2565b69266c617469747564653d60b01b8152600a0190565b7f2673746172743d323032343031303126656e643d323032343132333126666f7281526736b0ba1ea529a7a760c11b602082015260280190565b610b19846104396114d2565b610459610b246114f3565b6104526117b5565b928392604051918291826117f0565b3461024c57610b4936610251565b610b516119d9565b805167ffffffffffffffff81116101ce57610b7681610b71600d54610744565b611814565b602091601f8211600114610bb657610ba69260009183610bab575b50508160011b916000199060031b1c19161790565b600d55005b015190503880610b91565b600d600052601f198216927fd7b6990105719101dabeb77144f2a3385c8033acd3af97e9423a695e81ad1eb59160005b858110610c1c57508360019510610c03575b505050811b01600d55005b015160001960f88460031b161c19169055388080610bf8565b91926020600181928685015181550194019201610be6565b3461024c57600036600319011261024c576006546040516001600160a01b039091168152602090f35b3461024c57600036600319011261024c57610c766119d9565b600254610c9b90610c8f9081906001600160a01b031681565b6001600160a01b031690565b6040516370a0823160e01b8152306004820152602081602481855afa908115610d4557600092602092610cfa928591610d4a575b5060405163a9059cbb60e01b8152336004820152602481019190915293849283919082906044820190565b03925af18015610d45576105d491600091610d16575b5061189a565b610d38915060203d602011610d3e575b610d3081836101d3565b810190611882565b38610d10565b503d610d26565b611876565b610d6a9150843d8611610d70575b610d6281836101d3565b810190611867565b38610ccf565b503d610d58565b6001600160501b0381160361024c57565b3461024c57602036600319011261024c57610da4600435610d77565b604051633fabe5a360e21b815260a081600481305afa8015610d455760009081928283918493610dfc575b50604080516001600160501b0395861681526020810196909652850152606084015216608082015260a090f35b93945050505060a0813d60a011610e60575b81610e1b60a093836101d3565b81010312610e5c5761080c815191610e3283610d77565b602081015192604082015194506080606083015192015190610e5382610d77565b93949092610dcf565b5080fd5b3d9150610e0e565b3461024c57600036600319011261024c576020602460405163706d323560e01b8152600b60048201522054604051908152f35b3461024c57600036600319011261024c576020602c6040516b3337b932b9ba2fb1b7bb32b960a11b8152600b600c8201522054604051908152f35b3461024c57600036600319011261024c57602060236040516231b79960e91b8152600b60038201522054604051908152f35b604090600319011261024c576004359060243590565b3461024c576110037f23e1e26674f6f3df31feea85c7ab64870fef7ee842de7a298e7506d69eae139f610f5036610f08565b816000949294526005602052610f7460018060a01b036040600020541633146118db565b83600052600560205260406000206001600160601b0360a01b8154169055837f7cc135e0cebb02c3480ae5d74d377283180a2601f8f644edf7987b009316c63a600080a2604090610fe1818351610fcb85826101d3565b6004815263706d323560e01b6020820152611c5d565b815192828493845283016040906004815263706d323560e01b60208201520190565b9060208301520390a2005b3461024c576110037f23e1e26674f6f3df31feea85c7ab64870fef7ee842de7a298e7506d69eae139f61104036610f08565b81600094929452600560205261106460018060a01b036040600020541633146118db565b83600052600560205260406000206001600160601b0360a01b8154169055837f7cc135e0cebb02c3480ae5d74d377283180a2601f8f644edf7987b009316c63a600080a26040906110d98183516110bb85826101d3565b600c81526b3337b932b9ba2fb1b7bb32b960a11b6020820152611c5d565b81519282849384528301604090600c81526b3337b932b9ba2fb1b7bb32b960a11b60208201520190565b3461024c57600036600319011261024c57604051600d546000908161112782610744565b808552916001811690811561086d575060011461114e5761080c84610800818603826101d3565b600d81527fd7b6990105719101dabeb77144f2a3385c8033acd3af97e9423a695e81ad1eb5939250905b80821061119157509091508101602001610800826107f0565b919260018160209254838588010152019101909291611178565b3461024c576111b936610f08565b8160005260056020526111da60018060a01b036040600020541633146118db565b81600052600560205260406000206001600160601b0360a01b8154169055817f7cc135e0cebb02c3480ae5d74d377283180a2601f8f644edf7987b009316c63a600080a26105db1981019081136001166112af57600a90058061a4a6019081126001166112af576110037f23e1e26674f6f3df31feea85c7ab64870fef7ee842de7a298e7506d69eae139f9160409061128e81835161127985826101d3565b600381526231b79960e91b6020820152611c5d565b81519283928084528301604090600381526231b79960e91b60208201520190565b611938565b3461024c5760806112cc6112c736610251565b6102df565b60ff815491600260018201549101549060405193845260208401526001600160501b038116604084015260501c1615156060820152f35b3461024c57602036600319011261024c5761131c610955565b6113246119d9565b6001600160a01b031633811461137957600780546001600160a01b031916821790556006546001600160a01b03167fed8889f560326eb138920d842192f0eb3dd22b4f139c87a2c57538e05bae1278600080a3005b60405162461bcd60e51b815260206004820152601760248201527f43616e6e6f74207472616e7366657220746f2073656c660000000000000000006044820152606490fd5b3461024c57600036600319011261024c57604051600090600d546113e181610744565b90600181169081156114bc5750600114611468575b5060208183600b61140b95520301902061194e565b61142061141b6060830151151590565b61198d565b60408101516001600160501b03168151602092830151604080516001600160501b0394909416808552948401929092529082018190526060820152608081019190915260a090f35b9150600d6000527fd7b6990105719101dabeb77144f2a3385c8033acd3af97e9423a695e81ad1eb56000905b8382106114a85750509081019060206113f6565b600181602092548486015201910190611494565b60ff1916835250801515028101915060206113f6565b604051906114e16040836101d3565b600382526219d95d60ea1b6020830152565b604051906115026040836101d3565b60048252630e0c2e8d60e31b6020830152565b604051906115246040836101d3565b600f82526e726573756c74732c302c76616c756560881b6020830152565b604051906115516040836101d3565b600582526474696d657360d81b6020830152565b604080825260049082015263706d323560e01b606082015261027c91608082015b91602081840391015261077e565b604051906115a36040836101d3565b6007825266068605c6e6264760cb1b6020830152565b604051906115c86040836101d3565b600882526702d37342e303036360c41b6020830152565b60008051602061241c833981519152610735602092610705611689956116036119d9565b61041f6106d26116166009543090611ae7565b94610573604051998a957f68747470733a2f2f6170692e6e6173612e676f762f706c616e65746172792f658288015273617274682f737461746973746963733f6c6f6e3d60601b604088015261167660548801918281519485920161027f565b0160059064266c61743d60d81b81520190565b0390a290565b6040519061169e6040836101d3565b601b82527f737461746973746963732c76656765746174696f6e5f696e64657800000000006020830152565b6040808252600c908201526b3337b932b9ba2fb1b7bb32b960a11b606082015261027c9160808201611586565b60008051602061241c833981519152610b2c610abd92610b0d6116899561171c6119d9565b61041f610ad361172f6009543090611b31565b94610573604051998a957f68747470733a2f2f706f7765722e6c6172632e6e6173612e676f762f6170692f60208801527f74656d706f72616c2f6461696c792f706f696e743f706172616d65746572733d60408801527f54324d26636f6d6d756e6974793d5245266c6f6e6769747564653d00000000006060880152607b8701906102a2565b604051906117c46040836101d3565b601882527f70726f706572746965732c706172616d657465722c54324d00000000000000006020830152565b60408082526003908201526231b79960e91b606082015261027c9160808201611586565b601f8111611820575050565b600d6000526020600020906020601f840160051c8301931061185d575b601f0160051c01905b818110611851575050565b60008155600101611846565b909150819061183d565b9081602091031261024c575190565b6040513d6000823e3d90fd5b9081602091031261024c5751801515810361024c5790565b156118a157565b60405162461bcd60e51b81526020600482015260126024820152712ab730b13632903a37903a3930b739b332b960711b6044820152606490fd5b156118e257565b60405162461bcd60e51b815260206004820152602860248201527f536f75726365206d75737420626520746865206f7261636c65206f6620746865604482015267081c995c5d595cdd60c21b6064820152608490fd5b634e487b7160e01b600052601160045260246000fd5b9060405161195b816101b2565b606060ff60028395805485526001810154602086015201546001600160501b038116604085015260501c161515910152565b1561199457565b60405162461bcd60e51b815260206004820152601760248201527f4e6f2076616c6964206461746120617661696c61626c650000000000000000006044820152606490fd5b6006546001600160a01b031633036119ed57565b60405162461bcd60e51b815260206004820152601660248201527527b7363c9031b0b63630b1363290313c9037bbb732b960511b6044820152606490fd5b604051906040820182811067ffffffffffffffff8211176101ce576040526000602083606081520152565b6040519060a0820182811067ffffffffffffffff8211176101ce5760405281600081526000602082015260006040820152600060608201526080611a98611a2b565b910152565b90611aa6611a56565b50611aaf611a56565b91611ab8611a56565b50611ac66080840151611e25565b5082526001600160a01b03166020820152633238915f60e21b604082015290565b90611af0611a56565b50611af9611a56565b91611b02611a56565b50611b106080840151611e25565b5082526001600160a01b0316602082015263067737e760e51b604082015290565b90611b3a611a56565b50611b43611a56565b91611b4c611a56565b50611b5a6080840151611e25565b5082526001600160a01b0316602082015263d4ec83c560e01b604082015290565b6080018051611b949392611b8e91611d2d565b51611d2d565b565b611b9491611bab608060649301918251611d2d565b51611e93565b611b9491611bab60806127109301918251611d2d565b6003546004546001810193916001600160a01b03168482116112af5761027c94600455611c58845161041f608063ffffffff60e01b604089015116970151516040519788936320214ca360e11b60208601526000602486015260006044860152606485015230608485015260a48401528560c4840152600160e484015261010061010484015261012483019061077e565b612090565b9060016001600160501b03611c71846102b9565b541601906001600160501b0382116112af57611b9492611d129160405190611c98826101b2565b815260208101428152611cf46001600160501b03600260408501948289168652606081019460018652611cca886102df565b915182555160018201550193511683906001600160501b03166001600160501b0319825416179055565b51815460ff60501b191690151560501b60ff60501b161790556102b9565b906001600160501b03166001600160501b0319825416179055565b8151611d6e92919067ffffffffffffffff1660178111611d7157611d6890611d6290611d5b60605b60ff1690565b1760ff1690565b8261219e565b50611f3a565b50565b60ff8111611d9357611d6890611d8c601860605b178461219e565b508261236c565b61ffff8111611db357611d6890611dac60196060611d85565b50826122fa565b63ffffffff8111611dd557611d6890611dce601a6060611d85565b5082612286565b611d6890611de5601b6060611d85565b508261220a565b90602082018092116112af57565b919082018092116112af57565b601f198101919082116112af57565b6000198101919082116112af57565b611e2d611a2b565b506101006020820152610120604051808352600081520160405290565b90611e53611a2b565b50601f811680611e79575b50806020830152604051808352600081520160200160405290565b602003602081116112af5781018091116112af5738611e5e565b9067ffffffffffffffff811660178111611ec15750611d6e9190611ebb90611d5b6000611d55565b9061219e565b905060ff8111611ee457611d6e91611ede601860005b178261219e565b5061236c565b61ffff8111611f0357611d6e91611efd60196000611ed7565b506122fa565b63ffffffff8111611f2457611d6e91611f1e601a6000611ed7565b50612286565b611d6e91611f34601b6000611ed7565b5061220a565b90611f43611a2b565b5081515190805190611f53611a2b565b50611f6181518311156123dd565b611f6b8284611dfa565b6020850151809111611fe9575b5060209084518051908386820101958501918211611fe1575b505001905b6020811015611fbb57600019906020036101000a019081199051169082511617905290565b9091611fd6611fd0611fdc9285518152611dec565b93611dec565b91611e07565b611f96565b523880611f91565b61200861200361200e92611ffd8787611dfa565b906123fa565b6123e4565b8561240a565b38611f78565b61027c939260609260018060a01b031682526020820152816040820152019061077e565b1561203f57565b60405162461bcd60e51b815260206004820152602360248201527f756e61626c6520746f207472616e73666572416e6443616c6c20746f206f7261604482015262636c6560e81b6064820152608490fd5b6040516bffffffffffffffffffffffff193060601b166020808301918252603480840195909552938252939594612163949092916120cf6054826101d3565b5190209561210a826120eb896000526005602052604060002090565b80546001600160a01b0319166001600160a01b03909216919091179055565b60006040518096819582948b7fb5e6e01e79f91267dc17b4e6314d5d4d03593d2ceee0fbb452b750bd70ea5af98680a260025461214f906001600160a01b0316610c8f565b630200057560e51b85529660048501612014565b03925af18015610d4557611b949160009161217f575b50612038565b612198915060203d602011610d3e57610d3081836101d3565b38612179565b906121a7611a2b565b508151516121b3611a2b565b506020830151808210156121e4575b50825191825191829160208286010153146121dc57505090565b600101905290565b6121f0612203916123e4565b6121fc85519186611e4a565b5084611f3a565b50386121c2565b90612213611a2b565b5081515190612220611a2b565b5081600801806008116112af5760208401518111612273575b5061224c68010000000000000000611e16565b835191600884840101911982511617905260088151920191821161226f57505090565b5290565b6121f061227f916123e4565b5038612239565b9061228f611a2b565b508151519061229c611a2b565b5081600401806004116112af57602084015181116122e7575b506122c4640100000000611e16565b835191600484840101911982511617905260048151920191821161226f57505090565b6121f06122f3916123e4565b50386122b5565b90612303611a2b565b5081515190612310611a2b565b5081600201806002116112af5760208401518111612359575b5061233662010000611e16565b835191600284840101911982511617905260028151920191821161226f57505090565b6121f0612365916123e4565b5038612329565b90612375611a2b565b5081515190612382611a2b565b5081600101806001116112af57602084015181116123ca575b506123a7610100611e16565b835191600184840101911982511617905260018151920191821161226f57505090565b6121f06123d6916123e4565b503861239b565b1561024c57565b908160011b91808304600214901517156112af57565b818111612405575090565b905090565b90611d6e91611d6881519282611e4a56fea38a5d9c7b6ae32e559e7eac95fb1638e6061f8748b1d8424bb32fa223ed1b0da26469706673582212207ef624b0566e48be605ef71ae91ea01b097f7f5692fe4e74ecbf09b535643f2d64736f6c634300081c0033bb7b4a454dc3493923482f07822329ed19e8244eff582cc204f8554c3620c3fd",
  "linkReferences": {},
  "deployedLinkReferences": {}
}