{
  "_format": "hh-sol-artifact-1",
  "contractName": "CivicXChainGovernance",
  "sourceName": "contracts/CivicXChainGovernance.sol",
  "abi": [
    {
      "inputs": [
        {
          "internalType": "address",
          "name": "_pm25Feed",
          "type": "address"
        },
        {
          "internalType": "address",
          "name": "_aqiFeed",
          "type": "address"
        },
        {
          "internalType": "address",
          "name": "_forestCoverFeed",
          "type": "address"
        }
      ],
      "stateMutability": "nonpayable",
      "type": "constructor"
    },
    {
      "anonymous": false,
      "inputs": [
        {
          "indexed": true,
          "internalType": "address",
          "name": "owner",
          "type": "address"
        },
        {
          "indexed": true,
          "internalType": "address",
          "name": "spender",
          "type": "address"
        },
        {
          "indexed": false,
          "internalType": "uint256",
          "name": "value",
          "type": "uint256"
        }
      ],
      "name": "Approval",
      "type": "event"
    },
    {
      "anonymous": false,
      "inputs": [
        {
          "indexed": true,
          "internalType": "uint256",
          "name": "commitmentId",
          "type": "uint256"
        },
        {
          "indexed": true,
          "internalType": "address",
          "name": "official",
          "type": "address"
        },
        {
          "indexed": false,
          "internalType": "uint256",
          "name": "refundAmount",
          "type": "uint256"
        }
      ],
      "name": "CommitmentCancelled",
      "type": "event"
    },
    {
      "anonymous": false,
      "inputs": [
        {
          "indexed": true,
          "internalType": "uint256",
          "name": "commitmentId",
          "type": "uint256"
        },
        {
          "indexed": true,
          "internalType": "address",
          "name": "official",
          "type": "address"
        },
        {
          "indexed": false,
          "internalType": "string",
          "name": "title",
          "type": "string"
        }
      ],
      "name": "CommitmentCreated",
      "type": "event"
    },
    {
      "anonymous": false,
      "inputs": [
        {
          "indexed": true,
          "internalType": "uint256",
          "name": "commitmentId",
          "type": "uint256"
        },
        {
          "indexed": false,
          "internalType": "uint256",
          "name": "actualValue",
          "type": "uint256"
        },
        {
          "indexed": false,
          "internalType": "uint256",
          "name": "tokensRewarded",
          "type": "uint256"
        }
      ],
      "name": "CommitmentFulfilled",
      "type": "event"
    },
    {
      "anonymous": false,
      "inputs": [
        {
          "indexed": true,
          "internalType": "uint256",
          "name": "commitmentId",
          "type": "uint256"
        },
        {
          "indexed": false,
          "internalType": "uint256",
          "name": "value",
          "type": "uint256"
        },
        {
          "indexed": false,
          "internalType": "uint256",
          "name": "timestamp",
          "type": "uint256"
        }
      ],
      "name": "OracleDataReceived",
      "type": "event"
    },
    {
      "anonymous": false,
      "inputs": [
        {
          "indexed": true,
          "internalType": "address",
          "name": "previousOwner",
          "type": "address"
        },
        {
          "indexed": true,
          "internalType": "address",
          "name": "newOwner",
          "type": "address"
        }
      ],
      "name": "OwnershipTransferred",
      "type": "event"
    },
    {
      "anonymous": false,
      "inputs": [
        {
          "indexed": true,
          "internalType": "uint256",
          "name": "commitmentId",
          "type": "uint256"
        },
        {
          "indexed": true,
          "internalType": "address",
          "name": "official",
          "type": "address"
        },
        {
          "indexed": false,
          "internalType": "uint256",
          "name": "penaltyAmount",
          "type": "uint256"
        }
      ],
      "name": "PenaltyApplied",
      "type": "event"
    },
    {
      "anonymous": false,
      "inputs": [
        {
          "indexed": true,
          "internalType": "uint256",
          "name": "commitmentId",
          "type": "uint256"
        },
        {
          "indexed": true,
          "internalType": "address",
          "name": "official",
          "type": "address"
        },
        {
          "indexed": false,
          "internalType": "uint256",
          "name": "tokenAmount",
          "type": "uint256"
        }
      ],
      "name": "TokensRewarded",
      "type": "event"
    },
    {
      "anonymous": false,
      "inputs": [
        {
          "indexed": true,
          "internalType": "address",
          "name": "from",
          "type": "address"
        },
        {
          "indexed": true,
          "internalType": "address",
          "name": "to",
          "type": "address"
        },
        {
          "indexed": false,
          "internalType": "uint256",
          "name": "value",
          "type": "uint256"
        }
      ],
      "name": "Transfer",
      "type": "event"
    },
    {
      "inputs": [],
      "name": "TOKENS_PER_ETH",
      "outputs": [
        {
          "internalType": "uint256",
          "name": "",
          "type": "uint256"
        }
      ],
      "stateMutability": "view",
      "type": "function"
    },
    {
      "inputs": [
        {
          "internalType": "address",
          "name": "owner",
          "type": "address"
        },
        {
          "internalType": "address",
          "name": "spender",
          "type": "address"
        }
      ],
      "name": "allowance",
      "outputs": [
        {
          "internalType": "uint256",
          "name": "",
          "type": "uint256"
        }
      ],
      "stateMutability": "view",
      "type": "function"
    },
    {
      "inputs": [
        {
          "internalType": "uint256",
          "name": "_commitmentId",
          "type": "uint256"
        }
      ],
      "name": "applyPenalty",
      "outputs": [],
      "stateMutability": "nonpayable",
      "type": "function"
    },
    {
      "inputs": [
        {
          "internalType": "address",
          "name": "spender",
          "type": "address"
        },
        {
          "internalType": "uint256",
          "name": "amount",
          "type": "uint256"
        }
      ],
      "name": "approve",
      "outputs": [
        {
          "internalType": "bool",
          "name": "",
          "type": "bool"
        }
      ],
      "stateMutability": "nonpayable",
      "type": "function"
    },
    {
      "inputs": [
        {
          "internalType": "address",
          "name": "account",
          "type": "address"
        }
      ],
      "name": "balanceOf",
      "outputs": [
        {
          "internalType": "uint256",
          "name": "",
          "type": "uint256"
        }
      ],
      "stateMutability": "view",
      "type": "function"
    },
    {
      "inputs": [
        {
          "internalType": "uint256",
          "name": "_commitmentId",
          "type": "uint256"
        }
      ],
      "name": "cancelCommitment",
      "outputs": [],
      "stateMutability": "nonpayable",
      "type": "function"
    },
    {
      "inputs": [
        {
          "internalType": "uint256",
          "name": "_commitmentId",
          "type": "uint256"
        }
      ],
      "name": "checkFulfillment",
      "outputs": [
        {
          "internalType": "bool",
          "name": "fulfilled",
          "type": "bool"
        },
        {
          "internalType": "uint256",
          "name": "currentValue",
          "type": "uint256"
        },
        {
          "internalType": "uint256",
          "name": "targetValue",
          "type": "uint256"
        }
      ],
      "stateMutability": "view",
      "type": "function"
    },
    {
      "inputs": [
        {
          "internalType": "uint256",
          "name": "_commitmentId",
          "type": "uint256"
        }
      ],
      "name": "claimEnvironmentalReward",
      "outputs": [
        {
          "internalType": "uint256",
          "name": "tokensRewarded",
          "type": "uint256"
        }
      ],
      "stateMutability": "nonpayable",
      "type": "function"
    },
    {
      "inputs": [
        {
          "internalType": "uint256",
          "name": "",
          "type": "uint256"
        }
      ],
      "name": "commitments",
      "outputs": [
        {
          "internalType": "uint256",
          "name": "id",
          "type": "uint256"
        },
        {
          "internalType": "string",
          "name": "title",
          "type": "string"
        },
        {
          "internalType": "string",
          "name": "description",
          "type": "string"
        },
        {
          "internalType": "address",
          "name": "officialAddress",
          "type": "address"
        },
        {
          "internalType": "string",
          "name": "officialName",
          "type": "string"
        },
        {
          "internalType": "string",
          "name": "officialRole",
          "type": "string"
        },
        {
          "internalType": "uint256",
          "name": "targetValue",
          "type": "uint256"
        },
        {
          "internalType": "uint256",
          "name": "deadline",
          "type": "uint256"
        },
        {
          "internalType": "string",
          "name": "metricType",
          "type": "string"
        },
        {
          "internalType": "bool",
          "name": "isActive",
          "type": "bool"
        },
        {
          "internalType": "bool",
          "name": "isFulfilled",
          "type": "bool"
        },
        {
          "internalType": "bool",
          "name": "rewardClaimed",
          "type": "bool"
        },
        {
          "internalType": "uint256",
          "name": "stakeAmount",
          "type": "uint256"
        },
        {
          "internalType": "uint256",
          "name": "tokenReward",
          "type": "uint256"
        },
        {
          "internalType": "bytes32",
          "name": "oracleJobId",
          "type": "bytes32"
        }
      ],
      "stateMutability": "view",
      "type": "function"
    },
    {
      "inputs": [
        {
          "internalType": "string",
          "name": "_title",
          "type": "string"
        },
        {
          "internalType": "string",
          "name": "_description",
          "type": "string"
        },
        {
          "internalType": "string",
          "name": "_officialName",
          "type": "string"
        },
        {
          "internalType": "string",
          "name": "_officialRole",
          "type": "string"
        },
        {
          "internalType": "uint256",
          "name": "_targetValue",
          "type": "uint256"
        },
        {
          "internalType": "uint256",
          "name": "_deadline",
          "type": "uint256"
        },
        {
          "internalType": "string",
          "name": "_metricType",
          "type": "string"
        }
      ],
      "name": "createCommitment",
      "outputs": [],
      "stateMutability": "payable",
      "type": "function"
    },
    {
      "inputs": [],
      "name": "decimals",
      "outputs": [
        {
          "internalType": "uint8",
          "name": "",
          "type": "uint8"
        }
      ],
      "stateMutability": "view",
      "type": "function"
    },
    {
      "inputs": [
        {
          "internalType": "address",
          "name": "spender",
          "type": "address"
        },
        {
          "internalType": "uint256",
          "name": "subtractedValue",
          "type": "uint256"
        }
      ],
      "name": "decreaseAllowance",
      "outputs": [
        {
          "internalType": "bool",
          "name": "",
          "type": "bool"
        }
      ],
      "stateMutability": "nonpayable",
      "type": "function"
    },
    {
      "inputs": [],
      "name": "emergencyWithdraw",
      "outputs": [],
      "stateMutability": "nonpayable",
      "type": "function"
    },
    {
      "inputs": [
        {
          "internalType": "uint256",
          "name": "_commitmentId",
          "type": "uint256"
        }
      ],
      "name": "getCommitment",
      "outputs": [
        {
          "components": [
            {
              "internalType": "uint256",
              "name": "id",
              "type": "uint256"
            },
            {
              "internalType": "string",
              "name": "title",
              "type": "string"
            },
            {
              "internalType": "string",
              "name": "description",
              "type": "string"
            },
            {
              "internalType": "address",
              "name": "officialAddress",
              "type": "address"
            },
            {
              "internalType": "string",
              "name": "officialName",
              "type": "string"
            },
            {
              "internalType": "string",
              "name": "officialRole",
              "type": "string"
            },
            {
              "internalType": "uint256",
              "name": "targetValue",
              "type": "uint256"
            },
            {
              "internalType": "uint256",
              "name": "deadline",
              "type": "uint256"
            },
            {
              "internalType": "string",
              "name": "metricType",
              "type": "string"
            },
            {
              "internalType": "bool",
              "name": "isActive",
              "type": "bool"
            },
            {
              "internalType": "bool",
              "name": "isFulfilled",
              "type": "bool"
            },
            {
              "internalType": "bool",
              "name": "rewardClaimed",
              "type": "bool"
            },
            {
              "internalType": "uint256",
              "name": "stakeAmount",
              "type": "uint256"
            },
            {
              "internalType": "uint256",
              "name": "tokenReward",
              "type": "uint256"
            },
            {
              "internalType": "bytes32",
              "name": "oracleJobId",
              "type": "bytes32"
            }
          ],
          "internalType": "struct CivicXChainGovernance.EnvironmentalCommitment",
          "name": "",
          "type": "tuple"
        }
      ],
      "stateMutability": "view",
      "type": "function"
    },
    {
      "inputs": [
        {
          "internalType": "uint256",
          "name": "_commitmentId",
          "type": "uint256"
        }
      ],
      "name": "getCommitmentTokenReward",
      "outputs": [
        {
          "internalType": "uint256",
          "name": "",
          "type": "uint256"
        }
      ],
      "stateMutability": "view",
      "type": "function"
    },
    {
      "inputs": [],
      "name": "getContractTokenBalance",
      "outputs": [
        {
          "internalType": "uint256",
          "name": "",
          "type": "uint256"
        }
      ],
      "stateMutability": "view",
      "type": "function"
    },
    {
      "inputs": [
        {
          "internalType": "string",
          "name": "_metricType",
          "type": "string"
        }
      ],
      "name": "getCurrentEnvironmentalValue",
      "outputs": [
        {
          "internalType": "uint256",
          "name": "",
          "type": "uint256"
        }
      ],
      "stateMutability": "view",
      "type": "function"
    },
    {
      "inputs": [
        {
          "internalType": "address",
          "name": "_official",
          "type": "address"
        }
      ],
      "name": "getOfficialCommitments",
      "outputs": [
        {
          "internalType": "uint256[]",
          "name": "",
          "type": "uint256[]"
        }
      ],
      "stateMutability": "view",
      "type": "function"
    },
    {
      "inputs": [
        {
          "internalType": "address",
          "name": "_account",
          "type": "address"
        }
      ],
      "name": "getTokenBalance",
      "outputs": [
        {
          "internalType": "uint256",
          "name": "",
          "type": "uint256"
        }
      ],
      "stateMutability": "view",
      "type": "function"
    },
    {
      "inputs": [],
      "name": "getTotalStaked",
      "outputs": [
        {
          "internalType": "uint256",
          "name": "",
          "type": "uint256"
        }
      ],
      "stateMutability": "view",
      "type": "function"
    },
    {
      "inputs": [
        {
          "internalType": "address",
          "name": "spender",
          "type": "address"
        },
        {
          "internalType": "uint256",
          "name": "addedValue",
          "type": "uint256"
        }
      ],
      "name": "increaseAllowance",
      "outputs": [
        {
          "internalType": "bool",
          "name": "",
          "type": "bool"
        }
      ],
      "stateMutability": "nonpayable",
      "type": "function"
    },
    {
      "inputs": [
        {
          "internalType": "uint256",
          "name": "_amount",
          "type": "uint256"
        }
      ],
      "name": "mintRewardTokens",
      "outputs": [],
      "stateMutability": "nonpayable",
      "type": "function"
    },
    {
      "inputs": [],
      "name": "name",
      "outputs": [
        {
          "internalType": "string",
          "name": "",
          "type": "string"
        }
      ],
      "stateMutability": "view",
      "type": "function"
    },
    {
      "inputs": [],
      "name": "nextCommitmentId",
      "outputs": [
        {
          "internalType": "uint256",
          "name": "",
          "type": "uint256"
        }
      ],
      "stateMutability": "view",
      "type": "function"
    },
    {
      "inputs": [
        {
          "internalType": "address",
          "name": "",
          "type": "address"
        },
        {
          "internalType": "uint256",
          "name": "",
          "type": "uint256"
        }
      ],
      "name": "officialCommitments",
      "outputs": [
        {
          "internalType": "uint256",
          "name": "",
          "type": "uint256"
        }
      ],
      "stateMutability": "view",
      "type": "function"
    },
    {
      "inputs": [
        {
          "internalType": "uint256",
          "name": "",
          "type": "uint256"
        }
      ],
      "name": "oracleData",
      "outputs": [
        {
          "internalType": "uint256",
          "name": "value",
          "type": "uint256"
        },
        {
          "internalType": "uint256",
          "name": "timestamp",
          "type": "uint256"
        },
        {
          "internalType": "bool",
          "name": "verified",
          "type": "bool"
        }
      ],
      "stateMutability": "view",
      "type": "function"
    },
    {
      "inputs": [],
      "name": "owner",
      "outputs": [
        {
          "internalType": "address",
          "name": "",
          "type": "address"
        }
      ],
      "stateMutability": "view",
      "type": "function"
    },
    {
      "inputs": [],
      "name": "renounceOwnership",
      "outputs": [],
      "stateMutability": "nonpayable",
      "type": "function"
    },
    {
      "inputs": [],
      "name": "symbol",
      "outputs": [
        {
          "internalType": "string",
          "name": "",
          "type": "string"
        }
      ],
      "stateMutability": "view",
      "type": "function"
    },
    {
      "inputs": [],
      "name": "totalStaked",
      "outputs": [
        {
          "internalType": "uint256",
          "name": "",
          "type": "uint256"
        }
      ],
      "stateMutability": "view",
      "type": "function"
    },
    {
      "inputs": [],
      "name": "totalSupply",
      "outputs": [
        {
          "internalType": "uint256",
          "name": "",
          "type": "uint256"
        }
      ],
      "stateMutability": "view",
      "type": "function"
    },
    {
      "inputs": [
        {
          "internalType": "address",
          "name": "to",
          "type": "address"
        },
        {
          "internalType": "uint256",
          "name": "amount",
          "type": "uint256"
        }
      ],
      "name": "transfer",
      "outputs": [
        {
          "internalType": "bool",
          "name": "",
          "type": "bool"
        }
      ],
      "stateMutability": "nonpayable",
      "type": "function"
    },
    {
      "inputs": [
        {
          "internalType": "address",
          "name": "from",
          "type": "address"
        },
        {
          "internalType": "address",
          "name": "to",
          "type": "address"
        },
        {
          "internalType": "uint256",
          "name": "amount",
          "type": "uint256"
        }
      ],
      "name": "transferFrom",
      "outputs": [
        {
          "internalType": "bool",
          "name": "",
          "type": "bool"
        }
      ],
      "stateMutability": "nonpayable",
      "type": "function"
    },
    {
      "inputs": [
        {
          "internalType": "address",
          "name": "newOwner",
          "type": "address"
        }
      ],
      "name": "transferOwnership",
      "outputs": [],
      "stateMutability": "nonpayable",
      "type": "function"
    }
  ],
  "bytecode": "0x6080604052346104d657612df96060813803918261001c816104db565b9384928339810103126104d65761003281610500565b61004a604061004360208501610500565b9301610500565b61005460406104db565b92601f84527f436976696358436861696e20456e7669726f6e6d656e74616c20546f6b656e00602085015261008960406104db565b6005815264434956494360d81b6020820152845190946001600160401b0382116103d35760035490600182811c921680156104cc575b60208310146103b35781601f84931161045c575b50602090601f83116001146103f4576000926103e9575b50508160011b916000199060031b1c1916176003555b83516001600160401b0381116103d357600454600181811c911680156103c9575b60208210146103b357601f811161034e575b50602094601f82116001146102e7579481929394956000926102dc575b50508160011b916000199060031b1c1916176004555b60058054336001600160a01b0319821681179092556040519491906001600160a01b03167f8be0079c531659141344cd1fd0a4f28419497f9722a3daafe3b4186f6b6457e0600080a360016006819055600d556000600e55600780546001600160a01b03199081166001600160a01b039384161790915560088054821693831693909317909255600980549092169216919091179055301561029a576002546a52b7d2dcc80cd2e400000081018091116102845760025530600052600060205260406000206a52b7d2dcc80cd2e400000081540190556040516a52b7d2dcc80cd2e4000000815260007fddf252ad1be2c89b69c2b068fc378daa952ba7f163c4a11628f55a4df523b3ef60203093a36040516128e490816105158239f35b634e487b7160e01b600052601160045260246000fd5b62461bcd60e51b815260206004820152601f60248201527f45524332303a206d696e7420746f20746865207a65726f2061646472657373006044820152606490fd5b015190503880610150565b601f198216956004600052806000209160005b8881106103365750836001959697981061031d575b505050811b01600455610166565b015160001960f88460031b161c1916905538808061030f565b919260206001819286850151815501940192016102fa565b60046000527f8a35acfbc15ff81a39ae7d344fd709f28e8600b4aa8c65c6b64bfe7fe36bd19b601f830160051c810191602084106103a9575b601f0160051c01905b81811061039d5750610133565b60008155600101610390565b9091508190610387565b634e487b7160e01b600052602260045260246000fd5b90607f1690610121565b634e487b7160e01b600052604160045260246000fd5b0151905038806100ea565b600360009081528281209350601f198516905b818110610444575090846001959493921061042b575b505050811b01600355610100565b015160001960f88460031b161c1916905538808061041d565b92936020600181928786015181550195019301610407565b60036000529091507fc2575a0e9e593c00f959f8c92f12db2869c3395a3b0502d05e2516446f71f85b601f840160051c810191602085106104c2575b90601f859493920160051c01905b8181106104b357506100d3565b600081558493506001016104a6565b9091508190610498565b91607f16916100bf565b600080fd5b6040519190601f01601f191682016001600160401b038111838210176103d357604052565b51906001600160a01b03821682036104d65756fe6080604052600436101561001257600080fd5b60003560e01c806306fdde03146120555780630917e77614611446578063095ea7b31461202f5780630a5d264a14611e4b5780630e9cf0ba14611e1c57806318160ddd14611dfe57806323b872dd14611d40578063313ce56714611d24578063317d945314611cfd578063347020af146119f457806334b4117d1461193a57806339509351146118e85780633aecd0e3146114c157806349ce8997146117a05780635ac48e6d1461178257806369bcdb7d146114fa57806370a08231146114c1578063715018a614611464578063817b1cd214611446578063840a1ff4146111df5780638da5cb5b146111b657806390bb9a291461115d57806395d89b4114611078578063a457c2d714610fd1578063a9059cbb14610fa0578063aa4dea0014610f58578063b3e14b3114610e9e578063bc6e660414610e81578063d37a06f714610cfd578063db2e21bc14610c80578063dd62ed3e14610c2f578063e8d1077714610bed578063f2fde38b14610b255763f40219c01461019257600080fd5b60e0366003190112610b20576004356001600160401b038111610b20576101bd9036906004016122b3565b6024356001600160401b038111610b20576101dc9036906004016122b3565b906044356001600160401b038111610b20576101fc9036906004016122b3565b916064356001600160401b038111610b205761021c9036906004016122b3565b60a4359160c4356001600160401b038111610b205761023f9036906004016122b3565b9442841115610adb573415610a9e57600d549360001985146109fe5760018501600d556103e83402913483046103e8036109fe576064885160208a0190812061028661238b565b6020815191012014600014610a145750506096925b6103e8843402029381850414901517156109fe578593604051956102be876121a4565b85875260208701938985526040880192835260608801913383526080890194855260a0890190815260c0890190608435825260e08a019283526101008a019c8d526101208a0195600187526101408b0194600086526101608c0196600088526101808d0199348b528d6101a081019c606490048d526101c0019c60008e52600052600a6020526040600020809e51815560010190518051906001600160401b038211610619578190610370845461216a565b601f81116109ab575b50602090601f83116001146109465760009261093b575b50508160011b916000199060031b1c19161790555b51805160028e01916001600160401b0382116106195781906103c7845461216a565b601f81116108e8575b50602090601f831160011461088357600092610878575b50508160011b916000199060031b1c19161790555b5160038c0180546001600160a01b0319166001600160a01b039290921691909117905551805160048c01916001600160401b038211610619578190610441845461216a565b601f8111610825575b50602090601f83116001146107c0576000926107b5575b50508160011b916000199060031b1c19161790555b51805160058b01916001600160401b038211610619578190610498845461216a565b601f8111610762575b50602090601f83116001146106fd576000926106f2575b50508160011b916000199060031b1c19161790555b516006890155516007880155600887019951998a516001600160401b038111610619576104fa825461216a565b601f81116106aa575b506020601f821160011461063a578190600c9a9b9c9d60009261062f575b50508160011b916000199060031b1c19161790555b600988019251151560ff8019855416911617835551151561ff0083549160081b169061ff00191617825551151562ff000082549160101b169062ff0000191617905551600a85015551600b8401555191015561059434600e5461237e565b600e5533600052600c6020526040600020805468010000000000000000811015610619576105c791600182018155612285565b81549060031b9083821b91600019901b19161790557ffa99a653c4373b4e353c68118639a54b493260f42326788c4cbcc6742d56ac286040516020815280610614339560208301906120fd565b0390a3005b634e487b7160e01b600052604160045260246000fd5b015190503880610521565b601f1982169c83600052816000209d60005b81811061068d575091600c9b9c9d9e91846001959410610674575b505050811b019055610536565b015160001960f88460031b161c19169055388080610667565b919e8f60016020928684930151815501940192019e91929e61064c565b826000526020600020601f830160051c810191602084106106e8575b601f0160051c01905b8181106106dc5750610503565b600081556001016106cf565b90915081906106c6565b0151905038806104b8565b60008581528281209350601f198516905b81811061074a5750908460019594939210610731575b505050811b0190556104cd565b015160001960f88460031b161c19169055388080610724565b9293602060018192878601518155019501930161070e565b909150836000526020600020601f840160051c810191602085106107ab575b90601f859493920160051c01905b81811061079c57506104a1565b6000815584935060010161078f565b9091508190610781565b015190503880610461565b60008581528281209350601f198516905b81811061080d57509084600195949392106107f4575b505050811b019055610476565b015160001960f88460031b161c191690553880806107e7565b929360206001819287860151815501950193016107d1565b909150836000526020600020601f840160051c8101916020851061086e575b90601f859493920160051c01905b81811061085f575061044a565b60008155849350600101610852565b9091508190610844565b0151905038806103e7565b60008581528281209350601f198516905b8181106108d057509084600195949392106108b7575b505050811b0190556103fc565b015160001960f88460031b161c191690553880806108aa565b92936020600181928786015181550195019301610894565b909150836000526020600020601f840160051c81019160208510610931575b90601f859493920160051c01905b81811061092257506103d0565b60008155849350600101610915565b9091508190610907565b015190503880610390565b60008581528281209350601f198516905b818110610993575090846001959493921061097a575b505050811b0190556103a5565b015160001960f88460031b161c1916905538808061096d565b92936020600181928786015181550195019301610957565b909150836000526020600020601f840160051c810191602085106109f4575b90601f859493920160051c01905b8181106109e55750610379565b600081558493506001016109d8565b90915081906109ca565b634e487b7160e01b600052601160045260246000fd5b89518120610a206123d7565b6020815191012014600014610a3a5750506078925b61029b565b89518120610a466123ad565b6020815191012014600014610a5f57505060829261029b565b89949194519020600d6020604051610a786040826121c0565b828152016c77617465725f7175616c69747960981b81522003610a3557606e935061029b565b60405162461bcd60e51b815260206004820152601560248201527414dd185ad948185b5bdd5b9d081c995c5d5a5c9959605a1b6044820152606490fd5b60405162461bcd60e51b815260206004820152601e60248201527f446561646c696e65206d75737420626520696e207468652066757475726500006044820152606490fd5b600080fd5b34610b20576020366003190112610b2057610b3e61213e565b610b46612856565b6001600160a01b03168015610b9957600580546001600160a01b0319811683179091556001600160a01b03167f8be0079c531659141344cd1fd0a4f28419497f9722a3daafe3b4186f6b6457e0600080a3005b60405162461bcd60e51b815260206004820152602660248201527f4f776e61626c653a206e6577206f776e657220697320746865207a65726f206160448201526564647265737360d01b6064820152608490fd5b34610b20576020366003190112610b20576004356001600160401b038111610b2057610c27610c2260209236906004016122b3565b612444565b604051908152f35b34610b20576040366003190112610b2057610c4861213e565b610c50612154565b6001600160a01b039182166000908152600160209081526040808320949093168252928352819020549051908152f35b34610b20576000366003190112610b2057610c99612856565b600080808060018060a01b03600554164790828215610cf4575bf115610ce85730600052600060205260406000205480610ccf57005b600554610ce691906001600160a01b031630612681565b005b6040513d6000823e3d90fd5b506108fc610cb3565b34610b20576020366003190112610b2057600435600052600a60205260606040600020604051610d2c816121a4565b81548152610d3c600183016121e1565b6020820152610d4d600283016121e1565b604082015260038201546001600160a01b031683820152610d70600483016121e1565b6080820152610d81600583016121e1565b60a0820152610e0960068301549260c08301938452600781015460e0840152610dac600882016121e1565b9261010081019384526101c0600c60098401549360ff80861615159586610120870152818160081c16151561014087015260101c161515610160850152600a810154610180850152600b8101546101a08501520154910152612309565b610e138151612444565b90600090805160208151910120610e2861238b565b6020815191012014600014610e565750508151811115915b5190604051921515835260208301526040820152f35b9290925160208151910120610e696123ad565b6020815191012003610e405780518210159250610e40565b34610b20576000366003190112610b205760206040516103e88152f35b34610b20576020366003190112610b20576001600160a01b03610ebf61213e565b16600052600c60205260406000206040518060208354918281520190819360005260206000209060005b818110610f425750505081610eff9103826121c0565b6040519182916020830190602084525180915260408301919060005b818110610f29575050500390f35b8251845285945060209384019390920191600101610f1b565b8254845260209093019260019283019201610ee9565b34610b20576020366003190112610b2057600435600052600b6020526060604060002080549060ff600260018301549201541690604051928352602083015215156040820152f35b34610b20576040366003190112610b2057610fc6610fbc61213e565b6024359033612681565b602060405160018152f35b34610b20576040366003190112610b2057610fea61213e565b60243590336000526001602052604060002060018060a01b0382166000526020526040600020549180831061102557610fc692039033612579565b60405162461bcd60e51b815260206004820152602560248201527f45524332303a2064656372656173656420616c6c6f77616e63652062656c6f77604482015264207a65726f60d81b6064820152608490fd5b34610b20576000366003190112610b2057604051600060045461109a8161216a565b808452906001811690811561113957506001146110da575b6110d6836110c2818503826121c0565b6040519182916020835260208301906120fd565b0390f35b600460009081527f8a35acfbc15ff81a39ae7d344fd709f28e8600b4aa8c65c6b64bfe7fe36bd19b939250905b80821061111f575090915081016020016110c26110b2565b919260018160209254838588010152019101909291611107565b60ff191660208086019190915291151560051b840190910191506110c290506110b2565b34610b20576040366003190112610b205761117661213e565b6001600160a01b03166000908152600c6020526040902080546024359190821015610b20576020916111a791612285565b90549060031b1c604051908152f35b34610b20576000366003190112610b20576005546040516001600160a01b039091168152602090f35b34610b20576020366003190112610b20576004356111fb612800565b6000818152600a6020526040902060038101546001600160a01b031633036113f657600981019081549161123160ff8416612309565b60ff8360081c166113a65760ff8360101c1661136257600782015442101561131d57600a9260ff19169055015490600a82046112796112708285612371565b93600e54612371565b600e55801580156112ed575b505081801580156112c6575b50506040519182527f75b2b6d713c23c94a2b5123c847c3fc2e015e416842dcdaf9a319c1645d1a61e60203393a36001600655005b6000906112e4575b600080809381933390f115610ce8578183611291565b506108fc6112ce565b6000808093819360018060a01b0360055416908390611314575bf115610ce8578280611285565b506108fc611307565b60405162461bcd60e51b815260206004820152601c60248201527f43616e6e6f742063616e63656c20616674657220646561646c696e65000000006044820152606490fd5b606460405162461bcd60e51b815260206004820152602060248201527f43616e6e6f742063616e63656c20636c61696d656420636f6d6d69746d656e746044820152fd5b60405162461bcd60e51b815260206004820152602260248201527f43616e6e6f742063616e63656c2066756c66696c6c656420636f6d6d69746d656044820152611b9d60f21b6064820152608490fd5b60405162461bcd60e51b815260206004820152602260248201527f4f6e6c7920636f6d6d69746d656e742063726561746f722063616e2063616e63604482015261195b60f21b6064820152608490fd5b34610b20576000366003190112610b20576020600e54604051908152f35b34610b20576000366003190112610b205761147d612856565b600580546001600160a01b031981169091556000906001600160a01b03167f8be0079c531659141344cd1fd0a4f28419497f9722a3daafe3b4186f6b6457e08280a3005b34610b20576020366003190112610b20576020610c276114df61213e565b6001600160a01b031660009081526020819052604090205490565b34610b20576020366003190112610b2057604051611517816121a4565b60008152602081016060905260408101606090526060810160009052608081016060905260a081016060905260c081016000905260e08101600090526101008101606090526101208101600090526101408101600090526101608101600090526101808101600090526101a08101600090526101c00160009052600435600052600a6020526040600020604051906115ae826121a4565b805482526115be600182016121e1565b60208301908152906115d2600282016121e1565b6040840190815260038201546001600160a01b031660608501908152909390916115fe600482016121e1565b60808301908152611611600583016121e1565b60a08401908152600683015460c08501908152600784015460e0860190815291959061163f600886016121e1565b610100870190815260098601549361012088019860ff861615158a526101408901948660081c60ff16151586526101608a019660101c60ff1615158752600a890154976101808b01988952600b8a0154996101a08c019a8b52600c01549a6101c081019b8c526040519e8f9e8f926020845251602084015251604083016101e0905261020083016116cf916120fd565b9051828203601f190160608401526116e791906120fd565b92516001600160a01b0316608090910152518c8203601f190160a08e015261170f91906120fd565b90518b8203601f190160c08d015261172791906120fd565b925160e08b0152516101008a015251888203601f19016101208a015261174d91906120fd565b95511515610140880152511515610160870152511515610180860152516101a0850152516101c0840152516101e08301520390f35b34610b20576000366003190112610b20576020600d54604051908152f35b34610b20576020366003190112610b2057600435600052600a60205260406000208054600182016117d0906121e1565b916117dd600282016121e1565b60038201546001600160a01b0316916117f8600482016121e1565b92611805600583016121e1565b6006830154600784015461181b600886016121e1565b92600986015497600a87015495600b88015497600c0154986040519c8d9c8d5260208d016101e090526101e08d01611852916120fd565b8c810360408e0152611863916120fd565b9060608c01528a810360808c015261187a916120fd565b89810360a08b015261188b916120fd565b9160c089015260e08801528681036101008801526118a8916120fd565b9360ff811615156101208701528060081c60ff16151561014087015260101c60ff1615156101608601526101808501526101a08401526101c08301520390f35b34610b20576040366003190112610b2057610fc661190461213e565b336000526001602052604060002060018060a01b0382166000526020526119336040600020602435905461237e565b9033612579565b34610b20576020366003190112610b2057600435611956612856565b30156119af576119688160025461237e565b600255306000526000602052604060002081815401905560405190815260007fddf252ad1be2c89b69c2b068fc378daa952ba7f163c4a11628f55a4df523b3ef60203093a3005b60405162461bcd60e51b815260206004820152601f60248201527f45524332303a206d696e7420746f20746865207a65726f2061646472657373006044820152606490fd5b34610b20576020366003190112610b2057600435611a10612800565b6000818152600a6020526040902060038101546001600160a01b03163303611cae576009810191825492611a4660ff8516612309565b60ff8460101c16611c705760078301544211611c395760405163d37a06f760e01b81526004810183905293606085602481305afa948515610ce857600090600096611c04575b5015611bb557620101009062ffff001916179055600b820154913060005260006020528260406000205410611b705760008080600a8194611ace883330612681565b0154611ae9611ae08260011c8361237e565b91600e54612371565b600e55818115611b67575b3390f115610ce857807f3c1ead90ebeb138d3eed6ab98affff3433e55aad723cca4ab05fa013058dde9b604060209581519081528587820152a2604051908282527fe12dc4982e9ff7f16f500e9990ecce72dc1af0aca6ae3a5cf8793cddf6d5eb8d843393a36001600655604051908152f35b506108fc611af4565b60405162461bcd60e51b815260206004820152601b60248201527f496e73756666696369656e7420746f6b656e20726573657276657300000000006044820152606490fd5b60405162461bcd60e51b815260206004820152602160248201527f456e7669726f6e6d656e74616c20746172676574206e6f7420616368696576656044820152601960fa1b6064820152608490fd5b9050611c2991955060603d606011611c32575b611c2181836121c0565b81019061234d565b50949086611a8c565b503d611c17565b60405162461bcd60e51b815260206004820152600f60248201526e111958591b1a5b99481c185cdcd959608a1b6044820152606490fd5b60405162461bcd60e51b815260206004820152601660248201527514995dd85c9908185b1c9958591e4818db185a5b595960521b6044820152606490fd5b60405162461bcd60e51b815260206004820152602160248201527f4f6e6c7920636f6d6d69746d656e742063726561746f722063616e20636c61696044820152606d60f81b6064820152608490fd5b34610b20576000366003190112610b20573060009081526020818152604090912054610c27565b34610b20576000366003190112610b2057602060405160128152f35b34610b20576060366003190112610b2057611d5961213e565b611d61612154565b6001600160a01b0382166000908152600160208181526040808420338552909152909120549260443592918401611d9d575b610fc69350612681565b828410611db957611db483610fc695033383612579565b611d93565b60405162461bcd60e51b815260206004820152601d60248201527f45524332303a20696e73756666696369656e7420616c6c6f77616e63650000006044820152606490fd5b34610b20576000366003190112610b20576020600254604051908152f35b34610b20576020366003190112610b2057600435600052600a6020526020600b60406000200154604051908152f35b34610b20576020366003190112610b205760043580600052600a602052604060002090600982018054611e8060ff8216612309565b6007840154421115611ff45760ff8160081c16611faf5760405163d37a06f760e01b815260048101849052606081602481305afa908115610ce857600091611f8e575b50611f495760ff19169055600a820191611ee08354600e54612371565b600e55600080808060018060a01b0360055416875490828215611f40575bf115610ce85760207fed7a0aea6f0340c8fd7f451ac8b492e2facd06e914d020af7d8f38321f04499a91600360018060a01b03910154169354604051908152a3005b506108fc611efe565b60405162461bcd60e51b815260206004820152601c60248201527f546172676574207761732061637475616c6c79206163686965766564000000006044820152606490fd5b611fa7915060603d606011611c3257611c2181836121c0565b505085611ec3565b60405162461bcd60e51b815260206004820152601c60248201527f436f6d6d69746d656e7420616c72656164792066756c66696c6c6564000000006044820152606490fd5b60405162461bcd60e51b8152602060048201526013602482015272111958591b1a5b99481b9bdd081c185cdcd959606a1b6044820152606490fd5b34610b20576040366003190112610b2057610fc661204b61213e565b6024359033612579565b34610b20576000366003190112610b205760405160006003546120778161216a565b8084529060018116908115611139575060011461209e576110d6836110c2818503826121c0565b600360009081527fc2575a0e9e593c00f959f8c92f12db2869c3395a3b0502d05e2516446f71f85b939250905b8082106120e3575090915081016020016110c26110b2565b9192600181602092548385880101520191019092916120cb565b919082519283825260005b848110612129575050826000602080949584010152601f8019910116010190565b80602080928401015182828601015201612108565b600435906001600160a01b0382168203610b2057565b602435906001600160a01b0382168203610b2057565b90600182811c9216801561219a575b602083101461218457565b634e487b7160e01b600052602260045260246000fd5b91607f1691612179565b6101e081019081106001600160401b0382111761061957604052565b90601f801991011681019081106001600160401b0382111761061957604052565b90604051918260008254926121f58461216a565b8084529360018116908115612263575060011461221c575b5061221a925003836121c0565b565b90506000929192526020600020906000915b81831061224757505090602061221a928201013861220d565b602091935080600191548385890101520191019091849261222e565b90506020925061221a94915060ff191682840152151560051b8201013861220d565b805482101561229d5760005260206000200190600090565b634e487b7160e01b600052603260045260246000fd5b81601f82011215610b20578035906001600160401b03821161061957604051926122e7601f8401601f1916602001856121c0565b82845260208383010111610b2057816000926020809301838601378301015290565b1561231057565b60405162461bcd60e51b8152602060048201526015602482015274436f6d6d69746d656e74206e6f742061637469766560581b6044820152606490fd5b90816060910312610b205780518015158103610b2057916040602083015192015190565b919082039182116109fe57565b919082018092116109fe57565b6040519061239a6040836121c0565b6004825263706d323560e01b6020830152565b604051906123bc6040836121c0565b600c82526b3337b932b9ba2fb1b7bb32b960a11b6020830152565b604051906123e66040836121c0565b600382526261716960e81b6020830152565b519069ffffffffffffffffffff82168203610b2057565b908160a0910312610b2057612423816123f8565b916020820151916040810151916124416080606084015193016123f8565b90565b8051906020810191822061245661238b565b60208151910120146000146124d0575050600754604051633fabe5a360e21b81529060a090829060049082906001600160a01b03165afa908115610ce85760009161249f575090565b6124c1915060a03d60a0116124c9575b6124b981836121c0565b81019061240f565b505050905090565b503d6124af565b805182206124dc6123d7565b6020815191012014600014612525575050600854604051633fabe5a360e21b81529060a090829060049082906001600160a01b03165afa908115610ce85760009161249f575090565b5190206125306123ad565b602081519101201461254157600090565b600954604051633fabe5a360e21b81529060a090829060049082906001600160a01b03165afa908115610ce85760009161249f575090565b6001600160a01b0316908115612630576001600160a01b03169182156125e05760207f8c5be1e5ebec7d5bd14f71427d1e84f3dd0314c0f7b2291e5b200ac8c7c3b925918360005260018252604060002085600052825280604060002055604051908152a3565b60405162461bcd60e51b815260206004820152602260248201527f45524332303a20617070726f766520746f20746865207a65726f206164647265604482015261737360f01b6064820152608490fd5b60405162461bcd60e51b8152602060048201526024808201527f45524332303a20617070726f76652066726f6d20746865207a65726f206164646044820152637265737360e01b6064820152608490fd5b6001600160a01b03169081156127ad576001600160a01b031691821561275c5781600052600060205260406000205481811061270857817fddf252ad1be2c89b69c2b068fc378daa952ba7f163c4a11628f55a4df523b3ef9260209285600052600084520360406000205584600052600082526040600020818154019055604051908152a3565b60405162461bcd60e51b815260206004820152602660248201527f45524332303a207472616e7366657220616d6f756e7420657863656564732062604482015265616c616e636560d01b6064820152608490fd5b60405162461bcd60e51b815260206004820152602360248201527f45524332303a207472616e7366657220746f20746865207a65726f206164647260448201526265737360e81b6064820152608490fd5b60405162461bcd60e51b815260206004820152602560248201527f45524332303a207472616e736665722066726f6d20746865207a65726f206164604482015264647265737360d81b6064820152608490fd5b600260065414612811576002600655565b60405162461bcd60e51b815260206004820152601f60248201527f5265656e7472616e637947756172643a207265656e7472616e742063616c6c006044820152606490fd5b6005546001600160a01b0316330361286a57565b606460405162461bcd60e51b815260206004820152602060248201527f4f776e61626c653a2063616c6c6572206973206e6f7420746865206f776e65726044820152fdfea26469706673582212209b082dc3252e6d4f357616744c6514d9424cbf673672047fba77d437381dbb2764736f6c634300081c0033",
  "linkReferences": {},
  "deployedLinkReferences": {}
}