{
  "_format": "hh-sol-artifact-1",
  "contractName": "CivicXChainGovernance",
  "sourceName": "contracts/CivicXChainGovernance.sol",
  "abi": [
    {
      "inputs": [
        {
          "internalType": "address",
          "name": "_pm25Feed",
          "type": "address"
        },
        {
          "internalType": "address",
          "name": "_aqiFeed",
          "type": "address"
        },
        {
          "internalType": "address",
          "name": "_forestCoverFeed",
          "type": "address"
        }
      ],
      "stateMutability": "nonpayable",
      "type": "constructor"
    },
    {
      "anonymous": false,
      "inputs": [
        {
          "indexed": true,
          "internalType": "address",
          "name": "owner",
          "type": "address"
        },
        {
          "indexed": true,
          "internalType": "address",
          "name": "spender",
          "type": "address"
        },
        {
          "indexed": false,
          "internalType": "uint256",
          "name": "value",
          "type": "uint256"
        }
      ],
      "name": "Approval",
      "type": "event"
    },
    {
      "anonymous": false,
      "inputs": [
        {
          "indexed": true,
          "internalType": "uint256",
          "name": "commitmentId",
          "type": "uint256"
        },
        {
          "indexed": true,
          "internalType": "address",
          "name": "official",
          "type": "address"
        },
        {
          "indexed": false,
          "internalType": "uint256",
          "name": "refundAmount",
          "type": "uint256"
        }
      ],
      "name": "CommitmentCancelled",
      "type": "event"
    },
    {
      "anonymous": false,
      "inputs": [
        {
          "indexed": true,
          "internalType": "uint256",
          "name": "commitmentId",
          "type": "uint256"
        },
        {
          "indexed": true,
          "internalType": "address",
          "name": "official",
          "type": "address"
        },
        {
          "indexed": false,
          "internalType": "string",
          "name": "title",
          "type": "string"
        }
      ],
      "name": "CommitmentCreated",
      "type": "event"
    },
    {
      "anonymous": false,
      "inputs": [
        {
          "indexed": true,
          "internalType": "uint256",
          "name": "commitmentId",
          "type": "uint256"
        },
        {
          "indexed": false,
          "internalType": "uint256",
          "name": "actualValue",
          "type": "uint256"
        },
        {
          "indexed": false,
          "internalType": "uint256",
          "name": "tokensRewarded",
          "type": "uint256"
        }
      ],
      "name": "CommitmentFulfilled",
      "type": "event"
    },
    {
      "anonymous": false,
      "inputs": [
        {
          "indexed": true,
          "internalType": "uint256",
          "name": "commitmentId",
          "type": "uint256"
        },
        {
          "indexed": false,
          "internalType": "uint256",
          "name": "value",
          "type": "uint256"
        },
        {
          "indexed": false,
          "internalType": "uint256",
          "name": "timestamp",
          "type": "uint256"
        }
      ],
      "name": "OracleDataReceived",
      "type": "event"
    },
    {
      "anonymous": false,
      "inputs": [
        {
          "indexed": true,
          "internalType": "address",
          "name": "previousOwner",
          "type": "address"
        },
        {
          "indexed": true,
          "internalType": "address",
          "name": "newOwner",
          "type": "address"
        }
      ],
      "name": "OwnershipTransferred",
      "type": "event"
    },
    {
      "anonymous": false,
      "inputs": [
        {
          "indexed": true,
          "internalType": "uint256",
          "name": "commitmentId",
          "type": "uint256"
        },
        {
          "indexed": true,
          "internalType": "address",
          "name": "official",
          "type": "address"
        },
        {
          "indexed": false,
          "internalType": "uint256",
          "name": "penaltyAmount",
          "type": "uint256"
        }
      ],
      "name": "PenaltyApplied",
      "type": "event"
    },
    {
      "anonymous": false,
      "inputs": [
        {
          "indexed": true,
          "internalType": "uint256",
          "name": "commitmentId",
          "type": "uint256"
        },
        {
          "indexed": true,
          "internalType": "address",
          "name": "official",
          "type": "address"
        },
        {
          "indexed": false,
          "internalType": "uint256",
          "name": "tokenAmount",
          "type": "uint256"
        }
      ],
      "name": "TokensRewarded",
      "type": "event"
    },
    {
      "anonymous": false,
      "inputs": [
        {
          "indexed": true,
          "internalType": "address",
          "name": "from",
          "type": "address"
        },
        {
          "indexed": true,
          "internalType": "address",
          "name": "to",
          "type": "address"
        },
        {
          "indexed": false,
          "internalType": "uint256",
          "name": "value",
          "type": "uint256"
        }
      ],
      "name": "Transfer",
      "type": "event"
    },
    {
      "inputs": [],
      "name": "TOKENS_PER_ETH",
      "outputs": [
        {
          "internalType": "uint256",
          "name": "",
          "type": "uint256"
        }
      ],
      "stateMutability": "view",
      "type": "function"
    },
    {
      "inputs": [
        {
          "internalType": "address",
          "name": "owner",
          "type": "address"
        },
        {
          "internalType": "address",
          "name": "spender",
          "type": "address"
        }
      ],
      "name": "allowance",
      "outputs": [
        {
          "internalType": "uint256",
          "name": "",
          "type": "uint256"
        }
      ],
      "stateMutability": "view",
      "type": "function"
    },
    {
      "inputs": [
        {
          "internalType": "uint256",
          "name": "_commitmentId",
          "type": "uint256"
        }
      ],
      "name": "applyPenalty",
      "outputs": [],
      "stateMutability": "nonpayable",
      "type": "function"
    },
    {
      "inputs": [
        {
          "internalType": "address",
          "name": "spender",
          "type": "address"
        },
        {
          "internalType": "uint256",
          "name": "amount",
          "type": "uint256"
        }
      ],
      "name": "approve",
      "outputs": [
        {
          "internalType": "bool",
          "name": "",
          "type": "bool"
        }
      ],
      "stateMutability": "nonpayable",
      "type": "function"
    },
    {
      "inputs": [
        {
          "internalType": "address",
          "name": "account",
          "type": "address"
        }
      ],
      "name": "balanceOf",
      "outputs": [
        {
          "internalType": "uint256",
          "name": "",
          "type": "uint256"
        }
      ],
      "stateMutability": "view",
      "type": "function"
    },
    {
      "inputs": [
        {
          "internalType": "uint256",
          "name": "_commitmentId",
          "type": "uint256"
        }
      ],
      "name": "cancelCommitment",
      "outputs": [],
      "stateMutability": "nonpayable",
      "type": "function"
    },
    {
      "inputs": [
        {
          "internalType": "uint256",
          "name": "_commitmentId",
          "type": "uint256"
        }
      ],
      "name": "checkFulfillment",
      "outputs": [
        {
          "internalType": "bool",
          "name": "fulfilled",
          "type": "bool"
        },
        {
          "internalType": "uint256",
          "name": "currentValue",
          "type": "uint256"
        },
        {
          "internalType": "uint256",
          "name": "targetValue",
          "type": "uint256"
        }
      ],
      "stateMutability": "view",
      "type": "function"
    },
    {
      "inputs": [
        {
          "internalType": "uint256",
          "name": "_commitmentId",
          "type": "uint256"
        }
      ],
      "name": "claimEnvironmentalReward",
      "outputs": [
        {
          "internalType": "uint256",
          "name": "ethRewarded",
          "type": "uint256"
        }
      ],
      "stateMutability": "nonpayable",
      "type": "function"
    },
    {
      "inputs": [
        {
          "internalType": "uint256",
          "name": "",
          "type": "uint256"
        }
      ],
      "name": "commitments",
      "outputs": [
        {
          "internalType": "uint256",
          "name": "id",
          "type": "uint256"
        },
        {
          "internalType": "string",
          "name": "title",
          "type": "string"
        },
        {
          "internalType": "string",
          "name": "description",
          "type": "string"
        },
        {
          "internalType": "address",
          "name": "officialAddress",
          "type": "address"
        },
        {
          "internalType": "string",
          "name": "officialName",
          "type": "string"
        },
        {
          "internalType": "string",
          "name": "officialRole",
          "type": "string"
        },
        {
          "internalType": "uint256",
          "name": "targetValue",
          "type": "uint256"
        },
        {
          "internalType": "uint256",
          "name": "deadline",
          "type": "uint256"
        },
        {
          "internalType": "string",
          "name": "metricType",
          "type": "string"
        },
        {
          "internalType": "bool",
          "name": "isActive",
          "type": "bool"
        },
        {
          "internalType": "bool",
          "name": "isFulfilled",
          "type": "bool"
        },
        {
          "internalType": "bool",
          "name": "rewardClaimed",
          "type": "bool"
        },
        {
          "internalType": "uint256",
          "name": "stakeAmount",
          "type": "uint256"
        },
        {
          "internalType": "uint256",
          "name": "tokenReward",
          "type": "uint256"
        },
        {
          "internalType": "bytes32",
          "name": "oracleJobId",
          "type": "bytes32"
        }
      ],
      "stateMutability": "view",
      "type": "function"
    },
    {
      "inputs": [
        {
          "internalType": "string",
          "name": "_title",
          "type": "string"
        },
        {
          "internalType": "string",
          "name": "_description",
          "type": "string"
        },
        {
          "internalType": "string",
          "name": "_officialName",
          "type": "string"
        },
        {
          "internalType": "string",
          "name": "_officialRole",
          "type": "string"
        },
        {
          "internalType": "uint256",
          "name": "_targetValue",
          "type": "uint256"
        },
        {
          "internalType": "uint256",
          "name": "_deadline",
          "type": "uint256"
        },
        {
          "internalType": "string",
          "name": "_metricType",
          "type": "string"
        }
      ],
      "name": "createCommitment",
      "outputs": [],
      "stateMutability": "payable",
      "type": "function"
    },
    {
      "inputs": [],
      "name": "decimals",
      "outputs": [
        {
          "internalType": "uint8",
          "name": "",
          "type": "uint8"
        }
      ],
      "stateMutability": "view",
      "type": "function"
    },
    {
      "inputs": [
        {
          "internalType": "address",
          "name": "spender",
          "type": "address"
        },
        {
          "internalType": "uint256",
          "name": "subtractedValue",
          "type": "uint256"
        }
      ],
      "name": "decreaseAllowance",
      "outputs": [
        {
          "internalType": "bool",
          "name": "",
          "type": "bool"
        }
      ],
      "stateMutability": "nonpayable",
      "type": "function"
    },
    {
      "inputs": [],
      "name": "emergencyWithdraw",
      "outputs": [],
      "stateMutability": "nonpayable",
      "type": "function"
    },
    {
      "inputs": [
        {
          "internalType": "uint256",
          "name": "_commitmentId",
          "type": "uint256"
        }
      ],
      "name": "getCommitment",
      "outputs": [
        {
          "components": [
            {
              "internalType": "uint256",
              "name": "id",
              "type": "uint256"
            },
            {
              "internalType": "string",
              "name": "title",
              "type": "string"
            },
            {
              "internalType": "string",
              "name": "description",
              "type": "string"
            },
            {
              "internalType": "address",
              "name": "officialAddress",
              "type": "address"
            },
            {
              "internalType": "string",
              "name": "officialName",
              "type": "string"
            },
            {
              "internalType": "string",
              "name": "officialRole",
              "type": "string"
            },
            {
              "internalType": "uint256",
              "name": "targetValue",
              "type": "uint256"
            },
            {
              "internalType": "uint256",
              "name": "deadline",
              "type": "uint256"
            },
            {
              "internalType": "string",
              "name": "metricType",
              "type": "string"
            },
            {
              "internalType": "bool",
              "name": "isActive",
              "type": "bool"
            },
            {
              "internalType": "bool",
              "name": "isFulfilled",
              "type": "bool"
            },
            {
              "internalType": "bool",
              "name": "rewardClaimed",
              "type": "bool"
            },
            {
              "internalType": "uint256",
              "name": "stakeAmount",
              "type": "uint256"
            },
            {
              "internalType": "uint256",
              "name": "tokenReward",
              "type": "uint256"
            },
            {
              "internalType": "bytes32",
              "name": "oracleJobId",
              "type": "bytes32"
            }
          ],
          "internalType": "struct CivicXChainGovernance.EnvironmentalCommitment",
          "name": "",
          "type": "tuple"
        }
      ],
      "stateMutability": "view",
      "type": "function"
    },
    {
      "inputs": [
        {
          "internalType": "uint256",
          "name": "_commitmentId",
          "type": "uint256"
        }
      ],
      "name": "getCommitmentTokenReward",
      "outputs": [
        {
          "internalType": "uint256",
          "name": "",
          "type": "uint256"
        }
      ],
      "stateMutability": "view",
      "type": "function"
    },
    {
      "inputs": [],
      "name": "getContractTokenBalance",
      "outputs": [
        {
          "internalType": "uint256",
          "name": "",
          "type": "uint256"
        }
      ],
      "stateMutability": "view",
      "type": "function"
    },
    {
      "inputs": [
        {
          "internalType": "string",
          "name": "_metricType",
          "type": "string"
        }
      ],
      "name": "getCurrentEnvironmentalValue",
      "outputs": [
        {
          "internalType": "uint256",
          "name": "",
          "type": "uint256"
        }
      ],
      "stateMutability": "view",
      "type": "function"
    },
    {
      "inputs": [
        {
          "internalType": "address",
          "name": "_official",
          "type": "address"
        }
      ],
      "name": "getOfficialCommitments",
      "outputs": [
        {
          "internalType": "uint256[]",
          "name": "",
          "type": "uint256[]"
        }
      ],
      "stateMutability": "view",
      "type": "function"
    },
    {
      "inputs": [
        {
          "internalType": "address",
          "name": "_account",
          "type": "address"
        }
      ],
      "name": "getTokenBalance",
      "outputs": [
        {
          "internalType": "uint256",
          "name": "",
          "type": "uint256"
        }
      ],
      "stateMutability": "view",
      "type": "function"
    },
    {
      "inputs": [],
      "name": "getTotalStaked",
      "outputs": [
        {
          "internalType": "uint256",
          "name": "",
          "type": "uint256"
        }
      ],
      "stateMutability": "view",
      "type": "function"
    },
    {
      "inputs": [
        {
          "internalType": "address",
          "name": "spender",
          "type": "address"
        },
        {
          "internalType": "uint256",
          "name": "addedValue",
          "type": "uint256"
        }
      ],
      "name": "increaseAllowance",
      "outputs": [
        {
          "internalType": "bool",
          "name": "",
          "type": "bool"
        }
      ],
      "stateMutability": "nonpayable",
      "type": "function"
    },
    {
      "inputs": [
        {
          "internalType": "uint256",
          "name": "_commitmentId",
          "type": "uint256"
        }
      ],
      "name": "judgeApproveCommitment",
      "outputs": [],
      "stateMutability": "nonpayable",
      "type": "function"
    },
    {
      "inputs": [
        {
          "internalType": "uint256",
          "name": "_amount",
          "type": "uint256"
        }
      ],
      "name": "mintRewardTokens",
      "outputs": [],
      "stateMutability": "nonpayable",
      "type": "function"
    },
    {
      "inputs": [],
      "name": "name",
      "outputs": [
        {
          "internalType": "string",
          "name": "",
          "type": "string"
        }
      ],
      "stateMutability": "view",
      "type": "function"
    },
    {
      "inputs": [],
      "name": "nextCommitmentId",
      "outputs": [
        {
          "internalType": "uint256",
          "name": "",
          "type": "uint256"
        }
      ],
      "stateMutability": "view",
      "type": "function"
    },
    {
      "inputs": [
        {
          "internalType": "address",
          "name": "",
          "type": "address"
        },
        {
          "internalType": "uint256",
          "name": "",
          "type": "uint256"
        }
      ],
      "name": "officialCommitments",
      "outputs": [
        {
          "internalType": "uint256",
          "name": "",
          "type": "uint256"
        }
      ],
      "stateMutability": "view",
      "type": "function"
    },
    {
      "inputs": [
        {
          "internalType": "uint256",
          "name": "",
          "type": "uint256"
        }
      ],
      "name": "oracleData",
      "outputs": [
        {
          "internalType": "uint256",
          "name": "value",
          "type": "uint256"
        },
        {
          "internalType": "uint256",
          "name": "timestamp",
          "type": "uint256"
        },
        {
          "internalType": "bool",
          "name": "verified",
          "type": "bool"
        }
      ],
      "stateMutability": "view",
      "type": "function"
    },
    {
      "inputs": [],
      "name": "owner",
      "outputs": [
        {
          "internalType": "address",
          "name": "",
          "type": "address"
        }
      ],
      "stateMutability": "view",
      "type": "function"
    },
    {
      "inputs": [],
      "name": "renounceOwnership",
      "outputs": [],
      "stateMutability": "nonpayable",
      "type": "function"
    },
    {
      "inputs": [],
      "name": "symbol",
      "outputs": [
        {
          "internalType": "string",
          "name": "",
          "type": "string"
        }
      ],
      "stateMutability": "view",
      "type": "function"
    },
    {
      "inputs": [],
      "name": "totalStaked",
      "outputs": [
        {
          "internalType": "uint256",
          "name": "",
          "type": "uint256"
        }
      ],
      "stateMutability": "view",
      "type": "function"
    },
    {
      "inputs": [],
      "name": "totalSupply",
      "outputs": [
        {
          "internalType": "uint256",
          "name": "",
          "type": "uint256"
        }
      ],
      "stateMutability": "view",
      "type": "function"
    },
    {
      "inputs": [
        {
          "internalType": "address",
          "name": "to",
          "type": "address"
        },
        {
          "internalType": "uint256",
          "name": "amount",
          "type": "uint256"
        }
      ],
      "name": "transfer",
      "outputs": [
        {
          "internalType": "bool",
          "name": "",
          "type": "bool"
        }
      ],
      "stateMutability": "nonpayable",
      "type": "function"
    },
    {
      "inputs": [
        {
          "internalType": "address",
          "name": "from",
          "type": "address"
        },
        {
          "internalType": "address",
          "name": "to",
          "type": "address"
        },
        {
          "internalType": "uint256",
          "name": "amount",
          "type": "uint256"
        }
      ],
      "name": "transferFrom",
      "outputs": [
        {
          "internalType": "bool",
          "name": "",
          "type": "bool"
        }
      ],
      "stateMutability": "nonpayable",
      "type": "function"
    },
    {
      "inputs": [
        {
          "internalType": "address",
          "name": "newOwner",
          "type": "address"
        }
      ],
      "name": "transferOwnership",
      "outputs": [],
      "stateMutability": "nonpayable",
      "type": "function"
    }
  ],
  "bytecode": "0x6080604052346104d657612deb6060813803918261001c816104db565b9384928339810103126104d65761003281610500565b61004a604061004360208501610500565b9301610500565b61005460406104db565b92601f84527f436976696358436861696e20456e7669726f6e6d656e74616c20546f6b656e00602085015261008960406104db565b6005815264434956494360d81b6020820152845190946001600160401b0382116103d35760035490600182811c921680156104cc575b60208310146103b35781601f84931161045c575b50602090601f83116001146103f4576000926103e9575b50508160011b916000199060031b1c1916176003555b83516001600160401b0381116103d357600454600181811c911680156103c9575b60208210146103b357601f811161034e575b50602094601f82116001146102e7579481929394956000926102dc575b50508160011b916000199060031b1c1916176004555b60058054336001600160a01b0319821681179092556040519491906001600160a01b03167f8be0079c531659141344cd1fd0a4f28419497f9722a3daafe3b4186f6b6457e0600080a360016006819055600d556000600e55600780546001600160a01b03199081166001600160a01b039384161790915560088054821693831693909317909255600980549092169216919091179055301561029a576002546a52b7d2dcc80cd2e400000081018091116102845760025530600052600060205260406000206a52b7d2dcc80cd2e400000081540190556040516a52b7d2dcc80cd2e4000000815260007fddf252ad1be2c89b69c2b068fc378daa952ba7f163c4a11628f55a4df523b3ef60203093a36040516128d690816105158239f35b634e487b7160e01b600052601160045260246000fd5b62461bcd60e51b815260206004820152601f60248201527f45524332303a206d696e7420746f20746865207a65726f2061646472657373006044820152606490fd5b015190503880610150565b601f198216956004600052806000209160005b8881106103365750836001959697981061031d575b505050811b01600455610166565b015160001960f88460031b161c1916905538808061030f565b919260206001819286850151815501940192016102fa565b60046000527f8a35acfbc15ff81a39ae7d344fd709f28e8600b4aa8c65c6b64bfe7fe36bd19b601f830160051c810191602084106103a9575b601f0160051c01905b81811061039d5750610133565b60008155600101610390565b9091508190610387565b634e487b7160e01b600052602260045260246000fd5b90607f1690610121565b634e487b7160e01b600052604160045260246000fd5b0151905038806100ea565b600360009081528281209350601f198516905b818110610444575090846001959493921061042b575b505050811b01600355610100565b015160001960f88460031b161c1916905538808061041d565b92936020600181928786015181550195019301610407565b60036000529091507fc2575a0e9e593c00f959f8c92f12db2869c3395a3b0502d05e2516446f71f85b601f840160051c810191602085106104c2575b90601f859493920160051c01905b8181106104b357506100d3565b600081558493506001016104a6565b9091508190610498565b91607f16916100bf565b600080fd5b6040519190601f01601f191682016001600160401b038111838210176103d357604052565b51906001600160a01b03821682036104d65756fe6080604052600436101561001257600080fd5b60003560e01c806306fdde03146120025780630917e77614611451578063095ea7b314611fdc5780630a5d264a14611df85780630e9cf0ba14611dc957806318160ddd14611dab57806323b872dd14611ced578063313ce56714611cd1578063317d945314611caa578063347020af14611a9157806334b4117d146119d757806339509351146119855780633aecd0e3146114cc578063410a9ddd146118f357806349ce8997146117ab5780635ac48e6d1461178d57806369bcdb7d1461150557806370a08231146114cc578063715018a61461146f578063817b1cd214611451578063840a1ff4146111ea5780638da5cb5b146111c157806390bb9a291461116857806395d89b4114611083578063a457c2d714610fdc578063a9059cbb14610fab578063aa4dea0014610f63578063b3e14b3114610ea9578063bc6e660414610e8c578063d37a06f714610d08578063db2e21bc14610c8b578063dd62ed3e14610c3a578063e8d1077714610bf8578063f2fde38b14610b305763f40219c01461019d57600080fd5b60e0366003190112610b2b576004356001600160401b038111610b2b576101c8903690600401612260565b6024356001600160401b038111610b2b576101e7903690600401612260565b906044356001600160401b038111610b2b57610207903690600401612260565b916064356001600160401b038111610b2b57610227903690600401612260565b60a4359160c4356001600160401b038111610b2b5761024a903690600401612260565b9442841115610ae6573415610aa957600d54936000198514610a095760018501600d556103e83402913483046103e803610a09576064885160208a0190812061029161237d565b6020815191012014600014610a1f5750506096925b6103e884340202938185041490151715610a09578593604051956102c987612151565b85875260208701938985526040880192835260608801913383526080890194855260a0890190815260c0890190608435825260e08a019283526101008a019c8d526101208a0195600187526101408b0194600086526101608c0196600088526101808d0199348b528d6101a081019c606490048d526101c0019c60008e52600052600a6020526040600020809e51815560010190518051906001600160401b03821161062457819061037b8454612117565b601f81116109b6575b50602090601f831160011461095157600092610946575b50508160011b916000199060031b1c19161790555b51805160028e01916001600160401b0382116106245781906103d28454612117565b601f81116108f3575b50602090601f831160011461088e57600092610883575b50508160011b916000199060031b1c19161790555b5160038c0180546001600160a01b0319166001600160a01b039290921691909117905551805160048c01916001600160401b03821161062457819061044c8454612117565b601f8111610830575b50602090601f83116001146107cb576000926107c0575b50508160011b916000199060031b1c19161790555b51805160058b01916001600160401b0382116106245781906104a38454612117565b601f811161076d575b50602090601f8311600114610708576000926106fd575b50508160011b916000199060031b1c19161790555b516006890155516007880155600887019951998a516001600160401b038111610624576105058254612117565b601f81116106b5575b506020601f8211600114610645578190600c9a9b9c9d60009261063a575b50508160011b916000199060031b1c19161790555b600988019251151560ff8019855416911617835551151561ff0083549160081b169061ff00191617825551151562ff000082549160101b169062ff0000191617905551600a85015551600b8401555191015561059f34600e54612370565b600e5533600052600c6020526040600020805468010000000000000000811015610624576105d291600182018155612232565b81549060031b9083821b91600019901b19161790557ffa99a653c4373b4e353c68118639a54b493260f42326788c4cbcc6742d56ac28604051602081528061061f339560208301906120aa565b0390a3005b634e487b7160e01b600052604160045260246000fd5b01519050388061052c565b601f1982169c83600052816000209d60005b818110610698575091600c9b9c9d9e9184600195941061067f575b505050811b019055610541565b015160001960f88460031b161c19169055388080610672565b919e8f60016020928684930151815501940192019e91929e610657565b826000526020600020601f830160051c810191602084106106f3575b601f0160051c01905b8181106106e7575061050e565b600081556001016106da565b90915081906106d1565b0151905038806104c3565b60008581528281209350601f198516905b818110610755575090846001959493921061073c575b505050811b0190556104d8565b015160001960f88460031b161c1916905538808061072f565b92936020600181928786015181550195019301610719565b909150836000526020600020601f840160051c810191602085106107b6575b90601f859493920160051c01905b8181106107a757506104ac565b6000815584935060010161079a565b909150819061078c565b01519050388061046c565b60008581528281209350601f198516905b81811061081857509084600195949392106107ff575b505050811b019055610481565b015160001960f88460031b161c191690553880806107f2565b929360206001819287860151815501950193016107dc565b909150836000526020600020601f840160051c81019160208510610879575b90601f859493920160051c01905b81811061086a5750610455565b6000815584935060010161085d565b909150819061084f565b0151905038806103f2565b60008581528281209350601f198516905b8181106108db57509084600195949392106108c2575b505050811b019055610407565b015160001960f88460031b161c191690553880806108b5565b9293602060018192878601518155019501930161089f565b909150836000526020600020601f840160051c8101916020851061093c575b90601f859493920160051c01905b81811061092d57506103db565b60008155849350600101610920565b9091508190610912565b01519050388061039b565b60008581528281209350601f198516905b81811061099e5750908460019594939210610985575b505050811b0190556103b0565b015160001960f88460031b161c19169055388080610978565b92936020600181928786015181550195019301610962565b909150836000526020600020601f840160051c810191602085106109ff575b90601f859493920160051c01905b8181106109f05750610384565b600081558493506001016109e3565b90915081906109d5565b634e487b7160e01b600052601160045260246000fd5b89518120610a2b6123c9565b6020815191012014600014610a455750506078925b6102a6565b89518120610a5161239f565b6020815191012014600014610a6a5750506082926102a6565b89949194519020600d6020604051610a8360408261216d565b828152016c77617465725f7175616c69747960981b81522003610a4057606e93506102a6565b60405162461bcd60e51b815260206004820152601560248201527414dd185ad948185b5bdd5b9d081c995c5d5a5c9959605a1b6044820152606490fd5b60405162461bcd60e51b815260206004820152601e60248201527f446561646c696e65206d75737420626520696e207468652066757475726500006044820152606490fd5b600080fd5b34610b2b576020366003190112610b2b57610b496120eb565b610b51612848565b6001600160a01b03168015610ba457600580546001600160a01b0319811683179091556001600160a01b03167f8be0079c531659141344cd1fd0a4f28419497f9722a3daafe3b4186f6b6457e0600080a3005b60405162461bcd60e51b815260206004820152602660248201527f4f776e61626c653a206e6577206f776e657220697320746865207a65726f206160448201526564647265737360d01b6064820152608490fd5b34610b2b576020366003190112610b2b576004356001600160401b038111610b2b57610c32610c2d6020923690600401612260565b612436565b604051908152f35b34610b2b576040366003190112610b2b57610c536120eb565b610c5b612101565b6001600160a01b039182166000908152600160209081526040808320949093168252928352819020549051908152f35b34610b2b576000366003190112610b2b57610ca4612848565b600080808060018060a01b03600554164790828215610cff575bf115610cf35730600052600060205260406000205480610cda57005b600554610cf191906001600160a01b031630612673565b005b6040513d6000823e3d90fd5b506108fc610cbe565b34610b2b576020366003190112610b2b57600435600052600a60205260606040600020604051610d3781612151565b81548152610d476001830161218e565b6020820152610d586002830161218e565b604082015260038201546001600160a01b031683820152610d7b6004830161218e565b6080820152610d8c6005830161218e565b60a0820152610e1460068301549260c08301938452600781015460e0840152610db76008820161218e565b9261010081019384526101c0600c60098401549360ff80861615159586610120870152818160081c16151561014087015260101c161515610160850152600a810154610180850152600b8101546101a085015201549101526122b6565b610e1e8151612436565b90600090805160208151910120610e3361237d565b6020815191012014600014610e615750508151811115915b5190604051921515835260208301526040820152f35b9290925160208151910120610e7461239f565b6020815191012003610e4b5780518210159250610e4b565b34610b2b576000366003190112610b2b5760206040516103e88152f35b34610b2b576020366003190112610b2b576001600160a01b03610eca6120eb565b16600052600c60205260406000206040518060208354918281520190819360005260206000209060005b818110610f4d5750505081610f0a91038261216d565b6040519182916020830190602084525180915260408301919060005b818110610f34575050500390f35b8251845285945060209384019390920191600101610f26565b8254845260209093019260019283019201610ef4565b34610b2b576020366003190112610b2b57600435600052600b6020526060604060002080549060ff600260018301549201541690604051928352602083015215156040820152f35b34610b2b576040366003190112610b2b57610fd1610fc76120eb565b6024359033612673565b602060405160018152f35b34610b2b576040366003190112610b2b57610ff56120eb565b60243590336000526001602052604060002060018060a01b0382166000526020526040600020549180831061103057610fd19203903361256b565b60405162461bcd60e51b815260206004820152602560248201527f45524332303a2064656372656173656420616c6c6f77616e63652062656c6f77604482015264207a65726f60d81b6064820152608490fd5b34610b2b576000366003190112610b2b5760405160006004546110a581612117565b808452906001811690811561114457506001146110e5575b6110e1836110cd8185038261216d565b6040519182916020835260208301906120aa565b0390f35b600460009081527f8a35acfbc15ff81a39ae7d344fd709f28e8600b4aa8c65c6b64bfe7fe36bd19b939250905b80821061112a575090915081016020016110cd6110bd565b919260018160209254838588010152019101909291611112565b60ff191660208086019190915291151560051b840190910191506110cd90506110bd565b34610b2b576040366003190112610b2b576111816120eb565b6001600160a01b03166000908152600c6020526040902080546024359190821015610b2b576020916111b291612232565b90549060031b1c604051908152f35b34610b2b576000366003190112610b2b576005546040516001600160a01b039091168152602090f35b34610b2b576020366003190112610b2b576004356112066127f2565b6000818152600a6020526040902060038101546001600160a01b0316330361140157600981019081549161123c60ff84166122b6565b60ff8360081c166113b15760ff8360101c1661136d57600782015442101561132857600a9260ff19169055015490600a820461128461127b828561231e565b93600e5461231e565b600e55801580156112f8575b505081801580156112d1575b50506040519182527f75b2b6d713c23c94a2b5123c847c3fc2e015e416842dcdaf9a319c1645d1a61e60203393a36001600655005b6000906112ef575b600080809381933390f115610cf357818361129c565b506108fc6112d9565b6000808093819360018060a01b036005541690839061131f575bf115610cf3578280611290565b506108fc611312565b60405162461bcd60e51b815260206004820152601c60248201527f43616e6e6f742063616e63656c20616674657220646561646c696e65000000006044820152606490fd5b606460405162461bcd60e51b815260206004820152602060248201527f43616e6e6f742063616e63656c20636c61696d656420636f6d6d69746d656e746044820152fd5b60405162461bcd60e51b815260206004820152602260248201527f43616e6e6f742063616e63656c2066756c66696c6c656420636f6d6d69746d656044820152611b9d60f21b6064820152608490fd5b60405162461bcd60e51b815260206004820152602260248201527f4f6e6c7920636f6d6d69746d656e742063726561746f722063616e2063616e63604482015261195b60f21b6064820152608490fd5b34610b2b576000366003190112610b2b576020600e54604051908152f35b34610b2b576000366003190112610b2b57611488612848565b600580546001600160a01b031981169091556000906001600160a01b03167f8be0079c531659141344cd1fd0a4f28419497f9722a3daafe3b4186f6b6457e08280a3005b34610b2b576020366003190112610b2b576020610c326114ea6120eb565b6001600160a01b031660009081526020819052604090205490565b34610b2b576020366003190112610b2b5760405161152281612151565b60008152602081016060905260408101606090526060810160009052608081016060905260a081016060905260c081016000905260e08101600090526101008101606090526101208101600090526101408101600090526101608101600090526101808101600090526101a08101600090526101c00160009052600435600052600a6020526040600020604051906115b982612151565b805482526115c96001820161218e565b60208301908152906115dd6002820161218e565b6040840190815260038201546001600160a01b031660608501908152909390916116096004820161218e565b6080830190815261161c6005830161218e565b60a08401908152600683015460c08501908152600784015460e0860190815291959061164a6008860161218e565b610100870190815260098601549361012088019860ff861615158a526101408901948660081c60ff16151586526101608a019660101c60ff1615158752600a890154976101808b01988952600b8a0154996101a08c019a8b52600c01549a6101c081019b8c526040519e8f9e8f926020845251602084015251604083016101e0905261020083016116da916120aa565b9051828203601f190160608401526116f291906120aa565b92516001600160a01b0316608090910152518c8203601f190160a08e015261171a91906120aa565b90518b8203601f190160c08d015261173291906120aa565b925160e08b0152516101008a015251888203601f19016101208a015261175891906120aa565b95511515610140880152511515610160870152511515610180860152516101a0850152516101c0840152516101e08301520390f35b34610b2b576000366003190112610b2b576020600d54604051908152f35b34610b2b576020366003190112610b2b57600435600052600a60205260406000208054600182016117db9061218e565b916117e86002820161218e565b60038201546001600160a01b0316916118036004820161218e565b926118106005830161218e565b600683015460078401546118266008860161218e565b92600986015497600a87015495600b88015497600c0154986040519c8d9c8d5260208d016101e090526101e08d0161185d916120aa565b8c810360408e015261186e916120aa565b9060608c01528a810360808c0152611885916120aa565b89810360a08b0152611896916120aa565b9160c089015260e08801528681036101008801526118b3916120aa565b9360ff811615156101208701528060081c60ff16151561014087015260101c60ff1615156101608601526101808501526101a08401526101c08301520390f35b34610b2b576020366003190112610b2b5760043580600052600a6020527f3c1ead90ebeb138d3eed6ab98affff3433e55aad723cca4ab05fa013058dde9b60408060002060098101610100815461194c60ff82166122b6565b61195c60ff8260101c161561232b565b61ff001916179055600b611975610c2d6008840161218e565b91015482519182526020820152a2005b34610b2b576040366003190112610b2b57610fd16119a16120eb565b336000526001602052604060002060018060a01b0382166000526020526119d060406000206024359054612370565b903361256b565b34610b2b576020366003190112610b2b576004356119f3612848565b3015611a4c57611a0581600254612370565b600255306000526000602052604060002081815401905560405190815260007fddf252ad1be2c89b69c2b068fc378daa952ba7f163c4a11628f55a4df523b3ef60203093a3005b60405162461bcd60e51b815260206004820152601f60248201527f45524332303a206d696e7420746f20746865207a65726f2061646472657373006044820152606490fd5b34610b2b576020366003190112610b2b57600435611aad6127f2565b6000818152600a6020526040902060038101549091906001600160a01b03163303611c5b576009820191825490611ae660ff83166122b6565b611af660ff8360101c161561232b565b60405163d37a06f760e01b81526004810184905293606085602481305afa948515610cf357600090600096611c26575b5015611bbc5762010100600a9362ffff001916179055015490611b58611b4f8360011c84612370565b92600e5461231e565b600e558160008115611bb3575b600080809381933390f115610cf3577f3c1ead90ebeb138d3eed6ab98affff3433e55aad723cca4ab05fa013058dde9b60406020948151908152600086820152a26001600655604051908152f35b506108fc611b65565b608460405162461bcd60e51b815260206004820152604060248201527f456e7669726f6e6d656e74616c20746172676574206e6f74206163686965766560448201527f64206f72206a7564676520766572696669636174696f6e2072657175697265646064820152fd5b9050611c4b91955060603d606011611c54575b611c43818361216d565b8101906122fa565b50949086611b26565b503d611c39565b60405162461bcd60e51b815260206004820152602160248201527f4f6e6c7920636f6d6d69746d656e742063726561746f722063616e20636c61696044820152606d60f81b6064820152608490fd5b34610b2b576000366003190112610b2b573060009081526020818152604090912054610c32565b34610b2b576000366003190112610b2b57602060405160128152f35b34610b2b576060366003190112610b2b57611d066120eb565b611d0e612101565b6001600160a01b0382166000908152600160208181526040808420338552909152909120549260443592918401611d4a575b610fd19350612673565b828410611d6657611d6183610fd19503338361256b565b611d40565b60405162461bcd60e51b815260206004820152601d60248201527f45524332303a20696e73756666696369656e7420616c6c6f77616e63650000006044820152606490fd5b34610b2b576000366003190112610b2b576020600254604051908152f35b34610b2b576020366003190112610b2b57600435600052600a6020526020600b60406000200154604051908152f35b34610b2b576020366003190112610b2b5760043580600052600a602052604060002090600982018054611e2d60ff82166122b6565b6007840154421115611fa15760ff8160081c16611f5c5760405163d37a06f760e01b815260048101849052606081602481305afa908115610cf357600091611f3b575b50611ef65760ff19169055600a820191611e8d8354600e5461231e565b600e55600080808060018060a01b0360055416875490828215611eed575bf115610cf35760207fed7a0aea6f0340c8fd7f451ac8b492e2facd06e914d020af7d8f38321f04499a91600360018060a01b03910154169354604051908152a3005b506108fc611eab565b60405162461bcd60e51b815260206004820152601c60248201527f546172676574207761732061637475616c6c79206163686965766564000000006044820152606490fd5b611f54915060603d606011611c5457611c43818361216d565b505085611e70565b60405162461bcd60e51b815260206004820152601c60248201527f436f6d6d69746d656e7420616c72656164792066756c66696c6c6564000000006044820152606490fd5b60405162461bcd60e51b8152602060048201526013602482015272111958591b1a5b99481b9bdd081c185cdcd959606a1b6044820152606490fd5b34610b2b576040366003190112610b2b57610fd1611ff86120eb565b602435903361256b565b34610b2b576000366003190112610b2b57604051600060035461202481612117565b8084529060018116908115611144575060011461204b576110e1836110cd8185038261216d565b600360009081527fc2575a0e9e593c00f959f8c92f12db2869c3395a3b0502d05e2516446f71f85b939250905b808210612090575090915081016020016110cd6110bd565b919260018160209254838588010152019101909291612078565b919082519283825260005b8481106120d6575050826000602080949584010152601f8019910116010190565b806020809284010151828286010152016120b5565b600435906001600160a01b0382168203610b2b57565b602435906001600160a01b0382168203610b2b57565b90600182811c92168015612147575b602083101461213157565b634e487b7160e01b600052602260045260246000fd5b91607f1691612126565b6101e081019081106001600160401b0382111761062457604052565b90601f801991011681019081106001600160401b0382111761062457604052565b90604051918260008254926121a284612117565b808452936001811690811561221057506001146121c9575b506121c79250038361216d565b565b90506000929192526020600020906000915b8183106121f45750509060206121c792820101386121ba565b60209193508060019154838589010152019101909184926121db565b9050602092506121c794915060ff191682840152151560051b820101386121ba565b805482101561224a5760005260206000200190600090565b634e487b7160e01b600052603260045260246000fd5b81601f82011215610b2b578035906001600160401b0382116106245760405192612294601f8401601f19166020018561216d565b82845260208383010111610b2b57816000926020809301838601378301015290565b156122bd57565b60405162461bcd60e51b8152602060048201526015602482015274436f6d6d69746d656e74206e6f742061637469766560581b6044820152606490fd5b90816060910312610b2b5780518015158103610b2b57916040602083015192015190565b91908203918211610a0957565b1561233257565b60405162461bcd60e51b815260206004820152601660248201527514995dd85c9908185b1c9958591e4818db185a5b595960521b6044820152606490fd5b91908201809211610a0957565b6040519061238c60408361216d565b6004825263706d323560e01b6020830152565b604051906123ae60408361216d565b600c82526b3337b932b9ba2fb1b7bb32b960a11b6020830152565b604051906123d860408361216d565b600382526261716960e81b6020830152565b519069ffffffffffffffffffff82168203610b2b57565b908160a0910312610b2b57612415816123ea565b916020820151916040810151916124336080606084015193016123ea565b90565b8051906020810191822061244861237d565b60208151910120146000146124c2575050600754604051633fabe5a360e21b81529060a090829060049082906001600160a01b03165afa908115610cf357600091612491575090565b6124b3915060a03d60a0116124bb575b6124ab818361216d565b810190612401565b505050905090565b503d6124a1565b805182206124ce6123c9565b6020815191012014600014612517575050600854604051633fabe5a360e21b81529060a090829060049082906001600160a01b03165afa908115610cf357600091612491575090565b51902061252261239f565b602081519101201461253357600090565b600954604051633fabe5a360e21b81529060a090829060049082906001600160a01b03165afa908115610cf357600091612491575090565b6001600160a01b0316908115612622576001600160a01b03169182156125d25760207f8c5be1e5ebec7d5bd14f71427d1e84f3dd0314c0f7b2291e5b200ac8c7c3b925918360005260018252604060002085600052825280604060002055604051908152a3565b60405162461bcd60e51b815260206004820152602260248201527f45524332303a20617070726f766520746f20746865207a65726f206164647265604482015261737360f01b6064820152608490fd5b60405162461bcd60e51b8152602060048201526024808201527f45524332303a20617070726f76652066726f6d20746865207a65726f206164646044820152637265737360e01b6064820152608490fd5b6001600160a01b031690811561279f576001600160a01b031691821561274e578160005260006020526040600020548181106126fa57817fddf252ad1be2c89b69c2b068fc378daa952ba7f163c4a11628f55a4df523b3ef9260209285600052600084520360406000205584600052600082526040600020818154019055604051908152a3565b60405162461bcd60e51b815260206004820152602660248201527f45524332303a207472616e7366657220616d6f756e7420657863656564732062604482015265616c616e636560d01b6064820152608490fd5b60405162461bcd60e51b815260206004820152602360248201527f45524332303a207472616e7366657220746f20746865207a65726f206164647260448201526265737360e81b6064820152608490fd5b60405162461bcd60e51b815260206004820152602560248201527f45524332303a207472616e736665722066726f6d20746865207a65726f206164604482015264647265737360d81b6064820152608490fd5b600260065414612803576002600655565b60405162461bcd60e51b815260206004820152601f60248201527f5265656e7472616e637947756172643a207265656e7472616e742063616c6c006044820152606490fd5b6005546001600160a01b0316330361285c57565b606460405162461bcd60e51b815260206004820152602060248201527f4f776e61626c653a2063616c6c6572206973206e6f7420746865206f776e65726044820152fdfea2646970667358221220f2f6ac906ce0d8e6188e7ae0845e5b57842edddb3d909728f37b05009934c42864736f6c634300081c0033",
  "linkReferences": {},
  "deployedLinkReferences": {}
}