{
  "_format": "hh-sol-artifact-1",
  "contractName": "CivicXChainGovernance",
  "sourceName": "contracts/CivicXChainGovernance.sol",
  "abi": [
    {
      "inputs": [
        {
          "internalType": "address",
          "name": "_pm25Feed",
          "type": "address"
        },
        {
          "internalType": "address",
          "name": "_co2Feed",
          "type": "address"
        },
        {
          "internalType": "address",
          "name": "_forestCoverFeed",
          "type": "address"
        }
      ],
      "stateMutability": "nonpayable",
      "type": "constructor"
    },
    {
      "anonymous": false,
      "inputs": [
        {
          "indexed": true,
          "internalType": "address",
          "name": "owner",
          "type": "address"
        },
        {
          "indexed": true,
          "internalType": "address",
          "name": "spender",
          "type": "address"
        },
        {
          "indexed": false,
          "internalType": "uint256",
          "name": "value",
          "type": "uint256"
        }
      ],
      "name": "Approval",
      "type": "event"
    },
    {
      "anonymous": false,
      "inputs": [
        {
          "indexed": true,
          "internalType": "uint256",
          "name": "commitmentId",
          "type": "uint256"
        },
        {
          "indexed": true,
          "internalType": "address",
          "name": "official",
          "type": "address"
        },
        {
          "indexed": false,
          "internalType": "uint256",
          "name": "refundAmount",
          "type": "uint256"
        }
      ],
      "name": "CommitmentCancelled",
      "type": "event"
    },
    {
      "anonymous": false,
      "inputs": [
        {
          "indexed": true,
          "internalType": "uint256",
          "name": "commitmentId",
          "type": "uint256"
        },
        {
          "indexed": true,
          "internalType": "address",
          "name": "official",
          "type": "address"
        },
        {
          "indexed": false,
          "internalType": "string",
          "name": "title",
          "type": "string"
        }
      ],
      "name": "CommitmentCreated",
      "type": "event"
    },
    {
      "anonymous": false,
      "inputs": [
        {
          "indexed": true,
          "internalType": "uint256",
          "name": "commitmentId",
          "type": "uint256"
        },
        {
          "indexed": false,
          "internalType": "uint256",
          "name": "actualValue",
          "type": "uint256"
        },
        {
          "indexed": false,
          "internalType": "uint256",
          "name": "tokensRewarded",
          "type": "uint256"
        }
      ],
      "name": "CommitmentFulfilled",
      "type": "event"
    },
    {
      "anonymous": false,
      "inputs": [
        {
          "indexed": true,
          "internalType": "uint256",
          "name": "commitmentId",
          "type": "uint256"
        },
        {
          "indexed": false,
          "internalType": "uint256",
          "name": "value",
          "type": "uint256"
        },
        {
          "indexed": false,
          "internalType": "uint256",
          "name": "timestamp",
          "type": "uint256"
        }
      ],
      "name": "OracleDataReceived",
      "type": "event"
    },
    {
      "anonymous": false,
      "inputs": [
        {
          "indexed": true,
          "internalType": "address",
          "name": "previousOwner",
          "type": "address"
        },
        {
          "indexed": true,
          "internalType": "address",
          "name": "newOwner",
          "type": "address"
        }
      ],
      "name": "OwnershipTransferred",
      "type": "event"
    },
    {
      "anonymous": false,
      "inputs": [
        {
          "indexed": true,
          "internalType": "uint256",
          "name": "commitmentId",
          "type": "uint256"
        },
        {
          "indexed": true,
          "internalType": "address",
          "name": "official",
          "type": "address"
        },
        {
          "indexed": false,
          "internalType": "uint256",
          "name": "penaltyAmount",
          "type": "uint256"
        }
      ],
      "name": "PenaltyApplied",
      "type": "event"
    },
    {
      "anonymous": false,
      "inputs": [
        {
          "indexed": true,
          "internalType": "uint256",
          "name": "commitmentId",
          "type": "uint256"
        },
        {
          "indexed": true,
          "internalType": "address",
          "name": "official",
          "type": "address"
        },
        {
          "indexed": false,
          "internalType": "uint256",
          "name": "tokenAmount",
          "type": "uint256"
        }
      ],
      "name": "TokensRewarded",
      "type": "event"
    },
    {
      "anonymous": false,
      "inputs": [
        {
          "indexed": true,
          "internalType": "address",
          "name": "from",
          "type": "address"
        },
        {
          "indexed": true,
          "internalType": "address",
          "name": "to",
          "type": "address"
        },
        {
          "indexed": false,
          "internalType": "uint256",
          "name": "value",
          "type": "uint256"
        }
      ],
      "name": "Transfer",
      "type": "event"
    },
    {
      "inputs": [],
      "name": "TOKENS_PER_ETH",
      "outputs": [
        {
          "internalType": "uint256",
          "name": "",
          "type": "uint256"
        }
      ],
      "stateMutability": "view",
      "type": "function"
    },
    {
      "inputs": [
        {
          "internalType": "address",
          "name": "owner",
          "type": "address"
        },
        {
          "internalType": "address",
          "name": "spender",
          "type": "address"
        }
      ],
      "name": "allowance",
      "outputs": [
        {
          "internalType": "uint256",
          "name": "",
          "type": "uint256"
        }
      ],
      "stateMutability": "view",
      "type": "function"
    },
    {
      "inputs": [
        {
          "internalType": "uint256",
          "name": "_commitmentId",
          "type": "uint256"
        }
      ],
      "name": "applyPenalty",
      "outputs": [],
      "stateMutability": "nonpayable",
      "type": "function"
    },
    {
      "inputs": [
        {
          "internalType": "address",
          "name": "spender",
          "type": "address"
        },
        {
          "internalType": "uint256",
          "name": "amount",
          "type": "uint256"
        }
      ],
      "name": "approve",
      "outputs": [
        {
          "internalType": "bool",
          "name": "",
          "type": "bool"
        }
      ],
      "stateMutability": "nonpayable",
      "type": "function"
    },
    {
      "inputs": [
        {
          "internalType": "address",
          "name": "account",
          "type": "address"
        }
      ],
      "name": "balanceOf",
      "outputs": [
        {
          "internalType": "uint256",
          "name": "",
          "type": "uint256"
        }
      ],
      "stateMutability": "view",
      "type": "function"
    },
    {
      "inputs": [
        {
          "internalType": "uint256",
          "name": "_commitmentId",
          "type": "uint256"
        }
      ],
      "name": "cancelCommitment",
      "outputs": [],
      "stateMutability": "nonpayable",
      "type": "function"
    },
    {
      "inputs": [
        {
          "internalType": "uint256",
          "name": "_commitmentId",
          "type": "uint256"
        }
      ],
      "name": "checkFulfillment",
      "outputs": [
        {
          "internalType": "bool",
          "name": "fulfilled",
          "type": "bool"
        },
        {
          "internalType": "uint256",
          "name": "currentValue",
          "type": "uint256"
        },
        {
          "internalType": "uint256",
          "name": "targetValue",
          "type": "uint256"
        }
      ],
      "stateMutability": "view",
      "type": "function"
    },
    {
      "inputs": [
        {
          "internalType": "uint256",
          "name": "_commitmentId",
          "type": "uint256"
        }
      ],
      "name": "claimEnvironmentalReward",
      "outputs": [
        {
          "internalType": "uint256",
          "name": "tokensRewarded",
          "type": "uint256"
        }
      ],
      "stateMutability": "nonpayable",
      "type": "function"
    },
    {
      "inputs": [
        {
          "internalType": "uint256",
          "name": "",
          "type": "uint256"
        }
      ],
      "name": "commitments",
      "outputs": [
        {
          "internalType": "uint256",
          "name": "id",
          "type": "uint256"
        },
        {
          "internalType": "string",
          "name": "title",
          "type": "string"
        },
        {
          "internalType": "string",
          "name": "description",
          "type": "string"
        },
        {
          "internalType": "address",
          "name": "officialAddress",
          "type": "address"
        },
        {
          "internalType": "string",
          "name": "officialName",
          "type": "string"
        },
        {
          "internalType": "string",
          "name": "officialRole",
          "type": "string"
        },
        {
          "internalType": "uint256",
          "name": "targetValue",
          "type": "uint256"
        },
        {
          "internalType": "uint256",
          "name": "deadline",
          "type": "uint256"
        },
        {
          "internalType": "string",
          "name": "metricType",
          "type": "string"
        },
        {
          "internalType": "bool",
          "name": "isActive",
          "type": "bool"
        },
        {
          "internalType": "bool",
          "name": "isFulfilled",
          "type": "bool"
        },
        {
          "internalType": "bool",
          "name": "rewardClaimed",
          "type": "bool"
        },
        {
          "internalType": "uint256",
          "name": "stakeAmount",
          "type": "uint256"
        },
        {
          "internalType": "uint256",
          "name": "tokenReward",
          "type": "uint256"
        },
        {
          "internalType": "bytes32",
          "name": "oracleJobId",
          "type": "bytes32"
        }
      ],
      "stateMutability": "view",
      "type": "function"
    },
    {
      "inputs": [
        {
          "internalType": "string",
          "name": "_title",
          "type": "string"
        },
        {
          "internalType": "string",
          "name": "_description",
          "type": "string"
        },
        {
          "internalType": "string",
          "name": "_officialName",
          "type": "string"
        },
        {
          "internalType": "string",
          "name": "_officialRole",
          "type": "string"
        },
        {
          "internalType": "uint256",
          "name": "_targetValue",
          "type": "uint256"
        },
        {
          "internalType": "uint256",
          "name": "_deadline",
          "type": "uint256"
        },
        {
          "internalType": "string",
          "name": "_metricType",
          "type": "string"
        }
      ],
      "name": "createCommitment",
      "outputs": [],
      "stateMutability": "payable",
      "type": "function"
    },
    {
      "inputs": [],
      "name": "decimals",
      "outputs": [
        {
          "internalType": "uint8",
          "name": "",
          "type": "uint8"
        }
      ],
      "stateMutability": "view",
      "type": "function"
    },
    {
      "inputs": [
        {
          "internalType": "address",
          "name": "spender",
          "type": "address"
        },
        {
          "internalType": "uint256",
          "name": "subtractedValue",
          "type": "uint256"
        }
      ],
      "name": "decreaseAllowance",
      "outputs": [
        {
          "internalType": "bool",
          "name": "",
          "type": "bool"
        }
      ],
      "stateMutability": "nonpayable",
      "type": "function"
    },
    {
      "inputs": [],
      "name": "emergencyWithdraw",
      "outputs": [],
      "stateMutability": "nonpayable",
      "type": "function"
    },
    {
      "inputs": [
        {
          "internalType": "uint256",
          "name": "_commitmentId",
          "type": "uint256"
        }
      ],
      "name": "getCommitment",
      "outputs": [
        {
          "components": [
            {
              "internalType": "uint256",
              "name": "id",
              "type": "uint256"
            },
            {
              "internalType": "string",
              "name": "title",
              "type": "string"
            },
            {
              "internalType": "string",
              "name": "description",
              "type": "string"
            },
            {
              "internalType": "address",
              "name": "officialAddress",
              "type": "address"
            },
            {
              "internalType": "string",
              "name": "officialName",
              "type": "string"
            },
            {
              "internalType": "string",
              "name": "officialRole",
              "type": "string"
            },
            {
              "internalType": "uint256",
              "name": "targetValue",
              "type": "uint256"
            },
            {
              "internalType": "uint256",
              "name": "deadline",
              "type": "uint256"
            },
            {
              "internalType": "string",
              "name": "metricType",
              "type": "string"
            },
            {
              "internalType": "bool",
              "name": "isActive",
              "type": "bool"
            },
            {
              "internalType": "bool",
              "name": "isFulfilled",
              "type": "bool"
            },
            {
              "internalType": "bool",
              "name": "rewardClaimed",
              "type": "bool"
            },
            {
              "internalType": "uint256",
              "name": "stakeAmount",
              "type": "uint256"
            },
            {
              "internalType": "uint256",
              "name": "tokenReward",
              "type": "uint256"
            },
            {
              "internalType": "bytes32",
              "name": "oracleJobId",
              "type": "bytes32"
            }
          ],
          "internalType": "struct CivicXChainGovernance.EnvironmentalCommitment",
          "name": "",
          "type": "tuple"
        }
      ],
      "stateMutability": "view",
      "type": "function"
    },
    {
      "inputs": [
        {
          "internalType": "uint256",
          "name": "_commitmentId",
          "type": "uint256"
        }
      ],
      "name": "getCommitmentTokenReward",
      "outputs": [
        {
          "internalType": "uint256",
          "name": "",
          "type": "uint256"
        }
      ],
      "stateMutability": "view",
      "type": "function"
    },
    {
      "inputs": [],
      "name": "getContractTokenBalance",
      "outputs": [
        {
          "internalType": "uint256",
          "name": "",
          "type": "uint256"
        }
      ],
      "stateMutability": "view",
      "type": "function"
    },
    {
      "inputs": [
        {
          "internalType": "address",
          "name": "_official",
          "type": "address"
        }
      ],
      "name": "getOfficialCommitments",
      "outputs": [
        {
          "internalType": "uint256[]",
          "name": "",
          "type": "uint256[]"
        }
      ],
      "stateMutability": "view",
      "type": "function"
    },
    {
      "inputs": [
        {
          "internalType": "address",
          "name": "_account",
          "type": "address"
        }
      ],
      "name": "getTokenBalance",
      "outputs": [
        {
          "internalType": "uint256",
          "name": "",
          "type": "uint256"
        }
      ],
      "stateMutability": "view",
      "type": "function"
    },
    {
      "inputs": [],
      "name": "getTotalStaked",
      "outputs": [
        {
          "internalType": "uint256",
          "name": "",
          "type": "uint256"
        }
      ],
      "stateMutability": "view",
      "type": "function"
    },
    {
      "inputs": [
        {
          "internalType": "address",
          "name": "spender",
          "type": "address"
        },
        {
          "internalType": "uint256",
          "name": "addedValue",
          "type": "uint256"
        }
      ],
      "name": "increaseAllowance",
      "outputs": [
        {
          "internalType": "bool",
          "name": "",
          "type": "bool"
        }
      ],
      "stateMutability": "nonpayable",
      "type": "function"
    },
    {
      "inputs": [
        {
          "internalType": "uint256",
          "name": "_amount",
          "type": "uint256"
        }
      ],
      "name": "mintRewardTokens",
      "outputs": [],
      "stateMutability": "nonpayable",
      "type": "function"
    },
    {
      "inputs": [],
      "name": "name",
      "outputs": [
        {
          "internalType": "string",
          "name": "",
          "type": "string"
        }
      ],
      "stateMutability": "view",
      "type": "function"
    },
    {
      "inputs": [],
      "name": "nextCommitmentId",
      "outputs": [
        {
          "internalType": "uint256",
          "name": "",
          "type": "uint256"
        }
      ],
      "stateMutability": "view",
      "type": "function"
    },
    {
      "inputs": [
        {
          "internalType": "address",
          "name": "",
          "type": "address"
        },
        {
          "internalType": "uint256",
          "name": "",
          "type": "uint256"
        }
      ],
      "name": "officialCommitments",
      "outputs": [
        {
          "internalType": "uint256",
          "name": "",
          "type": "uint256"
        }
      ],
      "stateMutability": "view",
      "type": "function"
    },
    {
      "inputs": [
        {
          "internalType": "uint256",
          "name": "",
          "type": "uint256"
        }
      ],
      "name": "oracleData",
      "outputs": [
        {
          "internalType": "uint256",
          "name": "value",
          "type": "uint256"
        },
        {
          "internalType": "uint256",
          "name": "timestamp",
          "type": "uint256"
        },
        {
          "internalType": "bool",
          "name": "verified",
          "type": "bool"
        }
      ],
      "stateMutability": "view",
      "type": "function"
    },
    {
      "inputs": [],
      "name": "owner",
      "outputs": [
        {
          "internalType": "address",
          "name": "",
          "type": "address"
        }
      ],
      "stateMutability": "view",
      "type": "function"
    },
    {
      "inputs": [],
      "name": "renounceOwnership",
      "outputs": [],
      "stateMutability": "nonpayable",
      "type": "function"
    },
    {
      "inputs": [],
      "name": "symbol",
      "outputs": [
        {
          "internalType": "string",
          "name": "",
          "type": "string"
        }
      ],
      "stateMutability": "view",
      "type": "function"
    },
    {
      "inputs": [],
      "name": "totalStaked",
      "outputs": [
        {
          "internalType": "uint256",
          "name": "",
          "type": "uint256"
        }
      ],
      "stateMutability": "view",
      "type": "function"
    },
    {
      "inputs": [],
      "name": "totalSupply",
      "outputs": [
        {
          "internalType": "uint256",
          "name": "",
          "type": "uint256"
        }
      ],
      "stateMutability": "view",
      "type": "function"
    },
    {
      "inputs": [
        {
          "internalType": "address",
          "name": "to",
          "type": "address"
        },
        {
          "internalType": "uint256",
          "name": "amount",
          "type": "uint256"
        }
      ],
      "name": "transfer",
      "outputs": [
        {
          "internalType": "bool",
          "name": "",
          "type": "bool"
        }
      ],
      "stateMutability": "nonpayable",
      "type": "function"
    },
    {
      "inputs": [
        {
          "internalType": "address",
          "name": "from",
          "type": "address"
        },
        {
          "internalType": "address",
          "name": "to",
          "type": "address"
        },
        {
          "internalType": "uint256",
          "name": "amount",
          "type": "uint256"
        }
      ],
      "name": "transferFrom",
      "outputs": [
        {
          "internalType": "bool",
          "name": "",
          "type": "bool"
        }
      ],
      "stateMutability": "nonpayable",
      "type": "function"
    },
    {
      "inputs": [
        {
          "internalType": "address",
          "name": "newOwner",
          "type": "address"
        }
      ],
      "name": "transferOwnership",
      "outputs": [],
      "stateMutability": "nonpayable",
      "type": "function"
    }
  ],
  "bytecode": "0x6080604052346104d657612db46060813803918261001c816104db565b9384928339810103126104d65761003281610500565b61004a604061004360208501610500565b9301610500565b61005460406104db565b92601f84527f436976696358436861696e20456e7669726f6e6d656e74616c20546f6b656e00602085015261008960406104db565b6005815264434956494360d81b6020820152845190946001600160401b0382116103d35760035490600182811c921680156104cc575b60208310146103b35781601f84931161045c575b50602090601f83116001146103f4576000926103e9575b50508160011b916000199060031b1c1916176003555b83516001600160401b0381116103d357600454600181811c911680156103c9575b60208210146103b357601f811161034e575b50602094601f82116001146102e7579481929394956000926102dc575b50508160011b916000199060031b1c1916176004555b60058054336001600160a01b0319821681179092556040519491906001600160a01b03167f8be0079c531659141344cd1fd0a4f28419497f9722a3daafe3b4186f6b6457e0600080a360016006819055600d556000600e55600780546001600160a01b03199081166001600160a01b039384161790915560088054821693831693909317909255600980549092169216919091179055301561029a576002546a52b7d2dcc80cd2e400000081018091116102845760025530600052600060205260406000206a52b7d2dcc80cd2e400000081540190556040516a52b7d2dcc80cd2e4000000815260007fddf252ad1be2c89b69c2b068fc378daa952ba7f163c4a11628f55a4df523b3ef60203093a360405161289f90816105158239f35b634e487b7160e01b600052601160045260246000fd5b62461bcd60e51b815260206004820152601f60248201527f45524332303a206d696e7420746f20746865207a65726f2061646472657373006044820152606490fd5b015190503880610150565b601f198216956004600052806000209160005b8881106103365750836001959697981061031d575b505050811b01600455610166565b015160001960f88460031b161c1916905538808061030f565b919260206001819286850151815501940192016102fa565b60046000527f8a35acfbc15ff81a39ae7d344fd709f28e8600b4aa8c65c6b64bfe7fe36bd19b601f830160051c810191602084106103a9575b601f0160051c01905b81811061039d5750610133565b60008155600101610390565b9091508190610387565b634e487b7160e01b600052602260045260246000fd5b90607f1690610121565b634e487b7160e01b600052604160045260246000fd5b0151905038806100ea565b600360009081528281209350601f198516905b818110610444575090846001959493921061042b575b505050811b01600355610100565b015160001960f88460031b161c1916905538808061041d565b92936020600181928786015181550195019301610407565b60036000529091507fc2575a0e9e593c00f959f8c92f12db2869c3395a3b0502d05e2516446f71f85b601f840160051c810191602085106104c2575b90601f859493920160051c01905b8181106104b357506100d3565b600081558493506001016104a6565b9091508190610498565b91607f16916100bf565b600080fd5b6040519190601f01601f191682016001600160401b038111838210176103d357604052565b51906001600160a01b03821682036104d65756fe6080604052600436101561001257600080fd5b60003560e01c806306fdde03146120105780630917e776146113f9578063095ea7b314611fea5780630a5d264a14611e065780630e9cf0ba14611dd757806318160ddd14611db957806323b872dd14611cfb578063313ce56714611cdf578063317d945314611cb8578063347020af146119af57806334b4117d146118f557806339509351146118a35780633aecd0e31461147457806349ce89971461175b5780635ac48e6d1461173d57806369bcdb7d146114b557806370a0823114611474578063715018a614611417578063817b1cd2146113f9578063840a1ff4146111925780638da5cb5b1461116957806390bb9a291461111057806395d89b411461102b578063a457c2d714610f84578063a9059cbb14610f53578063aa4dea0014610f0b578063b3e14b3114610e51578063bc6e660414610e34578063d37a06f714610cb0578063db2e21bc14610c33578063dd62ed3e14610be2578063f2fde38b14610b1a5763f40219c01461018757600080fd5b60e0366003190112610b15576004356001600160401b038111610b15576101b290369060040161226e565b6024356001600160401b038111610b15576101d190369060040161226e565b906044356001600160401b038111610b15576101f190369060040161226e565b916064356001600160401b038111610b155761021190369060040161226e565b60a4359160c4356001600160401b038111610b155761023490369060040161226e565b9442841115610ad0573415610a9357600d549360001985146109f35760018501600d556103e83402913483046103e8036109f3576064885160208a0190812061027b612346565b6020815191012014600014610a095750506096925b6103e8843402029381850414901517156109f3578593604051956102b38761215f565b85875260208701938985526040880192835260608801913383526080890194855260a0890190815260c0890190608435825260e08a019283526101008a019c8d526101208a0195600187526101408b0194600086526101608c0196600088526101808d0199348b528d6101a081019c606490048d526101c0019c60008e52600052600a6020526040600020809e51815560010190518051906001600160401b03821161060e5781906103658454612125565b601f81116109a0575b50602090601f831160011461093b57600092610930575b50508160011b916000199060031b1c19161790555b51805160028e01916001600160401b03821161060e5781906103bc8454612125565b601f81116108dd575b50602090601f83116001146108785760009261086d575b50508160011b916000199060031b1c19161790555b5160038c0180546001600160a01b0319166001600160a01b039290921691909117905551805160048c01916001600160401b03821161060e5781906104368454612125565b601f811161081a575b50602090601f83116001146107b5576000926107aa575b50508160011b916000199060031b1c19161790555b51805160058b01916001600160401b03821161060e57819061048d8454612125565b601f8111610757575b50602090601f83116001146106f2576000926106e7575b50508160011b916000199060031b1c19161790555b516006890155516007880155600887019951998a516001600160401b03811161060e576104ef8254612125565b601f811161069f575b506020601f821160011461062f578190600c9a9b9c9d600092610624575b50508160011b916000199060031b1c19161790555b600988019251151560ff8019855416911617835551151561ff0083549160081b169061ff00191617825551151562ff000082549160101b169062ff0000191617905551600a85015551600b8401555191015561058934600e54612339565b600e5533600052600c602052604060002080546801000000000000000081101561060e576105bc91600182018155612240565b81549060031b9083821b91600019901b19161790557ffa99a653c4373b4e353c68118639a54b493260f42326788c4cbcc6742d56ac286040516020815280610609339560208301906120b8565b0390a3005b634e487b7160e01b600052604160045260246000fd5b015190503880610516565b601f1982169c83600052816000209d60005b818110610682575091600c9b9c9d9e91846001959410610669575b505050811b01905561052b565b015160001960f88460031b161c1916905538808061065c565b919e8f60016020928684930151815501940192019e91929e610641565b826000526020600020601f830160051c810191602084106106dd575b601f0160051c01905b8181106106d157506104f8565b600081556001016106c4565b90915081906106bb565b0151905038806104ad565b60008581528281209350601f198516905b81811061073f5750908460019594939210610726575b505050811b0190556104c2565b015160001960f88460031b161c19169055388080610719565b92936020600181928786015181550195019301610703565b909150836000526020600020601f840160051c810191602085106107a0575b90601f859493920160051c01905b8181106107915750610496565b60008155849350600101610784565b9091508190610776565b015190503880610456565b60008581528281209350601f198516905b81811061080257509084600195949392106107e9575b505050811b01905561046b565b015160001960f88460031b161c191690553880806107dc565b929360206001819287860151815501950193016107c6565b909150836000526020600020601f840160051c81019160208510610863575b90601f859493920160051c01905b818110610854575061043f565b60008155849350600101610847565b9091508190610839565b0151905038806103dc565b60008581528281209350601f198516905b8181106108c557509084600195949392106108ac575b505050811b0190556103f1565b015160001960f88460031b161c1916905538808061089f565b92936020600181928786015181550195019301610889565b909150836000526020600020601f840160051c81019160208510610926575b90601f859493920160051c01905b81811061091757506103c5565b6000815584935060010161090a565b90915081906108fc565b015190503880610385565b60008581528281209350601f198516905b818110610988575090846001959493921061096f575b505050811b01905561039a565b015160001960f88460031b161c19169055388080610962565b9293602060018192878601518155019501930161094c565b909150836000526020600020601f840160051c810191602085106109e9575b90601f859493920160051c01905b8181106109da575061036e565b600081558493506001016109cd565b90915081906109bf565b634e487b7160e01b600052601160045260246000fd5b89518120610a156126c7565b6020815191012014600014610a2f5750506078925b610290565b89518120610a3b612368565b6020815191012014600014610a54575050608292610290565b89949194519020600d6020604051610a6d60408261217b565b828152016c77617465725f7175616c69747960981b81522003610a2a57606e9350610290565b60405162461bcd60e51b815260206004820152601560248201527414dd185ad948185b5bdd5b9d081c995c5d5a5c9959605a1b6044820152606490fd5b60405162461bcd60e51b815260206004820152601e60248201527f446561646c696e65206d75737420626520696e207468652066757475726500006044820152606490fd5b600080fd5b34610b15576020366003190112610b1557610b336120f9565b610b3b61266f565b6001600160a01b03168015610b8e57600580546001600160a01b0319811683179091556001600160a01b03167f8be0079c531659141344cd1fd0a4f28419497f9722a3daafe3b4186f6b6457e0600080a3005b60405162461bcd60e51b815260206004820152602660248201527f4f776e61626c653a206e6577206f776e657220697320746865207a65726f206160448201526564647265737360d01b6064820152608490fd5b34610b15576040366003190112610b1557610bfb6120f9565b610c0361210f565b6001600160a01b039182166000908152600160209081526040808320949093168252928352819020549051908152f35b34610b15576000366003190112610b1557610c4c61266f565b600080808060018060a01b03600554164790828215610ca7575bf115610c9b5730600052600060205260406000205480610c8257005b600554610c9991906001600160a01b03163061249a565b005b6040513d6000823e3d90fd5b506108fc610c66565b34610b15576020366003190112610b1557600435600052600a60205260606040600020604051610cdf8161215f565b81548152610cef6001830161219c565b6020820152610d006002830161219c565b604082015260038201546001600160a01b031683820152610d236004830161219c565b6080820152610d346005830161219c565b60a0820152610dbc60068301549260c08301938452600781015460e0840152610d5f6008820161219c565b9261010081019384526101c0600c60098401549360ff80861615159586610120870152818160081c16151561014087015260101c161515610160850152600a810154610180850152600b8101546101a085015201549101526122c4565b610dc68151612734565b90600090805160208151910120610ddb612346565b6020815191012014600014610e095750508151811115915b5190604051921515835260208301526040820152f35b9290925160208151910120610e1c612368565b6020815191012003610df35780518210159250610df3565b34610b15576000366003190112610b155760206040516103e88152f35b34610b15576020366003190112610b15576001600160a01b03610e726120f9565b16600052600c60205260406000206040518060208354918281520190819360005260206000209060005b818110610ef55750505081610eb291038261217b565b6040519182916020830190602084525180915260408301919060005b818110610edc575050500390f35b8251845285945060209384019390920191600101610ece565b8254845260209093019260019283019201610e9c565b34610b15576020366003190112610b1557600435600052600b6020526060604060002080549060ff600260018301549201541690604051928352602083015215156040820152f35b34610b15576040366003190112610b1557610f79610f6f6120f9565b602435903361249a565b602060405160018152f35b34610b15576040366003190112610b1557610f9d6120f9565b60243590336000526001602052604060002060018060a01b03821660005260205260406000205491808310610fd857610f7992039033612392565b60405162461bcd60e51b815260206004820152602560248201527f45524332303a2064656372656173656420616c6c6f77616e63652062656c6f77604482015264207a65726f60d81b6064820152608490fd5b34610b15576000366003190112610b1557604051600060045461104d81612125565b80845290600181169081156110ec575060011461108d575b611089836110758185038261217b565b6040519182916020835260208301906120b8565b0390f35b600460009081527f8a35acfbc15ff81a39ae7d344fd709f28e8600b4aa8c65c6b64bfe7fe36bd19b939250905b8082106110d257509091508101602001611075611065565b9192600181602092548385880101520191019092916110ba565b60ff191660208086019190915291151560051b840190910191506110759050611065565b34610b15576040366003190112610b15576111296120f9565b6001600160a01b03166000908152600c6020526040902080546024359190821015610b155760209161115a91612240565b90549060031b1c604051908152f35b34610b15576000366003190112610b15576005546040516001600160a01b039091168152602090f35b34610b15576020366003190112610b15576004356111ae612619565b6000818152600a6020526040902060038101546001600160a01b031633036113a95760098101908154916111e460ff84166122c4565b60ff8360081c166113595760ff8360101c166113155760078201544210156112d057600a9260ff19169055015490600a820461122c611223828561232c565b93600e5461232c565b600e55801580156112a0575b50508180158015611279575b50506040519182527f75b2b6d713c23c94a2b5123c847c3fc2e015e416842dcdaf9a319c1645d1a61e60203393a36001600655005b600090611297575b600080809381933390f115610c9b578183611244565b506108fc611281565b6000808093819360018060a01b03600554169083906112c7575bf115610c9b578280611238565b506108fc6112ba565b60405162461bcd60e51b815260206004820152601c60248201527f43616e6e6f742063616e63656c20616674657220646561646c696e65000000006044820152606490fd5b606460405162461bcd60e51b815260206004820152602060248201527f43616e6e6f742063616e63656c20636c61696d656420636f6d6d69746d656e746044820152fd5b60405162461bcd60e51b815260206004820152602260248201527f43616e6e6f742063616e63656c2066756c66696c6c656420636f6d6d69746d656044820152611b9d60f21b6064820152608490fd5b60405162461bcd60e51b815260206004820152602260248201527f4f6e6c7920636f6d6d69746d656e742063726561746f722063616e2063616e63604482015261195b60f21b6064820152608490fd5b34610b15576000366003190112610b15576020600e54604051908152f35b34610b15576000366003190112610b155761143061266f565b600580546001600160a01b031981169091556000906001600160a01b03167f8be0079c531659141344cd1fd0a4f28419497f9722a3daafe3b4186f6b6457e08280a3005b34610b15576020366003190112610b155760206114ad6114926120f9565b6001600160a01b031660009081526020819052604090205490565b604051908152f35b34610b15576020366003190112610b15576040516114d28161215f565b60008152602081016060905260408101606090526060810160009052608081016060905260a081016060905260c081016000905260e08101600090526101008101606090526101208101600090526101408101600090526101608101600090526101808101600090526101a08101600090526101c00160009052600435600052600a6020526040600020604051906115698261215f565b805482526115796001820161219c565b602083019081529061158d6002820161219c565b6040840190815260038201546001600160a01b031660608501908152909390916115b96004820161219c565b608083019081526115cc6005830161219c565b60a08401908152600683015460c08501908152600784015460e086019081529195906115fa6008860161219c565b610100870190815260098601549361012088019860ff861615158a526101408901948660081c60ff16151586526101608a019660101c60ff1615158752600a890154976101808b01988952600b8a0154996101a08c019a8b52600c01549a6101c081019b8c526040519e8f9e8f926020845251602084015251604083016101e09052610200830161168a916120b8565b9051828203601f190160608401526116a291906120b8565b92516001600160a01b0316608090910152518c8203601f190160a08e01526116ca91906120b8565b90518b8203601f190160c08d01526116e291906120b8565b925160e08b0152516101008a015251888203601f19016101208a015261170891906120b8565b95511515610140880152511515610160870152511515610180860152516101a0850152516101c0840152516101e08301520390f35b34610b15576000366003190112610b15576020600d54604051908152f35b34610b15576020366003190112610b1557600435600052600a602052604060002080546001820161178b9061219c565b916117986002820161219c565b60038201546001600160a01b0316916117b36004820161219c565b926117c06005830161219c565b600683015460078401546117d66008860161219c565b92600986015497600a87015495600b88015497600c0154986040519c8d9c8d5260208d016101e090526101e08d0161180d916120b8565b8c810360408e015261181e916120b8565b9060608c01528a810360808c0152611835916120b8565b89810360a08b0152611846916120b8565b9160c089015260e0880152868103610100880152611863916120b8565b9360ff811615156101208701528060081c60ff16151561014087015260101c60ff1615156101608601526101808501526101a08401526101c08301520390f35b34610b15576040366003190112610b1557610f796118bf6120f9565b336000526001602052604060002060018060a01b0382166000526020526118ee60406000206024359054612339565b9033612392565b34610b15576020366003190112610b155760043561191161266f565b301561196a5761192381600254612339565b600255306000526000602052604060002081815401905560405190815260007fddf252ad1be2c89b69c2b068fc378daa952ba7f163c4a11628f55a4df523b3ef60203093a3005b60405162461bcd60e51b815260206004820152601f60248201527f45524332303a206d696e7420746f20746865207a65726f2061646472657373006044820152606490fd5b34610b15576020366003190112610b15576004356119cb612619565b6000818152600a6020526040902060038101546001600160a01b03163303611c69576009810191825492611a0160ff85166122c4565b60ff8460101c16611c2b5760078301544211611bf45760405163d37a06f760e01b81526004810183905293606085602481305afa948515610c9b57600090600096611bbf575b5015611b7057620101009062ffff001916179055600b820154913060005260006020528260406000205410611b2b5760008080600a8194611a8988333061249a565b0154611aa4611a9b8260011c83612339565b91600e5461232c565b600e55818115611b22575b3390f115610c9b57807f3c1ead90ebeb138d3eed6ab98affff3433e55aad723cca4ab05fa013058dde9b604060209581519081528587820152a2604051908282527fe12dc4982e9ff7f16f500e9990ecce72dc1af0aca6ae3a5cf8793cddf6d5eb8d843393a36001600655604051908152f35b506108fc611aaf565b60405162461bcd60e51b815260206004820152601b60248201527f496e73756666696369656e7420746f6b656e20726573657276657300000000006044820152606490fd5b60405162461bcd60e51b815260206004820152602160248201527f456e7669726f6e6d656e74616c20746172676574206e6f7420616368696576656044820152601960fa1b6064820152608490fd5b9050611be491955060603d606011611bed575b611bdc818361217b565b810190612308565b50949086611a47565b503d611bd2565b60405162461bcd60e51b815260206004820152600f60248201526e111958591b1a5b99481c185cdcd959608a1b6044820152606490fd5b60405162461bcd60e51b815260206004820152601660248201527514995dd85c9908185b1c9958591e4818db185a5b595960521b6044820152606490fd5b60405162461bcd60e51b815260206004820152602160248201527f4f6e6c7920636f6d6d69746d656e742063726561746f722063616e20636c61696044820152606d60f81b6064820152608490fd5b34610b15576000366003190112610b155730600090815260208181526040909120546114ad565b34610b15576000366003190112610b1557602060405160128152f35b34610b15576060366003190112610b1557611d146120f9565b611d1c61210f565b6001600160a01b0382166000908152600160208181526040808420338552909152909120549260443592918401611d58575b610f79935061249a565b828410611d7457611d6f83610f7995033383612392565b611d4e565b60405162461bcd60e51b815260206004820152601d60248201527f45524332303a20696e73756666696369656e7420616c6c6f77616e63650000006044820152606490fd5b34610b15576000366003190112610b15576020600254604051908152f35b34610b15576020366003190112610b1557600435600052600a6020526020600b60406000200154604051908152f35b34610b15576020366003190112610b155760043580600052600a602052604060002090600982018054611e3b60ff82166122c4565b6007840154421115611faf5760ff8160081c16611f6a5760405163d37a06f760e01b815260048101849052606081602481305afa908115610c9b57600091611f49575b50611f045760ff19169055600a820191611e9b8354600e5461232c565b600e55600080808060018060a01b0360055416875490828215611efb575bf115610c9b5760207fed7a0aea6f0340c8fd7f451ac8b492e2facd06e914d020af7d8f38321f04499a91600360018060a01b03910154169354604051908152a3005b506108fc611eb9565b60405162461bcd60e51b815260206004820152601c60248201527f546172676574207761732061637475616c6c79206163686965766564000000006044820152606490fd5b611f62915060603d606011611bed57611bdc818361217b565b505085611e7e565b60405162461bcd60e51b815260206004820152601c60248201527f436f6d6d69746d656e7420616c72656164792066756c66696c6c6564000000006044820152606490fd5b60405162461bcd60e51b8152602060048201526013602482015272111958591b1a5b99481b9bdd081c185cdcd959606a1b6044820152606490fd5b34610b15576040366003190112610b1557610f796120066120f9565b6024359033612392565b34610b15576000366003190112610b1557604051600060035461203281612125565b80845290600181169081156110ec575060011461205957611089836110758185038261217b565b600360009081527fc2575a0e9e593c00f959f8c92f12db2869c3395a3b0502d05e2516446f71f85b939250905b80821061209e57509091508101602001611075611065565b919260018160209254838588010152019101909291612086565b919082519283825260005b8481106120e4575050826000602080949584010152601f8019910116010190565b806020809284010151828286010152016120c3565b600435906001600160a01b0382168203610b1557565b602435906001600160a01b0382168203610b1557565b90600182811c92168015612155575b602083101461213f57565b634e487b7160e01b600052602260045260246000fd5b91607f1691612134565b6101e081019081106001600160401b0382111761060e57604052565b90601f801991011681019081106001600160401b0382111761060e57604052565b90604051918260008254926121b084612125565b808452936001811690811561221e57506001146121d7575b506121d59250038361217b565b565b90506000929192526020600020906000915b8183106122025750509060206121d592820101386121c8565b60209193508060019154838589010152019101909184926121e9565b9050602092506121d594915060ff191682840152151560051b820101386121c8565b80548210156122585760005260206000200190600090565b634e487b7160e01b600052603260045260246000fd5b81601f82011215610b15578035906001600160401b03821161060e57604051926122a2601f8401601f19166020018561217b565b82845260208383010111610b1557816000926020809301838601378301015290565b156122cb57565b60405162461bcd60e51b8152602060048201526015602482015274436f6d6d69746d656e74206e6f742061637469766560581b6044820152606490fd5b90816060910312610b155780518015158103610b1557916040602083015192015190565b919082039182116109f357565b919082018092116109f357565b6040519061235560408361217b565b6004825263706d323560e01b6020830152565b6040519061237760408361217b565b600c82526b3337b932b9ba2fb1b7bb32b960a11b6020830152565b6001600160a01b0316908115612449576001600160a01b03169182156123f95760207f8c5be1e5ebec7d5bd14f71427d1e84f3dd0314c0f7b2291e5b200ac8c7c3b925918360005260018252604060002085600052825280604060002055604051908152a3565b60405162461bcd60e51b815260206004820152602260248201527f45524332303a20617070726f766520746f20746865207a65726f206164647265604482015261737360f01b6064820152608490fd5b60405162461bcd60e51b8152602060048201526024808201527f45524332303a20617070726f76652066726f6d20746865207a65726f206164646044820152637265737360e01b6064820152608490fd5b6001600160a01b03169081156125c6576001600160a01b03169182156125755781600052600060205260406000205481811061252157817fddf252ad1be2c89b69c2b068fc378daa952ba7f163c4a11628f55a4df523b3ef9260209285600052600084520360406000205584600052600082526040600020818154019055604051908152a3565b60405162461bcd60e51b815260206004820152602660248201527f45524332303a207472616e7366657220616d6f756e7420657863656564732062604482015265616c616e636560d01b6064820152608490fd5b60405162461bcd60e51b815260206004820152602360248201527f45524332303a207472616e7366657220746f20746865207a65726f206164647260448201526265737360e81b6064820152608490fd5b60405162461bcd60e51b815260206004820152602560248201527f45524332303a207472616e736665722066726f6d20746865207a65726f206164604482015264647265737360d81b6064820152608490fd5b60026006541461262a576002600655565b60405162461bcd60e51b815260206004820152601f60248201527f5265656e7472616e637947756172643a207265656e7472616e742063616c6c006044820152606490fd5b6005546001600160a01b0316330361268357565b606460405162461bcd60e51b815260206004820152602060248201527f4f776e61626c653a2063616c6c6572206973206e6f7420746865206f776e65726044820152fd5b604051906126d660408361217b565b600382526231b79960e91b6020830152565b519069ffffffffffffffffffff82168203610b1557565b908160a0910312610b1557612713816126e8565b916020820151916040810151916127316080606084015193016126e8565b90565b80519060208101918220612746612346565b60208151910120146000146127c0575050600754604051633fabe5a360e21b81529060a090829060049082906001600160a01b03165afa908115610c9b5760009161278f575090565b6127b1915060a03d60a0116127b9575b6127a9818361217b565b8101906126ff565b505050905090565b503d61279f565b805182206127cc6126c7565b6020815191012014600014612815575050600854604051633fabe5a360e21b81529060a090829060049082906001600160a01b03165afa908115610c9b5760009161278f575090565b519020612820612368565b602081519101201461283157600090565b600954604051633fabe5a360e21b81529060a090829060049082906001600160a01b03165afa908115610c9b5760009161278f57509056fea2646970667358221220c4c5fb9fef30a95252a4341bcd16ae264dfb9792a2d41ef480927399ae82c58764736f6c634300081c0033",
  "linkReferences": {},
  "deployedLinkReferences": {}
}