{
  "_format": "hh-sol-artifact-1",
  "contractName": "OracleManager",
  "sourceName": "contracts/OracleManager.sol",
  "abi": [
    {
      "inputs": [
        {
          "internalType": "address",
          "name": "_chainlinkOracle",
          "type": "address"
        },
        {
          "internalType": "address",
          "name": "_fallbackOracle",
          "type": "address"
        }
      ],
      "stateMutability": "nonpayable",
      "type": "constructor"
    },
    {
      "anonymous": false,
      "inputs": [
        {
          "indexed": false,
          "internalType": "string",
          "name": "metric",
          "type": "string"
        },
        {
          "indexed": false,
          "internalType": "uint256",
          "name": "timestamp",
          "type": "uint256"
        }
      ],
      "name": "ChainlinkDataRequested",
      "type": "event"
    },
    {
      "anonymous": false,
      "inputs": [
        {
          "indexed": false,
          "internalType": "string",
          "name": "reason",
          "type": "string"
        },
        {
          "indexed": false,
          "internalType": "uint256",
          "name": "timestamp",
          "type": "uint256"
        }
      ],
      "name": "FallbackActivated",
      "type": "event"
    },
    {
      "anonymous": false,
      "inputs": [
        {
          "indexed": false,
          "internalType": "enum OracleManager.OracleStatus",
          "name": "oldStatus",
          "type": "uint8"
        },
        {
          "indexed": false,
          "internalType": "enum OracleManager.OracleStatus",
          "name": "newStatus",
          "type": "uint8"
        }
      ],
      "name": "OracleStatusChanged",
      "type": "event"
    },
    {
      "inputs": [],
      "name": "CHAINLINK_TIMEOUT",
      "outputs": [
        {
          "internalType": "uint256",
          "name": "",
          "type": "uint256"
        }
      ],
      "stateMutability": "view",
      "type": "function"
    },
    {
      "inputs": [],
      "name": "FALLBACK_TIMEOUT",
      "outputs": [
        {
          "internalType": "uint256",
          "name": "",
          "type": "uint256"
        }
      ],
      "stateMutability": "view",
      "type": "function"
    },
    {
      "inputs": [],
      "name": "chainlinkOracle",
      "outputs": [
        {
          "internalType": "contract ChainlinkEnvironmentalOracle",
          "name": "",
          "type": "address"
        }
      ],
      "stateMutability": "view",
      "type": "function"
    },
    {
      "inputs": [],
      "name": "currentStatus",
      "outputs": [
        {
          "internalType": "enum OracleManager.OracleStatus",
          "name": "",
          "type": "uint8"
        }
      ],
      "stateMutability": "view",
      "type": "function"
    },
    {
      "inputs": [],
      "name": "decimals",
      "outputs": [
        {
          "internalType": "uint8",
          "name": "",
          "type": "uint8"
        }
      ],
      "stateMutability": "view",
      "type": "function"
    },
    {
      "inputs": [],
      "name": "description",
      "outputs": [
        {
          "internalType": "string",
          "name": "",
          "type": "string"
        }
      ],
      "stateMutability": "view",
      "type": "function"
    },
    {
      "inputs": [],
      "name": "fallbackOracle",
      "outputs": [
        {
          "internalType": "contract RealEnvironmentalOracle",
          "name": "",
          "type": "address"
        }
      ],
      "stateMutability": "view",
      "type": "function"
    },
    {
      "inputs": [
        {
          "internalType": "string",
          "name": "metric",
          "type": "string"
        }
      ],
      "name": "getEnvironmentalData",
      "outputs": [
        {
          "internalType": "int256",
          "name": "",
          "type": "int256"
        }
      ],
      "stateMutability": "view",
      "type": "function"
    },
    {
      "inputs": [],
      "name": "getOracleStatus",
      "outputs": [
        {
          "internalType": "enum OracleManager.OracleStatus",
          "name": "status",
          "type": "uint8"
        },
        {
          "internalType": "bool",
          "name": "chainlinkHealthy",
          "type": "bool"
        },
        {
          "internalType": "bool",
          "name": "fallbackHealthy",
          "type": "bool"
        },
        {
          "internalType": "uint256",
          "name": "chainlinkLastUpdate",
          "type": "uint256"
        },
        {
          "internalType": "uint256",
          "name": "fallbackLastUpdate",
          "type": "uint256"
        }
      ],
      "stateMutability": "view",
      "type": "function"
    },
    {
      "inputs": [
        {
          "internalType": "uint80",
          "name": "_roundId",
          "type": "uint80"
        }
      ],
      "name": "getRoundData",
      "outputs": [
        {
          "internalType": "uint80",
          "name": "roundId",
          "type": "uint80"
        },
        {
          "internalType": "int256",
          "name": "answer",
          "type": "int256"
        },
        {
          "internalType": "uint256",
          "name": "startedAt",
          "type": "uint256"
        },
        {
          "internalType": "uint256",
          "name": "updatedAt",
          "type": "uint256"
        },
        {
          "internalType": "uint80",
          "name": "answeredInRound",
          "type": "uint80"
        }
      ],
      "stateMutability": "view",
      "type": "function"
    },
    {
      "inputs": [],
      "name": "latestRoundData",
      "outputs": [
        {
          "internalType": "uint80",
          "name": "roundId",
          "type": "uint80"
        },
        {
          "internalType": "int256",
          "name": "answer",
          "type": "int256"
        },
        {
          "internalType": "uint256",
          "name": "startedAt",
          "type": "uint256"
        },
        {
          "internalType": "uint256",
          "name": "updatedAt",
          "type": "uint256"
        },
        {
          "internalType": "uint80",
          "name": "answeredInRound",
          "type": "uint80"
        }
      ],
      "stateMutability": "view",
      "type": "function"
    },
    {
      "inputs": [],
      "name": "owner",
      "outputs": [
        {
          "internalType": "address",
          "name": "",
          "type": "address"
        }
      ],
      "stateMutability": "view",
      "type": "function"
    },
    {
      "inputs": [],
      "name": "requestAllEnvironmentalData",
      "outputs": [],
      "stateMutability": "nonpayable",
      "type": "function"
    },
    {
      "inputs": [
        {
          "internalType": "string",
          "name": "metric",
          "type": "string"
        },
        {
          "internalType": "string",
          "name": "location",
          "type": "string"
        },
        {
          "internalType": "string",
          "name": "longitude",
          "type": "string"
        }
      ],
      "name": "requestChainlinkData",
      "outputs": [],
      "stateMutability": "nonpayable",
      "type": "function"
    },
    {
      "inputs": [
        {
          "internalType": "address",
          "name": "_newOwner",
          "type": "address"
        }
      ],
      "name": "transferOwnership",
      "outputs": [],
      "stateMutability": "nonpayable",
      "type": "function"
    },
    {
      "inputs": [
        {
          "internalType": "address",
          "name": "_newChainlinkOracle",
          "type": "address"
        }
      ],
      "name": "updateChainlinkOracle",
      "outputs": [],
      "stateMutability": "nonpayable",
      "type": "function"
    },
    {
      "inputs": [
        {
          "internalType": "address",
          "name": "_newFallbackOracle",
          "type": "address"
        }
      ],
      "name": "updateFallbackOracle",
      "outputs": [],
      "stateMutability": "nonpayable",
      "type": "function"
    },
    {
      "inputs": [],
      "name": "version",
      "outputs": [
        {
          "internalType": "uint256",
          "name": "",
          "type": "uint256"
        }
      ],
      "stateMutability": "view",
      "type": "function"
    }
  ],
  "bytecode": "0x60803461029d57601f61168938819003918201601f19168301916001600160401b038311848410176102a257808492604094855283398101031261029d57610052602061004b836102b8565b92016102b8565b90600354600181811c91168015610293575b602082101461027d57601f8111610215575b50606560039081556000527f4475616c204f7261636c65204d616e61676572202d20436861696e6c696e6b207fc2575a0e9e593c00f959f8c92f12db2869c3395a3b0502d05e2516446f71f85b55715072696d617279202b2046616c6c6261636b60701b7fc2575a0e9e593c00f959f8c92f12db2869c3395a3b0502d05e2516446f71f85c5560016004556001600160a01b03169081156101c0576001600160a01b031690811561016c57600080546001600160a01b031990811692909217905560018054909116919091179055600280546001600160a81b0319163360ff60a01b19161790556040516113bc90816102cd8239f35b60405162461bcd60e51b815260206004820152602660248201527f46616c6c6261636b206f7261636c652063616e6e6f74206265207a65726f206160448201526564647265737360d01b6064820152608490fd5b60405162461bcd60e51b815260206004820152602760248201527f436861696e6c696e6b206f7261636c652063616e6e6f74206265207a65726f206044820152666164647265737360c81b6064820152608490fd5b6003600052601f0160051c7fc2575a0e9e593c00f959f8c92f12db2869c3395a3b0502d05e2516446f71f85b017fc2575a0e9e593c00f959f8c92f12db2869c3395a3b0502d05e2516446f71f85d5b8181106102715750610076565b60008155600101610264565b634e487b7160e01b600052602260045260246000fd5b90607f1690610064565b600080fd5b634e487b7160e01b600052604160045260246000fd5b51906001600160a01b038216820361029d5756fe608080604052600436101561001357600080fd5b60003560e01c908163048c096514610c6257508063313ce56714610c4657806354fd4d5014610c285780635fd0b34a1461085957806360c0e35f146106ae578063629838e5146106855780637284e4161461057957806382a0b84f146104445780638da5cb5b1461041b5780639a6fc8f514610354578063ae1acb23146102f1578063d1b5f24d146102ae578063d33b350514610291578063d4bd49931461022e578063ef06e72c14610205578063ef8a9235146101da578063f2fde38b146101435763feaf968c146100e557600080fd5b3461013e57600036600319011261013e5761013a610101611093565b6040805169ffffffffffffffffffff968716815260208101959095528401929092526060830152909116608082015290819060a0820190565b0390f35b600080fd5b3461013e57602036600319011261013e576004356001600160a01b0381169081900361013e57600254610180336001600160a01b03831614610d70565b8115610196576001600160a01b03191617600255005b606460405162461bcd60e51b815260206004820152602060248201527f4e6577206f776e65722063616e6e6f74206265207a65726f20616464726573736044820152fd5b3461013e57600036600319011261013e57602060ff60025460a01c166102036040518092610d4d565bf35b3461013e57600036600319011261013e576000546040516001600160a01b039091168152602090f35b3461013e57602036600319011261013e576004356001600160a01b0381169081900361013e5761026960018060a01b03600254163314610d70565b610274811515610f18565b6bffffffffffffffffffffffff60a01b6000541617600055600080f35b3461013e57600036600319011261013e5760206040516154608152f35b3461013e57602036600319011261013e5760043567ffffffffffffffff811161013e576102e96102e46020923690600401610cb5565b610f56565b604051908152f35b3461013e57602036600319011261013e576004356001600160a01b0381169081900361013e5761032c60018060a01b03600254163314610d70565b610337811515610f18565b6bffffffffffffffffffffffff60a01b6001541617600155600080f35b3461013e57602036600319011261013e5760043569ffffffffffffffffffff81160361013e57604051633fabe5a360e21b815260a081600481305afa801561040f576000809181829083926103d3575b6040805169ffffffffffffffffffff95861681526020810196909652850152606084015216608082015260a090f35b50505050506103fc61013a9160a03d60a011610408575b6103f48183610c7d565b810190610ec3565b929450849392916103a4565b503d6103ea565b6040513d6000823e3d90fd5b3461013e57600036600319011261013e576002546040516001600160a01b039091168152602090f35b3461013e57600036600319011261013e5760a0600080600483600180821b0384541660405192838092633fabe5a360e21b82525afa839181610555575b5061053d575b5060009081600485600180821b036001541660405192838092633fabe5a360e21b82525afa829181610519575b50610502575b5083156104ec576000935b6104d26040518096610d4d565b151560208501521515604084015260608301526080820152f35b80156104fa576001936104c5565b6002936104c5565b9250506154606105128342610ef5565b10856104ba565b610531919250873d8911610408576103f48183610c7d565b509250505090876104b4565b915050611c2061054d8242610ef5565b109083610487565b61056d919250853d8711610408576103f48183610c7d565b50925050509085610481565b3461013e57600036600319011261013e5760405160006003548060011c9060018116801561067b575b6020831081146106675782855290811561064357506001146105e3575b61013a836105cf81850382610c7d565b604051918291602083526020830190610d0c565b91905060036000527fc2575a0e9e593c00f959f8c92f12db2869c3395a3b0502d05e2516446f71f85b916000905b808210610629575090915081016020016105cf6105bf565b919260018160209254838588010152019101909291610611565b60ff191660208086019190915291151560051b840190910191506105cf90506105bf565b634e487b7160e01b84526022600452602484fd5b91607f16916105a2565b3461013e57600036600319011261013e576001546040516001600160a01b039091168152602090f35b3461013e57600036600319011261013e576106d460018060a01b03600254163314610d70565b6000602060018060a01b038254166064604051809481936331a51c1d60e01b835285600484015260086024840152674e657720596f726b60c01b60448401525af1801561040f5761082a575b5060018060a01b0360005416602060405180926320a6130360e21b82528160008161074d60048201610e6b565b03925af1801561040f576107fb575b5060018060a01b0360005416602060405180926361e2791760e01b82528160008161078960048201610e6b565b03925af1801561040f576107cc575b6000805160206113678339815191526080604051604081526003604082015262185b1b60ea1b6060820152426020820152a1005b6020813d6020116107f3575b816107e560209383610c7d565b8101031261013e5751610798565b3d91506107d8565b6020813d602011610822575b8161081460209383610c7d565b8101031261013e575161075c565b3d9150610807565b6020813d602011610851575b8161084360209383610c7d565b8101031261013e5751610720565b3d9150610836565b3461013e57606036600319011261013e5760043567ffffffffffffffff811161013e5761088a903690600401610cb5565b60243567ffffffffffffffff811161013e576108aa903690600401610cb5565b9060443567ffffffffffffffff811161013e576108cb903690600401610cb5565b916108e160018060a01b03600254163314610d70565b815115610bea57805115610ba557815160208301908120610900610dc7565b60208151910120146000146109bc57506000925061094860209160018060a01b03855416906040519586809481936331a51c1d60e01b83528760048401526024830190610d0c565b03925af190811561040f57600080516020611367833981519152926109829261098d575b505b604051918291604083526040830190610d0c565b4260208301520390a1005b6109ae9060203d6020116109b5575b6109a68183610c7d565b810190610e34565b508361096c565b503d61099c565b825181206109c8610de9565b6020815191012014600014610a9e5750825115610a5957610a109260209160018060a01b03600054169060006040518097819582946320a6130360e21b845260048401610e43565b03925af190811561040f576000805160206113678339815191529261098292610a3a575b5061096e565b610a529060203d6020116109b5576109a68183610c7d565b5083610a34565b60405162461bcd60e51b815260206004820152601a60248201527f4c6f6e67697475646520726571756972656420666f7220434f320000000000006044820152606490fd5b82519020610aaa610e0a565b6020815191012014610ad2575b5060008051602061136783398151915291506109829061096e565b825115610b5457610b0a9260209160018060a01b03600054169060006040518097819582946361e2791760e01b845260048401610e43565b03925af190811561040f576000805160206113678339815191529261098292610b35575b5090610ab7565b610b4d9060203d6020116109b5576109a68183610c7d565b5083610b2e565b60405162461bcd60e51b815260206004820152602360248201527f4c6f6e67697475646520726571756972656420666f7220666f7265737420636f6044820152623b32b960e91b6064820152608490fd5b60405162461bcd60e51b815260206004820152601860248201527f4c6f636174696f6e2063616e6e6f7420626520656d70747900000000000000006044820152606490fd5b60405162461bcd60e51b81526020600482015260166024820152754d65747269632063616e6e6f7420626520656d70747960501b6044820152606490fd5b3461013e57600036600319011261013e576020600454604051908152f35b3461013e57600036600319011261013e57602060405160028152f35b3461013e57600036600319011261013e5780611c2060209252f35b90601f8019910116810190811067ffffffffffffffff821117610c9f57604052565b634e487b7160e01b600052604160045260246000fd5b81601f8201121561013e5780359067ffffffffffffffff8211610c9f5760405192610cea601f8401601f191660200185610c7d565b8284526020838301011161013e57816000926020809301838601378301015290565b919082519283825260005b848110610d38575050826000602080949584010152601f8019910116010190565b80602080928401015182828601015201610d17565b906003821015610d5a5752565b634e487b7160e01b600052602160045260246000fd5b15610d7757565b60405162461bcd60e51b815260206004820152602260248201527f4f6e6c79206f776e65722063616e20706572666f726d2074686973206163746960448201526137b760f11b6064820152608490fd5b60405190610dd6604083610c7d565b6004825263706d323560e01b6020830152565b60405190610df8604083610c7d565b600382526231b79960e91b6020830152565b60405190610e19604083610c7d565b600c82526b3337b932b9ba2fb1b7bb32b960a11b6020830152565b9081602091031261013e575190565b9091610e5a610e6893604084526040840190610d0c565b916020818403910152610d0c565b90565b60c090604081526007604082015266068605c6e6264760cb1b606082015260806020820152600860808201526702d37342e303036360c41b60a08201520190565b519069ffffffffffffffffffff8216820361013e57565b908160a091031261013e57610ed781610eac565b91602082015191604081015191610e68608060608401519301610eac565b91908203918211610f0257565b634e487b7160e01b600052601160045260246000fd5b15610f1f57565b60405162461bcd60e51b815260206004820152600f60248201526e496e76616c6964206164647265737360881b6044820152606490fd5b610f5f81611188565b60008113611015575b50600154604051631b380d1f60e11b815260206004820152919060a09083906001600160a01b03168180610f9f6024820187610d0c565b03915afa80600093600092610fec575b50610fc0575b50610e6891506112c4565b610fcd6154609142610ef5565b1080610fe2575b610fde5781610fb5565b5090565b5060008213610fd4565b909350611008915060a03d60a011610408576103f48183610c7d565b5094925050929038610faf565b600054604051633fabe5a360e21b81529060a090829060049082906001600160a01b03165afa6000918161106d575b50611050575b50610f68565b61105d611c209142610ef5565b10611068578061104a565b905090565b61108791925060a03d60a011610408576103f48183610c7d565b50925050509038611044565b600054604051633fabe5a360e21b81529060a090829060049082906001600160a01b03165afa90600090819282818193829361115c575b50611146575b5050600154604051633fabe5a360e21b8152935060a0925083915060049082906001600160a01b03165afa90811561040f5760009182938380938193611119575b509493929190565b935050935050611138915060a03d60a011610408576103f48183610c7d565b929491939092919038611111565b611c206111538442610ef5565b10156110d05794565b93509450505061117b915060a03d60a011610408576103f48183610c7d565b92949193909291386110ca565b8051906020810191822061119a610dc7565b602081519101201460001461121957505060005460405163b53eeb6f60e01b815290602090829060049082906001600160a01b03165afa600091816111e5575b50610e685750600090565b9091506020813d602011611211575b8161120160209383610c7d565b8101031261013e575190386111da565b3d91506111f4565b80518220611225610de9565b602081519101201460001461126f575050600054604051635f87653f60e11b815290602090829060049082906001600160a01b03165afa600091816111e55750610e685750600090565b51902061127a610e0a565b602081519101201461128b57600090565b60005460405163bb99b96960e01b815290602090829060049082906001600160a01b03165afa600091816111e55750610e685750600090565b805190602081019182206112d6610dc7565b60208151910120146000146112ed5750506105dc90565b805182206112f9610de9565b602081519101201460001461131057505061a41090565b8051822061131c610e0a565b6020815191012014600014611333575050611a9090565b51902060036020604051611348604082610c7d565b828152016261716960e81b8152201461136057600090565b6121349056fe2a95e0aaa1ac6affed57d67ae75fdce2fdbdfa4dd68fd323fef9618559a7b502a26469706673582212205148c78c14923671a7216c8e06910df5e60652b22f8c539521fe246ea6bb249364736f6c634300081c0033",
  "linkReferences": {},
  "deployedLinkReferences": {}
}