{
  "_format": "hh-sol-artifact-1",
  "contractName": "CivicToken",
  "sourceName": "contracts/CivicToken.sol",
  "abi": [
    {
      "inputs": [],
      "stateMutability": "nonpayable",
      "type": "constructor"
    },
    {
      "anonymous": false,
      "inputs": [
        {
          "indexed": true,
          "internalType": "address",
          "name": "owner",
          "type": "address"
        },
        {
          "indexed": true,
          "internalType": "address",
          "name": "spender",
          "type": "address"
        },
        {
          "indexed": false,
          "internalType": "uint256",
          "name": "value",
          "type": "uint256"
        }
      ],
      "name": "Approval",
      "type": "event"
    },
    {
      "anonymous": false,
      "inputs": [
        {
          "indexed": true,
          "internalType": "address",
          "name": "previousOwner",
          "type": "address"
        },
        {
          "indexed": true,
          "internalType": "address",
          "name": "newOwner",
          "type": "address"
        }
      ],
      "name": "OwnershipTransferred",
      "type": "event"
    },
    {
      "anonymous": false,
      "inputs": [
        {
          "indexed": true,
          "internalType": "address",
          "name": "account",
          "type": "address"
        },
        {
          "indexed": false,
          "internalType": "uint256",
          "name": "amount",
          "type": "uint256"
        },
        {
          "indexed": false,
          "internalType": "string",
          "name": "reason",
          "type": "string"
        }
      ],
      "name": "TokensPenalized",
      "type": "event"
    },
    {
      "anonymous": false,
      "inputs": [
        {
          "indexed": true,
          "internalType": "address",
          "name": "recipient",
          "type": "address"
        },
        {
          "indexed": false,
          "internalType": "uint256",
          "name": "amount",
          "type": "uint256"
        },
        {
          "indexed": false,
          "internalType": "string",
          "name": "reason",
          "type": "string"
        }
      ],
      "name": "TokensRewarded",
      "type": "event"
    },
    {
      "anonymous": false,
      "inputs": [
        {
          "indexed": true,
          "internalType": "address",
          "name": "account",
          "type": "address"
        },
        {
          "indexed": false,
          "internalType": "uint256",
          "name": "amount",
          "type": "uint256"
        }
      ],
      "name": "TokensStaked",
      "type": "event"
    },
    {
      "anonymous": false,
      "inputs": [
        {
          "indexed": true,
          "internalType": "address",
          "name": "account",
          "type": "address"
        },
        {
          "indexed": false,
          "internalType": "uint256",
          "name": "amount",
          "type": "uint256"
        }
      ],
      "name": "TokensUnstaked",
      "type": "event"
    },
    {
      "anonymous": false,
      "inputs": [
        {
          "indexed": true,
          "internalType": "address",
          "name": "from",
          "type": "address"
        },
        {
          "indexed": true,
          "internalType": "address",
          "name": "to",
          "type": "address"
        },
        {
          "indexed": false,
          "internalType": "uint256",
          "name": "value",
          "type": "uint256"
        }
      ],
      "name": "Transfer",
      "type": "event"
    },
    {
      "inputs": [],
      "name": "MAX_SUPPLY",
      "outputs": [
        {
          "internalType": "uint256",
          "name": "",
          "type": "uint256"
        }
      ],
      "stateMutability": "view",
      "type": "function"
    },
    {
      "inputs": [],
      "name": "PENALTY_AMOUNT",
      "outputs": [
        {
          "internalType": "uint256",
          "name": "",
          "type": "uint256"
        }
      ],
      "stateMutability": "view",
      "type": "function"
    },
    {
      "inputs": [],
      "name": "REWARD_AMOUNT",
      "outputs": [
        {
          "internalType": "uint256",
          "name": "",
          "type": "uint256"
        }
      ],
      "stateMutability": "view",
      "type": "function"
    },
    {
      "inputs": [
        {
          "internalType": "address",
          "name": "minter",
          "type": "address"
        }
      ],
      "name": "addAuthorizedMinter",
      "outputs": [],
      "stateMutability": "nonpayable",
      "type": "function"
    },
    {
      "inputs": [
        {
          "internalType": "address",
          "name": "owner",
          "type": "address"
        },
        {
          "internalType": "address",
          "name": "spender",
          "type": "address"
        }
      ],
      "name": "allowance",
      "outputs": [
        {
          "internalType": "uint256",
          "name": "",
          "type": "uint256"
        }
      ],
      "stateMutability": "view",
      "type": "function"
    },
    {
      "inputs": [
        {
          "internalType": "address",
          "name": "spender",
          "type": "address"
        },
        {
          "internalType": "uint256",
          "name": "amount",
          "type": "uint256"
        }
      ],
      "name": "approve",
      "outputs": [
        {
          "internalType": "bool",
          "name": "",
          "type": "bool"
        }
      ],
      "stateMutability": "nonpayable",
      "type": "function"
    },
    {
      "inputs": [
        {
          "internalType": "address",
          "name": "",
          "type": "address"
        }
      ],
      "name": "authorizedMinters",
      "outputs": [
        {
          "internalType": "bool",
          "name": "",
          "type": "bool"
        }
      ],
      "stateMutability": "view",
      "type": "function"
    },
    {
      "inputs": [
        {
          "internalType": "address",
          "name": "account",
          "type": "address"
        }
      ],
      "name": "balanceOf",
      "outputs": [
        {
          "internalType": "uint256",
          "name": "",
          "type": "uint256"
        }
      ],
      "stateMutability": "view",
      "type": "function"
    },
    {
      "inputs": [],
      "name": "decimals",
      "outputs": [
        {
          "internalType": "uint8",
          "name": "",
          "type": "uint8"
        }
      ],
      "stateMutability": "view",
      "type": "function"
    },
    {
      "inputs": [
        {
          "internalType": "address",
          "name": "spender",
          "type": "address"
        },
        {
          "internalType": "uint256",
          "name": "subtractedValue",
          "type": "uint256"
        }
      ],
      "name": "decreaseAllowance",
      "outputs": [
        {
          "internalType": "bool",
          "name": "",
          "type": "bool"
        }
      ],
      "stateMutability": "nonpayable",
      "type": "function"
    },
    {
      "inputs": [
        {
          "internalType": "address",
          "name": "token",
          "type": "address"
        },
        {
          "internalType": "uint256",
          "name": "amount",
          "type": "uint256"
        }
      ],
      "name": "emergencyWithdraw",
      "outputs": [],
      "stateMutability": "nonpayable",
      "type": "function"
    },
    {
      "inputs": [
        {
          "internalType": "string",
          "name": "commitmentType",
          "type": "string"
        }
      ],
      "name": "getPenaltyAmount",
      "outputs": [
        {
          "internalType": "uint256",
          "name": "",
          "type": "uint256"
        }
      ],
      "stateMutability": "pure",
      "type": "function"
    },
    {
      "inputs": [
        {
          "internalType": "string",
          "name": "commitmentType",
          "type": "string"
        }
      ],
      "name": "getRewardAmount",
      "outputs": [
        {
          "internalType": "uint256",
          "name": "",
          "type": "uint256"
        }
      ],
      "stateMutability": "pure",
      "type": "function"
    },
    {
      "inputs": [
        {
          "internalType": "address",
          "name": "account",
          "type": "address"
        }
      ],
      "name": "getStakedBalance",
      "outputs": [
        {
          "internalType": "uint256",
          "name": "",
          "type": "uint256"
        }
      ],
      "stateMutability": "view",
      "type": "function"
    },
    {
      "inputs": [
        {
          "internalType": "address",
          "name": "spender",
          "type": "address"
        },
        {
          "internalType": "uint256",
          "name": "addedValue",
          "type": "uint256"
        }
      ],
      "name": "increaseAllowance",
      "outputs": [
        {
          "internalType": "bool",
          "name": "",
          "type": "bool"
        }
      ],
      "stateMutability": "nonpayable",
      "type": "function"
    },
    {
      "inputs": [],
      "name": "name",
      "outputs": [
        {
          "internalType": "string",
          "name": "",
          "type": "string"
        }
      ],
      "stateMutability": "view",
      "type": "function"
    },
    {
      "inputs": [],
      "name": "owner",
      "outputs": [
        {
          "internalType": "address",
          "name": "",
          "type": "address"
        }
      ],
      "stateMutability": "view",
      "type": "function"
    },
    {
      "inputs": [
        {
          "internalType": "address",
          "name": "account",
          "type": "address"
        },
        {
          "internalType": "uint256",
          "name": "amount",
          "type": "uint256"
        },
        {
          "internalType": "string",
          "name": "reason",
          "type": "string"
        }
      ],
      "name": "penalizeTokens",
      "outputs": [],
      "stateMutability": "nonpayable",
      "type": "function"
    },
    {
      "inputs": [
        {
          "internalType": "address",
          "name": "minter",
          "type": "address"
        }
      ],
      "name": "removeAuthorizedMinter",
      "outputs": [],
      "stateMutability": "nonpayable",
      "type": "function"
    },
    {
      "inputs": [],
      "name": "renounceOwnership",
      "outputs": [],
      "stateMutability": "nonpayable",
      "type": "function"
    },
    {
      "inputs": [
        {
          "internalType": "address",
          "name": "recipient",
          "type": "address"
        },
        {
          "internalType": "uint256",
          "name": "amount",
          "type": "uint256"
        },
        {
          "internalType": "string",
          "name": "reason",
          "type": "string"
        }
      ],
      "name": "rewardTokens",
      "outputs": [],
      "stateMutability": "nonpayable",
      "type": "function"
    },
    {
      "inputs": [
        {
          "internalType": "uint256",
          "name": "amount",
          "type": "uint256"
        }
      ],
      "name": "stakeTokens",
      "outputs": [],
      "stateMutability": "nonpayable",
      "type": "function"
    },
    {
      "inputs": [
        {
          "internalType": "address",
          "name": "",
          "type": "address"
        }
      ],
      "name": "stakedTokens",
      "outputs": [
        {
          "internalType": "uint256",
          "name": "",
          "type": "uint256"
        }
      ],
      "stateMutability": "view",
      "type": "function"
    },
    {
      "inputs": [],
      "name": "symbol",
      "outputs": [
        {
          "internalType": "string",
          "name": "",
          "type": "string"
        }
      ],
      "stateMutability": "view",
      "type": "function"
    },
    {
      "inputs": [],
      "name": "totalSupply",
      "outputs": [
        {
          "internalType": "uint256",
          "name": "",
          "type": "uint256"
        }
      ],
      "stateMutability": "view",
      "type": "function"
    },
    {
      "inputs": [
        {
          "internalType": "address",
          "name": "to",
          "type": "address"
        },
        {
          "internalType": "uint256",
          "name": "amount",
          "type": "uint256"
        }
      ],
      "name": "transfer",
      "outputs": [
        {
          "internalType": "bool",
          "name": "",
          "type": "bool"
        }
      ],
      "stateMutability": "nonpayable",
      "type": "function"
    },
    {
      "inputs": [
        {
          "internalType": "address",
          "name": "from",
          "type": "address"
        },
        {
          "internalType": "address",
          "name": "to",
          "type": "address"
        },
        {
          "internalType": "uint256",
          "name": "amount",
          "type": "uint256"
        }
      ],
      "name": "transferFrom",
      "outputs": [
        {
          "internalType": "bool",
          "name": "",
          "type": "bool"
        }
      ],
      "stateMutability": "nonpayable",
      "type": "function"
    },
    {
      "inputs": [
        {
          "internalType": "address",
          "name": "newOwner",
          "type": "address"
        }
      ],
      "name": "transferOwnership",
      "outputs": [],
      "stateMutability": "nonpayable",
      "type": "function"
    },
    {
      "inputs": [
        {
          "internalType": "address",
          "name": "account",
          "type": "address"
        },
        {
          "internalType": "uint256",
          "name": "amount",
          "type": "uint256"
        }
      ],
      "name": "unstakeTokens",
      "outputs": [],
      "stateMutability": "nonpayable",
      "type": "function"
    }
  ],
  "bytecode": "0x60806040523461046257604080519081016001600160401b0381118282101761036d576040908152601182527021b4bb34b1ac21b430b4b7102a37b5b2b760791b602083015280519081016001600160401b0381118282101761036d576040526005815264434956494360d81b602082015281516001600160401b03811161036d57600354600181811c91168015610458575b602082101461034d57601f81116103f3575b50602092601f821160011461038e5792819293600092610383575b50508160011b916000199060031b1c1916176003555b80516001600160401b03811161036d57600454600181811c91168015610363575b602082101461034d57601f81116102e8575b50602091601f821160011461028457918192600092610279575b50508160011b916000199060031b1c1916176004555b60058054336001600160a01b03198216811790925560405191906001600160a01b03167f8be0079c531659141344cd1fd0a4f28419497f9722a3daafe3b4186f6b6457e0600080a33315610237576002546a084595161401484a00000081018091116102215760025533600052600060205260406000206a084595161401484a00000081540190556040516a084595161401484a000000815260007fddf252ad1be2c89b69c2b068fc378daa952ba7f163c4a11628f55a4df523b3ef60203393a33360005260066020526040600020600160ff198254161790556040516115dd90816104688239f35b634e487b7160e01b600052601160045260246000fd5b62461bcd60e51b815260206004820152601f60248201527f45524332303a206d696e7420746f20746865207a65726f2061646472657373006044820152606490fd5b015190503880610122565b601f198216926004600052806000209160005b8581106102d0575083600195106102b7575b505050811b01600455610138565b015160001960f88460031b161c191690553880806102a9565b91926020600181928685015181550194019201610297565b60046000527f8a35acfbc15ff81a39ae7d344fd709f28e8600b4aa8c65c6b64bfe7fe36bd19b601f830160051c81019160208410610343575b601f0160051c01905b8181106103375750610108565b6000815560010161032a565b9091508190610321565b634e487b7160e01b600052602260045260246000fd5b90607f16906100f6565b634e487b7160e01b600052604160045260246000fd5b0151905038806100bf565b601f198216936003600052806000209160005b8681106103db57508360019596106103c2575b505050811b016003556100d5565b015160001960f88460031b161c191690553880806103b4565b919260206001819286850151815501940192016103a1565b60036000527fc2575a0e9e593c00f959f8c92f12db2869c3395a3b0502d05e2516446f71f85b601f830160051c8101916020841061044e575b601f0160051c01905b81811061044257506100a4565b60008155600101610435565b909150819061042c565b90607f1690610092565b600080fdfe608080604052600436101561001357600080fd5b60003560e01c90816306fdde0314610ea157508063095ea7b314610e7b5780630ceb382e14610cfc57806318160ddd14610cde57806323b872dd14610c20578063313ce56714610c0457806332cb6b0c14610bdd5780633950935114610b8b5780633a02a42d146106105780633ffd65cc14610b67578063475ae03914610b255780635f710f5c14610ae05780636984bf0714610aa557806370a0823114610a6b578063715018a614610a0e5780637547c7a31461094c5780637854cf59146109095780638da5cb5b146108e057806395ccea671461080157806395d89b41146106f1578063a457c2d71461064a578063a5b39cfb14610610578063a9059cbb146105df578063aa2fe91b146105a0578063cf8494421461057c578063dd62ed3e1461052b578063e89a173e1461040a578063f2fde38b146103425763f8e382891461015e57600080fd5b3461033d5761016c36611060565b9133600052600660205260ff604060002054168015610329575b61018f906110a6565b60018060a01b03169182600052600060205281604060002054106102e5578215610296578260005260006020526040600020549180831061024657807f29f1038916d92a4ba65317c5af7ed28c68990aaec433b304dc80f863bcedb832938560005260006020520360406000205580600254036002556000847fddf252ad1be2c89b69c2b068fc378daa952ba7f163c4a11628f55a4df523b3ef6020604051858152a3610241604051928392836110f8565b0390a2005b60405162461bcd60e51b815260206004820152602260248201527f45524332303a206275726e20616d6f756e7420657863656564732062616c616e604482015261636560f01b6064820152608490fd5b60405162461bcd60e51b815260206004820152602160248201527f45524332303a206275726e2066726f6d20746865207a65726f206164647265736044820152607360f81b6064820152608490fd5b606460405162461bcd60e51b815260206004820152602060248201527f496e73756666696369656e742062616c616e636520666f722070656e616c74796044820152fd5b506005546001600160a01b03163314610186565b600080fd5b3461033d57602036600319011261033d5761035b610fa5565b61036361154f565b6001600160a01b031680156103b657600580546001600160a01b0319811683179091556001600160a01b03167f8be0079c531659141344cd1fd0a4f28419497f9722a3daafe3b4186f6b6457e0600080a3005b60405162461bcd60e51b815260206004820152602660248201527f4f776e61626c653a206e6577206f776e657220697320746865207a65726f206160448201526564647265737360d01b6064820152608490fd5b3461033d57604036600319011261033d57610423610fa5565b60243533600052600660205260ff604060002054168015610517575b610448906110a6565b60018060a01b0382169182600052600760205281604060002054106104d25782600052600760205260406000209182548181039081116104bc57816020936104b3927f9845e367b683334e5c0b12d7b81721ac518e649376fa65e3d68324e8f34f26799655306113d0565b604051908152a2005b634e487b7160e01b600052601160045260246000fd5b60405162461bcd60e51b815260206004820152601a60248201527f496e73756666696369656e74207374616b656420746f6b656e730000000000006044820152606490fd5b506005546001600160a01b0316331461043f565b3461033d57604036600319011261033d57610544610fa5565b61054c610fbb565b6001600160a01b039182166000908152600160209081526040808320949093168252928352819020549051908152f35b3461033d57600036600319011261033d576020604051683635c9adc5dea000008152f35b3461033d57602036600319011261033d576001600160a01b036105c1610fa5565b166000526006602052602060ff604060002054166040519015158152f35b3461033d57604036600319011261033d576106056105fb610fa5565b60243590336113d0565b602060405160018152f35b3461033d57602036600319011261033d576001600160a01b03610631610fa5565b1660005260076020526020604060002054604051908152f35b3461033d57604036600319011261033d57610663610fa5565b60243590336000526001602052604060002060018060a01b0382166000526020526040600020549180831061069e57610605920390336112c8565b60405162461bcd60e51b815260206004820152602560248201527f45524332303a2064656372656173656420616c6c6f77616e63652062656c6f77604482015264207a65726f60d81b6064820152608490fd5b3461033d57600036600319011261033d5760405160006004548060011c906001811680156107f7575b6020831081146107e3578285529081156107bf575060011461075f575b61075b8361074781850382610fd1565b604051918291602083526020830190610f80565b0390f35b91905060046000527f8a35acfbc15ff81a39ae7d344fd709f28e8600b4aa8c65c6b64bfe7fe36bd19b916000905b8082106107a557509091508101602001610747610737565b91926001816020925483858801015201910190929161078d565b60ff191660208086019190915291151560051b840190910191506107479050610737565b634e487b7160e01b84526022600452602484fd5b91607f169161071a565b3461033d57604036600319011261033d5761081a610fa5565b6024359061082661154f565b6001600160a01b03168061086f57506005546000918291829182916001600160a01b0316828215610866575bf11561085a57005b6040513d6000823e3d90fd5b506108fc610852565b90602090604460018060a01b03600554166000604051958694859363a9059cbb60e01b8552600485015260248401525af1801561085a576108ac57005b6020813d6020116108d8575b816108c560209383610fd1565b8101031261033d57518015150361033d57005b3d91506108b8565b3461033d57600036600319011261033d576005546040516001600160a01b039091168152602090f35b3461033d57602036600319011261033d5760043567ffffffffffffffff811161033d5761094461093f6020923690600401611009565b6111f4565b604051908152f35b3461033d57602036600319011261033d5760043533600052600060205280604060002054106109c9576109808130336113d0565b33600052600760205260406000206109998282546110eb565b90556040519081527fb539ca1e5c8d398ddf1c41c30166f33404941683be4683319b57669a93dad4ef60203392a2005b60405162461bcd60e51b815260206004820152601d60248201527f496e73756666696369656e742062616c616e636520746f207374616b650000006044820152606490fd5b3461033d57600036600319011261033d57610a2761154f565b600580546001600160a01b031981169091556000906001600160a01b03167f8be0079c531659141344cd1fd0a4f28419497f9722a3daafe3b4186f6b6457e08280a3005b3461033d57602036600319011261033d576001600160a01b03610a8c610fa5565b1660005260006020526020604060002054604051908152f35b3461033d57602036600319011261033d5760043567ffffffffffffffff811161033d57610944610adb6020923690600401611009565b61110f565b3461033d57602036600319011261033d57610af9610fa5565b610b0161154f565b6001600160a01b03166000908152600660205260409020805460ff19166001179055005b3461033d57602036600319011261033d57610b3e610fa5565b610b4661154f565b6001600160a01b03166000908152600660205260409020805460ff19169055005b3461033d57600036600319011261033d576020604051681b1ae4d6e2ef5000008152f35b3461033d57604036600319011261033d57610605610ba7610fa5565b336000526001602052604060002060018060a01b038216600052602052610bd6604060002060243590546110eb565b90336112c8565b3461033d57600036600319011261033d5760206040516b033b2e3c9fd0803ce80000008152f35b3461033d57600036600319011261033d57602060405160128152f35b3461033d57606036600319011261033d57610c39610fa5565b610c41610fbb565b6001600160a01b0382166000908152600160208181526040808420338552909152909120549260443592918401610c7d575b61060593506113d0565b828410610c9957610c9483610605950333836112c8565b610c73565b60405162461bcd60e51b815260206004820152601d60248201527f45524332303a20696e73756666696369656e7420616c6c6f77616e63650000006044820152606490fd5b3461033d57600036600319011261033d576020600254604051908152f35b3461033d57610d0a36611060565b91909133600052600660205260ff604060002054168015610e67575b610d2f906110a6565b600254916b033b2e3c9fd0803ce8000000610d4a85856110eb565b11610e22576001600160a01b0316928315610ddd57610d8a817fb969d134776a7f04430dbbcac4e68734b1c6c5adcecbf68c3cbe6a9a4f2c8a1d946110eb565b60025583600052600060205260406000208181540190558360007fddf252ad1be2c89b69c2b068fc378daa952ba7f163c4a11628f55a4df523b3ef6020604051858152a3610241604051928392836110f8565b60405162461bcd60e51b815260206004820152601f60248201527f45524332303a206d696e7420746f20746865207a65726f2061646472657373006044820152606490fd5b60405162461bcd60e51b815260206004820152601760248201527f576f756c6420657863656564206d617820737570706c790000000000000000006044820152606490fd5b506005546001600160a01b03163314610d26565b3461033d57604036600319011261033d57610605610e97610fa5565b60243590336112c8565b3461033d57600036600319011261033d5760006003548060011c90600181168015610f53575b6020831081146107e3578285529081156107bf5750600114610ef35761075b8361074781850382610fd1565b91905060036000527fc2575a0e9e593c00f959f8c92f12db2869c3395a3b0502d05e2516446f71f85b916000905b808210610f3957509091508101602001610747610737565b919260018160209254838588010152019101909291610f21565b91607f1691610ec7565b60005b838110610f705750506000910152565b8181015183820152602001610f60565b90602091610f9981518092818552858086019101610f5d565b601f01601f1916010190565b600435906001600160a01b038216820361033d57565b602435906001600160a01b038216820361033d57565b90601f8019910116810190811067ffffffffffffffff821117610ff357604052565b634e487b7160e01b600052604160045260246000fd5b81601f8201121561033d5780359067ffffffffffffffff8211610ff3576040519261103e601f8401601f191660200185610fd1565b8284526020838301011161033d57816000926020809301838601378301015290565b606060031982011261033d576004356001600160a01b038116810361033d5791602435916044359067ffffffffffffffff821161033d576110a391600401611009565b90565b156110ad57565b60405162461bcd60e51b8152602060048201526016602482015275139bdd08185d5d1a1bdc9a5e9959081d1bc81b5a5b9d60521b6044820152606490fd5b919082018092116104bc57565b6040906110a3939281528160208201520190610f80565b60405161113d6020828161112c8183019687815193849201610f5d565b81010301601f198101835282610fd1565b519020604051602081019063504d323560e01b825260048152611161602482610fd1565b51902081036111785750683635c9adc5dea0000090565b60405160208101906221a79960e91b825260038152611198602382610fd1565b51902081036111af5750686c6b935b8bbd40000090565b6040516020810190651193d49154d560d21b8252600681526111d2602682610fd1565b519020146111e757683635c9adc5dea0000090565b68a2a15d09519be0000090565b6040516112116020828161112c8183019687815193849201610f5d565b519020604051602081019063504d323560e01b825260048152611235602482610fd1565b519020810361124c5750681b1ae4d6e2ef50000090565b60405160208101906221a79960e91b82526003815261126c602382610fd1565b51902081036112835750683635c9adc5dea0000090565b6040516020810190651193d49154d560d21b8252600681526112a6602682610fd1565b519020146112bb57681b1ae4d6e2ef50000090565b685150ae84a8cdf0000090565b6001600160a01b031690811561137f576001600160a01b031691821561132f5760207f8c5be1e5ebec7d5bd14f71427d1e84f3dd0314c0f7b2291e5b200ac8c7c3b925918360005260018252604060002085600052825280604060002055604051908152a3565b60405162461bcd60e51b815260206004820152602260248201527f45524332303a20617070726f766520746f20746865207a65726f206164647265604482015261737360f01b6064820152608490fd5b60405162461bcd60e51b8152602060048201526024808201527f45524332303a20617070726f76652066726f6d20746865207a65726f206164646044820152637265737360e01b6064820152608490fd5b6001600160a01b03169081156114fc576001600160a01b03169182156114ab5781600052600060205260406000205481811061145757817fddf252ad1be2c89b69c2b068fc378daa952ba7f163c4a11628f55a4df523b3ef9260209285600052600084520360406000205584600052600082526040600020818154019055604051908152a3565b60405162461bcd60e51b815260206004820152602660248201527f45524332303a207472616e7366657220616d6f756e7420657863656564732062604482015265616c616e636560d01b6064820152608490fd5b60405162461bcd60e51b815260206004820152602360248201527f45524332303a207472616e7366657220746f20746865207a65726f206164647260448201526265737360e81b6064820152608490fd5b60405162461bcd60e51b815260206004820152602560248201527f45524332303a207472616e736665722066726f6d20746865207a65726f206164604482015264647265737360d81b6064820152608490fd5b6005546001600160a01b0316330361156357565b606460405162461bcd60e51b815260206004820152602060248201527f4f776e61626c653a2063616c6c6572206973206e6f7420746865206f776e65726044820152fdfea2646970667358221220ec6a9c2b9d490462bc9b188a708878e54306dbb99ab8b633e55c835df66ff18d64736f6c634300081c0033",
  "linkReferences": {},
  "deployedLinkReferences": {}
}