{"contracts/CivicXChainGovernance.sol":{"CivicXChainGovernance":{"abi":[{"inputs":[{"internalType":"address","name":"_pm25Feed","type":"address"},{"internalType":"address","name":"_aqiFeed","type":"address"},{"internalType":"address","name":"_forestCoverFeed","type":"address"}],"stateMutability":"nonpayable","type":"constructor"},{"anonymous":false,"inputs":[{"indexed":true,"internalType":"address","name":"owner","type":"address"},{"indexed":true,"internalType":"address","name":"spender","type":"address"},{"indexed":false,"internalType":"uint256","name":"value","type":"uint256"}],"name":"Approval","type":"event"},{"anonymous":false,"inputs":[{"indexed":true,"internalType":"uint256","name":"commitmentId","type":"uint256"},{"indexed":true,"internalType":"address","name":"official","type":"address"},{"indexed":false,"internalType":"uint256","name":"refundAmount","type":"uint256"}],"name":"CommitmentCancelled","type":"event"},{"anonymous":false,"inputs":[{"indexed":true,"internalType":"uint256","name":"commitmentId","type":"uint256"},{"indexed":true,"internalType":"address","name":"official","type":"address"},{"indexed":false,"internalType":"string","name":"title","type":"string"}],"name":"CommitmentCreated","type":"event"},{"anonymous":false,"inputs":[{"indexed":true,"internalType":"uint256","name":"commitmentId","type":"uint256"},{"indexed":false,"internalType":"uint256","name":"actualValue","type":"uint256"},{"indexed":false,"internalType":"uint256","name":"tokensRewarded","type":"uint256"}],"name":"CommitmentFulfilled","type":"event"},{"anonymous":false,"inputs":[{"indexed":true,"internalType":"uint256","name":"commitmentId","type":"uint256"},{"indexed":false,"internalType":"uint256","name":"value","type":"uint256"},{"indexed":false,"internalType":"uint256","name":"timestamp","type":"uint256"}],"name":"OracleDataReceived","type":"event"},{"anonymous":false,"inputs":[{"indexed":true,"internalType":"address","name":"previousOwner","type":"address"},{"indexed":true,"internalType":"address","name":"newOwner","type":"address"}],"name":"OwnershipTransferred","type":"event"},{"anonymous":false,"inputs":[{"indexed":true,"internalType":"uint256","name":"commitmentId","type":"uint256"},{"indexed":true,"internalType":"address","name":"official","type":"address"},{"indexed":false,"internalType":"uint256","name":"penaltyAmount","type":"uint256"}],"name":"PenaltyApplied","type":"event"},{"anonymous":false,"inputs":[{"indexed":true,"internalType":"uint256","name":"commitmentId","type":"uint256"},{"indexed":true,"internalType":"address","name":"official","type":"address"},{"indexed":false,"internalType":"uint256","name":"tokenAmount","type":"uint256"}],"name":"TokensRewarded","type":"event"},{"anonymous":false,"inputs":[{"indexed":true,"internalType":"address","name":"from","type":"address"},{"indexed":true,"internalType":"address","name":"to","type":"address"},{"indexed":false,"internalType":"uint256","name":"value","type":"uint256"}],"name":"Transfer","type":"event"},{"inputs":[],"name":"TOKENS_PER_ETH","outputs":[{"internalType":"uint256","name":"","type":"uint256"}],"stateMutability":"view","type":"function"},{"inputs":[{"internalType":"address","name":"owner","type":"address"},{"internalType":"address","name":"spender","type":"address"}],"name":"allowance","outputs":[{"internalType":"uint256","name":"","type":"uint256"}],"stateMutability":"view","type":"function"},{"inputs":[{"internalType":"uint256","name":"_commitmentId","type":"uint256"}],"name":"applyPenalty","outputs":[],"stateMutability":"nonpayable","type":"function"},{"inputs":[{"internalType":"address","name":"spender","type":"address"},{"internalType":"uint256","name":"amount","type":"uint256"}],"name":"approve","outputs":[{"internalType":"bool","name":"","type":"bool"}],"stateMutability":"nonpayable","type":"function"},{"inputs":[{"internalType":"address","name":"account","type":"address"}],"name":"balanceOf","outputs":[{"internalType":"uint256","name":"","type":"uint256"}],"stateMutability":"view","type":"function"},{"inputs":[{"internalType":"uint256","name":"_commitmentId","type":"uint256"}],"name":"cancelCommitment","outputs":[],"stateMutability":"nonpayable","type":"function"},{"inputs":[{"internalType":"uint256","name":"_commitmentId","type":"uint256"}],"name":"checkFulfillment","outputs":[{"internalType":"bool","name":"fulfilled","type":"bool"},{"internalType":"uint256","name":"currentValue","type":"uint256"},{"internalType":"uint256","name":"targetValue","type":"uint256"}],"stateMutability":"view","type":"function"},{"inputs":[{"internalType":"uint256","name":"_commitmentId","type":"uint256"}],"name":"claimEnvironmentalReward","outputs":[{"internalType":"uint256","name":"tokensRewarded","type":"uint256"}],"stateMutability":"nonpayable","type":"function"},{"inputs":[{"internalType":"uint256","name":"","type":"uint256"}],"name":"commitments","outputs":[{"internalType":"uint256","name":"id","type":"uint256"},{"internalType":"string","name":"title","type":"string"},{"internalType":"string","name":"description","type":"string"},{"internalType":"address","name":"officialAddress","type":"address"},{"internalType":"string","name":"officialName","type":"string"},{"internalType":"string","name":"officialRole","type":"string"},{"internalType":"uint256","name":"targetValue","type":"uint256"},{"internalType":"uint256","name":"deadline","type":"uint256"},{"internalType":"string","name":"metricType","type":"string"},{"internalType":"bool","name":"isActive","type":"bool"},{"internalType":"bool","name":"isFulfilled","type":"bool"},{"internalType":"bool","name":"rewardClaimed","type":"bool"},{"internalType":"uint256","name":"stakeAmount","type":"uint256"},{"internalType":"uint256","name":"tokenReward","type":"uint256"},{"internalType":"bytes32","name":"oracleJobId","type":"bytes32"}],"stateMutability":"view","type":"function"},{"inputs":[{"internalType":"string","name":"_title","type":"string"},{"internalType":"string","name":"_description","type":"string"},{"internalType":"string","name":"_officialName","type":"string"},{"internalType":"string","name":"_officialRole","type":"string"},{"internalType":"uint256","name":"_targetValue","type":"uint256"},{"internalType":"uint256","name":"_deadline","type":"uint256"},{"internalType":"string","name":"_metricType","type":"string"}],"name":"createCommitment","outputs":[],"stateMutability":"payable","type":"function"},{"inputs":[],"name":"decimals","outputs":[{"internalType":"uint8","name":"","type":"uint8"}],"stateMutability":"view","type":"function"},{"inputs":[{"internalType":"address","name":"spender","type":"address"},{"internalType":"uint256","name":"subtractedValue","type":"uint256"}],"name":"decreaseAllowance","outputs":[{"internalType":"bool","name":"","type":"bool"}],"stateMutability":"nonpayable","type":"function"},{"inputs":[],"name":"emergencyWithdraw","outputs":[],"stateMutability":"nonpayable","type":"function"},{"inputs":[{"internalType":"uint256","name":"_commitmentId","type":"uint256"}],"name":"getCommitment","outputs":[{"components":[{"internalType":"uint256","name":"id","type":"uint256"},{"internalType":"string","name":"title","type":"string"},{"internalType":"string","name":"description","type":"string"},{"internalType":"address","name":"officialAddress","type":"address"},{"internalType":"string","name":"officialName","type":"string"},{"internalType":"string","name":"officialRole","type":"string"},{"internalType":"uint256","name":"targetValue","type":"uint256"},{"internalType":"uint256","name":"deadline","type":"uint256"},{"internalType":"string","name":"metricType","type":"string"},{"internalType":"bool","name":"isActive","type":"bool"},{"internalType":"bool","name":"isFulfilled","type":"bool"},{"internalType":"bool","name":"rewardClaimed","type":"bool"},{"internalType":"uint256","name":"stakeAmount","type":"uint256"},{"internalType":"uint256","name":"tokenReward","type":"uint256"},{"internalType":"bytes32","name":"oracleJobId","type":"bytes32"}],"internalType":"struct CivicXChainGovernance.EnvironmentalCommitment","name":"","type":"tuple"}],"stateMutability":"view","type":"function"},{"inputs":[{"internalType":"uint256","name":"_commitmentId","type":"uint256"}],"name":"getCommitmentTokenReward","outputs":[{"internalType":"uint256","name":"","type":"uint256"}],"stateMutability":"view","type":"function"},{"inputs":[],"name":"getContractTokenBalance","outputs":[{"internalType":"uint256","name":"","type":"uint256"}],"stateMutability":"view","type":"function"},{"inputs":[{"internalType":"string","name":"_metricType","type":"string"}],"name":"getCurrentEnvironmentalValue","outputs":[{"internalType":"uint256","name":"","type":"uint256"}],"stateMutability":"view","type":"function"},{"inputs":[{"internalType":"address","name":"_official","type":"address"}],"name":"getOfficialCommitments","outputs":[{"internalType":"uint256[]","name":"","type":"uint256[]"}],"stateMutability":"view","type":"function"},{"inputs":[{"internalType":"address","name":"_account","type":"address"}],"name":"getTokenBalance","outputs":[{"internalType":"uint256","name":"","type":"uint256"}],"stateMutability":"view","type":"function"},{"inputs":[],"name":"getTotalStaked","outputs":[{"internalType":"uint256","name":"","type":"uint256"}],"stateMutability":"view","type":"function"},{"inputs":[{"internalType":"address","name":"spender","type":"address"},{"internalType":"uint256","name":"addedValue","type":"uint256"}],"name":"increaseAllowance","outputs":[{"internalType":"bool","name":"","type":"bool"}],"stateMutability":"nonpayable","type":"function"},{"inputs":[{"internalType":"uint256","name":"_commitmentId","type":"uint256"}],"name":"judgeApproveCommitment","outputs":[],"stateMutability":"nonpayable","type":"function"},{"inputs":[{"internalType":"uint256","name":"_amount","type":"uint256"}],"name":"mintRewardTokens","outputs":[],"stateMutability":"nonpayable","type":"function"},{"inputs":[],"name":"name","outputs":[{"internalType":"string","name":"","type":"string"}],"stateMutability":"view","type":"function"},{"inputs":[],"name":"nextCommitmentId","outputs":[{"internalType":"uint256","name":"","type":"uint256"}],"stateMutability":"view","type":"function"},{"inputs":[{"internalType":"address","name":"","type":"address"},{"internalType":"uint256","name":"","type":"uint256"}],"name":"officialCommitments","outputs":[{"internalType":"uint256","name":"","type":"uint256"}],"stateMutability":"view","type":"function"},{"inputs":[{"internalType":"uint256","name":"","type":"uint256"}],"name":"oracleData","outputs":[{"internalType":"uint256","name":"value","type":"uint256"},{"internalType":"uint256","name":"timestamp","type":"uint256"},{"internalType":"bool","name":"verified","type":"bool"}],"stateMutability":"view","type":"function"},{"inputs":[],"name":"owner","outputs":[{"internalType":"address","name":"","type":"address"}],"stateMutability":"view","type":"function"},{"inputs":[],"name":"renounceOwnership","outputs":[],"stateMutability":"nonpayable","type":"function"},{"inputs":[],"name":"symbol","outputs":[{"internalType":"string","name":"","type":"string"}],"stateMutability":"view","type":"function"},{"inputs":[],"name":"totalStaked","outputs":[{"internalType":"uint256","name":"","type":"uint256"}],"stateMutability":"view","type":"function"},{"inputs":[],"name":"totalSupply","outputs":[{"internalType":"uint256","name":"","type":"uint256"}],"stateMutability":"view","type":"function"},{"inputs":[{"internalType":"address","name":"to","type":"address"},{"internalType":"uint256","name":"amount","type":"uint256"}],"name":"transfer","outputs":[{"internalType":"bool","name":"","type":"bool"}],"stateMutability":"nonpayable","type":"function"},{"inputs":[{"internalType":"address","name":"from","type":"address"},{"internalType":"address","name":"to","type":"address"},{"internalType":"uint256","name":"amount","type":"uint256"}],"name":"transferFrom","outputs":[{"internalType":"bool","name":"","type":"bool"}],"stateMutability":"nonpayable","type":"function"},{"inputs":[{"internalType":"address","name":"newOwner","type":"address"}],"name":"transferOwnership","outputs":[],"stateMutability":"nonpayable","type":"function"}],"evm":{"bytecode":{"linkReferences":{},"object":"6080604052346104d657612e7b6060813803918261001c816104db565b9384928339810103126104d65761003281610500565b61004a604061004360208501610500565b9301610500565b61005460406104db565b92601f84527f436976696358436861696e20456e7669726f6e6d656e74616c20546f6b656e00602085015261008960406104db565b6005815264434956494360d81b6020820152845190946001600160401b0382116103d35760035490600182811c921680156104cc575b60208310146103b35781601f84931161045c575b50602090601f83116001146103f4576000926103e9575b50508160011b916000199060031b1c1916176003555b83516001600160401b0381116103d357600454600181811c911680156103c9575b60208210146103b357601f811161034e575b50602094601f82116001146102e7579481929394956000926102dc575b50508160011b916000199060031b1c1916176004555b60058054336001600160a01b0319821681179092556040519491906001600160a01b03167f8be0079c531659141344cd1fd0a4f28419497f9722a3daafe3b4186f6b6457e0600080a360016006819055600d556000600e55600780546001600160a01b03199081166001600160a01b039384161790915560088054821693831693909317909255600980549092169216919091179055301561029a576002546a52b7d2dcc80cd2e400000081018091116102845760025530600052600060205260406000206a52b7d2dcc80cd2e400000081540190556040516a52b7d2dcc80cd2e4000000815260007fddf252ad1be2c89b69c2b068fc378daa952ba7f163c4a11628f55a4df523b3ef60203093a360405161296690816105158239f35b634e487b7160e01b600052601160045260246000fd5b62461bcd60e51b815260206004820152601f60248201527f45524332303a206d696e7420746f20746865207a65726f2061646472657373006044820152606490fd5b015190503880610150565b601f198216956004600052806000209160005b8881106103365750836001959697981061031d575b505050811b01600455610166565b015160001960f88460031b161c1916905538808061030f565b919260206001819286850151815501940192016102fa565b60046000527f8a35acfbc15ff81a39ae7d344fd709f28e8600b4aa8c65c6b64bfe7fe36bd19b601f830160051c810191602084106103a9575b601f0160051c01905b81811061039d5750610133565b60008155600101610390565b9091508190610387565b634e487b7160e01b600052602260045260246000fd5b90607f1690610121565b634e487b7160e01b600052604160045260246000fd5b0151905038806100ea565b600360009081528281209350601f198516905b818110610444575090846001959493921061042b575b505050811b01600355610100565b015160001960f88460031b161c1916905538808061041d565b92936020600181928786015181550195019301610407565b60036000529091507fc2575a0e9e593c00f959f8c92f12db2869c3395a3b0502d05e2516446f71f85b601f840160051c810191602085106104c2575b90601f859493920160051c01905b8181106104b357506100d3565b600081558493506001016104a6565b9091508190610498565b91607f16916100bf565b600080fd5b6040519190601f01601f191682016001600160401b038111838210176103d357604052565b51906001600160a01b03821682036104d65756fe6080604052600436101561001257600080fd5b60003560e01c806306fdde03146120925780630917e77614611451578063095ea7b31461206c5780630a5d264a14611e885780630e9cf0ba14611e5957806318160ddd14611e3b57806323b872dd14611d7d578063313ce56714611d61578063317d945314611d3a578063347020af14611a9157806334b4117d146119d757806339509351146119855780633aecd0e3146114cc578063410a9ddd146118f357806349ce8997146117ab5780635ac48e6d1461178d57806369bcdb7d1461150557806370a08231146114cc578063715018a61461146f578063817b1cd214611451578063840a1ff4146111ea5780638da5cb5b146111c157806390bb9a291461116857806395d89b4114611083578063a457c2d714610fdc578063a9059cbb14610fab578063aa4dea0014610f63578063b3e14b3114610ea9578063bc6e660414610e8c578063d37a06f714610d08578063db2e21bc14610c8b578063dd62ed3e14610c3a578063e8d1077714610bf8578063f2fde38b14610b305763f40219c01461019d57600080fd5b60e0366003190112610b2b576004356001600160401b038111610b2b576101c89036906004016122f0565b6024356001600160401b038111610b2b576101e79036906004016122f0565b906044356001600160401b038111610b2b576102079036906004016122f0565b916064356001600160401b038111610b2b576102279036906004016122f0565b60a4359160c4356001600160401b038111610b2b5761024a9036906004016122f0565b9442841115610ae6573415610aa957600d54936000198514610a095760018501600d556103e83402913483046103e803610a09576064885160208a0190812061029161240d565b6020815191012014600014610a1f5750506096925b6103e884340202938185041490151715610a09578593604051956102c9876121e1565b85875260208701938985526040880192835260608801913383526080890194855260a0890190815260c0890190608435825260e08a019283526101008a019c8d526101208a0195600187526101408b0194600086526101608c0196600088526101808d0199348b528d6101a081019c606490048d526101c0019c60008e52600052600a6020526040600020809e51815560010190518051906001600160401b03821161062457819061037b84546121a7565b601f81116109b6575b50602090601f831160011461095157600092610946575b50508160011b916000199060031b1c19161790555b51805160028e01916001600160401b0382116106245781906103d284546121a7565b601f81116108f3575b50602090601f831160011461088e57600092610883575b50508160011b916000199060031b1c19161790555b5160038c0180546001600160a01b0319166001600160a01b039290921691909117905551805160048c01916001600160401b03821161062457819061044c84546121a7565b601f8111610830575b50602090601f83116001146107cb576000926107c0575b50508160011b916000199060031b1c19161790555b51805160058b01916001600160401b0382116106245781906104a384546121a7565b601f811161076d575b50602090601f8311600114610708576000926106fd575b50508160011b916000199060031b1c19161790555b516006890155516007880155600887019951998a516001600160401b0381116106245761050582546121a7565b601f81116106b5575b506020601f8211600114610645578190600c9a9b9c9d60009261063a575b50508160011b916000199060031b1c19161790555b600988019251151560ff8019855416911617835551151561ff0083549160081b169061ff00191617825551151562ff000082549160101b169062ff0000191617905551600a85015551600b8401555191015561059f34600e54612400565b600e5533600052600c6020526040600020805468010000000000000000811015610624576105d2916001820181556122c2565b81549060031b9083821b91600019901b19161790557ffa99a653c4373b4e353c68118639a54b493260f42326788c4cbcc6742d56ac28604051602081528061061f3395602083019061213a565b0390a3005b634e487b7160e01b600052604160045260246000fd5b01519050388061052c565b601f1982169c83600052816000209d60005b818110610698575091600c9b9c9d9e9184600195941061067f575b505050811b019055610541565b015160001960f88460031b161c19169055388080610672565b919e8f60016020928684930151815501940192019e91929e610657565b826000526020600020601f830160051c810191602084106106f3575b601f0160051c01905b8181106106e7575061050e565b600081556001016106da565b90915081906106d1565b0151905038806104c3565b60008581528281209350601f198516905b818110610755575090846001959493921061073c575b505050811b0190556104d8565b015160001960f88460031b161c1916905538808061072f565b92936020600181928786015181550195019301610719565b909150836000526020600020601f840160051c810191602085106107b6575b90601f859493920160051c01905b8181106107a757506104ac565b6000815584935060010161079a565b909150819061078c565b01519050388061046c565b60008581528281209350601f198516905b81811061081857509084600195949392106107ff575b505050811b019055610481565b015160001960f88460031b161c191690553880806107f2565b929360206001819287860151815501950193016107dc565b909150836000526020600020601f840160051c81019160208510610879575b90601f859493920160051c01905b81811061086a5750610455565b6000815584935060010161085d565b909150819061084f565b0151905038806103f2565b60008581528281209350601f198516905b8181106108db57509084600195949392106108c2575b505050811b019055610407565b015160001960f88460031b161c191690553880806108b5565b9293602060018192878601518155019501930161089f565b909150836000526020600020601f840160051c8101916020851061093c575b90601f859493920160051c01905b81811061092d57506103db565b60008155849350600101610920565b9091508190610912565b01519050388061039b565b60008581528281209350601f198516905b81811061099e5750908460019594939210610985575b505050811b0190556103b0565b015160001960f88460031b161c19169055388080610978565b92936020600181928786015181550195019301610962565b909150836000526020600020601f840160051c810191602085106109ff575b90601f859493920160051c01905b8181106109f05750610384565b600081558493506001016109e3565b90915081906109d5565b634e487b7160e01b600052601160045260246000fd5b89518120610a2b612459565b6020815191012014600014610a455750506078925b6102a6565b89518120610a5161242f565b6020815191012014600014610a6a5750506082926102a6565b89949194519020600d6020604051610a836040826121fd565b828152016c77617465725f7175616c69747960981b81522003610a4057606e93506102a6565b60405162461bcd60e51b815260206004820152601560248201527414dd185ad948185b5bdd5b9d081c995c5d5a5c9959605a1b6044820152606490fd5b60405162461bcd60e51b815260206004820152601e60248201527f446561646c696e65206d75737420626520696e207468652066757475726500006044820152606490fd5b600080fd5b34610b2b576020366003190112610b2b57610b4961217b565b610b516128d8565b6001600160a01b03168015610ba457600580546001600160a01b0319811683179091556001600160a01b03167f8be0079c531659141344cd1fd0a4f28419497f9722a3daafe3b4186f6b6457e0600080a3005b60405162461bcd60e51b815260206004820152602660248201527f4f776e61626c653a206e6577206f776e657220697320746865207a65726f206160448201526564647265737360d01b6064820152608490fd5b34610b2b576020366003190112610b2b576004356001600160401b038111610b2b57610c32610c2d60209236906004016122f0565b6124c6565b604051908152f35b34610b2b576040366003190112610b2b57610c5361217b565b610c5b612191565b6001600160a01b039182166000908152600160209081526040808320949093168252928352819020549051908152f35b34610b2b576000366003190112610b2b57610ca46128d8565b600080808060018060a01b03600554164790828215610cff575bf115610cf35730600052600060205260406000205480610cda57005b600554610cf191906001600160a01b031630612703565b005b6040513d6000823e3d90fd5b506108fc610cbe565b34610b2b576020366003190112610b2b57600435600052600a60205260606040600020604051610d37816121e1565b81548152610d476001830161221e565b6020820152610d586002830161221e565b604082015260038201546001600160a01b031683820152610d7b6004830161221e565b6080820152610d8c6005830161221e565b60a0820152610e1460068301549260c08301938452600781015460e0840152610db76008820161221e565b9261010081019384526101c0600c60098401549360ff80861615159586610120870152818160081c16151561014087015260101c161515610160850152600a810154610180850152600b8101546101a08501520154910152612346565b610e1e81516124c6565b90600090805160208151910120610e3361240d565b6020815191012014600014610e615750508151811115915b5190604051921515835260208301526040820152f35b9290925160208151910120610e7461242f565b6020815191012003610e4b5780518210159250610e4b565b34610b2b576000366003190112610b2b5760206040516103e88152f35b34610b2b576020366003190112610b2b576001600160a01b03610eca61217b565b16600052600c60205260406000206040518060208354918281520190819360005260206000209060005b818110610f4d5750505081610f0a9103826121fd565b6040519182916020830190602084525180915260408301919060005b818110610f34575050500390f35b8251845285945060209384019390920191600101610f26565b8254845260209093019260019283019201610ef4565b34610b2b576020366003190112610b2b57600435600052600b6020526060604060002080549060ff600260018301549201541690604051928352602083015215156040820152f35b34610b2b576040366003190112610b2b57610fd1610fc761217b565b6024359033612703565b602060405160018152f35b34610b2b576040366003190112610b2b57610ff561217b565b60243590336000526001602052604060002060018060a01b0382166000526020526040600020549180831061103057610fd1920390336125fb565b60405162461bcd60e51b815260206004820152602560248201527f45524332303a2064656372656173656420616c6c6f77616e63652062656c6f77604482015264207a65726f60d81b6064820152608490fd5b34610b2b576000366003190112610b2b5760405160006004546110a5816121a7565b808452906001811690811561114457506001146110e5575b6110e1836110cd818503826121fd565b60405191829160208352602083019061213a565b0390f35b600460009081527f8a35acfbc15ff81a39ae7d344fd709f28e8600b4aa8c65c6b64bfe7fe36bd19b939250905b80821061112a575090915081016020016110cd6110bd565b919260018160209254838588010152019101909291611112565b60ff191660208086019190915291151560051b840190910191506110cd90506110bd565b34610b2b576040366003190112610b2b5761118161217b565b6001600160a01b03166000908152600c6020526040902080546024359190821015610b2b576020916111b2916122c2565b90549060031b1c604051908152f35b34610b2b576000366003190112610b2b576005546040516001600160a01b039091168152602090f35b34610b2b576020366003190112610b2b57600435611206612882565b6000818152600a6020526040902060038101546001600160a01b0316330361140157600981019081549161123c60ff8416612346565b60ff8360081c166113b15760ff8360101c1661136d57600782015442101561132857600a9260ff19169055015490600a820461128461127b82856123ae565b93600e546123ae565b600e55801580156112f8575b505081801580156112d1575b50506040519182527f75b2b6d713c23c94a2b5123c847c3fc2e015e416842dcdaf9a319c1645d1a61e60203393a36001600655005b6000906112ef575b600080809381933390f115610cf357818361129c565b506108fc6112d9565b6000808093819360018060a01b036005541690839061131f575bf115610cf3578280611290565b506108fc611312565b60405162461bcd60e51b815260206004820152601c60248201527f43616e6e6f742063616e63656c20616674657220646561646c696e65000000006044820152606490fd5b606460405162461bcd60e51b815260206004820152602060248201527f43616e6e6f742063616e63656c20636c61696d656420636f6d6d69746d656e746044820152fd5b60405162461bcd60e51b815260206004820152602260248201527f43616e6e6f742063616e63656c2066756c66696c6c656420636f6d6d69746d656044820152611b9d60f21b6064820152608490fd5b60405162461bcd60e51b815260206004820152602260248201527f4f6e6c7920636f6d6d69746d656e742063726561746f722063616e2063616e63604482015261195b60f21b6064820152608490fd5b34610b2b576000366003190112610b2b576020600e54604051908152f35b34610b2b576000366003190112610b2b576114886128d8565b600580546001600160a01b031981169091556000906001600160a01b03167f8be0079c531659141344cd1fd0a4f28419497f9722a3daafe3b4186f6b6457e08280a3005b34610b2b576020366003190112610b2b576020610c326114ea61217b565b6001600160a01b031660009081526020819052604090205490565b34610b2b576020366003190112610b2b57604051611522816121e1565b60008152602081016060905260408101606090526060810160009052608081016060905260a081016060905260c081016000905260e08101600090526101008101606090526101208101600090526101408101600090526101608101600090526101808101600090526101a08101600090526101c00160009052600435600052600a6020526040600020604051906115b9826121e1565b805482526115c96001820161221e565b60208301908152906115dd6002820161221e565b6040840190815260038201546001600160a01b031660608501908152909390916116096004820161221e565b6080830190815261161c6005830161221e565b60a08401908152600683015460c08501908152600784015460e0860190815291959061164a6008860161221e565b610100870190815260098601549361012088019860ff861615158a526101408901948660081c60ff16151586526101608a019660101c60ff1615158752600a890154976101808b01988952600b8a0154996101a08c019a8b52600c01549a6101c081019b8c526040519e8f9e8f926020845251602084015251604083016101e0905261020083016116da9161213a565b9051828203601f190160608401526116f2919061213a565b92516001600160a01b0316608090910152518c8203601f190160a08e015261171a919061213a565b90518b8203601f190160c08d0152611732919061213a565b925160e08b0152516101008a015251888203601f19016101208a0152611758919061213a565b95511515610140880152511515610160870152511515610180860152516101a0850152516101c0840152516101e08301520390f35b34610b2b576000366003190112610b2b576020600d54604051908152f35b34610b2b576020366003190112610b2b57600435600052600a60205260406000208054600182016117db9061221e565b916117e86002820161221e565b60038201546001600160a01b0316916118036004820161221e565b926118106005830161221e565b600683015460078401546118266008860161221e565b92600986015497600a87015495600b88015497600c0154986040519c8d9c8d5260208d016101e090526101e08d0161185d9161213a565b8c810360408e015261186e9161213a565b9060608c01528a810360808c01526118859161213a565b89810360a08b01526118969161213a565b9160c089015260e08801528681036101008801526118b39161213a565b9360ff811615156101208701528060081c60ff16151561014087015260101c60ff1615156101608601526101808501526101a08401526101c08301520390f35b34610b2b576020366003190112610b2b5760043580600052600a6020527f3c1ead90ebeb138d3eed6ab98affff3433e55aad723cca4ab05fa013058dde9b60408060002060098101610100815461194c60ff8216612346565b61195c60ff8260101c16156123bb565b61ff001916179055600b611975610c2d6008840161221e565b91015482519182526020820152a2005b34610b2b576040366003190112610b2b57610fd16119a161217b565b336000526001602052604060002060018060a01b0382166000526020526119d060406000206024359054612400565b90336125fb565b34610b2b576020366003190112610b2b576004356119f36128d8565b3015611a4c57611a0581600254612400565b600255306000526000602052604060002081815401905560405190815260007fddf252ad1be2c89b69c2b068fc378daa952ba7f163c4a11628f55a4df523b3ef60203093a3005b60405162461bcd60e51b815260206004820152601f60248201527f45524332303a206d696e7420746f20746865207a65726f2061646472657373006044820152606490fd5b34610b2b576020366003190112610b2b57600435611aad612882565b6000818152600a6020526040902060038101546001600160a01b03163303611ceb576009810191825492611ae360ff8516612346565b611af360ff8560101c16156123bb565b60405163d37a06f760e01b81526004810183905293606085602481305afa948515610cf357600090600096611cb6575b5015611c4c57620101009062ffff001916179055600b820154913060005260006020528260406000205410611c075760008080600a8194611b65883330612703565b0154611b80611b778260011c83612400565b91600e546123ae565b600e55818115611bfe575b3390f115610cf357807f3c1ead90ebeb138d3eed6ab98affff3433e55aad723cca4ab05fa013058dde9b604060209581519081528587820152a2604051908282527fe12dc4982e9ff7f16f500e9990ecce72dc1af0aca6ae3a5cf8793cddf6d5eb8d843393a36001600655604051908152f35b506108fc611b8b565b60405162461bcd60e51b815260206004820152601b60248201527f496e73756666696369656e7420746f6b656e20726573657276657300000000006044820152606490fd5b608460405162461bcd60e51b815260206004820152604060248201527f456e7669726f6e6d656e74616c20746172676574206e6f74206163686965766560448201527f64206f72206a7564676520766572696669636174696f6e2072657175697265646064820152fd5b9050611cdb91955060603d606011611ce4575b611cd381836121fd565b81019061238a565b50949086611b23565b503d611cc9565b60405162461bcd60e51b815260206004820152602160248201527f4f6e6c7920636f6d6d69746d656e742063726561746f722063616e20636c61696044820152606d60f81b6064820152608490fd5b34610b2b576000366003190112610b2b573060009081526020818152604090912054610c32565b34610b2b576000366003190112610b2b57602060405160128152f35b34610b2b576060366003190112610b2b57611d9661217b565b611d9e612191565b6001600160a01b0382166000908152600160208181526040808420338552909152909120549260443592918401611dda575b610fd19350612703565b828410611df657611df183610fd1950333836125fb565b611dd0565b60405162461bcd60e51b815260206004820152601d60248201527f45524332303a20696e73756666696369656e7420616c6c6f77616e63650000006044820152606490fd5b34610b2b576000366003190112610b2b576020600254604051908152f35b34610b2b576020366003190112610b2b57600435600052600a6020526020600b60406000200154604051908152f35b34610b2b576020366003190112610b2b5760043580600052600a602052604060002090600982018054611ebd60ff8216612346565b60078401544211156120315760ff8160081c16611fec5760405163d37a06f760e01b815260048101849052606081602481305afa908115610cf357600091611fcb575b50611f865760ff19169055600a820191611f1d8354600e546123ae565b600e55600080808060018060a01b0360055416875490828215611f7d575bf115610cf35760207fed7a0aea6f0340c8fd7f451ac8b492e2facd06e914d020af7d8f38321f04499a91600360018060a01b03910154169354604051908152a3005b506108fc611f3b565b60405162461bcd60e51b815260206004820152601c60248201527f546172676574207761732061637475616c6c79206163686965766564000000006044820152606490fd5b611fe4915060603d606011611ce457611cd381836121fd565b505085611f00565b60405162461bcd60e51b815260206004820152601c60248201527f436f6d6d69746d656e7420616c72656164792066756c66696c6c6564000000006044820152606490fd5b60405162461bcd60e51b8152602060048201526013602482015272111958591b1a5b99481b9bdd081c185cdcd959606a1b6044820152606490fd5b34610b2b576040366003190112610b2b57610fd161208861217b565b60243590336125fb565b34610b2b576000366003190112610b2b5760405160006003546120b4816121a7565b808452906001811690811561114457506001146120db576110e1836110cd818503826121fd565b600360009081527fc2575a0e9e593c00f959f8c92f12db2869c3395a3b0502d05e2516446f71f85b939250905b808210612120575090915081016020016110cd6110bd565b919260018160209254838588010152019101909291612108565b919082519283825260005b848110612166575050826000602080949584010152601f8019910116010190565b80602080928401015182828601015201612145565b600435906001600160a01b0382168203610b2b57565b602435906001600160a01b0382168203610b2b57565b90600182811c921680156121d7575b60208310146121c157565b634e487b7160e01b600052602260045260246000fd5b91607f16916121b6565b6101e081019081106001600160401b0382111761062457604052565b90601f801991011681019081106001600160401b0382111761062457604052565b9060405191826000825492612232846121a7565b80845293600181169081156122a05750600114612259575b50612257925003836121fd565b565b90506000929192526020600020906000915b818310612284575050906020612257928201013861224a565b602091935080600191548385890101520191019091849261226b565b90506020925061225794915060ff191682840152151560051b8201013861224a565b80548210156122da5760005260206000200190600090565b634e487b7160e01b600052603260045260246000fd5b81601f82011215610b2b578035906001600160401b0382116106245760405192612324601f8401601f1916602001856121fd565b82845260208383010111610b2b57816000926020809301838601378301015290565b1561234d57565b60405162461bcd60e51b8152602060048201526015602482015274436f6d6d69746d656e74206e6f742061637469766560581b6044820152606490fd5b90816060910312610b2b5780518015158103610b2b57916040602083015192015190565b91908203918211610a0957565b156123c257565b60405162461bcd60e51b815260206004820152601660248201527514995dd85c9908185b1c9958591e4818db185a5b595960521b6044820152606490fd5b91908201809211610a0957565b6040519061241c6040836121fd565b6004825263706d323560e01b6020830152565b6040519061243e6040836121fd565b600c82526b3337b932b9ba2fb1b7bb32b960a11b6020830152565b604051906124686040836121fd565b600382526261716960e81b6020830152565b519069ffffffffffffffffffff82168203610b2b57565b908160a0910312610b2b576124a58161247a565b916020820151916040810151916124c360806060840151930161247a565b90565b805190602081019182206124d861240d565b6020815191012014600014612552575050600754604051633fabe5a360e21b81529060a090829060049082906001600160a01b03165afa908115610cf357600091612521575090565b612543915060a03d60a01161254b575b61253b81836121fd565b810190612491565b505050905090565b503d612531565b8051822061255e612459565b60208151910120146000146125a7575050600854604051633fabe5a360e21b81529060a090829060049082906001600160a01b03165afa908115610cf357600091612521575090565b5190206125b261242f565b60208151910120146125c357600090565b600954604051633fabe5a360e21b81529060a090829060049082906001600160a01b03165afa908115610cf357600091612521575090565b6001600160a01b03169081156126b2576001600160a01b03169182156126625760207f8c5be1e5ebec7d5bd14f71427d1e84f3dd0314c0f7b2291e5b200ac8c7c3b925918360005260018252604060002085600052825280604060002055604051908152a3565b60405162461bcd60e51b815260206004820152602260248201527f45524332303a20617070726f766520746f20746865207a65726f206164647265604482015261737360f01b6064820152608490fd5b60405162461bcd60e51b8152602060048201526024808201527f45524332303a20617070726f76652066726f6d20746865207a65726f206164646044820152637265737360e01b6064820152608490fd5b6001600160a01b031690811561282f576001600160a01b03169182156127de5781600052600060205260406000205481811061278a57817fddf252ad1be2c89b69c2b068fc378daa952ba7f163c4a11628f55a4df523b3ef9260209285600052600084520360406000205584600052600082526040600020818154019055604051908152a3565b60405162461bcd60e51b815260206004820152602660248201527f45524332303a207472616e7366657220616d6f756e7420657863656564732062604482015265616c616e636560d01b6064820152608490fd5b60405162461bcd60e51b815260206004820152602360248201527f45524332303a207472616e7366657220746f20746865207a65726f206164647260448201526265737360e81b6064820152608490fd5b60405162461bcd60e51b815260206004820152602560248201527f45524332303a207472616e736665722066726f6d20746865207a65726f206164604482015264647265737360d81b6064820152608490fd5b600260065414612893576002600655565b60405162461bcd60e51b815260206004820152601f60248201527f5265656e7472616e637947756172643a207265656e7472616e742063616c6c006044820152606490fd5b6005546001600160a01b031633036128ec57565b606460405162461bcd60e51b815260206004820152602060248201527f4f776e61626c653a2063616c6c6572206973206e6f7420746865206f776e65726044820152fdfea26469706673582212207f7fde797c0448ee36db463bdb2666fc0769619da27d7ac0cc101391e70bf0f664736f6c634300081c0033","opcodes":"PUSH1 0x80 PUSH1 0x40 MSTORE CALLVALUE PUSH2 0x4D6 JUMPI PUSH2 0x2E7B PUSH1 0x60 DUP2 CODESIZE SUB SWAP2 DUP3 PUSH2 0x1C DUP2 PUSH2 0x4DB JUMP JUMPDEST SWAP4 DUP5 SWAP3 DUP4 CODECOPY DUP2 ADD SUB SLT PUSH2 0x4D6 JUMPI PUSH2 0x32 DUP2 PUSH2 0x500 JUMP JUMPDEST PUSH2 0x4A PUSH1 0x40 PUSH2 0x43 PUSH1 0x20 DUP6 ADD PUSH2 0x500 JUMP JUMPDEST SWAP4 ADD PUSH2 0x500 JUMP JUMPDEST PUSH2 0x54 PUSH1 0x40 PUSH2 0x4DB JUMP JUMPDEST SWAP3 PUSH1 0x1F DUP5 MSTORE PUSH32 0x436976696358436861696E20456E7669726F6E6D656E74616C20546F6B656E00 PUSH1 0x20 DUP6 ADD MSTORE PUSH2 0x89 PUSH1 0x40 PUSH2 0x4DB JUMP JUMPDEST PUSH1 0x5 DUP2 MSTORE PUSH5 0x4349564943 PUSH1 0xD8 SHL PUSH1 0x20 DUP3 ADD MSTORE DUP5 MLOAD SWAP1 SWAP5 PUSH1 0x1 PUSH1 0x1 PUSH1 0x40 SHL SUB DUP3 GT PUSH2 0x3D3 JUMPI PUSH1 0x3 SLOAD SWAP1 PUSH1 0x1 DUP3 DUP2 SHR SWAP3 AND DUP1 ISZERO PUSH2 0x4CC JUMPI JUMPDEST PUSH1 0x20 DUP4 LT EQ PUSH2 0x3B3 JUMPI DUP2 PUSH1 0x1F DUP5 SWAP4 GT PUSH2 0x45C JUMPI JUMPDEST POP PUSH1 0x20 SWAP1 PUSH1 0x1F DUP4 GT PUSH1 0x1 EQ PUSH2 0x3F4 JUMPI PUSH1 0x0 SWAP3 PUSH2 0x3E9 JUMPI JUMPDEST POP POP DUP2 PUSH1 0x1 SHL SWAP2 PUSH1 0x0 NOT SWAP1 PUSH1 0x3 SHL SHR NOT AND OR PUSH1 0x3 SSTORE JUMPDEST DUP4 MLOAD PUSH1 0x1 PUSH1 0x1 PUSH1 0x40 SHL SUB DUP2 GT PUSH2 0x3D3 JUMPI PUSH1 0x4 SLOAD PUSH1 0x1 DUP2 DUP2 SHR SWAP2 AND DUP1 ISZERO PUSH2 0x3C9 JUMPI JUMPDEST PUSH1 0x20 DUP3 LT EQ PUSH2 0x3B3 JUMPI PUSH1 0x1F DUP2 GT PUSH2 0x34E JUMPI JUMPDEST POP PUSH1 0x20 SWAP5 PUSH1 0x1F DUP3 GT PUSH1 0x1 EQ PUSH2 0x2E7 JUMPI SWAP5 DUP2 SWAP3 SWAP4 SWAP5 SWAP6 PUSH1 0x0 SWAP3 PUSH2 0x2DC JUMPI JUMPDEST POP POP DUP2 PUSH1 0x1 SHL SWAP2 PUSH1 0x0 NOT SWAP1 PUSH1 0x3 SHL SHR NOT AND OR PUSH1 0x4 SSTORE JUMPDEST PUSH1 0x5 DUP1 SLOAD CALLER PUSH1 0x1 PUSH1 0x1 PUSH1 0xA0 SHL SUB NOT DUP3 AND DUP2 OR SWAP1 SWAP3 SSTORE PUSH1 0x40 MLOAD SWAP5 SWAP2 SWAP1 PUSH1 0x1 PUSH1 0x1 PUSH1 0xA0 SHL SUB AND PUSH32 0x8BE0079C531659141344CD1FD0A4F28419497F9722A3DAAFE3B4186F6B6457E0 PUSH1 0x0 DUP1 LOG3 PUSH1 0x1 PUSH1 0x6 DUP2 SWAP1 SSTORE PUSH1 0xD SSTORE PUSH1 0x0 PUSH1 0xE SSTORE PUSH1 0x7 DUP1 SLOAD PUSH1 0x1 PUSH1 0x1 PUSH1 0xA0 SHL SUB NOT SWAP1 DUP2 AND PUSH1 0x1 PUSH1 0x1 PUSH1 0xA0 SHL SUB SWAP4 DUP5 AND OR SWAP1 SWAP2 SSTORE PUSH1 0x8 DUP1 SLOAD DUP3 AND SWAP4 DUP4 AND SWAP4 SWAP1 SWAP4 OR SWAP1 SWAP3 SSTORE PUSH1 0x9 DUP1 SLOAD SWAP1 SWAP3 AND SWAP3 AND SWAP2 SWAP1 SWAP2 OR SWAP1 SSTORE ADDRESS ISZERO PUSH2 0x29A JUMPI PUSH1 0x2 SLOAD PUSH11 0x52B7D2DCC80CD2E4000000 DUP2 ADD DUP1 SWAP2 GT PUSH2 0x284 JUMPI PUSH1 0x2 SSTORE ADDRESS PUSH1 0x0 MSTORE PUSH1 0x0 PUSH1 0x20 MSTORE PUSH1 0x40 PUSH1 0x0 KECCAK256 PUSH11 0x52B7D2DCC80CD2E4000000 DUP2 SLOAD ADD SWAP1 SSTORE PUSH1 0x40 MLOAD PUSH11 0x52B7D2DCC80CD2E4000000 DUP2 MSTORE PUSH1 0x0 PUSH32 0xDDF252AD1BE2C89B69C2B068FC378DAA952BA7F163C4A11628F55A4DF523B3EF PUSH1 0x20 ADDRESS SWAP4 LOG3 PUSH1 0x40 MLOAD PUSH2 0x2966 SWAP1 DUP2 PUSH2 0x515 DUP3 CODECOPY RETURN JUMPDEST PUSH4 0x4E487B71 PUSH1 0xE0 SHL PUSH1 0x0 MSTORE PUSH1 0x11 PUSH1 0x4 MSTORE PUSH1 0x24 PUSH1 0x0 REVERT JUMPDEST PUSH3 0x461BCD PUSH1 0xE5 SHL DUP2 MSTORE PUSH1 0x20 PUSH1 0x4 DUP3 ADD MSTORE PUSH1 0x1F PUSH1 0x24 DUP3 ADD MSTORE PUSH32 0x45524332303A206D696E7420746F20746865207A65726F206164647265737300 PUSH1 0x44 DUP3 ADD MSTORE PUSH1 0x64 SWAP1 REVERT JUMPDEST ADD MLOAD SWAP1 POP CODESIZE DUP1 PUSH2 0x150 JUMP JUMPDEST PUSH1 0x1F NOT DUP3 AND SWAP6 PUSH1 0x4 PUSH1 0x0 MSTORE DUP1 PUSH1 0x0 KECCAK256 SWAP2 PUSH1 0x0 JUMPDEST DUP9 DUP2 LT PUSH2 0x336 JUMPI POP DUP4 PUSH1 0x1 SWAP6 SWAP7 SWAP8 SWAP9 LT PUSH2 0x31D JUMPI JUMPDEST POP POP POP DUP2 SHL ADD PUSH1 0x4 SSTORE PUSH2 0x166 JUMP JUMPDEST ADD MLOAD PUSH1 0x0 NOT PUSH1 0xF8 DUP5 PUSH1 0x3 SHL AND SHR NOT AND SWAP1 SSTORE CODESIZE DUP1 DUP1 PUSH2 0x30F JUMP JUMPDEST SWAP2 SWAP3 PUSH1 0x20 PUSH1 0x1 DUP2 SWAP3 DUP7 DUP6 ADD MLOAD DUP2 SSTORE ADD SWAP5 ADD SWAP3 ADD PUSH2 0x2FA JUMP JUMPDEST PUSH1 0x4 PUSH1 0x0 MSTORE PUSH32 0x8A35ACFBC15FF81A39AE7D344FD709F28E8600B4AA8C65C6B64BFE7FE36BD19B PUSH1 0x1F DUP4 ADD PUSH1 0x5 SHR DUP2 ADD SWAP2 PUSH1 0x20 DUP5 LT PUSH2 0x3A9 JUMPI JUMPDEST PUSH1 0x1F ADD PUSH1 0x5 SHR ADD SWAP1 JUMPDEST DUP2 DUP2 LT PUSH2 0x39D JUMPI POP PUSH2 0x133 JUMP JUMPDEST PUSH1 0x0 DUP2 SSTORE PUSH1 0x1 ADD PUSH2 0x390 JUMP JUMPDEST SWAP1 SWAP2 POP DUP2 SWAP1 PUSH2 0x387 JUMP JUMPDEST PUSH4 0x4E487B71 PUSH1 0xE0 SHL PUSH1 0x0 MSTORE PUSH1 0x22 PUSH1 0x4 MSTORE PUSH1 0x24 PUSH1 0x0 REVERT JUMPDEST SWAP1 PUSH1 0x7F AND SWAP1 PUSH2 0x121 JUMP JUMPDEST PUSH4 0x4E487B71 PUSH1 0xE0 SHL PUSH1 0x0 MSTORE PUSH1 0x41 PUSH1 0x4 MSTORE PUSH1 0x24 PUSH1 0x0 REVERT JUMPDEST ADD MLOAD SWAP1 POP CODESIZE DUP1 PUSH2 0xEA JUMP JUMPDEST PUSH1 0x3 PUSH1 0x0 SWAP1 DUP2 MSTORE DUP3 DUP2 KECCAK256 SWAP4 POP PUSH1 0x1F NOT DUP6 AND SWAP1 JUMPDEST DUP2 DUP2 LT PUSH2 0x444 JUMPI POP SWAP1 DUP5 PUSH1 0x1 SWAP6 SWAP5 SWAP4 SWAP3 LT PUSH2 0x42B JUMPI JUMPDEST POP POP POP DUP2 SHL ADD PUSH1 0x3 SSTORE PUSH2 0x100 JUMP JUMPDEST ADD MLOAD PUSH1 0x0 NOT PUSH1 0xF8 DUP5 PUSH1 0x3 SHL AND SHR NOT AND SWAP1 SSTORE CODESIZE DUP1 DUP1 PUSH2 0x41D JUMP JUMPDEST SWAP3 SWAP4 PUSH1 0x20 PUSH1 0x1 DUP2 SWAP3 DUP8 DUP7 ADD MLOAD DUP2 SSTORE ADD SWAP6 ADD SWAP4 ADD PUSH2 0x407 JUMP JUMPDEST PUSH1 0x3 PUSH1 0x0 MSTORE SWAP1 SWAP2 POP PUSH32 0xC2575A0E9E593C00F959F8C92F12DB2869C3395A3B0502D05E2516446F71F85B PUSH1 0x1F DUP5 ADD PUSH1 0x5 SHR DUP2 ADD SWAP2 PUSH1 0x20 DUP6 LT PUSH2 0x4C2 JUMPI JUMPDEST SWAP1 PUSH1 0x1F DUP6 SWAP5 SWAP4 SWAP3 ADD PUSH1 0x5 SHR ADD SWAP1 JUMPDEST DUP2 DUP2 LT PUSH2 0x4B3 JUMPI POP PUSH2 0xD3 JUMP JUMPDEST PUSH1 0x0 DUP2 SSTORE DUP5 SWAP4 POP PUSH1 0x1 ADD PUSH2 0x4A6 JUMP JUMPDEST SWAP1 SWAP2 POP DUP2 SWAP1 PUSH2 0x498 JUMP JUMPDEST SWAP2 PUSH1 0x7F AND SWAP2 PUSH2 0xBF JUMP JUMPDEST PUSH1 0x0 DUP1 REVERT JUMPDEST PUSH1 0x40 MLOAD SWAP2 SWAP1 PUSH1 0x1F ADD PUSH1 0x1F NOT AND DUP3 ADD PUSH1 0x1 PUSH1 0x1 PUSH1 0x40 SHL SUB DUP2 GT DUP4 DUP3 LT OR PUSH2 0x3D3 JUMPI PUSH1 0x40 MSTORE JUMP JUMPDEST MLOAD SWAP1 PUSH1 0x1 PUSH1 0x1 PUSH1 0xA0 SHL SUB DUP3 AND DUP3 SUB PUSH2 0x4D6 JUMPI JUMP INVALID PUSH1 0x80 PUSH1 0x40 MSTORE PUSH1 0x4 CALLDATASIZE LT ISZERO PUSH2 0x12 JUMPI PUSH1 0x0 DUP1 REVERT JUMPDEST PUSH1 0x0 CALLDATALOAD PUSH1 0xE0 SHR DUP1 PUSH4 0x6FDDE03 EQ PUSH2 0x2092 JUMPI DUP1 PUSH4 0x917E776 EQ PUSH2 0x1451 JUMPI DUP1 PUSH4 0x95EA7B3 EQ PUSH2 0x206C JUMPI DUP1 PUSH4 0xA5D264A EQ PUSH2 0x1E88 JUMPI DUP1 PUSH4 0xE9CF0BA EQ PUSH2 0x1E59 JUMPI DUP1 PUSH4 0x18160DDD EQ PUSH2 0x1E3B JUMPI DUP1 PUSH4 0x23B872DD EQ PUSH2 0x1D7D JUMPI DUP1 PUSH4 0x313CE567 EQ PUSH2 0x1D61 JUMPI DUP1 PUSH4 0x317D9453 EQ PUSH2 0x1D3A JUMPI DUP1 PUSH4 0x347020AF EQ PUSH2 0x1A91 JUMPI DUP1 PUSH4 0x34B4117D EQ PUSH2 0x19D7 JUMPI DUP1 PUSH4 0x39509351 EQ PUSH2 0x1985 JUMPI DUP1 PUSH4 0x3AECD0E3 EQ PUSH2 0x14CC JUMPI DUP1 PUSH4 0x410A9DDD EQ PUSH2 0x18F3 JUMPI DUP1 PUSH4 0x49CE8997 EQ PUSH2 0x17AB JUMPI DUP1 PUSH4 0x5AC48E6D EQ PUSH2 0x178D JUMPI DUP1 PUSH4 0x69BCDB7D EQ PUSH2 0x1505 JUMPI DUP1 PUSH4 0x70A08231 EQ PUSH2 0x14CC JUMPI DUP1 PUSH4 0x715018A6 EQ PUSH2 0x146F JUMPI DUP1 PUSH4 0x817B1CD2 EQ PUSH2 0x1451 JUMPI DUP1 PUSH4 0x840A1FF4 EQ PUSH2 0x11EA JUMPI DUP1 PUSH4 0x8DA5CB5B EQ PUSH2 0x11C1 JUMPI DUP1 PUSH4 0x90BB9A29 EQ PUSH2 0x1168 JUMPI DUP1 PUSH4 0x95D89B41 EQ PUSH2 0x1083 JUMPI DUP1 PUSH4 0xA457C2D7 EQ PUSH2 0xFDC JUMPI DUP1 PUSH4 0xA9059CBB EQ PUSH2 0xFAB JUMPI DUP1 PUSH4 0xAA4DEA00 EQ PUSH2 0xF63 JUMPI DUP1 PUSH4 0xB3E14B31 EQ PUSH2 0xEA9 JUMPI DUP1 PUSH4 0xBC6E6604 EQ PUSH2 0xE8C JUMPI DUP1 PUSH4 0xD37A06F7 EQ PUSH2 0xD08 JUMPI DUP1 PUSH4 0xDB2E21BC EQ PUSH2 0xC8B JUMPI DUP1 PUSH4 0xDD62ED3E EQ PUSH2 0xC3A JUMPI DUP1 PUSH4 0xE8D10777 EQ PUSH2 0xBF8 JUMPI DUP1 PUSH4 0xF2FDE38B EQ PUSH2 0xB30 JUMPI PUSH4 0xF40219C0 EQ PUSH2 0x19D JUMPI PUSH1 0x0 DUP1 REVERT JUMPDEST PUSH1 0xE0 CALLDATASIZE PUSH1 0x3 NOT ADD SLT PUSH2 0xB2B JUMPI PUSH1 0x4 CALLDATALOAD PUSH1 0x1 PUSH1 0x1 PUSH1 0x40 SHL SUB DUP2 GT PUSH2 0xB2B JUMPI PUSH2 0x1C8 SWAP1 CALLDATASIZE SWAP1 PUSH1 0x4 ADD PUSH2 0x22F0 JUMP JUMPDEST PUSH1 0x24 CALLDATALOAD PUSH1 0x1 PUSH1 0x1 PUSH1 0x40 SHL SUB DUP2 GT PUSH2 0xB2B JUMPI PUSH2 0x1E7 SWAP1 CALLDATASIZE SWAP1 PUSH1 0x4 ADD PUSH2 0x22F0 JUMP JUMPDEST SWAP1 PUSH1 0x44 CALLDATALOAD PUSH1 0x1 PUSH1 0x1 PUSH1 0x40 SHL SUB DUP2 GT PUSH2 0xB2B JUMPI PUSH2 0x207 SWAP1 CALLDATASIZE SWAP1 PUSH1 0x4 ADD PUSH2 0x22F0 JUMP JUMPDEST SWAP2 PUSH1 0x64 CALLDATALOAD PUSH1 0x1 PUSH1 0x1 PUSH1 0x40 SHL SUB DUP2 GT PUSH2 0xB2B JUMPI PUSH2 0x227 SWAP1 CALLDATASIZE SWAP1 PUSH1 0x4 ADD PUSH2 0x22F0 JUMP JUMPDEST PUSH1 0xA4 CALLDATALOAD SWAP2 PUSH1 0xC4 CALLDATALOAD PUSH1 0x1 PUSH1 0x1 PUSH1 0x40 SHL SUB DUP2 GT PUSH2 0xB2B JUMPI PUSH2 0x24A SWAP1 CALLDATASIZE SWAP1 PUSH1 0x4 ADD PUSH2 0x22F0 JUMP JUMPDEST SWAP5 TIMESTAMP DUP5 GT ISZERO PUSH2 0xAE6 JUMPI CALLVALUE ISZERO PUSH2 0xAA9 JUMPI PUSH1 0xD SLOAD SWAP4 PUSH1 0x0 NOT DUP6 EQ PUSH2 0xA09 JUMPI PUSH1 0x1 DUP6 ADD PUSH1 0xD SSTORE PUSH2 0x3E8 CALLVALUE MUL SWAP2 CALLVALUE DUP4 DIV PUSH2 0x3E8 SUB PUSH2 0xA09 JUMPI PUSH1 0x64 DUP9 MLOAD PUSH1 0x20 DUP11 ADD SWAP1 DUP2 KECCAK256 PUSH2 0x291 PUSH2 0x240D JUMP JUMPDEST PUSH1 0x20 DUP2 MLOAD SWAP2 ADD KECCAK256 EQ PUSH1 0x0 EQ PUSH2 0xA1F JUMPI POP POP PUSH1 0x96 SWAP3 JUMPDEST PUSH2 0x3E8 DUP5 CALLVALUE MUL MUL SWAP4 DUP2 DUP6 DIV EQ SWAP1 ISZERO OR ISZERO PUSH2 0xA09 JUMPI DUP6 SWAP4 PUSH1 0x40 MLOAD SWAP6 PUSH2 0x2C9 DUP8 PUSH2 0x21E1 JUMP JUMPDEST DUP6 DUP8 MSTORE PUSH1 0x20 DUP8 ADD SWAP4 DUP10 DUP6 MSTORE PUSH1 0x40 DUP9 ADD SWAP3 DUP4 MSTORE PUSH1 0x60 DUP9 ADD SWAP2 CALLER DUP4 MSTORE PUSH1 0x80 DUP10 ADD SWAP5 DUP6 MSTORE PUSH1 0xA0 DUP10 ADD SWAP1 DUP2 MSTORE PUSH1 0xC0 DUP10 ADD SWAP1 PUSH1 0x84 CALLDATALOAD DUP3 MSTORE PUSH1 0xE0 DUP11 ADD SWAP3 DUP4 MSTORE PUSH2 0x100 DUP11 ADD SWAP13 DUP14 MSTORE PUSH2 0x120 DUP11 ADD SWAP6 PUSH1 0x1 DUP8 MSTORE PUSH2 0x140 DUP12 ADD SWAP5 PUSH1 0x0 DUP7 MSTORE PUSH2 0x160 DUP13 ADD SWAP7 PUSH1 0x0 DUP9 MSTORE PUSH2 0x180 DUP14 ADD SWAP10 CALLVALUE DUP12 MSTORE DUP14 PUSH2 0x1A0 DUP2 ADD SWAP13 PUSH1 0x64 SWAP1 DIV DUP14 MSTORE PUSH2 0x1C0 ADD SWAP13 PUSH1 0x0 DUP15 MSTORE PUSH1 0x0 MSTORE PUSH1 0xA PUSH1 0x20 MSTORE PUSH1 0x40 PUSH1 0x0 KECCAK256 DUP1 SWAP15 MLOAD DUP2 SSTORE PUSH1 0x1 ADD SWAP1 MLOAD DUP1 MLOAD SWAP1 PUSH1 0x1 PUSH1 0x1 PUSH1 0x40 SHL SUB DUP3 GT PUSH2 0x624 JUMPI DUP2 SWAP1 PUSH2 0x37B DUP5 SLOAD PUSH2 0x21A7 JUMP JUMPDEST PUSH1 0x1F DUP2 GT PUSH2 0x9B6 JUMPI JUMPDEST POP PUSH1 0x20 SWAP1 PUSH1 0x1F DUP4 GT PUSH1 0x1 EQ PUSH2 0x951 JUMPI PUSH1 0x0 SWAP3 PUSH2 0x946 JUMPI JUMPDEST POP POP DUP2 PUSH1 0x1 SHL SWAP2 PUSH1 0x0 NOT SWAP1 PUSH1 0x3 SHL SHR NOT AND OR SWAP1 SSTORE JUMPDEST MLOAD DUP1 MLOAD PUSH1 0x2 DUP15 ADD SWAP2 PUSH1 0x1 PUSH1 0x1 PUSH1 0x40 SHL SUB DUP3 GT PUSH2 0x624 JUMPI DUP2 SWAP1 PUSH2 0x3D2 DUP5 SLOAD PUSH2 0x21A7 JUMP JUMPDEST PUSH1 0x1F DUP2 GT PUSH2 0x8F3 JUMPI JUMPDEST POP PUSH1 0x20 SWAP1 PUSH1 0x1F DUP4 GT PUSH1 0x1 EQ PUSH2 0x88E JUMPI PUSH1 0x0 SWAP3 PUSH2 0x883 JUMPI JUMPDEST POP POP DUP2 PUSH1 0x1 SHL SWAP2 PUSH1 0x0 NOT SWAP1 PUSH1 0x3 SHL SHR NOT AND OR SWAP1 SSTORE JUMPDEST MLOAD PUSH1 0x3 DUP13 ADD DUP1 SLOAD PUSH1 0x1 PUSH1 0x1 PUSH1 0xA0 SHL SUB NOT AND PUSH1 0x1 PUSH1 0x1 PUSH1 0xA0 SHL SUB SWAP3 SWAP1 SWAP3 AND SWAP2 SWAP1 SWAP2 OR SWAP1 SSTORE MLOAD DUP1 MLOAD PUSH1 0x4 DUP13 ADD SWAP2 PUSH1 0x1 PUSH1 0x1 PUSH1 0x40 SHL SUB DUP3 GT PUSH2 0x624 JUMPI DUP2 SWAP1 PUSH2 0x44C DUP5 SLOAD PUSH2 0x21A7 JUMP JUMPDEST PUSH1 0x1F DUP2 GT PUSH2 0x830 JUMPI JUMPDEST POP PUSH1 0x20 SWAP1 PUSH1 0x1F DUP4 GT PUSH1 0x1 EQ PUSH2 0x7CB JUMPI PUSH1 0x0 SWAP3 PUSH2 0x7C0 JUMPI JUMPDEST POP POP DUP2 PUSH1 0x1 SHL SWAP2 PUSH1 0x0 NOT SWAP1 PUSH1 0x3 SHL SHR NOT AND OR SWAP1 SSTORE JUMPDEST MLOAD DUP1 MLOAD PUSH1 0x5 DUP12 ADD SWAP2 PUSH1 0x1 PUSH1 0x1 PUSH1 0x40 SHL SUB DUP3 GT PUSH2 0x624 JUMPI DUP2 SWAP1 PUSH2 0x4A3 DUP5 SLOAD PUSH2 0x21A7 JUMP JUMPDEST PUSH1 0x1F DUP2 GT PUSH2 0x76D JUMPI JUMPDEST POP PUSH1 0x20 SWAP1 PUSH1 0x1F DUP4 GT PUSH1 0x1 EQ PUSH2 0x708 JUMPI PUSH1 0x0 SWAP3 PUSH2 0x6FD JUMPI JUMPDEST POP POP DUP2 PUSH1 0x1 SHL SWAP2 PUSH1 0x0 NOT SWAP1 PUSH1 0x3 SHL SHR NOT AND OR SWAP1 SSTORE JUMPDEST MLOAD PUSH1 0x6 DUP10 ADD SSTORE MLOAD PUSH1 0x7 DUP9 ADD SSTORE PUSH1 0x8 DUP8 ADD SWAP10 MLOAD SWAP10 DUP11 MLOAD PUSH1 0x1 PUSH1 0x1 PUSH1 0x40 SHL SUB DUP2 GT PUSH2 0x624 JUMPI PUSH2 0x505 DUP3 SLOAD PUSH2 0x21A7 JUMP JUMPDEST PUSH1 0x1F DUP2 GT PUSH2 0x6B5 JUMPI JUMPDEST POP PUSH1 0x20 PUSH1 0x1F DUP3 GT PUSH1 0x1 EQ PUSH2 0x645 JUMPI DUP2 SWAP1 PUSH1 0xC SWAP11 SWAP12 SWAP13 SWAP14 PUSH1 0x0 SWAP3 PUSH2 0x63A JUMPI JUMPDEST POP POP DUP2 PUSH1 0x1 SHL SWAP2 PUSH1 0x0 NOT SWAP1 PUSH1 0x3 SHL SHR NOT AND OR SWAP1 SSTORE JUMPDEST PUSH1 0x9 DUP9 ADD SWAP3 MLOAD ISZERO ISZERO PUSH1 0xFF DUP1 NOT DUP6 SLOAD AND SWAP2 AND OR DUP4 SSTORE MLOAD ISZERO ISZERO PUSH2 0xFF00 DUP4 SLOAD SWAP2 PUSH1 0x8 SHL AND SWAP1 PUSH2 0xFF00 NOT AND OR DUP3 SSTORE MLOAD ISZERO ISZERO PUSH3 0xFF0000 DUP3 SLOAD SWAP2 PUSH1 0x10 SHL AND SWAP1 PUSH3 0xFF0000 NOT AND OR SWAP1 SSTORE MLOAD PUSH1 0xA DUP6 ADD SSTORE MLOAD PUSH1 0xB DUP5 ADD SSTORE MLOAD SWAP2 ADD SSTORE PUSH2 0x59F CALLVALUE PUSH1 0xE SLOAD PUSH2 0x2400 JUMP JUMPDEST PUSH1 0xE SSTORE CALLER PUSH1 0x0 MSTORE PUSH1 0xC PUSH1 0x20 MSTORE PUSH1 0x40 PUSH1 0x0 KECCAK256 DUP1 SLOAD PUSH9 0x10000000000000000 DUP2 LT ISZERO PUSH2 0x624 JUMPI PUSH2 0x5D2 SWAP2 PUSH1 0x1 DUP3 ADD DUP2 SSTORE PUSH2 0x22C2 JUMP JUMPDEST DUP2 SLOAD SWAP1 PUSH1 0x3 SHL SWAP1 DUP4 DUP3 SHL SWAP2 PUSH1 0x0 NOT SWAP1 SHL NOT AND OR SWAP1 SSTORE PUSH32 0xFA99A653C4373B4E353C68118639A54B493260F42326788C4CBCC6742D56AC28 PUSH1 0x40 MLOAD PUSH1 0x20 DUP2 MSTORE DUP1 PUSH2 0x61F CALLER SWAP6 PUSH1 0x20 DUP4 ADD SWAP1 PUSH2 0x213A JUMP JUMPDEST SUB SWAP1 LOG3 STOP JUMPDEST PUSH4 0x4E487B71 PUSH1 0xE0 SHL PUSH1 0x0 MSTORE PUSH1 0x41 PUSH1 0x4 MSTORE PUSH1 0x24 PUSH1 0x0 REVERT JUMPDEST ADD MLOAD SWAP1 POP CODESIZE DUP1 PUSH2 0x52C JUMP JUMPDEST PUSH1 0x1F NOT DUP3 AND SWAP13 DUP4 PUSH1 0x0 MSTORE DUP2 PUSH1 0x0 KECCAK256 SWAP14 PUSH1 0x0 JUMPDEST DUP2 DUP2 LT PUSH2 0x698 JUMPI POP SWAP2 PUSH1 0xC SWAP12 SWAP13 SWAP14 SWAP15 SWAP2 DUP5 PUSH1 0x1 SWAP6 SWAP5 LT PUSH2 0x67F JUMPI JUMPDEST POP POP POP DUP2 SHL ADD SWAP1 SSTORE PUSH2 0x541 JUMP JUMPDEST ADD MLOAD PUSH1 0x0 NOT PUSH1 0xF8 DUP5 PUSH1 0x3 SHL AND SHR NOT AND SWAP1 SSTORE CODESIZE DUP1 DUP1 PUSH2 0x672 JUMP JUMPDEST SWAP2 SWAP15 DUP16 PUSH1 0x1 PUSH1 0x20 SWAP3 DUP7 DUP5 SWAP4 ADD MLOAD DUP2 SSTORE ADD SWAP5 ADD SWAP3 ADD SWAP15 SWAP2 SWAP3 SWAP15 PUSH2 0x657 JUMP JUMPDEST DUP3 PUSH1 0x0 MSTORE PUSH1 0x20 PUSH1 0x0 KECCAK256 PUSH1 0x1F DUP4 ADD PUSH1 0x5 SHR DUP2 ADD SWAP2 PUSH1 0x20 DUP5 LT PUSH2 0x6F3 JUMPI JUMPDEST PUSH1 0x1F ADD PUSH1 0x5 SHR ADD SWAP1 JUMPDEST DUP2 DUP2 LT PUSH2 0x6E7 JUMPI POP PUSH2 0x50E JUMP JUMPDEST PUSH1 0x0 DUP2 SSTORE PUSH1 0x1 ADD PUSH2 0x6DA JUMP JUMPDEST SWAP1 SWAP2 POP DUP2 SWAP1 PUSH2 0x6D1 JUMP JUMPDEST ADD MLOAD SWAP1 POP CODESIZE DUP1 PUSH2 0x4C3 JUMP JUMPDEST PUSH1 0x0 DUP6 DUP2 MSTORE DUP3 DUP2 KECCAK256 SWAP4 POP PUSH1 0x1F NOT DUP6 AND SWAP1 JUMPDEST DUP2 DUP2 LT PUSH2 0x755 JUMPI POP SWAP1 DUP5 PUSH1 0x1 SWAP6 SWAP5 SWAP4 SWAP3 LT PUSH2 0x73C JUMPI JUMPDEST POP POP POP DUP2 SHL ADD SWAP1 SSTORE PUSH2 0x4D8 JUMP JUMPDEST ADD MLOAD PUSH1 0x0 NOT PUSH1 0xF8 DUP5 PUSH1 0x3 SHL AND SHR NOT AND SWAP1 SSTORE CODESIZE DUP1 DUP1 PUSH2 0x72F JUMP JUMPDEST SWAP3 SWAP4 PUSH1 0x20 PUSH1 0x1 DUP2 SWAP3 DUP8 DUP7 ADD MLOAD DUP2 SSTORE ADD SWAP6 ADD SWAP4 ADD PUSH2 0x719 JUMP JUMPDEST SWAP1 SWAP2 POP DUP4 PUSH1 0x0 MSTORE PUSH1 0x20 PUSH1 0x0 KECCAK256 PUSH1 0x1F DUP5 ADD PUSH1 0x5 SHR DUP2 ADD SWAP2 PUSH1 0x20 DUP6 LT PUSH2 0x7B6 JUMPI JUMPDEST SWAP1 PUSH1 0x1F DUP6 SWAP5 SWAP4 SWAP3 ADD PUSH1 0x5 SHR ADD SWAP1 JUMPDEST DUP2 DUP2 LT PUSH2 0x7A7 JUMPI POP PUSH2 0x4AC JUMP JUMPDEST PUSH1 0x0 DUP2 SSTORE DUP5 SWAP4 POP PUSH1 0x1 ADD PUSH2 0x79A JUMP JUMPDEST SWAP1 SWAP2 POP DUP2 SWAP1 PUSH2 0x78C JUMP JUMPDEST ADD MLOAD SWAP1 POP CODESIZE DUP1 PUSH2 0x46C JUMP JUMPDEST PUSH1 0x0 DUP6 DUP2 MSTORE DUP3 DUP2 KECCAK256 SWAP4 POP PUSH1 0x1F NOT DUP6 AND SWAP1 JUMPDEST DUP2 DUP2 LT PUSH2 0x818 JUMPI POP SWAP1 DUP5 PUSH1 0x1 SWAP6 SWAP5 SWAP4 SWAP3 LT PUSH2 0x7FF JUMPI JUMPDEST POP POP POP DUP2 SHL ADD SWAP1 SSTORE PUSH2 0x481 JUMP JUMPDEST ADD MLOAD PUSH1 0x0 NOT PUSH1 0xF8 DUP5 PUSH1 0x3 SHL AND SHR NOT AND SWAP1 SSTORE CODESIZE DUP1 DUP1 PUSH2 0x7F2 JUMP JUMPDEST SWAP3 SWAP4 PUSH1 0x20 PUSH1 0x1 DUP2 SWAP3 DUP8 DUP7 ADD MLOAD DUP2 SSTORE ADD SWAP6 ADD SWAP4 ADD PUSH2 0x7DC JUMP JUMPDEST SWAP1 SWAP2 POP DUP4 PUSH1 0x0 MSTORE PUSH1 0x20 PUSH1 0x0 KECCAK256 PUSH1 0x1F DUP5 ADD PUSH1 0x5 SHR DUP2 ADD SWAP2 PUSH1 0x20 DUP6 LT PUSH2 0x879 JUMPI JUMPDEST SWAP1 PUSH1 0x1F DUP6 SWAP5 SWAP4 SWAP3 ADD PUSH1 0x5 SHR ADD SWAP1 JUMPDEST DUP2 DUP2 LT PUSH2 0x86A JUMPI POP PUSH2 0x455 JUMP JUMPDEST PUSH1 0x0 DUP2 SSTORE DUP5 SWAP4 POP PUSH1 0x1 ADD PUSH2 0x85D JUMP JUMPDEST SWAP1 SWAP2 POP DUP2 SWAP1 PUSH2 0x84F JUMP JUMPDEST ADD MLOAD SWAP1 POP CODESIZE DUP1 PUSH2 0x3F2 JUMP JUMPDEST PUSH1 0x0 DUP6 DUP2 MSTORE DUP3 DUP2 KECCAK256 SWAP4 POP PUSH1 0x1F NOT DUP6 AND SWAP1 JUMPDEST DUP2 DUP2 LT PUSH2 0x8DB JUMPI POP SWAP1 DUP5 PUSH1 0x1 SWAP6 SWAP5 SWAP4 SWAP3 LT PUSH2 0x8C2 JUMPI JUMPDEST POP POP POP DUP2 SHL ADD SWAP1 SSTORE PUSH2 0x407 JUMP JUMPDEST ADD MLOAD PUSH1 0x0 NOT PUSH1 0xF8 DUP5 PUSH1 0x3 SHL AND SHR NOT AND SWAP1 SSTORE CODESIZE DUP1 DUP1 PUSH2 0x8B5 JUMP JUMPDEST SWAP3 SWAP4 PUSH1 0x20 PUSH1 0x1 DUP2 SWAP3 DUP8 DUP7 ADD MLOAD DUP2 SSTORE ADD SWAP6 ADD SWAP4 ADD PUSH2 0x89F JUMP JUMPDEST SWAP1 SWAP2 POP DUP4 PUSH1 0x0 MSTORE PUSH1 0x20 PUSH1 0x0 KECCAK256 PUSH1 0x1F DUP5 ADD PUSH1 0x5 SHR DUP2 ADD SWAP2 PUSH1 0x20 DUP6 LT PUSH2 0x93C JUMPI JUMPDEST SWAP1 PUSH1 0x1F DUP6 SWAP5 SWAP4 SWAP3 ADD PUSH1 0x5 SHR ADD SWAP1 JUMPDEST DUP2 DUP2 LT PUSH2 0x92D JUMPI POP PUSH2 0x3DB JUMP JUMPDEST PUSH1 0x0 DUP2 SSTORE DUP5 SWAP4 POP PUSH1 0x1 ADD PUSH2 0x920 JUMP JUMPDEST SWAP1 SWAP2 POP DUP2 SWAP1 PUSH2 0x912 JUMP JUMPDEST ADD MLOAD SWAP1 POP CODESIZE DUP1 PUSH2 0x39B JUMP JUMPDEST PUSH1 0x0 DUP6 DUP2 MSTORE DUP3 DUP2 KECCAK256 SWAP4 POP PUSH1 0x1F NOT DUP6 AND SWAP1 JUMPDEST DUP2 DUP2 LT PUSH2 0x99E JUMPI POP SWAP1 DUP5 PUSH1 0x1 SWAP6 SWAP5 SWAP4 SWAP3 LT PUSH2 0x985 JUMPI JUMPDEST POP POP POP DUP2 SHL ADD SWAP1 SSTORE PUSH2 0x3B0 JUMP JUMPDEST ADD MLOAD PUSH1 0x0 NOT PUSH1 0xF8 DUP5 PUSH1 0x3 SHL AND SHR NOT AND SWAP1 SSTORE CODESIZE DUP1 DUP1 PUSH2 0x978 JUMP JUMPDEST SWAP3 SWAP4 PUSH1 0x20 PUSH1 0x1 DUP2 SWAP3 DUP8 DUP7 ADD MLOAD DUP2 SSTORE ADD SWAP6 ADD SWAP4 ADD PUSH2 0x962 JUMP JUMPDEST SWAP1 SWAP2 POP DUP4 PUSH1 0x0 MSTORE PUSH1 0x20 PUSH1 0x0 KECCAK256 PUSH1 0x1F DUP5 ADD PUSH1 0x5 SHR DUP2 ADD SWAP2 PUSH1 0x20 DUP6 LT PUSH2 0x9FF JUMPI JUMPDEST SWAP1 PUSH1 0x1F DUP6 SWAP5 SWAP4 SWAP3 ADD PUSH1 0x5 SHR ADD SWAP1 JUMPDEST DUP2 DUP2 LT PUSH2 0x9F0 JUMPI POP PUSH2 0x384 JUMP JUMPDEST PUSH1 0x0 DUP2 SSTORE DUP5 SWAP4 POP PUSH1 0x1 ADD PUSH2 0x9E3 JUMP JUMPDEST SWAP1 SWAP2 POP DUP2 SWAP1 PUSH2 0x9D5 JUMP JUMPDEST PUSH4 0x4E487B71 PUSH1 0xE0 SHL PUSH1 0x0 MSTORE PUSH1 0x11 PUSH1 0x4 MSTORE PUSH1 0x24 PUSH1 0x0 REVERT JUMPDEST DUP10 MLOAD DUP2 KECCAK256 PUSH2 0xA2B PUSH2 0x2459 JUMP JUMPDEST PUSH1 0x20 DUP2 MLOAD SWAP2 ADD KECCAK256 EQ PUSH1 0x0 EQ PUSH2 0xA45 JUMPI POP POP PUSH1 0x78 SWAP3 JUMPDEST PUSH2 0x2A6 JUMP JUMPDEST DUP10 MLOAD DUP2 KECCAK256 PUSH2 0xA51 PUSH2 0x242F JUMP JUMPDEST PUSH1 0x20 DUP2 MLOAD SWAP2 ADD KECCAK256 EQ PUSH1 0x0 EQ PUSH2 0xA6A JUMPI POP POP PUSH1 0x82 SWAP3 PUSH2 0x2A6 JUMP JUMPDEST DUP10 SWAP5 SWAP2 SWAP5 MLOAD SWAP1 KECCAK256 PUSH1 0xD PUSH1 0x20 PUSH1 0x40 MLOAD PUSH2 0xA83 PUSH1 0x40 DUP3 PUSH2 0x21FD JUMP JUMPDEST DUP3 DUP2 MSTORE ADD PUSH13 0x77617465725F7175616C697479 PUSH1 0x98 SHL DUP2 MSTORE KECCAK256 SUB PUSH2 0xA40 JUMPI PUSH1 0x6E SWAP4 POP PUSH2 0x2A6 JUMP JUMPDEST PUSH1 0x40 MLOAD PUSH3 0x461BCD PUSH1 0xE5 SHL DUP2 MSTORE PUSH1 0x20 PUSH1 0x4 DUP3 ADD MSTORE PUSH1 0x15 PUSH1 0x24 DUP3 ADD MSTORE PUSH21 0x14DD185AD948185B5BDD5B9D081C995C5D5A5C9959 PUSH1 0x5A SHL PUSH1 0x44 DUP3 ADD MSTORE PUSH1 0x64 SWAP1 REVERT JUMPDEST PUSH1 0x40 MLOAD PUSH3 0x461BCD PUSH1 0xE5 SHL DUP2 MSTORE PUSH1 0x20 PUSH1 0x4 DUP3 ADD MSTORE PUSH1 0x1E PUSH1 0x24 DUP3 ADD MSTORE PUSH32 0x446561646C696E65206D75737420626520696E20746865206675747572650000 PUSH1 0x44 DUP3 ADD MSTORE PUSH1 0x64 SWAP1 REVERT JUMPDEST PUSH1 0x0 DUP1 REVERT JUMPDEST CALLVALUE PUSH2 0xB2B JUMPI PUSH1 0x20 CALLDATASIZE PUSH1 0x3 NOT ADD SLT PUSH2 0xB2B JUMPI PUSH2 0xB49 PUSH2 0x217B JUMP JUMPDEST PUSH2 0xB51 PUSH2 0x28D8 JUMP JUMPDEST PUSH1 0x1 PUSH1 0x1 PUSH1 0xA0 SHL SUB AND DUP1 ISZERO PUSH2 0xBA4 JUMPI PUSH1 0x5 DUP1 SLOAD PUSH1 0x1 PUSH1 0x1 PUSH1 0xA0 SHL SUB NOT DUP2 AND DUP4 OR SWAP1 SWAP2 SSTORE PUSH1 0x1 PUSH1 0x1 PUSH1 0xA0 SHL SUB AND PUSH32 0x8BE0079C531659141344CD1FD0A4F28419497F9722A3DAAFE3B4186F6B6457E0 PUSH1 0x0 DUP1 LOG3 STOP JUMPDEST PUSH1 0x40 MLOAD PUSH3 0x461BCD PUSH1 0xE5 SHL DUP2 MSTORE PUSH1 0x20 PUSH1 0x4 DUP3 ADD MSTORE PUSH1 0x26 PUSH1 0x24 DUP3 ADD MSTORE PUSH32 0x4F776E61626C653A206E6577206F776E657220697320746865207A65726F2061 PUSH1 0x44 DUP3 ADD MSTORE PUSH6 0x646472657373 PUSH1 0xD0 SHL PUSH1 0x64 DUP3 ADD MSTORE PUSH1 0x84 SWAP1 REVERT JUMPDEST CALLVALUE PUSH2 0xB2B JUMPI PUSH1 0x20 CALLDATASIZE PUSH1 0x3 NOT ADD SLT PUSH2 0xB2B JUMPI PUSH1 0x4 CALLDATALOAD PUSH1 0x1 PUSH1 0x1 PUSH1 0x40 SHL SUB DUP2 GT PUSH2 0xB2B JUMPI PUSH2 0xC32 PUSH2 0xC2D PUSH1 0x20 SWAP3 CALLDATASIZE SWAP1 PUSH1 0x4 ADD PUSH2 0x22F0 JUMP JUMPDEST PUSH2 0x24C6 JUMP JUMPDEST PUSH1 0x40 MLOAD SWAP1 DUP2 MSTORE RETURN JUMPDEST CALLVALUE PUSH2 0xB2B JUMPI PUSH1 0x40 CALLDATASIZE PUSH1 0x3 NOT ADD SLT PUSH2 0xB2B JUMPI PUSH2 0xC53 PUSH2 0x217B JUMP JUMPDEST PUSH2 0xC5B PUSH2 0x2191 JUMP JUMPDEST PUSH1 0x1 PUSH1 0x1 PUSH1 0xA0 SHL SUB SWAP2 DUP3 AND PUSH1 0x0 SWAP1 DUP2 MSTORE PUSH1 0x1 PUSH1 0x20 SWAP1 DUP2 MSTORE PUSH1 0x40 DUP1 DUP4 KECCAK256 SWAP5 SWAP1 SWAP4 AND DUP3 MSTORE SWAP3 DUP4 MSTORE DUP2 SWAP1 KECCAK256 SLOAD SWAP1 MLOAD SWAP1 DUP2 MSTORE RETURN JUMPDEST CALLVALUE PUSH2 0xB2B JUMPI PUSH1 0x0 CALLDATASIZE PUSH1 0x3 NOT ADD SLT PUSH2 0xB2B JUMPI PUSH2 0xCA4 PUSH2 0x28D8 JUMP JUMPDEST PUSH1 0x0 DUP1 DUP1 DUP1 PUSH1 0x1 DUP1 PUSH1 0xA0 SHL SUB PUSH1 0x5 SLOAD AND SELFBALANCE SWAP1 DUP3 DUP3 ISZERO PUSH2 0xCFF JUMPI JUMPDEST CALL ISZERO PUSH2 0xCF3 JUMPI ADDRESS PUSH1 0x0 MSTORE PUSH1 0x0 PUSH1 0x20 MSTORE PUSH1 0x40 PUSH1 0x0 KECCAK256 SLOAD DUP1 PUSH2 0xCDA JUMPI STOP JUMPDEST PUSH1 0x5 SLOAD PUSH2 0xCF1 SWAP2 SWAP1 PUSH1 0x1 PUSH1 0x1 PUSH1 0xA0 SHL SUB AND ADDRESS PUSH2 0x2703 JUMP JUMPDEST STOP JUMPDEST PUSH1 0x40 MLOAD RETURNDATASIZE PUSH1 0x0 DUP3 RETURNDATACOPY RETURNDATASIZE SWAP1 REVERT JUMPDEST POP PUSH2 0x8FC PUSH2 0xCBE JUMP JUMPDEST CALLVALUE PUSH2 0xB2B JUMPI PUSH1 0x20 CALLDATASIZE PUSH1 0x3 NOT ADD SLT PUSH2 0xB2B JUMPI PUSH1 0x4 CALLDATALOAD PUSH1 0x0 MSTORE PUSH1 0xA PUSH1 0x20 MSTORE PUSH1 0x60 PUSH1 0x40 PUSH1 0x0 KECCAK256 PUSH1 0x40 MLOAD PUSH2 0xD37 DUP2 PUSH2 0x21E1 JUMP JUMPDEST DUP2 SLOAD DUP2 MSTORE PUSH2 0xD47 PUSH1 0x1 DUP4 ADD PUSH2 0x221E JUMP JUMPDEST PUSH1 0x20 DUP3 ADD MSTORE PUSH2 0xD58 PUSH1 0x2 DUP4 ADD PUSH2 0x221E JUMP JUMPDEST PUSH1 0x40 DUP3 ADD MSTORE PUSH1 0x3 DUP3 ADD SLOAD PUSH1 0x1 PUSH1 0x1 PUSH1 0xA0 SHL SUB AND DUP4 DUP3 ADD MSTORE PUSH2 0xD7B PUSH1 0x4 DUP4 ADD PUSH2 0x221E JUMP JUMPDEST PUSH1 0x80 DUP3 ADD MSTORE PUSH2 0xD8C PUSH1 0x5 DUP4 ADD PUSH2 0x221E JUMP JUMPDEST PUSH1 0xA0 DUP3 ADD MSTORE PUSH2 0xE14 PUSH1 0x6 DUP4 ADD SLOAD SWAP3 PUSH1 0xC0 DUP4 ADD SWAP4 DUP5 MSTORE PUSH1 0x7 DUP2 ADD SLOAD PUSH1 0xE0 DUP5 ADD MSTORE PUSH2 0xDB7 PUSH1 0x8 DUP3 ADD PUSH2 0x221E JUMP JUMPDEST SWAP3 PUSH2 0x100 DUP2 ADD SWAP4 DUP5 MSTORE PUSH2 0x1C0 PUSH1 0xC PUSH1 0x9 DUP5 ADD SLOAD SWAP4 PUSH1 0xFF DUP1 DUP7 AND ISZERO ISZERO SWAP6 DUP7 PUSH2 0x120 DUP8 ADD MSTORE DUP2 DUP2 PUSH1 0x8 SHR AND ISZERO ISZERO PUSH2 0x140 DUP8 ADD MSTORE PUSH1 0x10 SHR AND ISZERO ISZERO PUSH2 0x160 DUP6 ADD MSTORE PUSH1 0xA DUP2 ADD SLOAD PUSH2 0x180 DUP6 ADD MSTORE PUSH1 0xB DUP2 ADD SLOAD PUSH2 0x1A0 DUP6 ADD MSTORE ADD SLOAD SWAP2 ADD MSTORE PUSH2 0x2346 JUMP JUMPDEST PUSH2 0xE1E DUP2 MLOAD PUSH2 0x24C6 JUMP JUMPDEST SWAP1 PUSH1 0x0 SWAP1 DUP1 MLOAD PUSH1 0x20 DUP2 MLOAD SWAP2 ADD KECCAK256 PUSH2 0xE33 PUSH2 0x240D JUMP JUMPDEST PUSH1 0x20 DUP2 MLOAD SWAP2 ADD KECCAK256 EQ PUSH1 0x0 EQ PUSH2 0xE61 JUMPI POP POP DUP2 MLOAD DUP2 GT ISZERO SWAP2 JUMPDEST MLOAD SWAP1 PUSH1 0x40 MLOAD SWAP3 ISZERO ISZERO DUP4 MSTORE PUSH1 0x20 DUP4 ADD MSTORE PUSH1 0x40 DUP3 ADD MSTORE RETURN JUMPDEST SWAP3 SWAP1 SWAP3 MLOAD PUSH1 0x20 DUP2 MLOAD SWAP2 ADD KECCAK256 PUSH2 0xE74 PUSH2 0x242F JUMP JUMPDEST PUSH1 0x20 DUP2 MLOAD SWAP2 ADD KECCAK256 SUB PUSH2 0xE4B JUMPI DUP1 MLOAD DUP3 LT ISZERO SWAP3 POP PUSH2 0xE4B JUMP JUMPDEST CALLVALUE PUSH2 0xB2B JUMPI PUSH1 0x0 CALLDATASIZE PUSH1 0x3 NOT ADD SLT PUSH2 0xB2B JUMPI PUSH1 0x20 PUSH1 0x40 MLOAD PUSH2 0x3E8 DUP2 MSTORE RETURN JUMPDEST CALLVALUE PUSH2 0xB2B JUMPI PUSH1 0x20 CALLDATASIZE PUSH1 0x3 NOT ADD SLT PUSH2 0xB2B JUMPI PUSH1 0x1 PUSH1 0x1 PUSH1 0xA0 SHL SUB PUSH2 0xECA PUSH2 0x217B JUMP JUMPDEST AND PUSH1 0x0 MSTORE PUSH1 0xC PUSH1 0x20 MSTORE PUSH1 0x40 PUSH1 0x0 KECCAK256 PUSH1 0x40 MLOAD DUP1 PUSH1 0x20 DUP4 SLOAD SWAP2 DUP3 DUP2 MSTORE ADD SWAP1 DUP2 SWAP4 PUSH1 0x0 MSTORE PUSH1 0x20 PUSH1 0x0 KECCAK256 SWAP1 PUSH1 0x0 JUMPDEST DUP2 DUP2 LT PUSH2 0xF4D JUMPI POP POP POP DUP2 PUSH2 0xF0A SWAP2 SUB DUP3 PUSH2 0x21FD JUMP JUMPDEST PUSH1 0x40 MLOAD SWAP2 DUP3 SWAP2 PUSH1 0x20 DUP4 ADD SWAP1 PUSH1 0x20 DUP5 MSTORE MLOAD DUP1 SWAP2 MSTORE PUSH1 0x40 DUP4 ADD SWAP2 SWAP1 PUSH1 0x0 JUMPDEST DUP2 DUP2 LT PUSH2 0xF34 JUMPI POP POP POP SUB SWAP1 RETURN JUMPDEST DUP3 MLOAD DUP5 MSTORE DUP6 SWAP5 POP PUSH1 0x20 SWAP4 DUP5 ADD SWAP4 SWAP1 SWAP3 ADD SWAP2 PUSH1 0x1 ADD PUSH2 0xF26 JUMP JUMPDEST DUP3 SLOAD DUP5 MSTORE PUSH1 0x20 SWAP1 SWAP4 ADD SWAP3 PUSH1 0x1 SWAP3 DUP4 ADD SWAP3 ADD PUSH2 0xEF4 JUMP JUMPDEST CALLVALUE PUSH2 0xB2B JUMPI PUSH1 0x20 CALLDATASIZE PUSH1 0x3 NOT ADD SLT PUSH2 0xB2B JUMPI PUSH1 0x4 CALLDATALOAD PUSH1 0x0 MSTORE PUSH1 0xB PUSH1 0x20 MSTORE PUSH1 0x60 PUSH1 0x40 PUSH1 0x0 KECCAK256 DUP1 SLOAD SWAP1 PUSH1 0xFF PUSH1 0x2 PUSH1 0x1 DUP4 ADD SLOAD SWAP3 ADD SLOAD AND SWAP1 PUSH1 0x40 MLOAD SWAP3 DUP4 MSTORE PUSH1 0x20 DUP4 ADD MSTORE ISZERO ISZERO PUSH1 0x40 DUP3 ADD MSTORE RETURN JUMPDEST CALLVALUE PUSH2 0xB2B JUMPI PUSH1 0x40 CALLDATASIZE PUSH1 0x3 NOT ADD SLT PUSH2 0xB2B JUMPI PUSH2 0xFD1 PUSH2 0xFC7 PUSH2 0x217B JUMP JUMPDEST PUSH1 0x24 CALLDATALOAD SWAP1 CALLER PUSH2 0x2703 JUMP JUMPDEST PUSH1 0x20 PUSH1 0x40 MLOAD PUSH1 0x1 DUP2 MSTORE RETURN JUMPDEST CALLVALUE PUSH2 0xB2B JUMPI PUSH1 0x40 CALLDATASIZE PUSH1 0x3 NOT ADD SLT PUSH2 0xB2B JUMPI PUSH2 0xFF5 PUSH2 0x217B JUMP JUMPDEST PUSH1 0x24 CALLDATALOAD SWAP1 CALLER PUSH1 0x0 MSTORE PUSH1 0x1 PUSH1 0x20 MSTORE PUSH1 0x40 PUSH1 0x0 KECCAK256 PUSH1 0x1 DUP1 PUSH1 0xA0 SHL SUB DUP3 AND PUSH1 0x0 MSTORE PUSH1 0x20 MSTORE PUSH1 0x40 PUSH1 0x0 KECCAK256 SLOAD SWAP2 DUP1 DUP4 LT PUSH2 0x1030 JUMPI PUSH2 0xFD1 SWAP3 SUB SWAP1 CALLER PUSH2 0x25FB JUMP JUMPDEST PUSH1 0x40 MLOAD PUSH3 0x461BCD PUSH1 0xE5 SHL DUP2 MSTORE PUSH1 0x20 PUSH1 0x4 DUP3 ADD MSTORE PUSH1 0x25 PUSH1 0x24 DUP3 ADD MSTORE PUSH32 0x45524332303A2064656372656173656420616C6C6F77616E63652062656C6F77 PUSH1 0x44 DUP3 ADD MSTORE PUSH5 0x207A65726F PUSH1 0xD8 SHL PUSH1 0x64 DUP3 ADD MSTORE PUSH1 0x84 SWAP1 REVERT JUMPDEST CALLVALUE PUSH2 0xB2B JUMPI PUSH1 0x0 CALLDATASIZE PUSH1 0x3 NOT ADD SLT PUSH2 0xB2B JUMPI PUSH1 0x40 MLOAD PUSH1 0x0 PUSH1 0x4 SLOAD PUSH2 0x10A5 DUP2 PUSH2 0x21A7 JUMP JUMPDEST DUP1 DUP5 MSTORE SWAP1 PUSH1 0x1 DUP2 AND SWAP1 DUP2 ISZERO PUSH2 0x1144 JUMPI POP PUSH1 0x1 EQ PUSH2 0x10E5 JUMPI JUMPDEST PUSH2 0x10E1 DUP4 PUSH2 0x10CD DUP2 DUP6 SUB DUP3 PUSH2 0x21FD JUMP JUMPDEST PUSH1 0x40 MLOAD SWAP2 DUP3 SWAP2 PUSH1 0x20 DUP4 MSTORE PUSH1 0x20 DUP4 ADD SWAP1 PUSH2 0x213A JUMP JUMPDEST SUB SWAP1 RETURN JUMPDEST PUSH1 0x4 PUSH1 0x0 SWAP1 DUP2 MSTORE PUSH32 0x8A35ACFBC15FF81A39AE7D344FD709F28E8600B4AA8C65C6B64BFE7FE36BD19B SWAP4 SWAP3 POP SWAP1 JUMPDEST DUP1 DUP3 LT PUSH2 0x112A JUMPI POP SWAP1 SWAP2 POP DUP2 ADD PUSH1 0x20 ADD PUSH2 0x10CD PUSH2 0x10BD JUMP JUMPDEST SWAP2 SWAP3 PUSH1 0x1 DUP2 PUSH1 0x20 SWAP3 SLOAD DUP4 DUP6 DUP9 ADD ADD MSTORE ADD SWAP2 ADD SWAP1 SWAP3 SWAP2 PUSH2 0x1112 JUMP JUMPDEST PUSH1 0xFF NOT AND PUSH1 0x20 DUP1 DUP7 ADD SWAP2 SWAP1 SWAP2 MSTORE SWAP2 ISZERO ISZERO PUSH1 0x5 SHL DUP5 ADD SWAP1 SWAP2 ADD SWAP2 POP PUSH2 0x10CD SWAP1 POP PUSH2 0x10BD JUMP JUMPDEST CALLVALUE PUSH2 0xB2B JUMPI PUSH1 0x40 CALLDATASIZE PUSH1 0x3 NOT ADD SLT PUSH2 0xB2B JUMPI PUSH2 0x1181 PUSH2 0x217B JUMP JUMPDEST PUSH1 0x1 PUSH1 0x1 PUSH1 0xA0 SHL SUB AND PUSH1 0x0 SWAP1 DUP2 MSTORE PUSH1 0xC PUSH1 0x20 MSTORE PUSH1 0x40 SWAP1 KECCAK256 DUP1 SLOAD PUSH1 0x24 CALLDATALOAD SWAP2 SWAP1 DUP3 LT ISZERO PUSH2 0xB2B JUMPI PUSH1 0x20 SWAP2 PUSH2 0x11B2 SWAP2 PUSH2 0x22C2 JUMP JUMPDEST SWAP1 SLOAD SWAP1 PUSH1 0x3 SHL SHR PUSH1 0x40 MLOAD SWAP1 DUP2 MSTORE RETURN JUMPDEST CALLVALUE PUSH2 0xB2B JUMPI PUSH1 0x0 CALLDATASIZE PUSH1 0x3 NOT ADD SLT PUSH2 0xB2B JUMPI PUSH1 0x5 SLOAD PUSH1 0x40 MLOAD PUSH1 0x1 PUSH1 0x1 PUSH1 0xA0 SHL SUB SWAP1 SWAP2 AND DUP2 MSTORE PUSH1 0x20 SWAP1 RETURN JUMPDEST CALLVALUE PUSH2 0xB2B JUMPI PUSH1 0x20 CALLDATASIZE PUSH1 0x3 NOT ADD SLT PUSH2 0xB2B JUMPI PUSH1 0x4 CALLDATALOAD PUSH2 0x1206 PUSH2 0x2882 JUMP JUMPDEST PUSH1 0x0 DUP2 DUP2 MSTORE PUSH1 0xA PUSH1 0x20 MSTORE PUSH1 0x40 SWAP1 KECCAK256 PUSH1 0x3 DUP2 ADD SLOAD PUSH1 0x1 PUSH1 0x1 PUSH1 0xA0 SHL SUB AND CALLER SUB PUSH2 0x1401 JUMPI PUSH1 0x9 DUP2 ADD SWAP1 DUP2 SLOAD SWAP2 PUSH2 0x123C PUSH1 0xFF DUP5 AND PUSH2 0x2346 JUMP JUMPDEST PUSH1 0xFF DUP4 PUSH1 0x8 SHR AND PUSH2 0x13B1 JUMPI PUSH1 0xFF DUP4 PUSH1 0x10 SHR AND PUSH2 0x136D JUMPI PUSH1 0x7 DUP3 ADD SLOAD TIMESTAMP LT ISZERO PUSH2 0x1328 JUMPI PUSH1 0xA SWAP3 PUSH1 0xFF NOT AND SWAP1 SSTORE ADD SLOAD SWAP1 PUSH1 0xA DUP3 DIV PUSH2 0x1284 PUSH2 0x127B DUP3 DUP6 PUSH2 0x23AE JUMP JUMPDEST SWAP4 PUSH1 0xE SLOAD PUSH2 0x23AE JUMP JUMPDEST PUSH1 0xE SSTORE DUP1 ISZERO DUP1 ISZERO PUSH2 0x12F8 JUMPI JUMPDEST POP POP DUP2 DUP1 ISZERO DUP1 ISZERO PUSH2 0x12D1 JUMPI JUMPDEST POP POP PUSH1 0x40 MLOAD SWAP2 DUP3 MSTORE PUSH32 0x75B2B6D713C23C94A2B5123C847C3FC2E015E416842DCDAF9A319C1645D1A61E PUSH1 0x20 CALLER SWAP4 LOG3 PUSH1 0x1 PUSH1 0x6 SSTORE STOP JUMPDEST PUSH1 0x0 SWAP1 PUSH2 0x12EF JUMPI JUMPDEST PUSH1 0x0 DUP1 DUP1 SWAP4 DUP2 SWAP4 CALLER SWAP1 CALL ISZERO PUSH2 0xCF3 JUMPI DUP2 DUP4 PUSH2 0x129C JUMP JUMPDEST POP PUSH2 0x8FC PUSH2 0x12D9 JUMP JUMPDEST PUSH1 0x0 DUP1 DUP1 SWAP4 DUP2 SWAP4 PUSH1 0x1 DUP1 PUSH1 0xA0 SHL SUB PUSH1 0x5 SLOAD AND SWAP1 DUP4 SWAP1 PUSH2 0x131F JUMPI JUMPDEST CALL ISZERO PUSH2 0xCF3 JUMPI DUP3 DUP1 PUSH2 0x1290 JUMP JUMPDEST POP PUSH2 0x8FC PUSH2 0x1312 JUMP JUMPDEST PUSH1 0x40 MLOAD PUSH3 0x461BCD PUSH1 0xE5 SHL DUP2 MSTORE PUSH1 0x20 PUSH1 0x4 DUP3 ADD MSTORE PUSH1 0x1C PUSH1 0x24 DUP3 ADD MSTORE PUSH32 0x43616E6E6F742063616E63656C20616674657220646561646C696E6500000000 PUSH1 0x44 DUP3 ADD MSTORE PUSH1 0x64 SWAP1 REVERT JUMPDEST PUSH1 0x64 PUSH1 0x40 MLOAD PUSH3 0x461BCD PUSH1 0xE5 SHL DUP2 MSTORE PUSH1 0x20 PUSH1 0x4 DUP3 ADD MSTORE PUSH1 0x20 PUSH1 0x24 DUP3 ADD MSTORE PUSH32 0x43616E6E6F742063616E63656C20636C61696D656420636F6D6D69746D656E74 PUSH1 0x44 DUP3 ADD MSTORE REVERT JUMPDEST PUSH1 0x40 MLOAD PUSH3 0x461BCD PUSH1 0xE5 SHL DUP2 MSTORE PUSH1 0x20 PUSH1 0x4 DUP3 ADD MSTORE PUSH1 0x22 PUSH1 0x24 DUP3 ADD MSTORE PUSH32 0x43616E6E6F742063616E63656C2066756C66696C6C656420636F6D6D69746D65 PUSH1 0x44 DUP3 ADD MSTORE PUSH2 0x1B9D PUSH1 0xF2 SHL PUSH1 0x64 DUP3 ADD MSTORE PUSH1 0x84 SWAP1 REVERT JUMPDEST PUSH1 0x40 MLOAD PUSH3 0x461BCD PUSH1 0xE5 SHL DUP2 MSTORE PUSH1 0x20 PUSH1 0x4 DUP3 ADD MSTORE PUSH1 0x22 PUSH1 0x24 DUP3 ADD MSTORE PUSH32 0x4F6E6C7920636F6D6D69746D656E742063726561746F722063616E2063616E63 PUSH1 0x44 DUP3 ADD MSTORE PUSH2 0x195B PUSH1 0xF2 SHL PUSH1 0x64 DUP3 ADD MSTORE PUSH1 0x84 SWAP1 REVERT JUMPDEST CALLVALUE PUSH2 0xB2B JUMPI PUSH1 0x0 CALLDATASIZE PUSH1 0x3 NOT ADD SLT PUSH2 0xB2B JUMPI PUSH1 0x20 PUSH1 0xE SLOAD PUSH1 0x40 MLOAD SWAP1 DUP2 MSTORE RETURN JUMPDEST CALLVALUE PUSH2 0xB2B JUMPI PUSH1 0x0 CALLDATASIZE PUSH1 0x3 NOT ADD SLT PUSH2 0xB2B JUMPI PUSH2 0x1488 PUSH2 0x28D8 JUMP JUMPDEST PUSH1 0x5 DUP1 SLOAD PUSH1 0x1 PUSH1 0x1 PUSH1 0xA0 SHL SUB NOT DUP2 AND SWAP1 SWAP2 SSTORE PUSH1 0x0 SWAP1 PUSH1 0x1 PUSH1 0x1 PUSH1 0xA0 SHL SUB AND PUSH32 0x8BE0079C531659141344CD1FD0A4F28419497F9722A3DAAFE3B4186F6B6457E0 DUP3 DUP1 LOG3 STOP JUMPDEST CALLVALUE PUSH2 0xB2B JUMPI PUSH1 0x20 CALLDATASIZE PUSH1 0x3 NOT ADD SLT PUSH2 0xB2B JUMPI PUSH1 0x20 PUSH2 0xC32 PUSH2 0x14EA PUSH2 0x217B JUMP JUMPDEST PUSH1 0x1 PUSH1 0x1 PUSH1 0xA0 SHL SUB AND PUSH1 0x0 SWAP1 DUP2 MSTORE PUSH1 0x20 DUP2 SWAP1 MSTORE PUSH1 0x40 SWAP1 KECCAK256 SLOAD SWAP1 JUMP JUMPDEST CALLVALUE PUSH2 0xB2B JUMPI PUSH1 0x20 CALLDATASIZE PUSH1 0x3 NOT ADD SLT PUSH2 0xB2B JUMPI PUSH1 0x40 MLOAD PUSH2 0x1522 DUP2 PUSH2 0x21E1 JUMP JUMPDEST PUSH1 0x0 DUP2 MSTORE PUSH1 0x20 DUP2 ADD PUSH1 0x60 SWAP1 MSTORE PUSH1 0x40 DUP2 ADD PUSH1 0x60 SWAP1 MSTORE PUSH1 0x60 DUP2 ADD PUSH1 0x0 SWAP1 MSTORE PUSH1 0x80 DUP2 ADD PUSH1 0x60 SWAP1 MSTORE PUSH1 0xA0 DUP2 ADD PUSH1 0x60 SWAP1 MSTORE PUSH1 0xC0 DUP2 ADD PUSH1 0x0 SWAP1 MSTORE PUSH1 0xE0 DUP2 ADD PUSH1 0x0 SWAP1 MSTORE PUSH2 0x100 DUP2 ADD PUSH1 0x60 SWAP1 MSTORE PUSH2 0x120 DUP2 ADD PUSH1 0x0 SWAP1 MSTORE PUSH2 0x140 DUP2 ADD PUSH1 0x0 SWAP1 MSTORE PUSH2 0x160 DUP2 ADD PUSH1 0x0 SWAP1 MSTORE PUSH2 0x180 DUP2 ADD PUSH1 0x0 SWAP1 MSTORE PUSH2 0x1A0 DUP2 ADD PUSH1 0x0 SWAP1 MSTORE PUSH2 0x1C0 ADD PUSH1 0x0 SWAP1 MSTORE PUSH1 0x4 CALLDATALOAD PUSH1 0x0 MSTORE PUSH1 0xA PUSH1 0x20 MSTORE PUSH1 0x40 PUSH1 0x0 KECCAK256 PUSH1 0x40 MLOAD SWAP1 PUSH2 0x15B9 DUP3 PUSH2 0x21E1 JUMP JUMPDEST DUP1 SLOAD DUP3 MSTORE PUSH2 0x15C9 PUSH1 0x1 DUP3 ADD PUSH2 0x221E JUMP JUMPDEST PUSH1 0x20 DUP4 ADD SWAP1 DUP2 MSTORE SWAP1 PUSH2 0x15DD PUSH1 0x2 DUP3 ADD PUSH2 0x221E JUMP JUMPDEST PUSH1 0x40 DUP5 ADD SWAP1 DUP2 MSTORE PUSH1 0x3 DUP3 ADD SLOAD PUSH1 0x1 PUSH1 0x1 PUSH1 0xA0 SHL SUB AND PUSH1 0x60 DUP6 ADD SWAP1 DUP2 MSTORE SWAP1 SWAP4 SWAP1 SWAP2 PUSH2 0x1609 PUSH1 0x4 DUP3 ADD PUSH2 0x221E JUMP JUMPDEST PUSH1 0x80 DUP4 ADD SWAP1 DUP2 MSTORE PUSH2 0x161C PUSH1 0x5 DUP4 ADD PUSH2 0x221E JUMP JUMPDEST PUSH1 0xA0 DUP5 ADD SWAP1 DUP2 MSTORE PUSH1 0x6 DUP4 ADD SLOAD PUSH1 0xC0 DUP6 ADD SWAP1 DUP2 MSTORE PUSH1 0x7 DUP5 ADD SLOAD PUSH1 0xE0 DUP7 ADD SWAP1 DUP2 MSTORE SWAP2 SWAP6 SWAP1 PUSH2 0x164A PUSH1 0x8 DUP7 ADD PUSH2 0x221E JUMP JUMPDEST PUSH2 0x100 DUP8 ADD SWAP1 DUP2 MSTORE PUSH1 0x9 DUP7 ADD SLOAD SWAP4 PUSH2 0x120 DUP9 ADD SWAP9 PUSH1 0xFF DUP7 AND ISZERO ISZERO DUP11 MSTORE PUSH2 0x140 DUP10 ADD SWAP5 DUP7 PUSH1 0x8 SHR PUSH1 0xFF AND ISZERO ISZERO DUP7 MSTORE PUSH2 0x160 DUP11 ADD SWAP7 PUSH1 0x10 SHR PUSH1 0xFF AND ISZERO ISZERO DUP8 MSTORE PUSH1 0xA DUP10 ADD SLOAD SWAP8 PUSH2 0x180 DUP12 ADD SWAP9 DUP10 MSTORE PUSH1 0xB DUP11 ADD SLOAD SWAP10 PUSH2 0x1A0 DUP13 ADD SWAP11 DUP12 MSTORE PUSH1 0xC ADD SLOAD SWAP11 PUSH2 0x1C0 DUP2 ADD SWAP12 DUP13 MSTORE PUSH1 0x40 MLOAD SWAP15 DUP16 SWAP15 DUP16 SWAP3 PUSH1 0x20 DUP5 MSTORE MLOAD PUSH1 0x20 DUP5 ADD MSTORE MLOAD PUSH1 0x40 DUP4 ADD PUSH2 0x1E0 SWAP1 MSTORE PUSH2 0x200 DUP4 ADD PUSH2 0x16DA SWAP2 PUSH2 0x213A JUMP JUMPDEST SWAP1 MLOAD DUP3 DUP3 SUB PUSH1 0x1F NOT ADD PUSH1 0x60 DUP5 ADD MSTORE PUSH2 0x16F2 SWAP2 SWAP1 PUSH2 0x213A JUMP JUMPDEST SWAP3 MLOAD PUSH1 0x1 PUSH1 0x1 PUSH1 0xA0 SHL SUB AND PUSH1 0x80 SWAP1 SWAP2 ADD MSTORE MLOAD DUP13 DUP3 SUB PUSH1 0x1F NOT ADD PUSH1 0xA0 DUP15 ADD MSTORE PUSH2 0x171A SWAP2 SWAP1 PUSH2 0x213A JUMP JUMPDEST SWAP1 MLOAD DUP12 DUP3 SUB PUSH1 0x1F NOT ADD PUSH1 0xC0 DUP14 ADD MSTORE PUSH2 0x1732 SWAP2 SWAP1 PUSH2 0x213A JUMP JUMPDEST SWAP3 MLOAD PUSH1 0xE0 DUP12 ADD MSTORE MLOAD PUSH2 0x100 DUP11 ADD MSTORE MLOAD DUP9 DUP3 SUB PUSH1 0x1F NOT ADD PUSH2 0x120 DUP11 ADD MSTORE PUSH2 0x1758 SWAP2 SWAP1 PUSH2 0x213A JUMP JUMPDEST SWAP6 MLOAD ISZERO ISZERO PUSH2 0x140 DUP9 ADD MSTORE MLOAD ISZERO ISZERO PUSH2 0x160 DUP8 ADD MSTORE MLOAD ISZERO ISZERO PUSH2 0x180 DUP7 ADD MSTORE MLOAD PUSH2 0x1A0 DUP6 ADD MSTORE MLOAD PUSH2 0x1C0 DUP5 ADD MSTORE MLOAD PUSH2 0x1E0 DUP4 ADD MSTORE SUB SWAP1 RETURN JUMPDEST CALLVALUE PUSH2 0xB2B JUMPI PUSH1 0x0 CALLDATASIZE PUSH1 0x3 NOT ADD SLT PUSH2 0xB2B JUMPI PUSH1 0x20 PUSH1 0xD SLOAD PUSH1 0x40 MLOAD SWAP1 DUP2 MSTORE RETURN JUMPDEST CALLVALUE PUSH2 0xB2B JUMPI PUSH1 0x20 CALLDATASIZE PUSH1 0x3 NOT ADD SLT PUSH2 0xB2B JUMPI PUSH1 0x4 CALLDATALOAD PUSH1 0x0 MSTORE PUSH1 0xA PUSH1 0x20 MSTORE PUSH1 0x40 PUSH1 0x0 KECCAK256 DUP1 SLOAD PUSH1 0x1 DUP3 ADD PUSH2 0x17DB SWAP1 PUSH2 0x221E JUMP JUMPDEST SWAP2 PUSH2 0x17E8 PUSH1 0x2 DUP3 ADD PUSH2 0x221E JUMP JUMPDEST PUSH1 0x3 DUP3 ADD SLOAD PUSH1 0x1 PUSH1 0x1 PUSH1 0xA0 SHL SUB AND SWAP2 PUSH2 0x1803 PUSH1 0x4 DUP3 ADD PUSH2 0x221E JUMP JUMPDEST SWAP3 PUSH2 0x1810 PUSH1 0x5 DUP4 ADD PUSH2 0x221E JUMP JUMPDEST PUSH1 0x6 DUP4 ADD SLOAD PUSH1 0x7 DUP5 ADD SLOAD PUSH2 0x1826 PUSH1 0x8 DUP7 ADD PUSH2 0x221E JUMP JUMPDEST SWAP3 PUSH1 0x9 DUP7 ADD SLOAD SWAP8 PUSH1 0xA DUP8 ADD SLOAD SWAP6 PUSH1 0xB DUP9 ADD SLOAD SWAP8 PUSH1 0xC ADD SLOAD SWAP9 PUSH1 0x40 MLOAD SWAP13 DUP14 SWAP13 DUP14 MSTORE PUSH1 0x20 DUP14 ADD PUSH2 0x1E0 SWAP1 MSTORE PUSH2 0x1E0 DUP14 ADD PUSH2 0x185D SWAP2 PUSH2 0x213A JUMP JUMPDEST DUP13 DUP2 SUB PUSH1 0x40 DUP15 ADD MSTORE PUSH2 0x186E SWAP2 PUSH2 0x213A JUMP JUMPDEST SWAP1 PUSH1 0x60 DUP13 ADD MSTORE DUP11 DUP2 SUB PUSH1 0x80 DUP13 ADD MSTORE PUSH2 0x1885 SWAP2 PUSH2 0x213A JUMP JUMPDEST DUP10 DUP2 SUB PUSH1 0xA0 DUP12 ADD MSTORE PUSH2 0x1896 SWAP2 PUSH2 0x213A JUMP JUMPDEST SWAP2 PUSH1 0xC0 DUP10 ADD MSTORE PUSH1 0xE0 DUP9 ADD MSTORE DUP7 DUP2 SUB PUSH2 0x100 DUP9 ADD MSTORE PUSH2 0x18B3 SWAP2 PUSH2 0x213A JUMP JUMPDEST SWAP4 PUSH1 0xFF DUP2 AND ISZERO ISZERO PUSH2 0x120 DUP8 ADD MSTORE DUP1 PUSH1 0x8 SHR PUSH1 0xFF AND ISZERO ISZERO PUSH2 0x140 DUP8 ADD MSTORE PUSH1 0x10 SHR PUSH1 0xFF AND ISZERO ISZERO PUSH2 0x160 DUP7 ADD MSTORE PUSH2 0x180 DUP6 ADD MSTORE PUSH2 0x1A0 DUP5 ADD MSTORE PUSH2 0x1C0 DUP4 ADD MSTORE SUB SWAP1 RETURN JUMPDEST CALLVALUE PUSH2 0xB2B JUMPI PUSH1 0x20 CALLDATASIZE PUSH1 0x3 NOT ADD SLT PUSH2 0xB2B JUMPI PUSH1 0x4 CALLDATALOAD DUP1 PUSH1 0x0 MSTORE PUSH1 0xA PUSH1 0x20 MSTORE PUSH32 0x3C1EAD90EBEB138D3EED6AB98AFFFF3433E55AAD723CCA4AB05FA013058DDE9B PUSH1 0x40 DUP1 PUSH1 0x0 KECCAK256 PUSH1 0x9 DUP2 ADD PUSH2 0x100 DUP2 SLOAD PUSH2 0x194C PUSH1 0xFF DUP3 AND PUSH2 0x2346 JUMP JUMPDEST PUSH2 0x195C PUSH1 0xFF DUP3 PUSH1 0x10 SHR AND ISZERO PUSH2 0x23BB JUMP JUMPDEST PUSH2 0xFF00 NOT AND OR SWAP1 SSTORE PUSH1 0xB PUSH2 0x1975 PUSH2 0xC2D PUSH1 0x8 DUP5 ADD PUSH2 0x221E JUMP JUMPDEST SWAP2 ADD SLOAD DUP3 MLOAD SWAP2 DUP3 MSTORE PUSH1 0x20 DUP3 ADD MSTORE LOG2 STOP JUMPDEST CALLVALUE PUSH2 0xB2B JUMPI PUSH1 0x40 CALLDATASIZE PUSH1 0x3 NOT ADD SLT PUSH2 0xB2B JUMPI PUSH2 0xFD1 PUSH2 0x19A1 PUSH2 0x217B JUMP JUMPDEST CALLER PUSH1 0x0 MSTORE PUSH1 0x1 PUSH1 0x20 MSTORE PUSH1 0x40 PUSH1 0x0 KECCAK256 PUSH1 0x1 DUP1 PUSH1 0xA0 SHL SUB DUP3 AND PUSH1 0x0 MSTORE PUSH1 0x20 MSTORE PUSH2 0x19D0 PUSH1 0x40 PUSH1 0x0 KECCAK256 PUSH1 0x24 CALLDATALOAD SWAP1 SLOAD PUSH2 0x2400 JUMP JUMPDEST SWAP1 CALLER PUSH2 0x25FB JUMP JUMPDEST CALLVALUE PUSH2 0xB2B JUMPI PUSH1 0x20 CALLDATASIZE PUSH1 0x3 NOT ADD SLT PUSH2 0xB2B JUMPI PUSH1 0x4 CALLDATALOAD PUSH2 0x19F3 PUSH2 0x28D8 JUMP JUMPDEST ADDRESS ISZERO PUSH2 0x1A4C JUMPI PUSH2 0x1A05 DUP2 PUSH1 0x2 SLOAD PUSH2 0x2400 JUMP JUMPDEST PUSH1 0x2 SSTORE ADDRESS PUSH1 0x0 MSTORE PUSH1 0x0 PUSH1 0x20 MSTORE PUSH1 0x40 PUSH1 0x0 KECCAK256 DUP2 DUP2 SLOAD ADD SWAP1 SSTORE PUSH1 0x40 MLOAD SWAP1 DUP2 MSTORE PUSH1 0x0 PUSH32 0xDDF252AD1BE2C89B69C2B068FC378DAA952BA7F163C4A11628F55A4DF523B3EF PUSH1 0x20 ADDRESS SWAP4 LOG3 STOP JUMPDEST PUSH1 0x40 MLOAD PUSH3 0x461BCD PUSH1 0xE5 SHL DUP2 MSTORE PUSH1 0x20 PUSH1 0x4 DUP3 ADD MSTORE PUSH1 0x1F PUSH1 0x24 DUP3 ADD MSTORE PUSH32 0x45524332303A206D696E7420746F20746865207A65726F206164647265737300 PUSH1 0x44 DUP3 ADD MSTORE PUSH1 0x64 SWAP1 REVERT JUMPDEST CALLVALUE PUSH2 0xB2B JUMPI PUSH1 0x20 CALLDATASIZE PUSH1 0x3 NOT ADD SLT PUSH2 0xB2B JUMPI PUSH1 0x4 CALLDATALOAD PUSH2 0x1AAD PUSH2 0x2882 JUMP JUMPDEST PUSH1 0x0 DUP2 DUP2 MSTORE PUSH1 0xA PUSH1 0x20 MSTORE PUSH1 0x40 SWAP1 KECCAK256 PUSH1 0x3 DUP2 ADD SLOAD PUSH1 0x1 PUSH1 0x1 PUSH1 0xA0 SHL SUB AND CALLER SUB PUSH2 0x1CEB JUMPI PUSH1 0x9 DUP2 ADD SWAP2 DUP3 SLOAD SWAP3 PUSH2 0x1AE3 PUSH1 0xFF DUP6 AND PUSH2 0x2346 JUMP JUMPDEST PUSH2 0x1AF3 PUSH1 0xFF DUP6 PUSH1 0x10 SHR AND ISZERO PUSH2 0x23BB JUMP JUMPDEST PUSH1 0x40 MLOAD PUSH4 0xD37A06F7 PUSH1 0xE0 SHL DUP2 MSTORE PUSH1 0x4 DUP2 ADD DUP4 SWAP1 MSTORE SWAP4 PUSH1 0x60 DUP6 PUSH1 0x24 DUP2 ADDRESS GAS STATICCALL SWAP5 DUP6 ISZERO PUSH2 0xCF3 JUMPI PUSH1 0x0 SWAP1 PUSH1 0x0 SWAP7 PUSH2 0x1CB6 JUMPI JUMPDEST POP ISZERO PUSH2 0x1C4C JUMPI PUSH3 0x10100 SWAP1 PUSH3 0xFFFF00 NOT AND OR SWAP1 SSTORE PUSH1 0xB DUP3 ADD SLOAD SWAP2 ADDRESS PUSH1 0x0 MSTORE PUSH1 0x0 PUSH1 0x20 MSTORE DUP3 PUSH1 0x40 PUSH1 0x0 KECCAK256 SLOAD LT PUSH2 0x1C07 JUMPI PUSH1 0x0 DUP1 DUP1 PUSH1 0xA DUP2 SWAP5 PUSH2 0x1B65 DUP9 CALLER ADDRESS PUSH2 0x2703 JUMP JUMPDEST ADD SLOAD PUSH2 0x1B80 PUSH2 0x1B77 DUP3 PUSH1 0x1 SHR DUP4 PUSH2 0x2400 JUMP JUMPDEST SWAP2 PUSH1 0xE SLOAD PUSH2 0x23AE JUMP JUMPDEST PUSH1 0xE SSTORE DUP2 DUP2 ISZERO PUSH2 0x1BFE JUMPI JUMPDEST CALLER SWAP1 CALL ISZERO PUSH2 0xCF3 JUMPI DUP1 PUSH32 0x3C1EAD90EBEB138D3EED6AB98AFFFF3433E55AAD723CCA4AB05FA013058DDE9B PUSH1 0x40 PUSH1 0x20 SWAP6 DUP2 MLOAD SWAP1 DUP2 MSTORE DUP6 DUP8 DUP3 ADD MSTORE LOG2 PUSH1 0x40 MLOAD SWAP1 DUP3 DUP3 MSTORE PUSH32 0xE12DC4982E9FF7F16F500E9990ECCE72DC1AF0ACA6AE3A5CF8793CDDF6D5EB8D DUP5 CALLER SWAP4 LOG3 PUSH1 0x1 PUSH1 0x6 SSTORE PUSH1 0x40 MLOAD SWAP1 DUP2 MSTORE RETURN JUMPDEST POP PUSH2 0x8FC PUSH2 0x1B8B JUMP JUMPDEST PUSH1 0x40 MLOAD PUSH3 0x461BCD PUSH1 0xE5 SHL DUP2 MSTORE PUSH1 0x20 PUSH1 0x4 DUP3 ADD MSTORE PUSH1 0x1B PUSH1 0x24 DUP3 ADD MSTORE PUSH32 0x496E73756666696369656E7420746F6B656E2072657365727665730000000000 PUSH1 0x44 DUP3 ADD MSTORE PUSH1 0x64 SWAP1 REVERT JUMPDEST PUSH1 0x84 PUSH1 0x40 MLOAD PUSH3 0x461BCD PUSH1 0xE5 SHL DUP2 MSTORE PUSH1 0x20 PUSH1 0x4 DUP3 ADD MSTORE PUSH1 0x40 PUSH1 0x24 DUP3 ADD MSTORE PUSH32 0x456E7669726F6E6D656E74616C20746172676574206E6F742061636869657665 PUSH1 0x44 DUP3 ADD MSTORE PUSH32 0x64206F72206A7564676520766572696669636174696F6E207265717569726564 PUSH1 0x64 DUP3 ADD MSTORE REVERT JUMPDEST SWAP1 POP PUSH2 0x1CDB SWAP2 SWAP6 POP PUSH1 0x60 RETURNDATASIZE PUSH1 0x60 GT PUSH2 0x1CE4 JUMPI JUMPDEST PUSH2 0x1CD3 DUP2 DUP4 PUSH2 0x21FD JUMP JUMPDEST DUP2 ADD SWAP1 PUSH2 0x238A JUMP JUMPDEST POP SWAP5 SWAP1 DUP7 PUSH2 0x1B23 JUMP JUMPDEST POP RETURNDATASIZE PUSH2 0x1CC9 JUMP JUMPDEST PUSH1 0x40 MLOAD PUSH3 0x461BCD PUSH1 0xE5 SHL DUP2 MSTORE PUSH1 0x20 PUSH1 0x4 DUP3 ADD MSTORE PUSH1 0x21 PUSH1 0x24 DUP3 ADD MSTORE PUSH32 0x4F6E6C7920636F6D6D69746D656E742063726561746F722063616E20636C6169 PUSH1 0x44 DUP3 ADD MSTORE PUSH1 0x6D PUSH1 0xF8 SHL PUSH1 0x64 DUP3 ADD MSTORE PUSH1 0x84 SWAP1 REVERT JUMPDEST CALLVALUE PUSH2 0xB2B JUMPI PUSH1 0x0 CALLDATASIZE PUSH1 0x3 NOT ADD SLT PUSH2 0xB2B JUMPI ADDRESS PUSH1 0x0 SWAP1 DUP2 MSTORE PUSH1 0x20 DUP2 DUP2 MSTORE PUSH1 0x40 SWAP1 SWAP2 KECCAK256 SLOAD PUSH2 0xC32 JUMP JUMPDEST CALLVALUE PUSH2 0xB2B JUMPI PUSH1 0x0 CALLDATASIZE PUSH1 0x3 NOT ADD SLT PUSH2 0xB2B JUMPI PUSH1 0x20 PUSH1 0x40 MLOAD PUSH1 0x12 DUP2 MSTORE RETURN JUMPDEST CALLVALUE PUSH2 0xB2B JUMPI PUSH1 0x60 CALLDATASIZE PUSH1 0x3 NOT ADD SLT PUSH2 0xB2B JUMPI PUSH2 0x1D96 PUSH2 0x217B JUMP JUMPDEST PUSH2 0x1D9E PUSH2 0x2191 JUMP JUMPDEST PUSH1 0x1 PUSH1 0x1 PUSH1 0xA0 SHL SUB DUP3 AND PUSH1 0x0 SWAP1 DUP2 MSTORE PUSH1 0x1 PUSH1 0x20 DUP2 DUP2 MSTORE PUSH1 0x40 DUP1 DUP5 KECCAK256 CALLER DUP6 MSTORE SWAP1 SWAP2 MSTORE SWAP1 SWAP2 KECCAK256 SLOAD SWAP3 PUSH1 0x44 CALLDATALOAD SWAP3 SWAP2 DUP5 ADD PUSH2 0x1DDA JUMPI JUMPDEST PUSH2 0xFD1 SWAP4 POP PUSH2 0x2703 JUMP JUMPDEST DUP3 DUP5 LT PUSH2 0x1DF6 JUMPI PUSH2 0x1DF1 DUP4 PUSH2 0xFD1 SWAP6 SUB CALLER DUP4 PUSH2 0x25FB JUMP JUMPDEST PUSH2 0x1DD0 JUMP JUMPDEST PUSH1 0x40 MLOAD PUSH3 0x461BCD PUSH1 0xE5 SHL DUP2 MSTORE PUSH1 0x20 PUSH1 0x4 DUP3 ADD MSTORE PUSH1 0x1D PUSH1 0x24 DUP3 ADD MSTORE PUSH32 0x45524332303A20696E73756666696369656E7420616C6C6F77616E6365000000 PUSH1 0x44 DUP3 ADD MSTORE PUSH1 0x64 SWAP1 REVERT JUMPDEST CALLVALUE PUSH2 0xB2B JUMPI PUSH1 0x0 CALLDATASIZE PUSH1 0x3 NOT ADD SLT PUSH2 0xB2B JUMPI PUSH1 0x20 PUSH1 0x2 SLOAD PUSH1 0x40 MLOAD SWAP1 DUP2 MSTORE RETURN JUMPDEST CALLVALUE PUSH2 0xB2B JUMPI PUSH1 0x20 CALLDATASIZE PUSH1 0x3 NOT ADD SLT PUSH2 0xB2B JUMPI PUSH1 0x4 CALLDATALOAD PUSH1 0x0 MSTORE PUSH1 0xA PUSH1 0x20 MSTORE PUSH1 0x20 PUSH1 0xB PUSH1 0x40 PUSH1 0x0 KECCAK256 ADD SLOAD PUSH1 0x40 MLOAD SWAP1 DUP2 MSTORE RETURN JUMPDEST CALLVALUE PUSH2 0xB2B JUMPI PUSH1 0x20 CALLDATASIZE PUSH1 0x3 NOT ADD SLT PUSH2 0xB2B JUMPI PUSH1 0x4 CALLDATALOAD DUP1 PUSH1 0x0 MSTORE PUSH1 0xA PUSH1 0x20 MSTORE PUSH1 0x40 PUSH1 0x0 KECCAK256 SWAP1 PUSH1 0x9 DUP3 ADD DUP1 SLOAD PUSH2 0x1EBD PUSH1 0xFF DUP3 AND PUSH2 0x2346 JUMP JUMPDEST PUSH1 0x7 DUP5 ADD SLOAD TIMESTAMP GT ISZERO PUSH2 0x2031 JUMPI PUSH1 0xFF DUP2 PUSH1 0x8 SHR AND PUSH2 0x1FEC JUMPI PUSH1 0x40 MLOAD PUSH4 0xD37A06F7 PUSH1 0xE0 SHL DUP2 MSTORE PUSH1 0x4 DUP2 ADD DUP5 SWAP1 MSTORE PUSH1 0x60 DUP2 PUSH1 0x24 DUP2 ADDRESS GAS STATICCALL SWAP1 DUP2 ISZERO PUSH2 0xCF3 JUMPI PUSH1 0x0 SWAP2 PUSH2 0x1FCB JUMPI JUMPDEST POP PUSH2 0x1F86 JUMPI PUSH1 0xFF NOT AND SWAP1 SSTORE PUSH1 0xA DUP3 ADD SWAP2 PUSH2 0x1F1D DUP4 SLOAD PUSH1 0xE SLOAD PUSH2 0x23AE JUMP JUMPDEST PUSH1 0xE SSTORE PUSH1 0x0 DUP1 DUP1 DUP1 PUSH1 0x1 DUP1 PUSH1 0xA0 SHL SUB PUSH1 0x5 SLOAD AND DUP8 SLOAD SWAP1 DUP3 DUP3 ISZERO PUSH2 0x1F7D JUMPI JUMPDEST CALL ISZERO PUSH2 0xCF3 JUMPI PUSH1 0x20 PUSH32 0xED7A0AEA6F0340C8FD7F451AC8B492E2FACD06E914D020AF7D8F38321F04499A SWAP2 PUSH1 0x3 PUSH1 0x1 DUP1 PUSH1 0xA0 SHL SUB SWAP2 ADD SLOAD AND SWAP4 SLOAD PUSH1 0x40 MLOAD SWAP1 DUP2 MSTORE LOG3 STOP JUMPDEST POP PUSH2 0x8FC PUSH2 0x1F3B JUMP JUMPDEST PUSH1 0x40 MLOAD PUSH3 0x461BCD PUSH1 0xE5 SHL DUP2 MSTORE PUSH1 0x20 PUSH1 0x4 DUP3 ADD MSTORE PUSH1 0x1C PUSH1 0x24 DUP3 ADD MSTORE PUSH32 0x546172676574207761732061637475616C6C7920616368696576656400000000 PUSH1 0x44 DUP3 ADD MSTORE PUSH1 0x64 SWAP1 REVERT JUMPDEST PUSH2 0x1FE4 SWAP2 POP PUSH1 0x60 RETURNDATASIZE PUSH1 0x60 GT PUSH2 0x1CE4 JUMPI PUSH2 0x1CD3 DUP2 DUP4 PUSH2 0x21FD JUMP JUMPDEST POP POP DUP6 PUSH2 0x1F00 JUMP JUMPDEST PUSH1 0x40 MLOAD PUSH3 0x461BCD PUSH1 0xE5 SHL DUP2 MSTORE PUSH1 0x20 PUSH1 0x4 DUP3 ADD MSTORE PUSH1 0x1C PUSH1 0x24 DUP3 ADD MSTORE PUSH32 0x436F6D6D69746D656E7420616C72656164792066756C66696C6C656400000000 PUSH1 0x44 DUP3 ADD MSTORE PUSH1 0x64 SWAP1 REVERT JUMPDEST PUSH1 0x40 MLOAD PUSH3 0x461BCD PUSH1 0xE5 SHL DUP2 MSTORE PUSH1 0x20 PUSH1 0x4 DUP3 ADD MSTORE PUSH1 0x13 PUSH1 0x24 DUP3 ADD MSTORE PUSH19 0x111958591B1A5B99481B9BDD081C185CDCD959 PUSH1 0x6A SHL PUSH1 0x44 DUP3 ADD MSTORE PUSH1 0x64 SWAP1 REVERT JUMPDEST CALLVALUE PUSH2 0xB2B JUMPI PUSH1 0x40 CALLDATASIZE PUSH1 0x3 NOT ADD SLT PUSH2 0xB2B JUMPI PUSH2 0xFD1 PUSH2 0x2088 PUSH2 0x217B JUMP JUMPDEST PUSH1 0x24 CALLDATALOAD SWAP1 CALLER PUSH2 0x25FB JUMP JUMPDEST CALLVALUE PUSH2 0xB2B JUMPI PUSH1 0x0 CALLDATASIZE PUSH1 0x3 NOT ADD SLT PUSH2 0xB2B JUMPI PUSH1 0x40 MLOAD PUSH1 0x0 PUSH1 0x3 SLOAD PUSH2 0x20B4 DUP2 PUSH2 0x21A7 JUMP JUMPDEST DUP1 DUP5 MSTORE SWAP1 PUSH1 0x1 DUP2 AND SWAP1 DUP2 ISZERO PUSH2 0x1144 JUMPI POP PUSH1 0x1 EQ PUSH2 0x20DB JUMPI PUSH2 0x10E1 DUP4 PUSH2 0x10CD DUP2 DUP6 SUB DUP3 PUSH2 0x21FD JUMP JUMPDEST PUSH1 0x3 PUSH1 0x0 SWAP1 DUP2 MSTORE PUSH32 0xC2575A0E9E593C00F959F8C92F12DB2869C3395A3B0502D05E2516446F71F85B SWAP4 SWAP3 POP SWAP1 JUMPDEST DUP1 DUP3 LT PUSH2 0x2120 JUMPI POP SWAP1 SWAP2 POP DUP2 ADD PUSH1 0x20 ADD PUSH2 0x10CD PUSH2 0x10BD JUMP JUMPDEST SWAP2 SWAP3 PUSH1 0x1 DUP2 PUSH1 0x20 SWAP3 SLOAD DUP4 DUP6 DUP9 ADD ADD MSTORE ADD SWAP2 ADD SWAP1 SWAP3 SWAP2 PUSH2 0x2108 JUMP JUMPDEST SWAP2 SWAP1 DUP3 MLOAD SWAP3 DUP4 DUP3 MSTORE PUSH1 0x0 JUMPDEST DUP5 DUP2 LT PUSH2 0x2166 JUMPI POP POP DUP3 PUSH1 0x0 PUSH1 0x20 DUP1 SWAP5 SWAP6 DUP5 ADD ADD MSTORE PUSH1 0x1F DUP1 NOT SWAP2 ADD AND ADD ADD SWAP1 JUMP JUMPDEST DUP1 PUSH1 0x20 DUP1 SWAP3 DUP5 ADD ADD MLOAD DUP3 DUP3 DUP7 ADD ADD MSTORE ADD PUSH2 0x2145 JUMP JUMPDEST PUSH1 0x4 CALLDATALOAD SWAP1 PUSH1 0x1 PUSH1 0x1 PUSH1 0xA0 SHL SUB DUP3 AND DUP3 SUB PUSH2 0xB2B JUMPI JUMP JUMPDEST PUSH1 0x24 CALLDATALOAD SWAP1 PUSH1 0x1 PUSH1 0x1 PUSH1 0xA0 SHL SUB DUP3 AND DUP3 SUB PUSH2 0xB2B JUMPI JUMP JUMPDEST SWAP1 PUSH1 0x1 DUP3 DUP2 SHR SWAP3 AND DUP1 ISZERO PUSH2 0x21D7 JUMPI JUMPDEST PUSH1 0x20 DUP4 LT EQ PUSH2 0x21C1 JUMPI JUMP JUMPDEST PUSH4 0x4E487B71 PUSH1 0xE0 SHL PUSH1 0x0 MSTORE PUSH1 0x22 PUSH1 0x4 MSTORE PUSH1 0x24 PUSH1 0x0 REVERT JUMPDEST SWAP2 PUSH1 0x7F AND SWAP2 PUSH2 0x21B6 JUMP JUMPDEST PUSH2 0x1E0 DUP2 ADD SWAP1 DUP2 LT PUSH1 0x1 PUSH1 0x1 PUSH1 0x40 SHL SUB DUP3 GT OR PUSH2 0x624 JUMPI PUSH1 0x40 MSTORE JUMP JUMPDEST SWAP1 PUSH1 0x1F DUP1 NOT SWAP2 ADD AND DUP2 ADD SWAP1 DUP2 LT PUSH1 0x1 PUSH1 0x1 PUSH1 0x40 SHL SUB DUP3 GT OR PUSH2 0x624 JUMPI PUSH1 0x40 MSTORE JUMP JUMPDEST SWAP1 PUSH1 0x40 MLOAD SWAP2 DUP3 PUSH1 0x0 DUP3 SLOAD SWAP3 PUSH2 0x2232 DUP5 PUSH2 0x21A7 JUMP JUMPDEST DUP1 DUP5 MSTORE SWAP4 PUSH1 0x1 DUP2 AND SWAP1 DUP2 ISZERO PUSH2 0x22A0 JUMPI POP PUSH1 0x1 EQ PUSH2 0x2259 JUMPI JUMPDEST POP PUSH2 0x2257 SWAP3 POP SUB DUP4 PUSH2 0x21FD JUMP JUMPDEST JUMP JUMPDEST SWAP1 POP PUSH1 0x0 SWAP3 SWAP2 SWAP3 MSTORE PUSH1 0x20 PUSH1 0x0 KECCAK256 SWAP1 PUSH1 0x0 SWAP2 JUMPDEST DUP2 DUP4 LT PUSH2 0x2284 JUMPI POP POP SWAP1 PUSH1 0x20 PUSH2 0x2257 SWAP3 DUP3 ADD ADD CODESIZE PUSH2 0x224A JUMP JUMPDEST PUSH1 0x20 SWAP2 SWAP4 POP DUP1 PUSH1 0x1 SWAP2 SLOAD DUP4 DUP6 DUP10 ADD ADD MSTORE ADD SWAP2 ADD SWAP1 SWAP2 DUP5 SWAP3 PUSH2 0x226B JUMP JUMPDEST SWAP1 POP PUSH1 0x20 SWAP3 POP PUSH2 0x2257 SWAP5 SWAP2 POP PUSH1 0xFF NOT AND DUP3 DUP5 ADD MSTORE ISZERO ISZERO PUSH1 0x5 SHL DUP3 ADD ADD CODESIZE PUSH2 0x224A JUMP JUMPDEST DUP1 SLOAD DUP3 LT ISZERO PUSH2 0x22DA JUMPI PUSH1 0x0 MSTORE PUSH1 0x20 PUSH1 0x0 KECCAK256 ADD SWAP1 PUSH1 0x0 SWAP1 JUMP JUMPDEST PUSH4 0x4E487B71 PUSH1 0xE0 SHL PUSH1 0x0 MSTORE PUSH1 0x32 PUSH1 0x4 MSTORE PUSH1 0x24 PUSH1 0x0 REVERT JUMPDEST DUP2 PUSH1 0x1F DUP3 ADD SLT ISZERO PUSH2 0xB2B JUMPI DUP1 CALLDATALOAD SWAP1 PUSH1 0x1 PUSH1 0x1 PUSH1 0x40 SHL SUB DUP3 GT PUSH2 0x624 JUMPI PUSH1 0x40 MLOAD SWAP3 PUSH2 0x2324 PUSH1 0x1F DUP5 ADD PUSH1 0x1F NOT AND PUSH1 0x20 ADD DUP6 PUSH2 0x21FD JUMP JUMPDEST DUP3 DUP5 MSTORE PUSH1 0x20 DUP4 DUP4 ADD ADD GT PUSH2 0xB2B JUMPI DUP2 PUSH1 0x0 SWAP3 PUSH1 0x20 DUP1 SWAP4 ADD DUP4 DUP7 ADD CALLDATACOPY DUP4 ADD ADD MSTORE SWAP1 JUMP JUMPDEST ISZERO PUSH2 0x234D JUMPI JUMP JUMPDEST PUSH1 0x40 MLOAD PUSH3 0x461BCD PUSH1 0xE5 SHL DUP2 MSTORE PUSH1 0x20 PUSH1 0x4 DUP3 ADD MSTORE PUSH1 0x15 PUSH1 0x24 DUP3 ADD MSTORE PUSH21 0x436F6D6D69746D656E74206E6F7420616374697665 PUSH1 0x58 SHL PUSH1 0x44 DUP3 ADD MSTORE PUSH1 0x64 SWAP1 REVERT JUMPDEST SWAP1 DUP2 PUSH1 0x60 SWAP2 SUB SLT PUSH2 0xB2B JUMPI DUP1 MLOAD DUP1 ISZERO ISZERO DUP2 SUB PUSH2 0xB2B JUMPI SWAP2 PUSH1 0x40 PUSH1 0x20 DUP4 ADD MLOAD SWAP3 ADD MLOAD SWAP1 JUMP JUMPDEST SWAP2 SWAP1 DUP3 SUB SWAP2 DUP3 GT PUSH2 0xA09 JUMPI JUMP JUMPDEST ISZERO PUSH2 0x23C2 JUMPI JUMP JUMPDEST PUSH1 0x40 MLOAD PUSH3 0x461BCD PUSH1 0xE5 SHL DUP2 MSTORE PUSH1 0x20 PUSH1 0x4 DUP3 ADD MSTORE PUSH1 0x16 PUSH1 0x24 DUP3 ADD MSTORE PUSH22 0x14995DD85C9908185B1C9958591E4818DB185A5B5959 PUSH1 0x52 SHL PUSH1 0x44 DUP3 ADD MSTORE PUSH1 0x64 SWAP1 REVERT JUMPDEST SWAP2 SWAP1 DUP3 ADD DUP1 SWAP3 GT PUSH2 0xA09 JUMPI JUMP JUMPDEST PUSH1 0x40 MLOAD SWAP1 PUSH2 0x241C PUSH1 0x40 DUP4 PUSH2 0x21FD JUMP JUMPDEST PUSH1 0x4 DUP3 MSTORE PUSH4 0x706D3235 PUSH1 0xE0 SHL PUSH1 0x20 DUP4 ADD MSTORE JUMP JUMPDEST PUSH1 0x40 MLOAD SWAP1 PUSH2 0x243E PUSH1 0x40 DUP4 PUSH2 0x21FD JUMP JUMPDEST PUSH1 0xC DUP3 MSTORE PUSH12 0x3337B932B9BA2FB1B7BB32B9 PUSH1 0xA1 SHL PUSH1 0x20 DUP4 ADD MSTORE JUMP JUMPDEST PUSH1 0x40 MLOAD SWAP1 PUSH2 0x2468 PUSH1 0x40 DUP4 PUSH2 0x21FD JUMP JUMPDEST PUSH1 0x3 DUP3 MSTORE PUSH3 0x617169 PUSH1 0xE8 SHL PUSH1 0x20 DUP4 ADD MSTORE JUMP JUMPDEST MLOAD SWAP1 PUSH10 0xFFFFFFFFFFFFFFFFFFFF DUP3 AND DUP3 SUB PUSH2 0xB2B JUMPI JUMP JUMPDEST SWAP1 DUP2 PUSH1 0xA0 SWAP2 SUB SLT PUSH2 0xB2B JUMPI PUSH2 0x24A5 DUP2 PUSH2 0x247A JUMP JUMPDEST SWAP2 PUSH1 0x20 DUP3 ADD MLOAD SWAP2 PUSH1 0x40 DUP2 ADD MLOAD SWAP2 PUSH2 0x24C3 PUSH1 0x80 PUSH1 0x60 DUP5 ADD MLOAD SWAP4 ADD PUSH2 0x247A JUMP JUMPDEST SWAP1 JUMP JUMPDEST DUP1 MLOAD SWAP1 PUSH1 0x20 DUP2 ADD SWAP2 DUP3 KECCAK256 PUSH2 0x24D8 PUSH2 0x240D JUMP JUMPDEST PUSH1 0x20 DUP2 MLOAD SWAP2 ADD KECCAK256 EQ PUSH1 0x0 EQ PUSH2 0x2552 JUMPI POP POP PUSH1 0x7 SLOAD PUSH1 0x40 MLOAD PUSH4 0x3FABE5A3 PUSH1 0xE2 SHL DUP2 MSTORE SWAP1 PUSH1 0xA0 SWAP1 DUP3 SWAP1 PUSH1 0x4 SWAP1 DUP3 SWAP1 PUSH1 0x1 PUSH1 0x1 PUSH1 0xA0 SHL SUB AND GAS STATICCALL SWAP1 DUP2 ISZERO PUSH2 0xCF3 JUMPI PUSH1 0x0 SWAP2 PUSH2 0x2521 JUMPI POP SWAP1 JUMP JUMPDEST PUSH2 0x2543 SWAP2 POP PUSH1 0xA0 RETURNDATASIZE PUSH1 0xA0 GT PUSH2 0x254B JUMPI JUMPDEST PUSH2 0x253B DUP2 DUP4 PUSH2 0x21FD JUMP JUMPDEST DUP2 ADD SWAP1 PUSH2 0x2491 JUMP JUMPDEST POP POP POP SWAP1 POP SWAP1 JUMP JUMPDEST POP RETURNDATASIZE PUSH2 0x2531 JUMP JUMPDEST DUP1 MLOAD DUP3 KECCAK256 PUSH2 0x255E PUSH2 0x2459 JUMP JUMPDEST PUSH1 0x20 DUP2 MLOAD SWAP2 ADD KECCAK256 EQ PUSH1 0x0 EQ PUSH2 0x25A7 JUMPI POP POP PUSH1 0x8 SLOAD PUSH1 0x40 MLOAD PUSH4 0x3FABE5A3 PUSH1 0xE2 SHL DUP2 MSTORE SWAP1 PUSH1 0xA0 SWAP1 DUP3 SWAP1 PUSH1 0x4 SWAP1 DUP3 SWAP1 PUSH1 0x1 PUSH1 0x1 PUSH1 0xA0 SHL SUB AND GAS STATICCALL SWAP1 DUP2 ISZERO PUSH2 0xCF3 JUMPI PUSH1 0x0 SWAP2 PUSH2 0x2521 JUMPI POP SWAP1 JUMP JUMPDEST MLOAD SWAP1 KECCAK256 PUSH2 0x25B2 PUSH2 0x242F JUMP JUMPDEST PUSH1 0x20 DUP2 MLOAD SWAP2 ADD KECCAK256 EQ PUSH2 0x25C3 JUMPI PUSH1 0x0 SWAP1 JUMP JUMPDEST PUSH1 0x9 SLOAD PUSH1 0x40 MLOAD PUSH4 0x3FABE5A3 PUSH1 0xE2 SHL DUP2 MSTORE SWAP1 PUSH1 0xA0 SWAP1 DUP3 SWAP1 PUSH1 0x4 SWAP1 DUP3 SWAP1 PUSH1 0x1 PUSH1 0x1 PUSH1 0xA0 SHL SUB AND GAS STATICCALL SWAP1 DUP2 ISZERO PUSH2 0xCF3 JUMPI PUSH1 0x0 SWAP2 PUSH2 0x2521 JUMPI POP SWAP1 JUMP JUMPDEST PUSH1 0x1 PUSH1 0x1 PUSH1 0xA0 SHL SUB AND SWAP1 DUP2 ISZERO PUSH2 0x26B2 JUMPI PUSH1 0x1 PUSH1 0x1 PUSH1 0xA0 SHL SUB AND SWAP2 DUP3 ISZERO PUSH2 0x2662 JUMPI PUSH1 0x20 PUSH32 0x8C5BE1E5EBEC7D5BD14F71427D1E84F3DD0314C0F7B2291E5B200AC8C7C3B925 SWAP2 DUP4 PUSH1 0x0 MSTORE PUSH1 0x1 DUP3 MSTORE PUSH1 0x40 PUSH1 0x0 KECCAK256 DUP6 PUSH1 0x0 MSTORE DUP3 MSTORE DUP1 PUSH1 0x40 PUSH1 0x0 KECCAK256 SSTORE PUSH1 0x40 MLOAD SWAP1 DUP2 MSTORE LOG3 JUMP JUMPDEST PUSH1 0x40 MLOAD PUSH3 0x461BCD PUSH1 0xE5 SHL DUP2 MSTORE PUSH1 0x20 PUSH1 0x4 DUP3 ADD MSTORE PUSH1 0x22 PUSH1 0x24 DUP3 ADD MSTORE PUSH32 0x45524332303A20617070726F766520746F20746865207A65726F206164647265 PUSH1 0x44 DUP3 ADD MSTORE PUSH2 0x7373 PUSH1 0xF0 SHL PUSH1 0x64 DUP3 ADD MSTORE PUSH1 0x84 SWAP1 REVERT JUMPDEST PUSH1 0x40 MLOAD PUSH3 0x461BCD PUSH1 0xE5 SHL DUP2 MSTORE PUSH1 0x20 PUSH1 0x4 DUP3 ADD MSTORE PUSH1 0x24 DUP1 DUP3 ADD MSTORE PUSH32 0x45524332303A20617070726F76652066726F6D20746865207A65726F20616464 PUSH1 0x44 DUP3 ADD MSTORE PUSH4 0x72657373 PUSH1 0xE0 SHL PUSH1 0x64 DUP3 ADD MSTORE PUSH1 0x84 SWAP1 REVERT JUMPDEST PUSH1 0x1 PUSH1 0x1 PUSH1 0xA0 SHL SUB AND SWAP1 DUP2 ISZERO PUSH2 0x282F JUMPI PUSH1 0x1 PUSH1 0x1 PUSH1 0xA0 SHL SUB AND SWAP2 DUP3 ISZERO PUSH2 0x27DE JUMPI DUP2 PUSH1 0x0 MSTORE PUSH1 0x0 PUSH1 0x20 MSTORE PUSH1 0x40 PUSH1 0x0 KECCAK256 SLOAD DUP2 DUP2 LT PUSH2 0x278A JUMPI DUP2 PUSH32 0xDDF252AD1BE2C89B69C2B068FC378DAA952BA7F163C4A11628F55A4DF523B3EF SWAP3 PUSH1 0x20 SWAP3 DUP6 PUSH1 0x0 MSTORE PUSH1 0x0 DUP5 MSTORE SUB PUSH1 0x40 PUSH1 0x0 KECCAK256 SSTORE DUP5 PUSH1 0x0 MSTORE PUSH1 0x0 DUP3 MSTORE PUSH1 0x40 PUSH1 0x0 KECCAK256 DUP2 DUP2 SLOAD ADD SWAP1 SSTORE PUSH1 0x40 MLOAD SWAP1 DUP2 MSTORE LOG3 JUMP JUMPDEST PUSH1 0x40 MLOAD PUSH3 0x461BCD PUSH1 0xE5 SHL DUP2 MSTORE PUSH1 0x20 PUSH1 0x4 DUP3 ADD MSTORE PUSH1 0x26 PUSH1 0x24 DUP3 ADD MSTORE PUSH32 0x45524332303A207472616E7366657220616D6F756E7420657863656564732062 PUSH1 0x44 DUP3 ADD MSTORE PUSH6 0x616C616E6365 PUSH1 0xD0 SHL PUSH1 0x64 DUP3 ADD MSTORE PUSH1 0x84 SWAP1 REVERT JUMPDEST PUSH1 0x40 MLOAD PUSH3 0x461BCD PUSH1 0xE5 SHL DUP2 MSTORE PUSH1 0x20 PUSH1 0x4 DUP3 ADD MSTORE PUSH1 0x23 PUSH1 0x24 DUP3 ADD MSTORE PUSH32 0x45524332303A207472616E7366657220746F20746865207A65726F2061646472 PUSH1 0x44 DUP3 ADD MSTORE PUSH3 0x657373 PUSH1 0xE8 SHL PUSH1 0x64 DUP3 ADD MSTORE PUSH1 0x84 SWAP1 REVERT JUMPDEST PUSH1 0x40 MLOAD PUSH3 0x461BCD PUSH1 0xE5 SHL DUP2 MSTORE PUSH1 0x20 PUSH1 0x4 DUP3 ADD MSTORE PUSH1 0x25 PUSH1 0x24 DUP3 ADD MSTORE PUSH32 0x45524332303A207472616E736665722066726F6D20746865207A65726F206164 PUSH1 0x44 DUP3 ADD MSTORE PUSH5 0x6472657373 PUSH1 0xD8 SHL PUSH1 0x64 DUP3 ADD MSTORE PUSH1 0x84 SWAP1 REVERT JUMPDEST PUSH1 0x2 PUSH1 0x6 SLOAD EQ PUSH2 0x2893 JUMPI PUSH1 0x2 PUSH1 0x6 SSTORE JUMP JUMPDEST PUSH1 0x40 MLOAD PUSH3 0x461BCD PUSH1 0xE5 SHL DUP2 MSTORE PUSH1 0x20 PUSH1 0x4 DUP3 ADD MSTORE PUSH1 0x1F PUSH1 0x24 DUP3 ADD MSTORE PUSH32 0x5265656E7472616E637947756172643A207265656E7472616E742063616C6C00 PUSH1 0x44 DUP3 ADD MSTORE PUSH1 0x64 SWAP1 REVERT JUMPDEST PUSH1 0x5 SLOAD PUSH1 0x1 PUSH1 0x1 PUSH1 0xA0 SHL SUB AND CALLER SUB PUSH2 0x28EC JUMPI JUMP JUMPDEST PUSH1 0x64 PUSH1 0x40 MLOAD PUSH3 0x461BCD PUSH1 0xE5 SHL DUP2 MSTORE PUSH1 0x20 PUSH1 0x4 DUP3 ADD MSTORE PUSH1 0x20 PUSH1 0x24 DUP3 ADD MSTORE PUSH32 0x4F776E61626C653A2063616C6C6572206973206E6F7420746865206F776E6572 PUSH1 0x44 DUP3 ADD MSTORE REVERT INVALID LOG2 PUSH5 0x6970667358 0x22 SLT KECCAK256 PUSH32 0x7FDE797C0448EE36DB463BDB2666FC0769619DA27D7AC0CC101391E70BF0F664 PUSH20 0x6F6C634300081C00330000000000000000000000 "},"methodIdentifiers":{"TOKENS_PER_ETH()":"bc6e6604","allowance(address,address)":"dd62ed3e","applyPenalty(uint256)":"0a5d264a","approve(address,uint256)":"095ea7b3","balanceOf(address)":"70a08231","cancelCommitment(uint256)":"840a1ff4","checkFulfillment(uint256)":"d37a06f7","claimEnvironmentalReward(uint256)":"347020af","commitments(uint256)":"49ce8997","createCommitment(string,string,string,string,uint256,uint256,string)":"f40219c0","decimals()":"313ce567","decreaseAllowance(address,uint256)":"a457c2d7","emergencyWithdraw()":"db2e21bc","getCommitment(uint256)":"69bcdb7d","getCommitmentTokenReward(uint256)":"0e9cf0ba","getContractTokenBalance()":"317d9453","getCurrentEnvironmentalValue(string)":"e8d10777","getOfficialCommitments(address)":"b3e14b31","getTokenBalance(address)":"3aecd0e3","getTotalStaked()":"0917e776","increaseAllowance(address,uint256)":"39509351","judgeApproveCommitment(uint256)":"410a9ddd","mintRewardTokens(uint256)":"34b4117d","name()":"06fdde03","nextCommitmentId()":"5ac48e6d","officialCommitments(address,uint256)":"90bb9a29","oracleData(uint256)":"aa4dea00","owner()":"8da5cb5b","renounceOwnership()":"715018a6","symbol()":"95d89b41","totalStaked()":"817b1cd2","totalSupply()":"18160ddd","transfer(address,uint256)":"a9059cbb","transferFrom(address,address,uint256)":"23b872dd","transferOwnership(address)":"f2fde38b"}}}}}