{"contracts/RealEnvironmentalOracle.sol":{"RealEnvironmentalOracle":{"abi":[{"inputs":[],"stateMutability":"nonpayable","type":"constructor"},{"anonymous":false,"inputs":[{"indexed":true,"internalType":"address","name":"oldUpdater","type":"address"},{"indexed":true,"internalType":"address","name":"newUpdater","type":"address"}],"name":"DataUpdaterChanged","type":"event"},{"anonymous":false,"inputs":[{"indexed":true,"internalType":"string","name":"metric","type":"string"},{"indexed":false,"internalType":"int256","name":"value","type":"int256"},{"indexed":false,"internalType":"uint256","name":"timestamp","type":"uint256"},{"indexed":false,"internalType":"uint80","name":"roundId","type":"uint80"},{"indexed":false,"internalType":"string","name":"dataSource","type":"string"}],"name":"EnvironmentalDataUpdated","type":"event"},{"anonymous":false,"inputs":[{"indexed":false,"internalType":"string","name":"oldMetric","type":"string"},{"indexed":false,"internalType":"string","name":"newMetric","type":"string"}],"name":"PrimaryMetricChanged","type":"event"},{"inputs":[{"internalType":"string[]","name":"metrics","type":"string[]"},{"internalType":"int256[]","name":"values","type":"int256[]"},{"internalType":"string","name":"dataSource","type":"string"}],"name":"batchUpdateEnvironmentalData","outputs":[],"stateMutability":"nonpayable","type":"function"},{"inputs":[],"name":"dataUpdater","outputs":[{"internalType":"address","name":"","type":"address"}],"stateMutability":"view","type":"function"},{"inputs":[],"name":"decimals","outputs":[{"internalType":"uint8","name":"","type":"uint8"}],"stateMutability":"view","type":"function"},{"inputs":[],"name":"description","outputs":[{"internalType":"string","name":"","type":"string"}],"stateMutability":"view","type":"function"},{"inputs":[],"name":"getEnvironmentalReport","outputs":[{"internalType":"int256","name":"pm25Value","type":"int256"},{"internalType":"int256","name":"co2Value","type":"int256"},{"internalType":"int256","name":"forestValue","type":"int256"},{"internalType":"int256","name":"aqiValue","type":"int256"},{"internalType":"uint256","name":"lastUpdated","type":"uint256"}],"stateMutability":"view","type":"function"},{"inputs":[],"name":"getLatestAQIData","outputs":[{"internalType":"int256","name":"","type":"int256"}],"stateMutability":"view","type":"function"},{"inputs":[],"name":"getLatestCO2Data","outputs":[{"internalType":"int256","name":"","type":"int256"}],"stateMutability":"view","type":"function"},{"inputs":[{"internalType":"string","name":"metric","type":"string"}],"name":"getLatestEnvironmentalData","outputs":[{"internalType":"uint80","name":"roundId","type":"uint80"},{"internalType":"int256","name":"answer","type":"int256"},{"internalType":"uint256","name":"startedAt","type":"uint256"},{"internalType":"uint256","name":"updatedAt","type":"uint256"},{"internalType":"uint80","name":"answeredInRound","type":"uint80"}],"stateMutability":"view","type":"function"},{"inputs":[],"name":"getLatestForestCoverData","outputs":[{"internalType":"int256","name":"","type":"int256"}],"stateMutability":"view","type":"function"},{"inputs":[],"name":"getLatestPM25Data","outputs":[{"internalType":"int256","name":"","type":"int256"}],"stateMutability":"view","type":"function"},{"inputs":[{"internalType":"uint80","name":"_roundId","type":"uint80"}],"name":"getRoundData","outputs":[{"internalType":"uint80","name":"roundId","type":"uint80"},{"internalType":"int256","name":"answer","type":"int256"},{"internalType":"uint256","name":"startedAt","type":"uint256"},{"internalType":"uint256","name":"updatedAt","type":"uint256"},{"internalType":"uint80","name":"answeredInRound","type":"uint80"}],"stateMutability":"view","type":"function"},{"inputs":[],"name":"latestRoundData","outputs":[{"internalType":"uint80","name":"roundId","type":"uint80"},{"internalType":"int256","name":"answer","type":"int256"},{"internalType":"uint256","name":"startedAt","type":"uint256"},{"internalType":"uint256","name":"updatedAt","type":"uint256"},{"internalType":"uint80","name":"answeredInRound","type":"uint80"}],"stateMutability":"view","type":"function"},{"inputs":[],"name":"owner","outputs":[{"internalType":"address","name":"","type":"address"}],"stateMutability":"view","type":"function"},{"inputs":[],"name":"primaryMetric","outputs":[{"internalType":"string","name":"","type":"string"}],"stateMutability":"view","type":"function"},{"inputs":[{"internalType":"address","name":"_newUpdater","type":"address"}],"name":"setDataUpdater","outputs":[],"stateMutability":"nonpayable","type":"function"},{"inputs":[{"internalType":"string","name":"_newMetric","type":"string"}],"name":"setPrimaryMetric","outputs":[],"stateMutability":"nonpayable","type":"function"},{"inputs":[{"internalType":"uint256","name":"","type":"uint256"}],"name":"supportedMetrics","outputs":[{"internalType":"string","name":"","type":"string"}],"stateMutability":"view","type":"function"},{"inputs":[{"internalType":"address","name":"_newOwner","type":"address"}],"name":"transferOwnership","outputs":[],"stateMutability":"nonpayable","type":"function"},{"inputs":[{"internalType":"string","name":"metric","type":"string"},{"internalType":"int256","name":"value","type":"int256"},{"internalType":"string","name":"dataSource","type":"string"}],"name":"updateEnvironmentalData","outputs":[],"stateMutability":"nonpayable","type":"function"},{"inputs":[],"name":"version","outputs":[{"internalType":"uint256","name":"","type":"uint256"}],"stateMutability":"view","type":"function"}],"evm":{"bytecode":{"linkReferences":{},"object":"6080604052346107e4576100116107e9565b61001b6040610808565b6004815263706d323560e01b602082015281526100386040610808565b600381526231b79960e91b602082015260208201526100576040610808565b600c81526b3337b932b9ba2fb1b7bb32b960a11b6020820152604082015261007f6040610808565b600381526261716960e81b6020820152606082015261009e6040610808565b600b81526a74656d706572617475726560a81b6020820152608082015260045460056004558060051061072d575b50600460009081527f8a35acfbc15ff81a39ae7d344fd709f28e8600b4aa8c65c6b64bfe7fe36bd19b915b600582106105fa5761010a60055461082d565b601f81116105d7575b50600863706d323560e01b0160055560065461012e9061082d565b601f811161058c575b6073600690815560009081527f5265616c20456e7669726f6e6d656e74616c2044617461204f7261636c65202d600080516020611c99833981519152557f20504d322e352c20434f322c20466f7265737420436f766572000000000000007ff652222313e28459528d920b65115c16c04f3efc82aaedc97be59f3f377c0d4055600160078190558154336001600160a01b0319918216811790935581541690911790556101e26107e9565b6104e281524260208201818152604080840192835260016060850181815260808601828152835163706d323560e01b808252600260048084018290526024938490209a518b5597518a8701559751978901979097559151600397880180549251600160501b600160a01b0360509190911b166001600160501b039092166001600160a01b03199093169290921717905591519384529183019390935291902080546001600160501b031916909117905561029a6107e9565b61a4a68152426020820181815260408084019283526001606085018181526080860182815283516231b79960e91b808252600260038381018290526023938490209a518b5597518a8701559751978901979097559151968501805491516001600160a01b03199092166001600160501b03989098169790971760509190911b600160501b600160a01b03161790955590519283528282019190915291902080546001600160501b03191690911790556103516107e9565b611ac28152426020820181815260408084019283526001606085018181526080860182815283516b3337b932b9ba2fb1b7bb32b960a11b8082526002600c808401829052602c938490209a518b5597518a8701559751978901979097559151600397880180549251600160501b600160a01b0360509190911b166001600160501b039092166001600160a01b03199093169290921717905591519384529183019390935291902080546001600160501b03191690911790556104116107e9565b6121348152426020820181815260408084019283526001606085018181526080860182815283516261716960e81b808252600260038381018290526023938490209a518b5597518a8701559751978901979097559151968501805491516001600160a01b03199092166001600160501b03989098169790971760509190911b600160501b600160a01b03161790955590519283528282019190915291902080546001600160501b03191690911790556104c86107e9565b6105f58152426020820181815260408084019283526001606085018181526080860182815283516a74656d706572617475726560a81b8082526002600b808401829052602b938490209a518b5597518a8701559751978901979097559151600397880180549251600160501b600160a01b0360509190911b166001600160501b039092166001600160a01b031990931692909217179055825194855292840194909452912080546001600160501b0319169092179091555161141a908161087f8239f35b60066000526105d190601f0160051c600080516020611c99833981519152017ff652222313e28459528d920b65115c16c04f3efc82aaedc97be59f3f377c0d41610867565b80610137565b6105f4906005600052601f6020600020910160051c810190610867565b80610113565b80518051906001600160401b03821161071757610617855461082d565b601f81116106da575b50602090601f831160011461066d579282600194936020938695600092610662575b5050600019600383901b1c191690841b1786555b019301910190916100f7565b015190503880610642565b90601f1983169186600052816000209260005b8181106106c257509360209360019693879693838895106106a9575b505050811b018655610656565b015160001960f88460031b161c1916905538808061069c565b82840151855560019094019360209384019301610680565b61070790866000526020600020601f850160051c8101916020861061070d575b601f0160051c0190610867565b38610620565b90915081906106fa565b634e487b7160e01b600052604160045260246000fd5b60046000527f8a35acfbc15ff81a39ae7d344fd709f28e8600b4aa8c65c6b64bfe7fe36bd19b017f8a35acfbc15ff81a39ae7d344fd709f28e8600b4aa8c65c6b64bfe7fe36bd1a05b81811061078357506100cc565b806107906001925461082d565b8061079d575b5001610776565b601f811183146107b35750600081555b38610796565b6107d1908260005283601f6020600020920160051c82019101610867565b80600052600060208120818355556107ad565b600080fd5b6040519060a082016001600160401b0381118382101761071757604052565b6040519190601f01601f191682016001600160401b0381118382101761071757604052565b90600182811c9216801561085d575b602083101461084757565b634e487b7160e01b600052602260045260246000fd5b91607f169161083c565b818110610872575050565b6000815560010161086756fe6080604052600436101561001257600080fd5b60003560e01c80630aa621b814610c8957806319e1b8a214610bf9578063313ce56714610bdd57806336701a3e14610aaa5780633a48081114610a2b57806354fd4d5014610a0d5780635db8b00b14610921578063711703b4146108ef5780637284e416146108225780638409c4e61461060a578063893b2694146105e15780638da5cb5b146105b85780639a6fc8f514610540578063a3c4f4c1146103b7578063b53eeb6f14610384578063bb99b96914610349578063bf0eca7e14610317578063d27cd36b146102e7578063f2fde38b146102505763feaf968c146100f857600080fd5b3461024b57600036600319011261024b57604051631b380d1f60e11b81526020600482015260008160055461012c81610f4d565b9081602484015260018116908160001461022957506001146101e0575b508060a0920381305afa80156101d457600080918182908392610198575b604080516001600160501b039586168152602081019690965285015260608401521660808201528060a081015b0390f35b50505050506101c16101949160a03d60a0116101cd575b6101b98183610ebf565b810190611157565b92945084939291610167565b503d6101af565b6040513d6000823e3d90fd5b600560009081529192506000805160206113c58339815191525b81831061020f57505081016044019080610149565b8054604484870101528493506020909201916001016101fa565b60a094506044915091839260ff191682840152151560051b8201019250610149565b600080fd5b3461024b57602036600319011261024b576004356001600160a01b0381169081900361024b5760005461028d336001600160a01b038316146110ec565b81156102a3576001600160a01b03191617600055005b606460405162461bcd60e51b815260206004820152602060248201527f4e6577206f776e65722063616e6e6f74206265207a65726f20616464726573736044820152fd5b3461024b57600036600319011261024b57610194610303610f87565b604051918291602083526020830190611051565b3461024b57600036600319011261024b57602060236040516231b79960e91b8152600260038201522054604051908152f35b3461024b57600036600319011261024b576020602c6040516b3337b932b9ba2fb1b7bb32b960a11b81526002600c8201522054604051908152f35b3461024b57600036600319011261024b576020602460405163706d323560e01b8152600260048201522054604051908152f35b3461024b57600036600319011261024b576001602460405163706d323560e01b81526002600482015220015480600160236040516231b79960e91b81526002600382015220015411610520575b806001602c6040516b3337b932b9ba2fb1b7bb32b960a11b81526002600c820152200154116104f7575b80600160236040516261716960e81b815260026003820152200154116104d6575b60a090602460405163706d323560e01b81526002600482015220549060236040516231b79960e91b8152600260038201522054602c6040516b3337b932b9ba2fb1b7bb32b960a11b81526002600c820152205460236040516261716960e81b8152600260038201522054916040519485526020850152604084015260608301526080820152f35b506040516261716960e81b815260026003820152602390206001015461044f565b506001602c6040516b3337b932b9ba2fb1b7bb32b960a11b81526002600c82015220015461042e565b50600160236040516231b79960e91b815260026003820152200154610404565b3461024b57602036600319011261024b576004356001600160501b0381160361024b57604051633fabe5a360e21b815260a081600481305afa80156101d45760008091818290839261019857604080516001600160501b0395861681526020810196909652850152606084015216608082015260a090f35b3461024b57600036600319011261024b576000546040516001600160a01b039091168152602090f35b3461024b57600036600319011261024b576001546040516001600160a01b039091168152602090f35b3461024b57602036600319011261024b576004356001600160401b03811161024b5761063a903690600401610ef7565b61064f60018060a01b036000541633146110ec565b610657610f87565b8151916001600160401b03831161080c57610673600554610f4d565b601f811161079f575b50602092601f8111600114610706576106e89291816106f6927fcdd4e2a39ff07b5539d8722eea44204c1fc6a85e94fa22e0ce552c88908fbdca966000916106fb575b508160011b916000199060031b1c1916176005555b604051938493604085526040850190611051565b908382036020850152611051565b0390a1005b9050820151876106bf565b601f19811660056000526000805160206113c58339815191529060005b8181106107875750826106e89594927fcdd4e2a39ff07b5539d8722eea44204c1fc6a85e94fa22e0ce552c88908fbdca976106f6956001941061076e575b5050811b016005556106d4565b84015160001960f88460031b161c191690558780610761565b84870151835560209687019660019093019201610723565b6005600052601f840160051c6000805160206113c58339815191520190602085106107f6575b601f0160051c6000805160206113c583398151915201905b8181106107ea575061067c565b600081556001016107dd565b6000805160206113c583398151915291506107c5565b634e487b7160e01b600052604160045260246000fd5b3461024b57600036600319011261024b57604051600060065461084481610f4d565b80845290600181169081156108cb575060011461086c575b6101948361030381850382610ebf565b600660009081527ff652222313e28459528d920b65115c16c04f3efc82aaedc97be59f3f377c0d3f939250905b8082106108b15750909150810160200161030361085c565b919260018160209254838588010152019101909291610899565b60ff191660208086019190915291151560051b84019091019150610303905061085c565b3461024b57600036600319011261024b57602060236040516261716960e81b8152600260038201522054604051908152f35b3461024b57602036600319011261024b5760043560045481101561024b57600090600482527f8a35acfbc15ff81a39ae7d344fd709f28e8600b4aa8c65c6b64bfe7fe36bd19b0190604051918181549161097a83610f4d565b80865292600181169081156109e357506001146109a2575b6101948561030381870382610ebf565b815260208120939250905b8082106109c95750909150810160200161030382610194610992565b9192600181602092548385880101520191019092916109ad565b8695506101949693506020925061030394915060ff191682840152151560051b8201019293610992565b3461024b57600036600319011261024b576020600754604051908152f35b3461024b57602036600319011261024b576004356001600160a01b0381169081900361024b57610a6660018060a01b036000541633146110ec565b600180546001600160a01b0319811683179091556001600160a01b03167fd92fa636ac165804c9c0d4135eaccffea632b9a9b969e83e96e71be118e77004600080a3005b3461024b57602036600319011261024b576004356001600160401b03811161024b576020610adf610af2923690600401610ef7565b816040519382858094519384920161102e565b81016002815203019020604051610b0881610ea4565b81548152600182015460208201818152600360028501549460408501958652015460608401926001600160501b03821684526001600160501b03608086019260501c16825215610b8e5791519251935190519151604080516001600160501b0395861681526020810196909652850191909152606084019190915216608082015260a090f35b60405162461bcd60e51b815260206004820152602160248201527f4e6f206461746120617661696c61626c6520666f722074686973206d657472696044820152606360f81b6064820152608490fd5b3461024b57600036600319011261024b57602060405160028152f35b3461024b57606036600319011261024b576004356001600160401b03811161024b57610c29903690600401610ef7565b604435906001600160401b03821161024b57610c4c610c73923690600401610ef7565b9060018060a01b036000541633148015610c75575b610c6a90611076565b6024359061118c565b005b506001546001600160a01b03163314610c61565b3461024b57606036600319011261024b576004356001600160401b03811161024b573660238201121561024b578060040135610cc481610ee0565b91610cd26040519384610ebf565b8183526024602084019260051b8201019036821161024b5760248101925b828410610e7557602435856001600160401b03821161024b573660238301121561024b57816004013591610d2383610ee0565b92610d316040519485610ebf565b8084526024602085019160051b8301019136831161024b57602401905b828210610e65575050506044356001600160401b03811161024b57610d77903690600401610ef7565b9060018060a01b036000541633148015610e51575b610d9590611076565b8051835103610e1357805115610dda5760005b8151811015610c735780610dd484610dc2600194866110c2565b51610dcd84896110c2565b519061118c565b01610da8565b60405162461bcd60e51b81526020600482015260116024820152704e6f206461746120746f2075706461746560781b6044820152606490fd5b60405162461bcd60e51b8152602060048201526016602482015275082e4e4c2f2e640d8cadccee8d040dad2e6dac2e8c6d60531b6044820152606490fd5b506001546001600160a01b03163314610d8c565b8135815260209182019101610d4e565b83356001600160401b03811161024b57602091610e99839260243691870101610ef7565b815201930192610cf0565b60a081019081106001600160401b0382111761080c57604052565b90601f801991011681019081106001600160401b0382111761080c57604052565b6001600160401b03811161080c5760051b60200190565b81601f8201121561024b578035906001600160401b03821161080c5760405192610f2b601f8401601f191660200185610ebf565b8284526020838301011161024b57816000926020809301838601378301015290565b90600182811c92168015610f7d575b6020831014610f6757565b634e487b7160e01b600052602260045260246000fd5b91607f1691610f5c565b6040519060008260055491610f9b83610f4d565b808352926001811690811561100f5750600114610fc1575b610fbf92500383610ebf565b565b506005600090815290916000805160206113c58339815191525b818310610ff3575050906020610fbf92820101610fb3565b6020919350806001915483858901015201910190918492610fdb565b60209250610fbf94915060ff191682840152151560051b820101610fb3565b60005b8381106110415750506000910152565b8181015183820152602001611031565b9060209161106a8151809281855285808601910161102e565b601f01601f1916010190565b1561107d57565b60405162461bcd60e51b815260206004820152601d60248201527f4e6f7420617574686f72697a656420746f2075706461746520646174610000006044820152606490fd5b80518210156110d65760209160051b010190565b634e487b7160e01b600052603260045260246000fd5b156110f357565b60405162461bcd60e51b815260206004820152602260248201527f4f6e6c79206f776e65722063616e20706572666f726d2074686973206163746960448201526137b760f11b6064820152608490fd5b51906001600160501b038216820361024b57565b908160a091031261024b5761116b81611143565b91602082015191604081015191611189608060608401519301611143565b90565b90815115611386576000811261132f576040519060016001600160501b03845193602081818801966111bf81838a61102e565b81016003815203019020541601916001600160501b038311611319576112ea611314917f67329a4d8bca5f2a3c3c192170162450f36af6bf1e618a9f6cb25b8fbc59adb9956040519561121187610ea4565b858752602087014281526001600160501b0380600360408b019a428c52826060820196169b8c875260808201958d875261125960208b8b60405193849283925192839161102e565b810160028152030190209251835551600183015551600282015501935116166001600160501b0319835416178255518154906001600160501b0360501b9060501b16906001600160501b0360501b191617905560405160208183516112bf81838861102e565b81016003815203019020866001600160501b031982541617905560405192839283925192839161102e565b81010390209460405193849384524260208501526040840152608060608401526080830190611051565b0390a2565b634e487b7160e01b600052601160045260246000fd5b60405162461bcd60e51b815260206004820152602960248201527f456e7669726f6e6d656e74616c2076616c756573206d757374206265206e6f6e6044820152682d6e6567617469766560b81b6064820152608490fd5b60405162461bcd60e51b81526020600482015260166024820152754d65747269632063616e6e6f7420626520656d70747960501b6044820152606490fdfe036b6384b5eca791c62761152d0c79bb0604c104a5fb6f4eb0703f3154bb3db0a2646970667358221220b5712e068ea9b5f949293b4c94ab2c93a2b990060b6988303af9ab0654f666f464736f6c634300081c0033f652222313e28459528d920b65115c16c04f3efc82aaedc97be59f3f377c0d3f","opcodes":"PUSH1 0x80 PUSH1 0x40 MSTORE CALLVALUE PUSH2 0x7E4 JUMPI PUSH2 0x11 PUSH2 0x7E9 JUMP JUMPDEST PUSH2 0x1B PUSH1 0x40 PUSH2 0x808 JUMP JUMPDEST PUSH1 0x4 DUP2 MSTORE PUSH4 0x706D3235 PUSH1 0xE0 SHL PUSH1 0x20 DUP3 ADD MSTORE DUP2 MSTORE PUSH2 0x38 PUSH1 0x40 PUSH2 0x808 JUMP JUMPDEST PUSH1 0x3 DUP2 MSTORE PUSH3 0x31B799 PUSH1 0xE9 SHL PUSH1 0x20 DUP3 ADD MSTORE PUSH1 0x20 DUP3 ADD MSTORE PUSH2 0x57 PUSH1 0x40 PUSH2 0x808 JUMP JUMPDEST PUSH1 0xC DUP2 MSTORE PUSH12 0x3337B932B9BA2FB1B7BB32B9 PUSH1 0xA1 SHL PUSH1 0x20 DUP3 ADD MSTORE PUSH1 0x40 DUP3 ADD MSTORE PUSH2 0x7F PUSH1 0x40 PUSH2 0x808 JUMP JUMPDEST PUSH1 0x3 DUP2 MSTORE PUSH3 0x617169 PUSH1 0xE8 SHL PUSH1 0x20 DUP3 ADD MSTORE PUSH1 0x60 DUP3 ADD MSTORE PUSH2 0x9E PUSH1 0x40 PUSH2 0x808 JUMP JUMPDEST PUSH1 0xB DUP2 MSTORE PUSH11 0x74656D7065726174757265 PUSH1 0xA8 SHL PUSH1 0x20 DUP3 ADD MSTORE PUSH1 0x80 DUP3 ADD MSTORE PUSH1 0x4 SLOAD PUSH1 0x5 PUSH1 0x4 SSTORE DUP1 PUSH1 0x5 LT PUSH2 0x72D JUMPI JUMPDEST POP PUSH1 0x4 PUSH1 0x0 SWAP1 DUP2 MSTORE PUSH32 0x8A35ACFBC15FF81A39AE7D344FD709F28E8600B4AA8C65C6B64BFE7FE36BD19B SWAP2 JUMPDEST PUSH1 0x5 DUP3 LT PUSH2 0x5FA JUMPI PUSH2 0x10A PUSH1 0x5 SLOAD PUSH2 0x82D JUMP JUMPDEST PUSH1 0x1F DUP2 GT PUSH2 0x5D7 JUMPI JUMPDEST POP PUSH1 0x8 PUSH4 0x706D3235 PUSH1 0xE0 SHL ADD PUSH1 0x5 SSTORE PUSH1 0x6 SLOAD PUSH2 0x12E SWAP1 PUSH2 0x82D JUMP JUMPDEST PUSH1 0x1F DUP2 GT PUSH2 0x58C JUMPI JUMPDEST PUSH1 0x73 PUSH1 0x6 SWAP1 DUP2 SSTORE PUSH1 0x0 SWAP1 DUP2 MSTORE PUSH32 0x5265616C20456E7669726F6E6D656E74616C2044617461204F7261636C65202D PUSH1 0x0 DUP1 MLOAD PUSH1 0x20 PUSH2 0x1C99 DUP4 CODECOPY DUP2 MLOAD SWAP2 MSTORE SSTORE PUSH32 0x20504D322E352C20434F322C20466F7265737420436F76657200000000000000 PUSH32 0xF652222313E28459528D920B65115C16C04F3EFC82AAEDC97BE59F3F377C0D40 SSTORE PUSH1 0x1 PUSH1 0x7 DUP2 SWAP1 SSTORE DUP2 SLOAD CALLER PUSH1 0x1 PUSH1 0x1 PUSH1 0xA0 SHL SUB NOT SWAP2 DUP3 AND DUP2 OR SWAP1 SWAP4 SSTORE DUP2 SLOAD AND SWAP1 SWAP2 OR SWAP1 SSTORE PUSH2 0x1E2 PUSH2 0x7E9 JUMP JUMPDEST PUSH2 0x4E2 DUP2 MSTORE TIMESTAMP PUSH1 0x20 DUP3 ADD DUP2 DUP2 MSTORE PUSH1 0x40 DUP1 DUP5 ADD SWAP3 DUP4 MSTORE PUSH1 0x1 PUSH1 0x60 DUP6 ADD DUP2 DUP2 MSTORE PUSH1 0x80 DUP7 ADD DUP3 DUP2 MSTORE DUP4 MLOAD PUSH4 0x706D3235 PUSH1 0xE0 SHL DUP1 DUP3 MSTORE PUSH1 0x2 PUSH1 0x4 DUP1 DUP5 ADD DUP3 SWAP1 MSTORE PUSH1 0x24 SWAP4 DUP5 SWAP1 KECCAK256 SWAP11 MLOAD DUP12 SSTORE SWAP8 MLOAD DUP11 DUP8 ADD SSTORE SWAP8 MLOAD SWAP8 DUP10 ADD SWAP8 SWAP1 SWAP8 SSTORE SWAP2 MLOAD PUSH1 0x3 SWAP8 DUP9 ADD DUP1 SLOAD SWAP3 MLOAD PUSH1 0x1 PUSH1 0x50 SHL PUSH1 0x1 PUSH1 0xA0 SHL SUB PUSH1 0x50 SWAP2 SWAP1 SWAP2 SHL AND PUSH1 0x1 PUSH1 0x1 PUSH1 0x50 SHL SUB SWAP1 SWAP3 AND PUSH1 0x1 PUSH1 0x1 PUSH1 0xA0 SHL SUB NOT SWAP1 SWAP4 AND SWAP3 SWAP1 SWAP3 OR OR SWAP1 SSTORE SWAP2 MLOAD SWAP4 DUP5 MSTORE SWAP2 DUP4 ADD SWAP4 SWAP1 SWAP4 MSTORE SWAP2 SWAP1 KECCAK256 DUP1 SLOAD PUSH1 0x1 PUSH1 0x1 PUSH1 0x50 SHL SUB NOT AND SWAP1 SWAP2 OR SWAP1 SSTORE PUSH2 0x29A PUSH2 0x7E9 JUMP JUMPDEST PUSH2 0xA4A6 DUP2 MSTORE TIMESTAMP PUSH1 0x20 DUP3 ADD DUP2 DUP2 MSTORE PUSH1 0x40 DUP1 DUP5 ADD SWAP3 DUP4 MSTORE PUSH1 0x1 PUSH1 0x60 DUP6 ADD DUP2 DUP2 MSTORE PUSH1 0x80 DUP7 ADD DUP3 DUP2 MSTORE DUP4 MLOAD PUSH3 0x31B799 PUSH1 0xE9 SHL DUP1 DUP3 MSTORE PUSH1 0x2 PUSH1 0x3 DUP4 DUP2 ADD DUP3 SWAP1 MSTORE PUSH1 0x23 SWAP4 DUP5 SWAP1 KECCAK256 SWAP11 MLOAD DUP12 SSTORE SWAP8 MLOAD DUP11 DUP8 ADD SSTORE SWAP8 MLOAD SWAP8 DUP10 ADD SWAP8 SWAP1 SWAP8 SSTORE SWAP2 MLOAD SWAP7 DUP6 ADD DUP1 SLOAD SWAP2 MLOAD PUSH1 0x1 PUSH1 0x1 PUSH1 0xA0 SHL SUB NOT SWAP1 SWAP3 AND PUSH1 0x1 PUSH1 0x1 PUSH1 0x50 SHL SUB SWAP9 SWAP1 SWAP9 AND SWAP8 SWAP1 SWAP8 OR PUSH1 0x50 SWAP2 SWAP1 SWAP2 SHL PUSH1 0x1 PUSH1 0x50 SHL PUSH1 0x1 PUSH1 0xA0 SHL SUB AND OR SWAP1 SWAP6 SSTORE SWAP1 MLOAD SWAP3 DUP4 MSTORE DUP3 DUP3 ADD SWAP2 SWAP1 SWAP2 MSTORE SWAP2 SWAP1 KECCAK256 DUP1 SLOAD PUSH1 0x1 PUSH1 0x1 PUSH1 0x50 SHL SUB NOT AND SWAP1 SWAP2 OR SWAP1 SSTORE PUSH2 0x351 PUSH2 0x7E9 JUMP JUMPDEST PUSH2 0x1AC2 DUP2 MSTORE TIMESTAMP PUSH1 0x20 DUP3 ADD DUP2 DUP2 MSTORE PUSH1 0x40 DUP1 DUP5 ADD SWAP3 DUP4 MSTORE PUSH1 0x1 PUSH1 0x60 DUP6 ADD DUP2 DUP2 MSTORE PUSH1 0x80 DUP7 ADD DUP3 DUP2 MSTORE DUP4 MLOAD PUSH12 0x3337B932B9BA2FB1B7BB32B9 PUSH1 0xA1 SHL DUP1 DUP3 MSTORE PUSH1 0x2 PUSH1 0xC DUP1 DUP5 ADD DUP3 SWAP1 MSTORE PUSH1 0x2C SWAP4 DUP5 SWAP1 KECCAK256 SWAP11 MLOAD DUP12 SSTORE SWAP8 MLOAD DUP11 DUP8 ADD SSTORE SWAP8 MLOAD SWAP8 DUP10 ADD SWAP8 SWAP1 SWAP8 SSTORE SWAP2 MLOAD PUSH1 0x3 SWAP8 DUP9 ADD DUP1 SLOAD SWAP3 MLOAD PUSH1 0x1 PUSH1 0x50 SHL PUSH1 0x1 PUSH1 0xA0 SHL SUB PUSH1 0x50 SWAP2 SWAP1 SWAP2 SHL AND PUSH1 0x1 PUSH1 0x1 PUSH1 0x50 SHL SUB SWAP1 SWAP3 AND PUSH1 0x1 PUSH1 0x1 PUSH1 0xA0 SHL SUB NOT SWAP1 SWAP4 AND SWAP3 SWAP1 SWAP3 OR OR SWAP1 SSTORE SWAP2 MLOAD SWAP4 DUP5 MSTORE SWAP2 DUP4 ADD SWAP4 SWAP1 SWAP4 MSTORE SWAP2 SWAP1 KECCAK256 DUP1 SLOAD PUSH1 0x1 PUSH1 0x1 PUSH1 0x50 SHL SUB NOT AND SWAP1 SWAP2 OR SWAP1 SSTORE PUSH2 0x411 PUSH2 0x7E9 JUMP JUMPDEST PUSH2 0x2134 DUP2 MSTORE TIMESTAMP PUSH1 0x20 DUP3 ADD DUP2 DUP2 MSTORE PUSH1 0x40 DUP1 DUP5 ADD SWAP3 DUP4 MSTORE PUSH1 0x1 PUSH1 0x60 DUP6 ADD DUP2 DUP2 MSTORE PUSH1 0x80 DUP7 ADD DUP3 DUP2 MSTORE DUP4 MLOAD PUSH3 0x617169 PUSH1 0xE8 SHL DUP1 DUP3 MSTORE PUSH1 0x2 PUSH1 0x3 DUP4 DUP2 ADD DUP3 SWAP1 MSTORE PUSH1 0x23 SWAP4 DUP5 SWAP1 KECCAK256 SWAP11 MLOAD DUP12 SSTORE SWAP8 MLOAD DUP11 DUP8 ADD SSTORE SWAP8 MLOAD SWAP8 DUP10 ADD SWAP8 SWAP1 SWAP8 SSTORE SWAP2 MLOAD SWAP7 DUP6 ADD DUP1 SLOAD SWAP2 MLOAD PUSH1 0x1 PUSH1 0x1 PUSH1 0xA0 SHL SUB NOT SWAP1 SWAP3 AND PUSH1 0x1 PUSH1 0x1 PUSH1 0x50 SHL SUB SWAP9 SWAP1 SWAP9 AND SWAP8 SWAP1 SWAP8 OR PUSH1 0x50 SWAP2 SWAP1 SWAP2 SHL PUSH1 0x1 PUSH1 0x50 SHL PUSH1 0x1 PUSH1 0xA0 SHL SUB AND OR SWAP1 SWAP6 SSTORE SWAP1 MLOAD SWAP3 DUP4 MSTORE DUP3 DUP3 ADD SWAP2 SWAP1 SWAP2 MSTORE SWAP2 SWAP1 KECCAK256 DUP1 SLOAD PUSH1 0x1 PUSH1 0x1 PUSH1 0x50 SHL SUB NOT AND SWAP1 SWAP2 OR SWAP1 SSTORE PUSH2 0x4C8 PUSH2 0x7E9 JUMP JUMPDEST PUSH2 0x5F5 DUP2 MSTORE TIMESTAMP PUSH1 0x20 DUP3 ADD DUP2 DUP2 MSTORE PUSH1 0x40 DUP1 DUP5 ADD SWAP3 DUP4 MSTORE PUSH1 0x1 PUSH1 0x60 DUP6 ADD DUP2 DUP2 MSTORE PUSH1 0x80 DUP7 ADD DUP3 DUP2 MSTORE DUP4 MLOAD PUSH11 0x74656D7065726174757265 PUSH1 0xA8 SHL DUP1 DUP3 MSTORE PUSH1 0x2 PUSH1 0xB DUP1 DUP5 ADD DUP3 SWAP1 MSTORE PUSH1 0x2B SWAP4 DUP5 SWAP1 KECCAK256 SWAP11 MLOAD DUP12 SSTORE SWAP8 MLOAD DUP11 DUP8 ADD SSTORE SWAP8 MLOAD SWAP8 DUP10 ADD SWAP8 SWAP1 SWAP8 SSTORE SWAP2 MLOAD PUSH1 0x3 SWAP8 DUP9 ADD DUP1 SLOAD SWAP3 MLOAD PUSH1 0x1 PUSH1 0x50 SHL PUSH1 0x1 PUSH1 0xA0 SHL SUB PUSH1 0x50 SWAP2 SWAP1 SWAP2 SHL AND PUSH1 0x1 PUSH1 0x1 PUSH1 0x50 SHL SUB SWAP1 SWAP3 AND PUSH1 0x1 PUSH1 0x1 PUSH1 0xA0 SHL SUB NOT SWAP1 SWAP4 AND SWAP3 SWAP1 SWAP3 OR OR SWAP1 SSTORE DUP3 MLOAD SWAP5 DUP6 MSTORE SWAP3 DUP5 ADD SWAP5 SWAP1 SWAP5 MSTORE SWAP2 KECCAK256 DUP1 SLOAD PUSH1 0x1 PUSH1 0x1 PUSH1 0x50 SHL SUB NOT AND SWAP1 SWAP3 OR SWAP1 SWAP2 SSTORE MLOAD PUSH2 0x141A SWAP1 DUP2 PUSH2 0x87F DUP3 CODECOPY RETURN JUMPDEST PUSH1 0x6 PUSH1 0x0 MSTORE PUSH2 0x5D1 SWAP1 PUSH1 0x1F ADD PUSH1 0x5 SHR PUSH1 0x0 DUP1 MLOAD PUSH1 0x20 PUSH2 0x1C99 DUP4 CODECOPY DUP2 MLOAD SWAP2 MSTORE ADD PUSH32 0xF652222313E28459528D920B65115C16C04F3EFC82AAEDC97BE59F3F377C0D41 PUSH2 0x867 JUMP JUMPDEST DUP1 PUSH2 0x137 JUMP JUMPDEST PUSH2 0x5F4 SWAP1 PUSH1 0x5 PUSH1 0x0 MSTORE PUSH1 0x1F PUSH1 0x20 PUSH1 0x0 KECCAK256 SWAP2 ADD PUSH1 0x5 SHR DUP2 ADD SWAP1 PUSH2 0x867 JUMP JUMPDEST DUP1 PUSH2 0x113 JUMP JUMPDEST DUP1 MLOAD DUP1 MLOAD SWAP1 PUSH1 0x1 PUSH1 0x1 PUSH1 0x40 SHL SUB DUP3 GT PUSH2 0x717 JUMPI PUSH2 0x617 DUP6 SLOAD PUSH2 0x82D JUMP JUMPDEST PUSH1 0x1F DUP2 GT PUSH2 0x6DA JUMPI JUMPDEST POP PUSH1 0x20 SWAP1 PUSH1 0x1F DUP4 GT PUSH1 0x1 EQ PUSH2 0x66D JUMPI SWAP3 DUP3 PUSH1 0x1 SWAP5 SWAP4 PUSH1 0x20 SWAP4 DUP7 SWAP6 PUSH1 0x0 SWAP3 PUSH2 0x662 JUMPI JUMPDEST POP POP PUSH1 0x0 NOT PUSH1 0x3 DUP4 SWAP1 SHL SHR NOT AND SWAP1 DUP5 SHL OR DUP7 SSTORE JUMPDEST ADD SWAP4 ADD SWAP2 ADD SWAP1 SWAP2 PUSH2 0xF7 JUMP JUMPDEST ADD MLOAD SWAP1 POP CODESIZE DUP1 PUSH2 0x642 JUMP JUMPDEST SWAP1 PUSH1 0x1F NOT DUP4 AND SWAP2 DUP7 PUSH1 0x0 MSTORE DUP2 PUSH1 0x0 KECCAK256 SWAP3 PUSH1 0x0 JUMPDEST DUP2 DUP2 LT PUSH2 0x6C2 JUMPI POP SWAP4 PUSH1 0x20 SWAP4 PUSH1 0x1 SWAP7 SWAP4 DUP8 SWAP7 SWAP4 DUP4 DUP9 SWAP6 LT PUSH2 0x6A9 JUMPI JUMPDEST POP POP POP DUP2 SHL ADD DUP7 SSTORE PUSH2 0x656 JUMP JUMPDEST ADD MLOAD PUSH1 0x0 NOT PUSH1 0xF8 DUP5 PUSH1 0x3 SHL AND SHR NOT AND SWAP1 SSTORE CODESIZE DUP1 DUP1 PUSH2 0x69C JUMP JUMPDEST DUP3 DUP5 ADD MLOAD DUP6 SSTORE PUSH1 0x1 SWAP1 SWAP5 ADD SWAP4 PUSH1 0x20 SWAP4 DUP5 ADD SWAP4 ADD PUSH2 0x680 JUMP JUMPDEST PUSH2 0x707 SWAP1 DUP7 PUSH1 0x0 MSTORE PUSH1 0x20 PUSH1 0x0 KECCAK256 PUSH1 0x1F DUP6 ADD PUSH1 0x5 SHR DUP2 ADD SWAP2 PUSH1 0x20 DUP7 LT PUSH2 0x70D JUMPI JUMPDEST PUSH1 0x1F ADD PUSH1 0x5 SHR ADD SWAP1 PUSH2 0x867 JUMP JUMPDEST CODESIZE PUSH2 0x620 JUMP JUMPDEST SWAP1 SWAP2 POP DUP2 SWAP1 PUSH2 0x6FA JUMP JUMPDEST PUSH4 0x4E487B71 PUSH1 0xE0 SHL PUSH1 0x0 MSTORE PUSH1 0x41 PUSH1 0x4 MSTORE PUSH1 0x24 PUSH1 0x0 REVERT JUMPDEST PUSH1 0x4 PUSH1 0x0 MSTORE PUSH32 0x8A35ACFBC15FF81A39AE7D344FD709F28E8600B4AA8C65C6B64BFE7FE36BD19B ADD PUSH32 0x8A35ACFBC15FF81A39AE7D344FD709F28E8600B4AA8C65C6B64BFE7FE36BD1A0 JUMPDEST DUP2 DUP2 LT PUSH2 0x783 JUMPI POP PUSH2 0xCC JUMP JUMPDEST DUP1 PUSH2 0x790 PUSH1 0x1 SWAP3 SLOAD PUSH2 0x82D JUMP JUMPDEST DUP1 PUSH2 0x79D JUMPI JUMPDEST POP ADD PUSH2 0x776 JUMP JUMPDEST PUSH1 0x1F DUP2 GT DUP4 EQ PUSH2 0x7B3 JUMPI POP PUSH1 0x0 DUP2 SSTORE JUMPDEST CODESIZE PUSH2 0x796 JUMP JUMPDEST PUSH2 0x7D1 SWAP1 DUP3 PUSH1 0x0 MSTORE DUP4 PUSH1 0x1F PUSH1 0x20 PUSH1 0x0 KECCAK256 SWAP3 ADD PUSH1 0x5 SHR DUP3 ADD SWAP2 ADD PUSH2 0x867 JUMP JUMPDEST DUP1 PUSH1 0x0 MSTORE PUSH1 0x0 PUSH1 0x20 DUP2 KECCAK256 DUP2 DUP4 SSTORE SSTORE PUSH2 0x7AD JUMP JUMPDEST PUSH1 0x0 DUP1 REVERT JUMPDEST PUSH1 0x40 MLOAD SWAP1 PUSH1 0xA0 DUP3 ADD PUSH1 0x1 PUSH1 0x1 PUSH1 0x40 SHL SUB DUP2 GT DUP4 DUP3 LT OR PUSH2 0x717 JUMPI PUSH1 0x40 MSTORE JUMP JUMPDEST PUSH1 0x40 MLOAD SWAP2 SWAP1 PUSH1 0x1F ADD PUSH1 0x1F NOT AND DUP3 ADD PUSH1 0x1 PUSH1 0x1 PUSH1 0x40 SHL SUB DUP2 GT DUP4 DUP3 LT OR PUSH2 0x717 JUMPI PUSH1 0x40 MSTORE JUMP JUMPDEST SWAP1 PUSH1 0x1 DUP3 DUP2 SHR SWAP3 AND DUP1 ISZERO PUSH2 0x85D JUMPI JUMPDEST PUSH1 0x20 DUP4 LT EQ PUSH2 0x847 JUMPI JUMP JUMPDEST PUSH4 0x4E487B71 PUSH1 0xE0 SHL PUSH1 0x0 MSTORE PUSH1 0x22 PUSH1 0x4 MSTORE PUSH1 0x24 PUSH1 0x0 REVERT JUMPDEST SWAP2 PUSH1 0x7F AND SWAP2 PUSH2 0x83C JUMP JUMPDEST DUP2 DUP2 LT PUSH2 0x872 JUMPI POP POP JUMP JUMPDEST PUSH1 0x0 DUP2 SSTORE PUSH1 0x1 ADD PUSH2 0x867 JUMP INVALID PUSH1 0x80 PUSH1 0x40 MSTORE PUSH1 0x4 CALLDATASIZE LT ISZERO PUSH2 0x12 JUMPI PUSH1 0x0 DUP1 REVERT JUMPDEST PUSH1 0x0 CALLDATALOAD PUSH1 0xE0 SHR DUP1 PUSH4 0xAA621B8 EQ PUSH2 0xC89 JUMPI DUP1 PUSH4 0x19E1B8A2 EQ PUSH2 0xBF9 JUMPI DUP1 PUSH4 0x313CE567 EQ PUSH2 0xBDD JUMPI DUP1 PUSH4 0x36701A3E EQ PUSH2 0xAAA JUMPI DUP1 PUSH4 0x3A480811 EQ PUSH2 0xA2B JUMPI DUP1 PUSH4 0x54FD4D50 EQ PUSH2 0xA0D JUMPI DUP1 PUSH4 0x5DB8B00B EQ PUSH2 0x921 JUMPI DUP1 PUSH4 0x711703B4 EQ PUSH2 0x8EF JUMPI DUP1 PUSH4 0x7284E416 EQ PUSH2 0x822 JUMPI DUP1 PUSH4 0x8409C4E6 EQ PUSH2 0x60A JUMPI DUP1 PUSH4 0x893B2694 EQ PUSH2 0x5E1 JUMPI DUP1 PUSH4 0x8DA5CB5B EQ PUSH2 0x5B8 JUMPI DUP1 PUSH4 0x9A6FC8F5 EQ PUSH2 0x540 JUMPI DUP1 PUSH4 0xA3C4F4C1 EQ PUSH2 0x3B7 JUMPI DUP1 PUSH4 0xB53EEB6F EQ PUSH2 0x384 JUMPI DUP1 PUSH4 0xBB99B969 EQ PUSH2 0x349 JUMPI DUP1 PUSH4 0xBF0ECA7E EQ PUSH2 0x317 JUMPI DUP1 PUSH4 0xD27CD36B EQ PUSH2 0x2E7 JUMPI DUP1 PUSH4 0xF2FDE38B EQ PUSH2 0x250 JUMPI PUSH4 0xFEAF968C EQ PUSH2 0xF8 JUMPI PUSH1 0x0 DUP1 REVERT JUMPDEST CALLVALUE PUSH2 0x24B JUMPI PUSH1 0x0 CALLDATASIZE PUSH1 0x3 NOT ADD SLT PUSH2 0x24B JUMPI PUSH1 0x40 MLOAD PUSH4 0x1B380D1F PUSH1 0xE1 SHL DUP2 MSTORE PUSH1 0x20 PUSH1 0x4 DUP3 ADD MSTORE PUSH1 0x0 DUP2 PUSH1 0x5 SLOAD PUSH2 0x12C DUP2 PUSH2 0xF4D JUMP JUMPDEST SWAP1 DUP2 PUSH1 0x24 DUP5 ADD MSTORE PUSH1 0x1 DUP2 AND SWAP1 DUP2 PUSH1 0x0 EQ PUSH2 0x229 JUMPI POP PUSH1 0x1 EQ PUSH2 0x1E0 JUMPI JUMPDEST POP DUP1 PUSH1 0xA0 SWAP3 SUB DUP2 ADDRESS GAS STATICCALL DUP1 ISZERO PUSH2 0x1D4 JUMPI PUSH1 0x0 DUP1 SWAP2 DUP2 DUP3 SWAP1 DUP4 SWAP3 PUSH2 0x198 JUMPI JUMPDEST PUSH1 0x40 DUP1 MLOAD PUSH1 0x1 PUSH1 0x1 PUSH1 0x50 SHL SUB SWAP6 DUP7 AND DUP2 MSTORE PUSH1 0x20 DUP2 ADD SWAP7 SWAP1 SWAP7 MSTORE DUP6 ADD MSTORE PUSH1 0x60 DUP5 ADD MSTORE AND PUSH1 0x80 DUP3 ADD MSTORE DUP1 PUSH1 0xA0 DUP2 ADD JUMPDEST SUB SWAP1 RETURN JUMPDEST POP POP POP POP POP PUSH2 0x1C1 PUSH2 0x194 SWAP2 PUSH1 0xA0 RETURNDATASIZE PUSH1 0xA0 GT PUSH2 0x1CD JUMPI JUMPDEST PUSH2 0x1B9 DUP2 DUP4 PUSH2 0xEBF JUMP JUMPDEST DUP2 ADD SWAP1 PUSH2 0x1157 JUMP JUMPDEST SWAP3 SWAP5 POP DUP5 SWAP4 SWAP3 SWAP2 PUSH2 0x167 JUMP JUMPDEST POP RETURNDATASIZE PUSH2 0x1AF JUMP JUMPDEST PUSH1 0x40 MLOAD RETURNDATASIZE PUSH1 0x0 DUP3 RETURNDATACOPY RETURNDATASIZE SWAP1 REVERT JUMPDEST PUSH1 0x5 PUSH1 0x0 SWAP1 DUP2 MSTORE SWAP2 SWAP3 POP PUSH1 0x0 DUP1 MLOAD PUSH1 0x20 PUSH2 0x13C5 DUP4 CODECOPY DUP2 MLOAD SWAP2 MSTORE JUMPDEST DUP2 DUP4 LT PUSH2 0x20F JUMPI POP POP DUP2 ADD PUSH1 0x44 ADD SWAP1 DUP1 PUSH2 0x149 JUMP JUMPDEST DUP1 SLOAD PUSH1 0x44 DUP5 DUP8 ADD ADD MSTORE DUP5 SWAP4 POP PUSH1 0x20 SWAP1 SWAP3 ADD SWAP2 PUSH1 0x1 ADD PUSH2 0x1FA JUMP JUMPDEST PUSH1 0xA0 SWAP5 POP PUSH1 0x44 SWAP2 POP SWAP2 DUP4 SWAP3 PUSH1 0xFF NOT AND DUP3 DUP5 ADD MSTORE ISZERO ISZERO PUSH1 0x5 SHL DUP3 ADD ADD SWAP3 POP PUSH2 0x149 JUMP JUMPDEST PUSH1 0x0 DUP1 REVERT JUMPDEST CALLVALUE PUSH2 0x24B JUMPI PUSH1 0x20 CALLDATASIZE PUSH1 0x3 NOT ADD SLT PUSH2 0x24B JUMPI PUSH1 0x4 CALLDATALOAD PUSH1 0x1 PUSH1 0x1 PUSH1 0xA0 SHL SUB DUP2 AND SWAP1 DUP2 SWAP1 SUB PUSH2 0x24B JUMPI PUSH1 0x0 SLOAD PUSH2 0x28D CALLER PUSH1 0x1 PUSH1 0x1 PUSH1 0xA0 SHL SUB DUP4 AND EQ PUSH2 0x10EC JUMP JUMPDEST DUP2 ISZERO PUSH2 0x2A3 JUMPI PUSH1 0x1 PUSH1 0x1 PUSH1 0xA0 SHL SUB NOT AND OR PUSH1 0x0 SSTORE STOP JUMPDEST PUSH1 0x64 PUSH1 0x40 MLOAD PUSH3 0x461BCD PUSH1 0xE5 SHL DUP2 MSTORE PUSH1 0x20 PUSH1 0x4 DUP3 ADD MSTORE PUSH1 0x20 PUSH1 0x24 DUP3 ADD MSTORE PUSH32 0x4E6577206F776E65722063616E6E6F74206265207A65726F2061646472657373 PUSH1 0x44 DUP3 ADD MSTORE REVERT JUMPDEST CALLVALUE PUSH2 0x24B JUMPI PUSH1 0x0 CALLDATASIZE PUSH1 0x3 NOT ADD SLT PUSH2 0x24B JUMPI PUSH2 0x194 PUSH2 0x303 PUSH2 0xF87 JUMP JUMPDEST PUSH1 0x40 MLOAD SWAP2 DUP3 SWAP2 PUSH1 0x20 DUP4 MSTORE PUSH1 0x20 DUP4 ADD SWAP1 PUSH2 0x1051 JUMP JUMPDEST CALLVALUE PUSH2 0x24B JUMPI PUSH1 0x0 CALLDATASIZE PUSH1 0x3 NOT ADD SLT PUSH2 0x24B JUMPI PUSH1 0x20 PUSH1 0x23 PUSH1 0x40 MLOAD PUSH3 0x31B799 PUSH1 0xE9 SHL DUP2 MSTORE PUSH1 0x2 PUSH1 0x3 DUP3 ADD MSTORE KECCAK256 SLOAD PUSH1 0x40 MLOAD SWAP1 DUP2 MSTORE RETURN JUMPDEST CALLVALUE PUSH2 0x24B JUMPI PUSH1 0x0 CALLDATASIZE PUSH1 0x3 NOT ADD SLT PUSH2 0x24B JUMPI PUSH1 0x20 PUSH1 0x2C PUSH1 0x40 MLOAD PUSH12 0x3337B932B9BA2FB1B7BB32B9 PUSH1 0xA1 SHL DUP2 MSTORE PUSH1 0x2 PUSH1 0xC DUP3 ADD MSTORE KECCAK256 SLOAD PUSH1 0x40 MLOAD SWAP1 DUP2 MSTORE RETURN JUMPDEST CALLVALUE PUSH2 0x24B JUMPI PUSH1 0x0 CALLDATASIZE PUSH1 0x3 NOT ADD SLT PUSH2 0x24B JUMPI PUSH1 0x20 PUSH1 0x24 PUSH1 0x40 MLOAD PUSH4 0x706D3235 PUSH1 0xE0 SHL DUP2 MSTORE PUSH1 0x2 PUSH1 0x4 DUP3 ADD MSTORE KECCAK256 SLOAD PUSH1 0x40 MLOAD SWAP1 DUP2 MSTORE RETURN JUMPDEST CALLVALUE PUSH2 0x24B JUMPI PUSH1 0x0 CALLDATASIZE PUSH1 0x3 NOT ADD SLT PUSH2 0x24B JUMPI PUSH1 0x1 PUSH1 0x24 PUSH1 0x40 MLOAD PUSH4 0x706D3235 PUSH1 0xE0 SHL DUP2 MSTORE PUSH1 0x2 PUSH1 0x4 DUP3 ADD MSTORE KECCAK256 ADD SLOAD DUP1 PUSH1 0x1 PUSH1 0x23 PUSH1 0x40 MLOAD PUSH3 0x31B799 PUSH1 0xE9 SHL DUP2 MSTORE PUSH1 0x2 PUSH1 0x3 DUP3 ADD MSTORE KECCAK256 ADD SLOAD GT PUSH2 0x520 JUMPI JUMPDEST DUP1 PUSH1 0x1 PUSH1 0x2C PUSH1 0x40 MLOAD PUSH12 0x3337B932B9BA2FB1B7BB32B9 PUSH1 0xA1 SHL DUP2 MSTORE PUSH1 0x2 PUSH1 0xC DUP3 ADD MSTORE KECCAK256 ADD SLOAD GT PUSH2 0x4F7 JUMPI JUMPDEST DUP1 PUSH1 0x1 PUSH1 0x23 PUSH1 0x40 MLOAD PUSH3 0x617169 PUSH1 0xE8 SHL DUP2 MSTORE PUSH1 0x2 PUSH1 0x3 DUP3 ADD MSTORE KECCAK256 ADD SLOAD GT PUSH2 0x4D6 JUMPI JUMPDEST PUSH1 0xA0 SWAP1 PUSH1 0x24 PUSH1 0x40 MLOAD PUSH4 0x706D3235 PUSH1 0xE0 SHL DUP2 MSTORE PUSH1 0x2 PUSH1 0x4 DUP3 ADD MSTORE KECCAK256 SLOAD SWAP1 PUSH1 0x23 PUSH1 0x40 MLOAD PUSH3 0x31B799 PUSH1 0xE9 SHL DUP2 MSTORE PUSH1 0x2 PUSH1 0x3 DUP3 ADD MSTORE KECCAK256 SLOAD PUSH1 0x2C PUSH1 0x40 MLOAD PUSH12 0x3337B932B9BA2FB1B7BB32B9 PUSH1 0xA1 SHL DUP2 MSTORE PUSH1 0x2 PUSH1 0xC DUP3 ADD MSTORE KECCAK256 SLOAD PUSH1 0x23 PUSH1 0x40 MLOAD PUSH3 0x617169 PUSH1 0xE8 SHL DUP2 MSTORE PUSH1 0x2 PUSH1 0x3 DUP3 ADD MSTORE KECCAK256 SLOAD SWAP2 PUSH1 0x40 MLOAD SWAP5 DUP6 MSTORE PUSH1 0x20 DUP6 ADD MSTORE PUSH1 0x40 DUP5 ADD MSTORE PUSH1 0x60 DUP4 ADD MSTORE PUSH1 0x80 DUP3 ADD MSTORE RETURN JUMPDEST POP PUSH1 0x40 MLOAD PUSH3 0x617169 PUSH1 0xE8 SHL DUP2 MSTORE PUSH1 0x2 PUSH1 0x3 DUP3 ADD MSTORE PUSH1 0x23 SWAP1 KECCAK256 PUSH1 0x1 ADD SLOAD PUSH2 0x44F JUMP JUMPDEST POP PUSH1 0x1 PUSH1 0x2C PUSH1 0x40 MLOAD PUSH12 0x3337B932B9BA2FB1B7BB32B9 PUSH1 0xA1 SHL DUP2 MSTORE PUSH1 0x2 PUSH1 0xC DUP3 ADD MSTORE KECCAK256 ADD SLOAD PUSH2 0x42E JUMP JUMPDEST POP PUSH1 0x1 PUSH1 0x23 PUSH1 0x40 MLOAD PUSH3 0x31B799 PUSH1 0xE9 SHL DUP2 MSTORE PUSH1 0x2 PUSH1 0x3 DUP3 ADD MSTORE KECCAK256 ADD SLOAD PUSH2 0x404 JUMP JUMPDEST CALLVALUE PUSH2 0x24B JUMPI PUSH1 0x20 CALLDATASIZE PUSH1 0x3 NOT ADD SLT PUSH2 0x24B JUMPI PUSH1 0x4 CALLDATALOAD PUSH1 0x1 PUSH1 0x1 PUSH1 0x50 SHL SUB DUP2 AND SUB PUSH2 0x24B JUMPI PUSH1 0x40 MLOAD PUSH4 0x3FABE5A3 PUSH1 0xE2 SHL DUP2 MSTORE PUSH1 0xA0 DUP2 PUSH1 0x4 DUP2 ADDRESS GAS STATICCALL DUP1 ISZERO PUSH2 0x1D4 JUMPI PUSH1 0x0 DUP1 SWAP2 DUP2 DUP3 SWAP1 DUP4 SWAP3 PUSH2 0x198 JUMPI PUSH1 0x40 DUP1 MLOAD PUSH1 0x1 PUSH1 0x1 PUSH1 0x50 SHL SUB SWAP6 DUP7 AND DUP2 MSTORE PUSH1 0x20 DUP2 ADD SWAP7 SWAP1 SWAP7 MSTORE DUP6 ADD MSTORE PUSH1 0x60 DUP5 ADD MSTORE AND PUSH1 0x80 DUP3 ADD MSTORE PUSH1 0xA0 SWAP1 RETURN JUMPDEST CALLVALUE PUSH2 0x24B JUMPI PUSH1 0x0 CALLDATASIZE PUSH1 0x3 NOT ADD SLT PUSH2 0x24B JUMPI PUSH1 0x0 SLOAD PUSH1 0x40 MLOAD PUSH1 0x1 PUSH1 0x1 PUSH1 0xA0 SHL SUB SWAP1 SWAP2 AND DUP2 MSTORE PUSH1 0x20 SWAP1 RETURN JUMPDEST CALLVALUE PUSH2 0x24B JUMPI PUSH1 0x0 CALLDATASIZE PUSH1 0x3 NOT ADD SLT PUSH2 0x24B JUMPI PUSH1 0x1 SLOAD PUSH1 0x40 MLOAD PUSH1 0x1 PUSH1 0x1 PUSH1 0xA0 SHL SUB SWAP1 SWAP2 AND DUP2 MSTORE PUSH1 0x20 SWAP1 RETURN JUMPDEST CALLVALUE PUSH2 0x24B JUMPI PUSH1 0x20 CALLDATASIZE PUSH1 0x3 NOT ADD SLT PUSH2 0x24B JUMPI PUSH1 0x4 CALLDATALOAD PUSH1 0x1 PUSH1 0x1 PUSH1 0x40 SHL SUB DUP2 GT PUSH2 0x24B JUMPI PUSH2 0x63A SWAP1 CALLDATASIZE SWAP1 PUSH1 0x4 ADD PUSH2 0xEF7 JUMP JUMPDEST PUSH2 0x64F PUSH1 0x1 DUP1 PUSH1 0xA0 SHL SUB PUSH1 0x0 SLOAD AND CALLER EQ PUSH2 0x10EC JUMP JUMPDEST PUSH2 0x657 PUSH2 0xF87 JUMP JUMPDEST DUP2 MLOAD SWAP2 PUSH1 0x1 PUSH1 0x1 PUSH1 0x40 SHL SUB DUP4 GT PUSH2 0x80C JUMPI PUSH2 0x673 PUSH1 0x5 SLOAD PUSH2 0xF4D JUMP JUMPDEST PUSH1 0x1F DUP2 GT PUSH2 0x79F JUMPI JUMPDEST POP PUSH1 0x20 SWAP3 PUSH1 0x1F DUP2 GT PUSH1 0x1 EQ PUSH2 0x706 JUMPI PUSH2 0x6E8 SWAP3 SWAP2 DUP2 PUSH2 0x6F6 SWAP3 PUSH32 0xCDD4E2A39FF07B5539D8722EEA44204C1FC6A85E94FA22E0CE552C88908FBDCA SWAP7 PUSH1 0x0 SWAP2 PUSH2 0x6FB JUMPI JUMPDEST POP DUP2 PUSH1 0x1 SHL SWAP2 PUSH1 0x0 NOT SWAP1 PUSH1 0x3 SHL SHR NOT AND OR PUSH1 0x5 SSTORE JUMPDEST PUSH1 0x40 MLOAD SWAP4 DUP5 SWAP4 PUSH1 0x40 DUP6 MSTORE PUSH1 0x40 DUP6 ADD SWAP1 PUSH2 0x1051 JUMP JUMPDEST SWAP1 DUP4 DUP3 SUB PUSH1 0x20 DUP6 ADD MSTORE PUSH2 0x1051 JUMP JUMPDEST SUB SWAP1 LOG1 STOP JUMPDEST SWAP1 POP DUP3 ADD MLOAD DUP8 PUSH2 0x6BF JUMP JUMPDEST PUSH1 0x1F NOT DUP2 AND PUSH1 0x5 PUSH1 0x0 MSTORE PUSH1 0x0 DUP1 MLOAD PUSH1 0x20 PUSH2 0x13C5 DUP4 CODECOPY DUP2 MLOAD SWAP2 MSTORE SWAP1 PUSH1 0x0 JUMPDEST DUP2 DUP2 LT PUSH2 0x787 JUMPI POP DUP3 PUSH2 0x6E8 SWAP6 SWAP5 SWAP3 PUSH32 0xCDD4E2A39FF07B5539D8722EEA44204C1FC6A85E94FA22E0CE552C88908FBDCA SWAP8 PUSH2 0x6F6 SWAP6 PUSH1 0x1 SWAP5 LT PUSH2 0x76E JUMPI JUMPDEST POP POP DUP2 SHL ADD PUSH1 0x5 SSTORE PUSH2 0x6D4 JUMP JUMPDEST DUP5 ADD MLOAD PUSH1 0x0 NOT PUSH1 0xF8 DUP5 PUSH1 0x3 SHL AND SHR NOT AND SWAP1 SSTORE DUP8 DUP1 PUSH2 0x761 JUMP JUMPDEST DUP5 DUP8 ADD MLOAD DUP4 SSTORE PUSH1 0x20 SWAP7 DUP8 ADD SWAP7 PUSH1 0x1 SWAP1 SWAP4 ADD SWAP3 ADD PUSH2 0x723 JUMP JUMPDEST PUSH1 0x5 PUSH1 0x0 MSTORE PUSH1 0x1F DUP5 ADD PUSH1 0x5 SHR PUSH1 0x0 DUP1 MLOAD PUSH1 0x20 PUSH2 0x13C5 DUP4 CODECOPY DUP2 MLOAD SWAP2 MSTORE ADD SWAP1 PUSH1 0x20 DUP6 LT PUSH2 0x7F6 JUMPI JUMPDEST PUSH1 0x1F ADD PUSH1 0x5 SHR PUSH1 0x0 DUP1 MLOAD PUSH1 0x20 PUSH2 0x13C5 DUP4 CODECOPY DUP2 MLOAD SWAP2 MSTORE ADD SWAP1 JUMPDEST DUP2 DUP2 LT PUSH2 0x7EA JUMPI POP PUSH2 0x67C JUMP JUMPDEST PUSH1 0x0 DUP2 SSTORE PUSH1 0x1 ADD PUSH2 0x7DD JUMP JUMPDEST PUSH1 0x0 DUP1 MLOAD PUSH1 0x20 PUSH2 0x13C5 DUP4 CODECOPY DUP2 MLOAD SWAP2 MSTORE SWAP2 POP PUSH2 0x7C5 JUMP JUMPDEST PUSH4 0x4E487B71 PUSH1 0xE0 SHL PUSH1 0x0 MSTORE PUSH1 0x41 PUSH1 0x4 MSTORE PUSH1 0x24 PUSH1 0x0 REVERT JUMPDEST CALLVALUE PUSH2 0x24B JUMPI PUSH1 0x0 CALLDATASIZE PUSH1 0x3 NOT ADD SLT PUSH2 0x24B JUMPI PUSH1 0x40 MLOAD PUSH1 0x0 PUSH1 0x6 SLOAD PUSH2 0x844 DUP2 PUSH2 0xF4D JUMP JUMPDEST DUP1 DUP5 MSTORE SWAP1 PUSH1 0x1 DUP2 AND SWAP1 DUP2 ISZERO PUSH2 0x8CB JUMPI POP PUSH1 0x1 EQ PUSH2 0x86C JUMPI JUMPDEST PUSH2 0x194 DUP4 PUSH2 0x303 DUP2 DUP6 SUB DUP3 PUSH2 0xEBF JUMP JUMPDEST PUSH1 0x6 PUSH1 0x0 SWAP1 DUP2 MSTORE PUSH32 0xF652222313E28459528D920B65115C16C04F3EFC82AAEDC97BE59F3F377C0D3F SWAP4 SWAP3 POP SWAP1 JUMPDEST DUP1 DUP3 LT PUSH2 0x8B1 JUMPI POP SWAP1 SWAP2 POP DUP2 ADD PUSH1 0x20 ADD PUSH2 0x303 PUSH2 0x85C JUMP JUMPDEST SWAP2 SWAP3 PUSH1 0x1 DUP2 PUSH1 0x20 SWAP3 SLOAD DUP4 DUP6 DUP9 ADD ADD MSTORE ADD SWAP2 ADD SWAP1 SWAP3 SWAP2 PUSH2 0x899 JUMP JUMPDEST PUSH1 0xFF NOT AND PUSH1 0x20 DUP1 DUP7 ADD SWAP2 SWAP1 SWAP2 MSTORE SWAP2 ISZERO ISZERO PUSH1 0x5 SHL DUP5 ADD SWAP1 SWAP2 ADD SWAP2 POP PUSH2 0x303 SWAP1 POP PUSH2 0x85C JUMP JUMPDEST CALLVALUE PUSH2 0x24B JUMPI PUSH1 0x0 CALLDATASIZE PUSH1 0x3 NOT ADD SLT PUSH2 0x24B JUMPI PUSH1 0x20 PUSH1 0x23 PUSH1 0x40 MLOAD PUSH3 0x617169 PUSH1 0xE8 SHL DUP2 MSTORE PUSH1 0x2 PUSH1 0x3 DUP3 ADD MSTORE KECCAK256 SLOAD PUSH1 0x40 MLOAD SWAP1 DUP2 MSTORE RETURN JUMPDEST CALLVALUE PUSH2 0x24B JUMPI PUSH1 0x20 CALLDATASIZE PUSH1 0x3 NOT ADD SLT PUSH2 0x24B JUMPI PUSH1 0x4 CALLDATALOAD PUSH1 0x4 SLOAD DUP2 LT ISZERO PUSH2 0x24B JUMPI PUSH1 0x0 SWAP1 PUSH1 0x4 DUP3 MSTORE PUSH32 0x8A35ACFBC15FF81A39AE7D344FD709F28E8600B4AA8C65C6B64BFE7FE36BD19B ADD SWAP1 PUSH1 0x40 MLOAD SWAP2 DUP2 DUP2 SLOAD SWAP2 PUSH2 0x97A DUP4 PUSH2 0xF4D JUMP JUMPDEST DUP1 DUP7 MSTORE SWAP3 PUSH1 0x1 DUP2 AND SWAP1 DUP2 ISZERO PUSH2 0x9E3 JUMPI POP PUSH1 0x1 EQ PUSH2 0x9A2 JUMPI JUMPDEST PUSH2 0x194 DUP6 PUSH2 0x303 DUP2 DUP8 SUB DUP3 PUSH2 0xEBF JUMP JUMPDEST DUP2 MSTORE PUSH1 0x20 DUP2 KECCAK256 SWAP4 SWAP3 POP SWAP1 JUMPDEST DUP1 DUP3 LT PUSH2 0x9C9 JUMPI POP SWAP1 SWAP2 POP DUP2 ADD PUSH1 0x20 ADD PUSH2 0x303 DUP3 PUSH2 0x194 PUSH2 0x992 JUMP JUMPDEST SWAP2 SWAP3 PUSH1 0x1 DUP2 PUSH1 0x20 SWAP3 SLOAD DUP4 DUP6 DUP9 ADD ADD MSTORE ADD SWAP2 ADD SWAP1 SWAP3 SWAP2 PUSH2 0x9AD JUMP JUMPDEST DUP7 SWAP6 POP PUSH2 0x194 SWAP7 SWAP4 POP PUSH1 0x20 SWAP3 POP PUSH2 0x303 SWAP5 SWAP2 POP PUSH1 0xFF NOT AND DUP3 DUP5 ADD MSTORE ISZERO ISZERO PUSH1 0x5 SHL DUP3 ADD ADD SWAP3 SWAP4 PUSH2 0x992 JUMP JUMPDEST CALLVALUE PUSH2 0x24B JUMPI PUSH1 0x0 CALLDATASIZE PUSH1 0x3 NOT ADD SLT PUSH2 0x24B JUMPI PUSH1 0x20 PUSH1 0x7 SLOAD PUSH1 0x40 MLOAD SWAP1 DUP2 MSTORE RETURN JUMPDEST CALLVALUE PUSH2 0x24B JUMPI PUSH1 0x20 CALLDATASIZE PUSH1 0x3 NOT ADD SLT PUSH2 0x24B JUMPI PUSH1 0x4 CALLDATALOAD PUSH1 0x1 PUSH1 0x1 PUSH1 0xA0 SHL SUB DUP2 AND SWAP1 DUP2 SWAP1 SUB PUSH2 0x24B JUMPI PUSH2 0xA66 PUSH1 0x1 DUP1 PUSH1 0xA0 SHL SUB PUSH1 0x0 SLOAD AND CALLER EQ PUSH2 0x10EC JUMP JUMPDEST PUSH1 0x1 DUP1 SLOAD PUSH1 0x1 PUSH1 0x1 PUSH1 0xA0 SHL SUB NOT DUP2 AND DUP4 OR SWAP1 SWAP2 SSTORE PUSH1 0x1 PUSH1 0x1 PUSH1 0xA0 SHL SUB AND PUSH32 0xD92FA636AC165804C9C0D4135EACCFFEA632B9A9B969E83E96E71BE118E77004 PUSH1 0x0 DUP1 LOG3 STOP JUMPDEST CALLVALUE PUSH2 0x24B JUMPI PUSH1 0x20 CALLDATASIZE PUSH1 0x3 NOT ADD SLT PUSH2 0x24B JUMPI PUSH1 0x4 CALLDATALOAD PUSH1 0x1 PUSH1 0x1 PUSH1 0x40 SHL SUB DUP2 GT PUSH2 0x24B JUMPI PUSH1 0x20 PUSH2 0xADF PUSH2 0xAF2 SWAP3 CALLDATASIZE SWAP1 PUSH1 0x4 ADD PUSH2 0xEF7 JUMP JUMPDEST DUP2 PUSH1 0x40 MLOAD SWAP4 DUP3 DUP6 DUP1 SWAP5 MLOAD SWAP4 DUP5 SWAP3 ADD PUSH2 0x102E JUMP JUMPDEST DUP2 ADD PUSH1 0x2 DUP2 MSTORE SUB ADD SWAP1 KECCAK256 PUSH1 0x40 MLOAD PUSH2 0xB08 DUP2 PUSH2 0xEA4 JUMP JUMPDEST DUP2 SLOAD DUP2 MSTORE PUSH1 0x1 DUP3 ADD SLOAD PUSH1 0x20 DUP3 ADD DUP2 DUP2 MSTORE PUSH1 0x3 PUSH1 0x2 DUP6 ADD SLOAD SWAP5 PUSH1 0x40 DUP6 ADD SWAP6 DUP7 MSTORE ADD SLOAD PUSH1 0x60 DUP5 ADD SWAP3 PUSH1 0x1 PUSH1 0x1 PUSH1 0x50 SHL SUB DUP3 AND DUP5 MSTORE PUSH1 0x1 PUSH1 0x1 PUSH1 0x50 SHL SUB PUSH1 0x80 DUP7 ADD SWAP3 PUSH1 0x50 SHR AND DUP3 MSTORE ISZERO PUSH2 0xB8E JUMPI SWAP2 MLOAD SWAP3 MLOAD SWAP4 MLOAD SWAP1 MLOAD SWAP2 MLOAD PUSH1 0x40 DUP1 MLOAD PUSH1 0x1 PUSH1 0x1 PUSH1 0x50 SHL SUB SWAP6 DUP7 AND DUP2 MSTORE PUSH1 0x20 DUP2 ADD SWAP7 SWAP1 SWAP7 MSTORE DUP6 ADD SWAP2 SWAP1 SWAP2 MSTORE PUSH1 0x60 DUP5 ADD SWAP2 SWAP1 SWAP2 MSTORE AND PUSH1 0x80 DUP3 ADD MSTORE PUSH1 0xA0 SWAP1 RETURN JUMPDEST PUSH1 0x40 MLOAD PUSH3 0x461BCD PUSH1 0xE5 SHL DUP2 MSTORE PUSH1 0x20 PUSH1 0x4 DUP3 ADD MSTORE PUSH1 0x21 PUSH1 0x24 DUP3 ADD MSTORE PUSH32 0x4E6F206461746120617661696C61626C6520666F722074686973206D65747269 PUSH1 0x44 DUP3 ADD MSTORE PUSH1 0x63 PUSH1 0xF8 SHL PUSH1 0x64 DUP3 ADD MSTORE PUSH1 0x84 SWAP1 REVERT JUMPDEST CALLVALUE PUSH2 0x24B JUMPI PUSH1 0x0 CALLDATASIZE PUSH1 0x3 NOT ADD SLT PUSH2 0x24B JUMPI PUSH1 0x20 PUSH1 0x40 MLOAD PUSH1 0x2 DUP2 MSTORE RETURN JUMPDEST CALLVALUE PUSH2 0x24B JUMPI PUSH1 0x60 CALLDATASIZE PUSH1 0x3 NOT ADD SLT PUSH2 0x24B JUMPI PUSH1 0x4 CALLDATALOAD PUSH1 0x1 PUSH1 0x1 PUSH1 0x40 SHL SUB DUP2 GT PUSH2 0x24B JUMPI PUSH2 0xC29 SWAP1 CALLDATASIZE SWAP1 PUSH1 0x4 ADD PUSH2 0xEF7 JUMP JUMPDEST PUSH1 0x44 CALLDATALOAD SWAP1 PUSH1 0x1 PUSH1 0x1 PUSH1 0x40 SHL SUB DUP3 GT PUSH2 0x24B JUMPI PUSH2 0xC4C PUSH2 0xC73 SWAP3 CALLDATASIZE SWAP1 PUSH1 0x4 ADD PUSH2 0xEF7 JUMP JUMPDEST SWAP1 PUSH1 0x1 DUP1 PUSH1 0xA0 SHL SUB PUSH1 0x0 SLOAD AND CALLER EQ DUP1 ISZERO PUSH2 0xC75 JUMPI JUMPDEST PUSH2 0xC6A SWAP1 PUSH2 0x1076 JUMP JUMPDEST PUSH1 0x24 CALLDATALOAD SWAP1 PUSH2 0x118C JUMP JUMPDEST STOP JUMPDEST POP PUSH1 0x1 SLOAD PUSH1 0x1 PUSH1 0x1 PUSH1 0xA0 SHL SUB AND CALLER EQ PUSH2 0xC61 JUMP JUMPDEST CALLVALUE PUSH2 0x24B JUMPI PUSH1 0x60 CALLDATASIZE PUSH1 0x3 NOT ADD SLT PUSH2 0x24B JUMPI PUSH1 0x4 CALLDATALOAD PUSH1 0x1 PUSH1 0x1 PUSH1 0x40 SHL SUB DUP2 GT PUSH2 0x24B JUMPI CALLDATASIZE PUSH1 0x23 DUP3 ADD SLT ISZERO PUSH2 0x24B JUMPI DUP1 PUSH1 0x4 ADD CALLDATALOAD PUSH2 0xCC4 DUP2 PUSH2 0xEE0 JUMP JUMPDEST SWAP2 PUSH2 0xCD2 PUSH1 0x40 MLOAD SWAP4 DUP5 PUSH2 0xEBF JUMP JUMPDEST DUP2 DUP4 MSTORE PUSH1 0x24 PUSH1 0x20 DUP5 ADD SWAP3 PUSH1 0x5 SHL DUP3 ADD ADD SWAP1 CALLDATASIZE DUP3 GT PUSH2 0x24B JUMPI PUSH1 0x24 DUP2 ADD SWAP3 JUMPDEST DUP3 DUP5 LT PUSH2 0xE75 JUMPI PUSH1 0x24 CALLDATALOAD DUP6 PUSH1 0x1 PUSH1 0x1 PUSH1 0x40 SHL SUB DUP3 GT PUSH2 0x24B JUMPI CALLDATASIZE PUSH1 0x23 DUP4 ADD SLT ISZERO PUSH2 0x24B JUMPI DUP2 PUSH1 0x4 ADD CALLDATALOAD SWAP2 PUSH2 0xD23 DUP4 PUSH2 0xEE0 JUMP JUMPDEST SWAP3 PUSH2 0xD31 PUSH1 0x40 MLOAD SWAP5 DUP6 PUSH2 0xEBF JUMP JUMPDEST DUP1 DUP5 MSTORE PUSH1 0x24 PUSH1 0x20 DUP6 ADD SWAP2 PUSH1 0x5 SHL DUP4 ADD ADD SWAP2 CALLDATASIZE DUP4 GT PUSH2 0x24B JUMPI PUSH1 0x24 ADD SWAP1 JUMPDEST DUP3 DUP3 LT PUSH2 0xE65 JUMPI POP POP POP PUSH1 0x44 CALLDATALOAD PUSH1 0x1 PUSH1 0x1 PUSH1 0x40 SHL SUB DUP2 GT PUSH2 0x24B JUMPI PUSH2 0xD77 SWAP1 CALLDATASIZE SWAP1 PUSH1 0x4 ADD PUSH2 0xEF7 JUMP JUMPDEST SWAP1 PUSH1 0x1 DUP1 PUSH1 0xA0 SHL SUB PUSH1 0x0 SLOAD AND CALLER EQ DUP1 ISZERO PUSH2 0xE51 JUMPI JUMPDEST PUSH2 0xD95 SWAP1 PUSH2 0x1076 JUMP JUMPDEST DUP1 MLOAD DUP4 MLOAD SUB PUSH2 0xE13 JUMPI DUP1 MLOAD ISZERO PUSH2 0xDDA JUMPI PUSH1 0x0 JUMPDEST DUP2 MLOAD DUP2 LT ISZERO PUSH2 0xC73 JUMPI DUP1 PUSH2 0xDD4 DUP5 PUSH2 0xDC2 PUSH1 0x1 SWAP5 DUP7 PUSH2 0x10C2 JUMP JUMPDEST MLOAD PUSH2 0xDCD DUP5 DUP10 PUSH2 0x10C2 JUMP JUMPDEST MLOAD SWAP1 PUSH2 0x118C JUMP JUMPDEST ADD PUSH2 0xDA8 JUMP JUMPDEST PUSH1 0x40 MLOAD PUSH3 0x461BCD PUSH1 0xE5 SHL DUP2 MSTORE PUSH1 0x20 PUSH1 0x4 DUP3 ADD MSTORE PUSH1 0x11 PUSH1 0x24 DUP3 ADD MSTORE PUSH17 0x4E6F206461746120746F20757064617465 PUSH1 0x78 SHL PUSH1 0x44 DUP3 ADD MSTORE PUSH1 0x64 SWAP1 REVERT JUMPDEST PUSH1 0x40 MLOAD PUSH3 0x461BCD PUSH1 0xE5 SHL DUP2 MSTORE PUSH1 0x20 PUSH1 0x4 DUP3 ADD MSTORE PUSH1 0x16 PUSH1 0x24 DUP3 ADD MSTORE PUSH22 0x82E4E4C2F2E640D8CADCCEE8D040DAD2E6DAC2E8C6D PUSH1 0x53 SHL PUSH1 0x44 DUP3 ADD MSTORE PUSH1 0x64 SWAP1 REVERT JUMPDEST POP PUSH1 0x1 SLOAD PUSH1 0x1 PUSH1 0x1 PUSH1 0xA0 SHL SUB AND CALLER EQ PUSH2 0xD8C JUMP JUMPDEST DUP2 CALLDATALOAD DUP2 MSTORE PUSH1 0x20 SWAP2 DUP3 ADD SWAP2 ADD PUSH2 0xD4E JUMP JUMPDEST DUP4 CALLDATALOAD PUSH1 0x1 PUSH1 0x1 PUSH1 0x40 SHL SUB DUP2 GT PUSH2 0x24B JUMPI PUSH1 0x20 SWAP2 PUSH2 0xE99 DUP4 SWAP3 PUSH1 0x24 CALLDATASIZE SWAP2 DUP8 ADD ADD PUSH2 0xEF7 JUMP JUMPDEST DUP2 MSTORE ADD SWAP4 ADD SWAP3 PUSH2 0xCF0 JUMP JUMPDEST PUSH1 0xA0 DUP2 ADD SWAP1 DUP2 LT PUSH1 0x1 PUSH1 0x1 PUSH1 0x40 SHL SUB DUP3 GT OR PUSH2 0x80C JUMPI PUSH1 0x40 MSTORE JUMP JUMPDEST SWAP1 PUSH1 0x1F DUP1 NOT SWAP2 ADD AND DUP2 ADD SWAP1 DUP2 LT PUSH1 0x1 PUSH1 0x1 PUSH1 0x40 SHL SUB DUP3 GT OR PUSH2 0x80C JUMPI PUSH1 0x40 MSTORE JUMP JUMPDEST PUSH1 0x1 PUSH1 0x1 PUSH1 0x40 SHL SUB DUP2 GT PUSH2 0x80C JUMPI PUSH1 0x5 SHL PUSH1 0x20 ADD SWAP1 JUMP JUMPDEST DUP2 PUSH1 0x1F DUP3 ADD SLT ISZERO PUSH2 0x24B JUMPI DUP1 CALLDATALOAD SWAP1 PUSH1 0x1 PUSH1 0x1 PUSH1 0x40 SHL SUB DUP3 GT PUSH2 0x80C JUMPI PUSH1 0x40 MLOAD SWAP3 PUSH2 0xF2B PUSH1 0x1F DUP5 ADD PUSH1 0x1F NOT AND PUSH1 0x20 ADD DUP6 PUSH2 0xEBF JUMP JUMPDEST DUP3 DUP5 MSTORE PUSH1 0x20 DUP4 DUP4 ADD ADD GT PUSH2 0x24B JUMPI DUP2 PUSH1 0x0 SWAP3 PUSH1 0x20 DUP1 SWAP4 ADD DUP4 DUP7 ADD CALLDATACOPY DUP4 ADD ADD MSTORE SWAP1 JUMP JUMPDEST SWAP1 PUSH1 0x1 DUP3 DUP2 SHR SWAP3 AND DUP1 ISZERO PUSH2 0xF7D JUMPI JUMPDEST PUSH1 0x20 DUP4 LT EQ PUSH2 0xF67 JUMPI JUMP JUMPDEST PUSH4 0x4E487B71 PUSH1 0xE0 SHL PUSH1 0x0 MSTORE PUSH1 0x22 PUSH1 0x4 MSTORE PUSH1 0x24 PUSH1 0x0 REVERT JUMPDEST SWAP2 PUSH1 0x7F AND SWAP2 PUSH2 0xF5C JUMP JUMPDEST PUSH1 0x40 MLOAD SWAP1 PUSH1 0x0 DUP3 PUSH1 0x5 SLOAD SWAP2 PUSH2 0xF9B DUP4 PUSH2 0xF4D JUMP JUMPDEST DUP1 DUP4 MSTORE SWAP3 PUSH1 0x1 DUP2 AND SWAP1 DUP2 ISZERO PUSH2 0x100F JUMPI POP PUSH1 0x1 EQ PUSH2 0xFC1 JUMPI JUMPDEST PUSH2 0xFBF SWAP3 POP SUB DUP4 PUSH2 0xEBF JUMP JUMPDEST JUMP JUMPDEST POP PUSH1 0x5 PUSH1 0x0 SWAP1 DUP2 MSTORE SWAP1 SWAP2 PUSH1 0x0 DUP1 MLOAD PUSH1 0x20 PUSH2 0x13C5 DUP4 CODECOPY DUP2 MLOAD SWAP2 MSTORE JUMPDEST DUP2 DUP4 LT PUSH2 0xFF3 JUMPI POP POP SWAP1 PUSH1 0x20 PUSH2 0xFBF SWAP3 DUP3 ADD ADD PUSH2 0xFB3 JUMP JUMPDEST PUSH1 0x20 SWAP2 SWAP4 POP DUP1 PUSH1 0x1 SWAP2 SLOAD DUP4 DUP6 DUP10 ADD ADD MSTORE ADD SWAP2 ADD SWAP1 SWAP2 DUP5 SWAP3 PUSH2 0xFDB JUMP JUMPDEST PUSH1 0x20 SWAP3 POP PUSH2 0xFBF SWAP5 SWAP2 POP PUSH1 0xFF NOT AND DUP3 DUP5 ADD MSTORE ISZERO ISZERO PUSH1 0x5 SHL DUP3 ADD ADD PUSH2 0xFB3 JUMP JUMPDEST PUSH1 0x0 JUMPDEST DUP4 DUP2 LT PUSH2 0x1041 JUMPI POP POP PUSH1 0x0 SWAP2 ADD MSTORE JUMP JUMPDEST DUP2 DUP2 ADD MLOAD DUP4 DUP3 ADD MSTORE PUSH1 0x20 ADD PUSH2 0x1031 JUMP JUMPDEST SWAP1 PUSH1 0x20 SWAP2 PUSH2 0x106A DUP2 MLOAD DUP1 SWAP3 DUP2 DUP6 MSTORE DUP6 DUP1 DUP7 ADD SWAP2 ADD PUSH2 0x102E JUMP JUMPDEST PUSH1 0x1F ADD PUSH1 0x1F NOT AND ADD ADD SWAP1 JUMP JUMPDEST ISZERO PUSH2 0x107D JUMPI JUMP JUMPDEST PUSH1 0x40 MLOAD PUSH3 0x461BCD PUSH1 0xE5 SHL DUP2 MSTORE PUSH1 0x20 PUSH1 0x4 DUP3 ADD MSTORE PUSH1 0x1D PUSH1 0x24 DUP3 ADD MSTORE PUSH32 0x4E6F7420617574686F72697A656420746F207570646174652064617461000000 PUSH1 0x44 DUP3 ADD MSTORE PUSH1 0x64 SWAP1 REVERT JUMPDEST DUP1 MLOAD DUP3 LT ISZERO PUSH2 0x10D6 JUMPI PUSH1 0x20 SWAP2 PUSH1 0x5 SHL ADD ADD SWAP1 JUMP JUMPDEST PUSH4 0x4E487B71 PUSH1 0xE0 SHL PUSH1 0x0 MSTORE PUSH1 0x32 PUSH1 0x4 MSTORE PUSH1 0x24 PUSH1 0x0 REVERT JUMPDEST ISZERO PUSH2 0x10F3 JUMPI JUMP JUMPDEST PUSH1 0x40 MLOAD PUSH3 0x461BCD PUSH1 0xE5 SHL DUP2 MSTORE PUSH1 0x20 PUSH1 0x4 DUP3 ADD MSTORE PUSH1 0x22 PUSH1 0x24 DUP3 ADD MSTORE PUSH32 0x4F6E6C79206F776E65722063616E20706572666F726D20746869732061637469 PUSH1 0x44 DUP3 ADD MSTORE PUSH2 0x37B7 PUSH1 0xF1 SHL PUSH1 0x64 DUP3 ADD MSTORE PUSH1 0x84 SWAP1 REVERT JUMPDEST MLOAD SWAP1 PUSH1 0x1 PUSH1 0x1 PUSH1 0x50 SHL SUB DUP3 AND DUP3 SUB PUSH2 0x24B JUMPI JUMP JUMPDEST SWAP1 DUP2 PUSH1 0xA0 SWAP2 SUB SLT PUSH2 0x24B JUMPI PUSH2 0x116B DUP2 PUSH2 0x1143 JUMP JUMPDEST SWAP2 PUSH1 0x20 DUP3 ADD MLOAD SWAP2 PUSH1 0x40 DUP2 ADD MLOAD SWAP2 PUSH2 0x1189 PUSH1 0x80 PUSH1 0x60 DUP5 ADD MLOAD SWAP4 ADD PUSH2 0x1143 JUMP JUMPDEST SWAP1 JUMP JUMPDEST SWAP1 DUP2 MLOAD ISZERO PUSH2 0x1386 JUMPI PUSH1 0x0 DUP2 SLT PUSH2 0x132F JUMPI PUSH1 0x40 MLOAD SWAP1 PUSH1 0x1 PUSH1 0x1 PUSH1 0x1 PUSH1 0x50 SHL SUB DUP5 MLOAD SWAP4 PUSH1 0x20 DUP2 DUP2 DUP9 ADD SWAP7 PUSH2 0x11BF DUP2 DUP4 DUP11 PUSH2 0x102E JUMP JUMPDEST DUP2 ADD PUSH1 0x3 DUP2 MSTORE SUB ADD SWAP1 KECCAK256 SLOAD AND ADD SWAP2 PUSH1 0x1 PUSH1 0x1 PUSH1 0x50 SHL SUB DUP4 GT PUSH2 0x1319 JUMPI PUSH2 0x12EA PUSH2 0x1314 SWAP2 PUSH32 0x67329A4D8BCA5F2A3C3C192170162450F36AF6BF1E618A9F6CB25B8FBC59ADB9 SWAP6 PUSH1 0x40 MLOAD SWAP6 PUSH2 0x1211 DUP8 PUSH2 0xEA4 JUMP JUMPDEST DUP6 DUP8 MSTORE PUSH1 0x20 DUP8 ADD TIMESTAMP DUP2 MSTORE PUSH1 0x1 PUSH1 0x1 PUSH1 0x50 SHL SUB DUP1 PUSH1 0x3 PUSH1 0x40 DUP12 ADD SWAP11 TIMESTAMP DUP13 MSTORE DUP3 PUSH1 0x60 DUP3 ADD SWAP7 AND SWAP12 DUP13 DUP8 MSTORE PUSH1 0x80 DUP3 ADD SWAP6 DUP14 DUP8 MSTORE PUSH2 0x1259 PUSH1 0x20 DUP12 DUP12 PUSH1 0x40 MLOAD SWAP4 DUP5 SWAP3 DUP4 SWAP3 MLOAD SWAP3 DUP4 SWAP2 PUSH2 0x102E JUMP JUMPDEST DUP2 ADD PUSH1 0x2 DUP2 MSTORE SUB ADD SWAP1 KECCAK256 SWAP3 MLOAD DUP4 SSTORE MLOAD PUSH1 0x1 DUP4 ADD SSTORE MLOAD PUSH1 0x2 DUP3 ADD SSTORE ADD SWAP4 MLOAD AND AND PUSH1 0x1 PUSH1 0x1 PUSH1 0x50 SHL SUB NOT DUP4 SLOAD AND OR DUP3 SSTORE MLOAD DUP2 SLOAD SWAP1 PUSH1 0x1 PUSH1 0x1 PUSH1 0x50 SHL SUB PUSH1 0x50 SHL SWAP1 PUSH1 0x50 SHL AND SWAP1 PUSH1 0x1 PUSH1 0x1 PUSH1 0x50 SHL SUB PUSH1 0x50 SHL NOT AND OR SWAP1 SSTORE PUSH1 0x40 MLOAD PUSH1 0x20 DUP2 DUP4 MLOAD PUSH2 0x12BF DUP2 DUP4 DUP9 PUSH2 0x102E JUMP JUMPDEST DUP2 ADD PUSH1 0x3 DUP2 MSTORE SUB ADD SWAP1 KECCAK256 DUP7 PUSH1 0x1 PUSH1 0x1 PUSH1 0x50 SHL SUB NOT DUP3 SLOAD AND OR SWAP1 SSTORE PUSH1 0x40 MLOAD SWAP3 DUP4 SWAP3 DUP4 SWAP3 MLOAD SWAP3 DUP4 SWAP2 PUSH2 0x102E JUMP JUMPDEST DUP2 ADD SUB SWAP1 KECCAK256 SWAP5 PUSH1 0x40 MLOAD SWAP4 DUP5 SWAP4 DUP5 MSTORE TIMESTAMP PUSH1 0x20 DUP6 ADD MSTORE PUSH1 0x40 DUP5 ADD MSTORE PUSH1 0x80 PUSH1 0x60 DUP5 ADD MSTORE PUSH1 0x80 DUP4 ADD SWAP1 PUSH2 0x1051 JUMP JUMPDEST SUB SWAP1 LOG2 JUMP JUMPDEST PUSH4 0x4E487B71 PUSH1 0xE0 SHL PUSH1 0x0 MSTORE PUSH1 0x11 PUSH1 0x4 MSTORE PUSH1 0x24 PUSH1 0x0 REVERT JUMPDEST PUSH1 0x40 MLOAD PUSH3 0x461BCD PUSH1 0xE5 SHL DUP2 MSTORE PUSH1 0x20 PUSH1 0x4 DUP3 ADD MSTORE PUSH1 0x29 PUSH1 0x24 DUP3 ADD MSTORE PUSH32 0x456E7669726F6E6D656E74616C2076616C756573206D757374206265206E6F6E PUSH1 0x44 DUP3 ADD MSTORE PUSH9 0x2D6E65676174697665 PUSH1 0xB8 SHL PUSH1 0x64 DUP3 ADD MSTORE PUSH1 0x84 SWAP1 REVERT JUMPDEST PUSH1 0x40 MLOAD PUSH3 0x461BCD PUSH1 0xE5 SHL DUP2 MSTORE PUSH1 0x20 PUSH1 0x4 DUP3 ADD MSTORE PUSH1 0x16 PUSH1 0x24 DUP3 ADD MSTORE PUSH22 0x4D65747269632063616E6E6F7420626520656D707479 PUSH1 0x50 SHL PUSH1 0x44 DUP3 ADD MSTORE PUSH1 0x64 SWAP1 REVERT INVALID SUB PUSH12 0x6384B5ECA791C62761152D0C PUSH26 0xBB0604C104A5FB6F4EB0703F3154BB3DB0A26469706673582212 KECCAK256 0xB5 PUSH18 0x2E068EA9B5F949293B4C94AB2C93A2B99006 SIGNEXTEND PUSH10 0x88303AF9AB0654F666F4 PUSH5 0x736F6C6343 STOP ADDMOD SHR STOP CALLER 0xF6 MSTORE 0x22 0x23 SGT 0xE2 DUP5 MSIZE MSTORE DUP14 SWAP3 SIGNEXTEND PUSH6 0x115C16C04F3E 0xFC DUP3 0xAA 0xED 0xC9 PUSH28 0xE59F3F377C0D3F000000000000000000000000000000000000000000 "},"methodIdentifiers":{"batchUpdateEnvironmentalData(string[],int256[],string)":"0aa621b8","dataUpdater()":"893b2694","decimals()":"313ce567","description()":"7284e416","getEnvironmentalReport()":"a3c4f4c1","getLatestAQIData()":"711703b4","getLatestCO2Data()":"bf0eca7e","getLatestEnvironmentalData(string)":"36701a3e","getLatestForestCoverData()":"bb99b969","getLatestPM25Data()":"b53eeb6f","getRoundData(uint80)":"9a6fc8f5","latestRoundData()":"feaf968c","owner()":"8da5cb5b","primaryMetric()":"d27cd36b","setDataUpdater(address)":"3a480811","setPrimaryMetric(string)":"8409c4e6","supportedMetrics(uint256)":"5db8b00b","transferOwnership(address)":"f2fde38b","updateEnvironmentalData(string,int256,string)":"19e1b8a2","version()":"54fd4d50"}}}}}