{"contracts/OracleManager.sol":{"OracleManager":{"abi":[{"inputs":[{"internalType":"address","name":"_chainlinkOracle","type":"address"},{"internalType":"address","name":"_fallbackOracle","type":"address"}],"stateMutability":"nonpayable","type":"constructor"},{"anonymous":false,"inputs":[{"indexed":false,"internalType":"string","name":"metric","type":"string"},{"indexed":false,"internalType":"uint256","name":"timestamp","type":"uint256"}],"name":"ChainlinkDataRequested","type":"event"},{"anonymous":false,"inputs":[{"indexed":false,"internalType":"string","name":"reason","type":"string"},{"indexed":false,"internalType":"uint256","name":"timestamp","type":"uint256"}],"name":"FallbackActivated","type":"event"},{"anonymous":false,"inputs":[{"indexed":false,"internalType":"enum OracleManager.OracleStatus","name":"oldStatus","type":"uint8"},{"indexed":false,"internalType":"enum OracleManager.OracleStatus","name":"newStatus","type":"uint8"}],"name":"OracleStatusChanged","type":"event"},{"inputs":[],"name":"CHAINLINK_TIMEOUT","outputs":[{"internalType":"uint256","name":"","type":"uint256"}],"stateMutability":"view","type":"function"},{"inputs":[],"name":"FALLBACK_TIMEOUT","outputs":[{"internalType":"uint256","name":"","type":"uint256"}],"stateMutability":"view","type":"function"},{"inputs":[],"name":"chainlinkOracle","outputs":[{"internalType":"contract ChainlinkEnvironmentalOracle","name":"","type":"address"}],"stateMutability":"view","type":"function"},{"inputs":[],"name":"currentStatus","outputs":[{"internalType":"enum OracleManager.OracleStatus","name":"","type":"uint8"}],"stateMutability":"view","type":"function"},{"inputs":[],"name":"decimals","outputs":[{"internalType":"uint8","name":"","type":"uint8"}],"stateMutability":"view","type":"function"},{"inputs":[],"name":"description","outputs":[{"internalType":"string","name":"","type":"string"}],"stateMutability":"view","type":"function"},{"inputs":[],"name":"fallbackOracle","outputs":[{"internalType":"contract RealEnvironmentalOracle","name":"","type":"address"}],"stateMutability":"view","type":"function"},{"inputs":[{"internalType":"string","name":"metric","type":"string"}],"name":"getEnvironmentalData","outputs":[{"internalType":"int256","name":"","type":"int256"}],"stateMutability":"view","type":"function"},{"inputs":[],"name":"getOracleStatus","outputs":[{"internalType":"enum OracleManager.OracleStatus","name":"status","type":"uint8"},{"internalType":"bool","name":"chainlinkHealthy","type":"bool"},{"internalType":"bool","name":"fallbackHealthy","type":"bool"},{"internalType":"uint256","name":"chainlinkLastUpdate","type":"uint256"},{"internalType":"uint256","name":"fallbackLastUpdate","type":"uint256"}],"stateMutability":"view","type":"function"},{"inputs":[{"internalType":"uint80","name":"_roundId","type":"uint80"}],"name":"getRoundData","outputs":[{"internalType":"uint80","name":"roundId","type":"uint80"},{"internalType":"int256","name":"answer","type":"int256"},{"internalType":"uint256","name":"startedAt","type":"uint256"},{"internalType":"uint256","name":"updatedAt","type":"uint256"},{"internalType":"uint80","name":"answeredInRound","type":"uint80"}],"stateMutability":"view","type":"function"},{"inputs":[],"name":"latestRoundData","outputs":[{"internalType":"uint80","name":"roundId","type":"uint80"},{"internalType":"int256","name":"answer","type":"int256"},{"internalType":"uint256","name":"startedAt","type":"uint256"},{"internalType":"uint256","name":"updatedAt","type":"uint256"},{"internalType":"uint80","name":"answeredInRound","type":"uint80"}],"stateMutability":"view","type":"function"},{"inputs":[],"name":"owner","outputs":[{"internalType":"address","name":"","type":"address"}],"stateMutability":"view","type":"function"},{"inputs":[],"name":"requestAllEnvironmentalData","outputs":[],"stateMutability":"nonpayable","type":"function"},{"inputs":[{"internalType":"string","name":"metric","type":"string"},{"internalType":"string","name":"location","type":"string"},{"internalType":"string","name":"longitude","type":"string"}],"name":"requestChainlinkData","outputs":[],"stateMutability":"nonpayable","type":"function"},{"inputs":[{"internalType":"address","name":"_newOwner","type":"address"}],"name":"transferOwnership","outputs":[],"stateMutability":"nonpayable","type":"function"},{"inputs":[{"internalType":"address","name":"_newChainlinkOracle","type":"address"}],"name":"updateChainlinkOracle","outputs":[],"stateMutability":"nonpayable","type":"function"},{"inputs":[{"internalType":"address","name":"_newFallbackOracle","type":"address"}],"name":"updateFallbackOracle","outputs":[],"stateMutability":"nonpayable","type":"function"},{"inputs":[],"name":"version","outputs":[{"internalType":"uint256","name":"","type":"uint256"}],"stateMutability":"view","type":"function"}],"evm":{"bytecode":{"linkReferences":{},"object":"60803461029d57601f61168938819003918201601f19168301916001600160401b038311848410176102a257808492604094855283398101031261029d57610052602061004b836102b8565b92016102b8565b90600354600181811c91168015610293575b602082101461027d57601f8111610215575b50606560039081556000527f4475616c204f7261636c65204d616e61676572202d20436861696e6c696e6b207fc2575a0e9e593c00f959f8c92f12db2869c3395a3b0502d05e2516446f71f85b55715072696d617279202b2046616c6c6261636b60701b7fc2575a0e9e593c00f959f8c92f12db2869c3395a3b0502d05e2516446f71f85c5560016004556001600160a01b03169081156101c0576001600160a01b031690811561016c57600080546001600160a01b031990811692909217905560018054909116919091179055600280546001600160a81b0319163360ff60a01b19161790556040516113bc90816102cd8239f35b60405162461bcd60e51b815260206004820152602660248201527f46616c6c6261636b206f7261636c652063616e6e6f74206265207a65726f206160448201526564647265737360d01b6064820152608490fd5b60405162461bcd60e51b815260206004820152602760248201527f436861696e6c696e6b206f7261636c652063616e6e6f74206265207a65726f206044820152666164647265737360c81b6064820152608490fd5b6003600052601f0160051c7fc2575a0e9e593c00f959f8c92f12db2869c3395a3b0502d05e2516446f71f85b017fc2575a0e9e593c00f959f8c92f12db2869c3395a3b0502d05e2516446f71f85d5b8181106102715750610076565b60008155600101610264565b634e487b7160e01b600052602260045260246000fd5b90607f1690610064565b600080fd5b634e487b7160e01b600052604160045260246000fd5b51906001600160a01b038216820361029d5756fe608080604052600436101561001357600080fd5b60003560e01c908163048c096514610c6257508063313ce56714610c4657806354fd4d5014610c285780635fd0b34a1461085957806360c0e35f146106ae578063629838e5146106855780637284e4161461057957806382a0b84f146104445780638da5cb5b1461041b5780639a6fc8f514610354578063ae1acb23146102f1578063d1b5f24d146102ae578063d33b350514610291578063d4bd49931461022e578063ef06e72c14610205578063ef8a9235146101da578063f2fde38b146101435763feaf968c146100e557600080fd5b3461013e57600036600319011261013e5761013a610101611093565b6040805169ffffffffffffffffffff968716815260208101959095528401929092526060830152909116608082015290819060a0820190565b0390f35b600080fd5b3461013e57602036600319011261013e576004356001600160a01b0381169081900361013e57600254610180336001600160a01b03831614610d70565b8115610196576001600160a01b03191617600255005b606460405162461bcd60e51b815260206004820152602060248201527f4e6577206f776e65722063616e6e6f74206265207a65726f20616464726573736044820152fd5b3461013e57600036600319011261013e57602060ff60025460a01c166102036040518092610d4d565bf35b3461013e57600036600319011261013e576000546040516001600160a01b039091168152602090f35b3461013e57602036600319011261013e576004356001600160a01b0381169081900361013e5761026960018060a01b03600254163314610d70565b610274811515610f18565b6bffffffffffffffffffffffff60a01b6000541617600055600080f35b3461013e57600036600319011261013e5760206040516154608152f35b3461013e57602036600319011261013e5760043567ffffffffffffffff811161013e576102e96102e46020923690600401610cb5565b610f56565b604051908152f35b3461013e57602036600319011261013e576004356001600160a01b0381169081900361013e5761032c60018060a01b03600254163314610d70565b610337811515610f18565b6bffffffffffffffffffffffff60a01b6001541617600155600080f35b3461013e57602036600319011261013e5760043569ffffffffffffffffffff81160361013e57604051633fabe5a360e21b815260a081600481305afa801561040f576000809181829083926103d3575b6040805169ffffffffffffffffffff95861681526020810196909652850152606084015216608082015260a090f35b50505050506103fc61013a9160a03d60a011610408575b6103f48183610c7d565b810190610ec3565b929450849392916103a4565b503d6103ea565b6040513d6000823e3d90fd5b3461013e57600036600319011261013e576002546040516001600160a01b039091168152602090f35b3461013e57600036600319011261013e5760a0600080600483600180821b0384541660405192838092633fabe5a360e21b82525afa839181610555575b5061053d575b5060009081600485600180821b036001541660405192838092633fabe5a360e21b82525afa829181610519575b50610502575b5083156104ec576000935b6104d26040518096610d4d565b151560208501521515604084015260608301526080820152f35b80156104fa576001936104c5565b6002936104c5565b9250506154606105128342610ef5565b10856104ba565b610531919250873d8911610408576103f48183610c7d565b509250505090876104b4565b915050611c2061054d8242610ef5565b109083610487565b61056d919250853d8711610408576103f48183610c7d565b50925050509085610481565b3461013e57600036600319011261013e5760405160006003548060011c9060018116801561067b575b6020831081146106675782855290811561064357506001146105e3575b61013a836105cf81850382610c7d565b604051918291602083526020830190610d0c565b91905060036000527fc2575a0e9e593c00f959f8c92f12db2869c3395a3b0502d05e2516446f71f85b916000905b808210610629575090915081016020016105cf6105bf565b919260018160209254838588010152019101909291610611565b60ff191660208086019190915291151560051b840190910191506105cf90506105bf565b634e487b7160e01b84526022600452602484fd5b91607f16916105a2565b3461013e57600036600319011261013e576001546040516001600160a01b039091168152602090f35b3461013e57600036600319011261013e576106d460018060a01b03600254163314610d70565b6000602060018060a01b038254166064604051809481936331a51c1d60e01b835285600484015260086024840152674e657720596f726b60c01b60448401525af1801561040f5761082a575b5060018060a01b0360005416602060405180926320a6130360e21b82528160008161074d60048201610e6b565b03925af1801561040f576107fb575b5060018060a01b0360005416602060405180926361e2791760e01b82528160008161078960048201610e6b565b03925af1801561040f576107cc575b6000805160206113678339815191526080604051604081526003604082015262185b1b60ea1b6060820152426020820152a1005b6020813d6020116107f3575b816107e560209383610c7d565b8101031261013e5751610798565b3d91506107d8565b6020813d602011610822575b8161081460209383610c7d565b8101031261013e575161075c565b3d9150610807565b6020813d602011610851575b8161084360209383610c7d565b8101031261013e5751610720565b3d9150610836565b3461013e57606036600319011261013e5760043567ffffffffffffffff811161013e5761088a903690600401610cb5565b60243567ffffffffffffffff811161013e576108aa903690600401610cb5565b9060443567ffffffffffffffff811161013e576108cb903690600401610cb5565b916108e160018060a01b03600254163314610d70565b815115610bea57805115610ba557815160208301908120610900610dc7565b60208151910120146000146109bc57506000925061094860209160018060a01b03855416906040519586809481936331a51c1d60e01b83528760048401526024830190610d0c565b03925af190811561040f57600080516020611367833981519152926109829261098d575b505b604051918291604083526040830190610d0c565b4260208301520390a1005b6109ae9060203d6020116109b5575b6109a68183610c7d565b810190610e34565b508361096c565b503d61099c565b825181206109c8610de9565b6020815191012014600014610a9e5750825115610a5957610a109260209160018060a01b03600054169060006040518097819582946320a6130360e21b845260048401610e43565b03925af190811561040f576000805160206113678339815191529261098292610a3a575b5061096e565b610a529060203d6020116109b5576109a68183610c7d565b5083610a34565b60405162461bcd60e51b815260206004820152601a60248201527f4c6f6e67697475646520726571756972656420666f7220434f320000000000006044820152606490fd5b82519020610aaa610e0a565b6020815191012014610ad2575b5060008051602061136783398151915291506109829061096e565b825115610b5457610b0a9260209160018060a01b03600054169060006040518097819582946361e2791760e01b845260048401610e43565b03925af190811561040f576000805160206113678339815191529261098292610b35575b5090610ab7565b610b4d9060203d6020116109b5576109a68183610c7d565b5083610b2e565b60405162461bcd60e51b815260206004820152602360248201527f4c6f6e67697475646520726571756972656420666f7220666f7265737420636f6044820152623b32b960e91b6064820152608490fd5b60405162461bcd60e51b815260206004820152601860248201527f4c6f636174696f6e2063616e6e6f7420626520656d70747900000000000000006044820152606490fd5b60405162461bcd60e51b81526020600482015260166024820152754d65747269632063616e6e6f7420626520656d70747960501b6044820152606490fd5b3461013e57600036600319011261013e576020600454604051908152f35b3461013e57600036600319011261013e57602060405160028152f35b3461013e57600036600319011261013e5780611c2060209252f35b90601f8019910116810190811067ffffffffffffffff821117610c9f57604052565b634e487b7160e01b600052604160045260246000fd5b81601f8201121561013e5780359067ffffffffffffffff8211610c9f5760405192610cea601f8401601f191660200185610c7d565b8284526020838301011161013e57816000926020809301838601378301015290565b919082519283825260005b848110610d38575050826000602080949584010152601f8019910116010190565b80602080928401015182828601015201610d17565b906003821015610d5a5752565b634e487b7160e01b600052602160045260246000fd5b15610d7757565b60405162461bcd60e51b815260206004820152602260248201527f4f6e6c79206f776e65722063616e20706572666f726d2074686973206163746960448201526137b760f11b6064820152608490fd5b60405190610dd6604083610c7d565b6004825263706d323560e01b6020830152565b60405190610df8604083610c7d565b600382526231b79960e91b6020830152565b60405190610e19604083610c7d565b600c82526b3337b932b9ba2fb1b7bb32b960a11b6020830152565b9081602091031261013e575190565b9091610e5a610e6893604084526040840190610d0c565b916020818403910152610d0c565b90565b60c090604081526007604082015266068605c6e6264760cb1b606082015260806020820152600860808201526702d37342e303036360c41b60a08201520190565b519069ffffffffffffffffffff8216820361013e57565b908160a091031261013e57610ed781610eac565b91602082015191604081015191610e68608060608401519301610eac565b91908203918211610f0257565b634e487b7160e01b600052601160045260246000fd5b15610f1f57565b60405162461bcd60e51b815260206004820152600f60248201526e496e76616c6964206164647265737360881b6044820152606490fd5b610f5f81611188565b60008113611015575b50600154604051631b380d1f60e11b815260206004820152919060a09083906001600160a01b03168180610f9f6024820187610d0c565b03915afa80600093600092610fec575b50610fc0575b50610e6891506112c4565b610fcd6154609142610ef5565b1080610fe2575b610fde5781610fb5565b5090565b5060008213610fd4565b909350611008915060a03d60a011610408576103f48183610c7d565b5094925050929038610faf565b600054604051633fabe5a360e21b81529060a090829060049082906001600160a01b03165afa6000918161106d575b50611050575b50610f68565b61105d611c209142610ef5565b10611068578061104a565b905090565b61108791925060a03d60a011610408576103f48183610c7d565b50925050509038611044565b600054604051633fabe5a360e21b81529060a090829060049082906001600160a01b03165afa90600090819282818193829361115c575b50611146575b5050600154604051633fabe5a360e21b8152935060a0925083915060049082906001600160a01b03165afa90811561040f5760009182938380938193611119575b509493929190565b935050935050611138915060a03d60a011610408576103f48183610c7d565b929491939092919038611111565b611c206111538442610ef5565b10156110d05794565b93509450505061117b915060a03d60a011610408576103f48183610c7d565b92949193909291386110ca565b8051906020810191822061119a610dc7565b602081519101201460001461121957505060005460405163b53eeb6f60e01b815290602090829060049082906001600160a01b03165afa600091816111e5575b50610e685750600090565b9091506020813d602011611211575b8161120160209383610c7d565b8101031261013e575190386111da565b3d91506111f4565b80518220611225610de9565b602081519101201460001461126f575050600054604051635f87653f60e11b815290602090829060049082906001600160a01b03165afa600091816111e55750610e685750600090565b51902061127a610e0a565b602081519101201461128b57600090565b60005460405163bb99b96960e01b815290602090829060049082906001600160a01b03165afa600091816111e55750610e685750600090565b805190602081019182206112d6610dc7565b60208151910120146000146112ed5750506105dc90565b805182206112f9610de9565b602081519101201460001461131057505061a41090565b8051822061131c610e0a565b6020815191012014600014611333575050611a9090565b51902060036020604051611348604082610c7d565b828152016261716960e81b8152201461136057600090565b6121349056fe2a95e0aaa1ac6affed57d67ae75fdce2fdbdfa4dd68fd323fef9618559a7b502a26469706673582212205148c78c14923671a7216c8e06910df5e60652b22f8c539521fe246ea6bb249364736f6c634300081c0033","opcodes":"PUSH1 0x80 CALLVALUE PUSH2 0x29D JUMPI PUSH1 0x1F PUSH2 0x1689 CODESIZE DUP2 SWAP1 SUB SWAP2 DUP3 ADD PUSH1 0x1F NOT AND DUP4 ADD SWAP2 PUSH1 0x1 PUSH1 0x1 PUSH1 0x40 SHL SUB DUP4 GT DUP5 DUP5 LT OR PUSH2 0x2A2 JUMPI DUP1 DUP5 SWAP3 PUSH1 0x40 SWAP5 DUP6 MSTORE DUP4 CODECOPY DUP2 ADD SUB SLT PUSH2 0x29D JUMPI PUSH2 0x52 PUSH1 0x20 PUSH2 0x4B DUP4 PUSH2 0x2B8 JUMP JUMPDEST SWAP3 ADD PUSH2 0x2B8 JUMP JUMPDEST SWAP1 PUSH1 0x3 SLOAD PUSH1 0x1 DUP2 DUP2 SHR SWAP2 AND DUP1 ISZERO PUSH2 0x293 JUMPI JUMPDEST PUSH1 0x20 DUP3 LT EQ PUSH2 0x27D JUMPI PUSH1 0x1F DUP2 GT PUSH2 0x215 JUMPI JUMPDEST POP PUSH1 0x65 PUSH1 0x3 SWAP1 DUP2 SSTORE PUSH1 0x0 MSTORE PUSH32 0x4475616C204F7261636C65204D616E61676572202D20436861696E6C696E6B20 PUSH32 0xC2575A0E9E593C00F959F8C92F12DB2869C3395A3B0502D05E2516446F71F85B SSTORE PUSH18 0x5072696D617279202B2046616C6C6261636B PUSH1 0x70 SHL PUSH32 0xC2575A0E9E593C00F959F8C92F12DB2869C3395A3B0502D05E2516446F71F85C SSTORE PUSH1 0x1 PUSH1 0x4 SSTORE PUSH1 0x1 PUSH1 0x1 PUSH1 0xA0 SHL SUB AND SWAP1 DUP2 ISZERO PUSH2 0x1C0 JUMPI PUSH1 0x1 PUSH1 0x1 PUSH1 0xA0 SHL SUB AND SWAP1 DUP2 ISZERO PUSH2 0x16C JUMPI PUSH1 0x0 DUP1 SLOAD PUSH1 0x1 PUSH1 0x1 PUSH1 0xA0 SHL SUB NOT SWAP1 DUP2 AND SWAP3 SWAP1 SWAP3 OR SWAP1 SSTORE PUSH1 0x1 DUP1 SLOAD SWAP1 SWAP2 AND SWAP2 SWAP1 SWAP2 OR SWAP1 SSTORE PUSH1 0x2 DUP1 SLOAD PUSH1 0x1 PUSH1 0x1 PUSH1 0xA8 SHL SUB NOT AND CALLER PUSH1 0xFF PUSH1 0xA0 SHL NOT AND OR SWAP1 SSTORE PUSH1 0x40 MLOAD PUSH2 0x13BC SWAP1 DUP2 PUSH2 0x2CD DUP3 CODECOPY RETURN JUMPDEST PUSH1 0x40 MLOAD PUSH3 0x461BCD PUSH1 0xE5 SHL DUP2 MSTORE PUSH1 0x20 PUSH1 0x4 DUP3 ADD MSTORE PUSH1 0x26 PUSH1 0x24 DUP3 ADD MSTORE PUSH32 0x46616C6C6261636B206F7261636C652063616E6E6F74206265207A65726F2061 PUSH1 0x44 DUP3 ADD MSTORE PUSH6 0x646472657373 PUSH1 0xD0 SHL PUSH1 0x64 DUP3 ADD MSTORE PUSH1 0x84 SWAP1 REVERT JUMPDEST PUSH1 0x40 MLOAD PUSH3 0x461BCD PUSH1 0xE5 SHL DUP2 MSTORE PUSH1 0x20 PUSH1 0x4 DUP3 ADD MSTORE PUSH1 0x27 PUSH1 0x24 DUP3 ADD MSTORE PUSH32 0x436861696E6C696E6B206F7261636C652063616E6E6F74206265207A65726F20 PUSH1 0x44 DUP3 ADD MSTORE PUSH7 0x61646472657373 PUSH1 0xC8 SHL PUSH1 0x64 DUP3 ADD MSTORE PUSH1 0x84 SWAP1 REVERT JUMPDEST PUSH1 0x3 PUSH1 0x0 MSTORE PUSH1 0x1F ADD PUSH1 0x5 SHR PUSH32 0xC2575A0E9E593C00F959F8C92F12DB2869C3395A3B0502D05E2516446F71F85B ADD PUSH32 0xC2575A0E9E593C00F959F8C92F12DB2869C3395A3B0502D05E2516446F71F85D JUMPDEST DUP2 DUP2 LT PUSH2 0x271 JUMPI POP PUSH2 0x76 JUMP JUMPDEST PUSH1 0x0 DUP2 SSTORE PUSH1 0x1 ADD PUSH2 0x264 JUMP JUMPDEST PUSH4 0x4E487B71 PUSH1 0xE0 SHL PUSH1 0x0 MSTORE PUSH1 0x22 PUSH1 0x4 MSTORE PUSH1 0x24 PUSH1 0x0 REVERT JUMPDEST SWAP1 PUSH1 0x7F AND SWAP1 PUSH2 0x64 JUMP JUMPDEST PUSH1 0x0 DUP1 REVERT JUMPDEST PUSH4 0x4E487B71 PUSH1 0xE0 SHL PUSH1 0x0 MSTORE PUSH1 0x41 PUSH1 0x4 MSTORE PUSH1 0x24 PUSH1 0x0 REVERT JUMPDEST MLOAD SWAP1 PUSH1 0x1 PUSH1 0x1 PUSH1 0xA0 SHL SUB DUP3 AND DUP3 SUB PUSH2 0x29D JUMPI JUMP INVALID PUSH1 0x80 DUP1 PUSH1 0x40 MSTORE PUSH1 0x4 CALLDATASIZE LT ISZERO PUSH2 0x13 JUMPI PUSH1 0x0 DUP1 REVERT JUMPDEST PUSH1 0x0 CALLDATALOAD PUSH1 0xE0 SHR SWAP1 DUP2 PUSH4 0x48C0965 EQ PUSH2 0xC62 JUMPI POP DUP1 PUSH4 0x313CE567 EQ PUSH2 0xC46 JUMPI DUP1 PUSH4 0x54FD4D50 EQ PUSH2 0xC28 JUMPI DUP1 PUSH4 0x5FD0B34A EQ PUSH2 0x859 JUMPI DUP1 PUSH4 0x60C0E35F EQ PUSH2 0x6AE JUMPI DUP1 PUSH4 0x629838E5 EQ PUSH2 0x685 JUMPI DUP1 PUSH4 0x7284E416 EQ PUSH2 0x579 JUMPI DUP1 PUSH4 0x82A0B84F EQ PUSH2 0x444 JUMPI DUP1 PUSH4 0x8DA5CB5B EQ PUSH2 0x41B JUMPI DUP1 PUSH4 0x9A6FC8F5 EQ PUSH2 0x354 JUMPI DUP1 PUSH4 0xAE1ACB23 EQ PUSH2 0x2F1 JUMPI DUP1 PUSH4 0xD1B5F24D EQ PUSH2 0x2AE JUMPI DUP1 PUSH4 0xD33B3505 EQ PUSH2 0x291 JUMPI DUP1 PUSH4 0xD4BD4993 EQ PUSH2 0x22E JUMPI DUP1 PUSH4 0xEF06E72C EQ PUSH2 0x205 JUMPI DUP1 PUSH4 0xEF8A9235 EQ PUSH2 0x1DA JUMPI DUP1 PUSH4 0xF2FDE38B EQ PUSH2 0x143 JUMPI PUSH4 0xFEAF968C EQ PUSH2 0xE5 JUMPI PUSH1 0x0 DUP1 REVERT JUMPDEST CALLVALUE PUSH2 0x13E JUMPI PUSH1 0x0 CALLDATASIZE PUSH1 0x3 NOT ADD SLT PUSH2 0x13E JUMPI PUSH2 0x13A PUSH2 0x101 PUSH2 0x1093 JUMP JUMPDEST PUSH1 0x40 DUP1 MLOAD PUSH10 0xFFFFFFFFFFFFFFFFFFFF SWAP7 DUP8 AND DUP2 MSTORE PUSH1 0x20 DUP2 ADD SWAP6 SWAP1 SWAP6 MSTORE DUP5 ADD SWAP3 SWAP1 SWAP3 MSTORE PUSH1 0x60 DUP4 ADD MSTORE SWAP1 SWAP2 AND PUSH1 0x80 DUP3 ADD MSTORE SWAP1 DUP2 SWAP1 PUSH1 0xA0 DUP3 ADD SWAP1 JUMP JUMPDEST SUB SWAP1 RETURN JUMPDEST PUSH1 0x0 DUP1 REVERT JUMPDEST CALLVALUE PUSH2 0x13E JUMPI PUSH1 0x20 CALLDATASIZE PUSH1 0x3 NOT ADD SLT PUSH2 0x13E JUMPI PUSH1 0x4 CALLDATALOAD PUSH1 0x1 PUSH1 0x1 PUSH1 0xA0 SHL SUB DUP2 AND SWAP1 DUP2 SWAP1 SUB PUSH2 0x13E JUMPI PUSH1 0x2 SLOAD PUSH2 0x180 CALLER PUSH1 0x1 PUSH1 0x1 PUSH1 0xA0 SHL SUB DUP4 AND EQ PUSH2 0xD70 JUMP JUMPDEST DUP2 ISZERO PUSH2 0x196 JUMPI PUSH1 0x1 PUSH1 0x1 PUSH1 0xA0 SHL SUB NOT AND OR PUSH1 0x2 SSTORE STOP JUMPDEST PUSH1 0x64 PUSH1 0x40 MLOAD PUSH3 0x461BCD PUSH1 0xE5 SHL DUP2 MSTORE PUSH1 0x20 PUSH1 0x4 DUP3 ADD MSTORE PUSH1 0x20 PUSH1 0x24 DUP3 ADD MSTORE PUSH32 0x4E6577206F776E65722063616E6E6F74206265207A65726F2061646472657373 PUSH1 0x44 DUP3 ADD MSTORE REVERT JUMPDEST CALLVALUE PUSH2 0x13E JUMPI PUSH1 0x0 CALLDATASIZE PUSH1 0x3 NOT ADD SLT PUSH2 0x13E JUMPI PUSH1 0x20 PUSH1 0xFF PUSH1 0x2 SLOAD PUSH1 0xA0 SHR AND PUSH2 0x203 PUSH1 0x40 MLOAD DUP1 SWAP3 PUSH2 0xD4D JUMP JUMPDEST RETURN JUMPDEST CALLVALUE PUSH2 0x13E JUMPI PUSH1 0x0 CALLDATASIZE PUSH1 0x3 NOT ADD SLT PUSH2 0x13E JUMPI PUSH1 0x0 SLOAD PUSH1 0x40 MLOAD PUSH1 0x1 PUSH1 0x1 PUSH1 0xA0 SHL SUB SWAP1 SWAP2 AND DUP2 MSTORE PUSH1 0x20 SWAP1 RETURN JUMPDEST CALLVALUE PUSH2 0x13E JUMPI PUSH1 0x20 CALLDATASIZE PUSH1 0x3 NOT ADD SLT PUSH2 0x13E JUMPI PUSH1 0x4 CALLDATALOAD PUSH1 0x1 PUSH1 0x1 PUSH1 0xA0 SHL SUB DUP2 AND SWAP1 DUP2 SWAP1 SUB PUSH2 0x13E JUMPI PUSH2 0x269 PUSH1 0x1 DUP1 PUSH1 0xA0 SHL SUB PUSH1 0x2 SLOAD AND CALLER EQ PUSH2 0xD70 JUMP JUMPDEST PUSH2 0x274 DUP2 ISZERO ISZERO PUSH2 0xF18 JUMP JUMPDEST PUSH12 0xFFFFFFFFFFFFFFFFFFFFFFFF PUSH1 0xA0 SHL PUSH1 0x0 SLOAD AND OR PUSH1 0x0 SSTORE PUSH1 0x0 DUP1 RETURN JUMPDEST CALLVALUE PUSH2 0x13E JUMPI PUSH1 0x0 CALLDATASIZE PUSH1 0x3 NOT ADD SLT PUSH2 0x13E JUMPI PUSH1 0x20 PUSH1 0x40 MLOAD PUSH2 0x5460 DUP2 MSTORE RETURN JUMPDEST CALLVALUE PUSH2 0x13E JUMPI PUSH1 0x20 CALLDATASIZE PUSH1 0x3 NOT ADD SLT PUSH2 0x13E JUMPI PUSH1 0x4 CALLDATALOAD PUSH8 0xFFFFFFFFFFFFFFFF DUP2 GT PUSH2 0x13E JUMPI PUSH2 0x2E9 PUSH2 0x2E4 PUSH1 0x20 SWAP3 CALLDATASIZE SWAP1 PUSH1 0x4 ADD PUSH2 0xCB5 JUMP JUMPDEST PUSH2 0xF56 JUMP JUMPDEST PUSH1 0x40 MLOAD SWAP1 DUP2 MSTORE RETURN JUMPDEST CALLVALUE PUSH2 0x13E JUMPI PUSH1 0x20 CALLDATASIZE PUSH1 0x3 NOT ADD SLT PUSH2 0x13E JUMPI PUSH1 0x4 CALLDATALOAD PUSH1 0x1 PUSH1 0x1 PUSH1 0xA0 SHL SUB DUP2 AND SWAP1 DUP2 SWAP1 SUB PUSH2 0x13E JUMPI PUSH2 0x32C PUSH1 0x1 DUP1 PUSH1 0xA0 SHL SUB PUSH1 0x2 SLOAD AND CALLER EQ PUSH2 0xD70 JUMP JUMPDEST PUSH2 0x337 DUP2 ISZERO ISZERO PUSH2 0xF18 JUMP JUMPDEST PUSH12 0xFFFFFFFFFFFFFFFFFFFFFFFF PUSH1 0xA0 SHL PUSH1 0x1 SLOAD AND OR PUSH1 0x1 SSTORE PUSH1 0x0 DUP1 RETURN JUMPDEST CALLVALUE PUSH2 0x13E JUMPI PUSH1 0x20 CALLDATASIZE PUSH1 0x3 NOT ADD SLT PUSH2 0x13E JUMPI PUSH1 0x4 CALLDATALOAD PUSH10 0xFFFFFFFFFFFFFFFFFFFF DUP2 AND SUB PUSH2 0x13E JUMPI PUSH1 0x40 MLOAD PUSH4 0x3FABE5A3 PUSH1 0xE2 SHL DUP2 MSTORE PUSH1 0xA0 DUP2 PUSH1 0x4 DUP2 ADDRESS GAS STATICCALL DUP1 ISZERO PUSH2 0x40F JUMPI PUSH1 0x0 DUP1 SWAP2 DUP2 DUP3 SWAP1 DUP4 SWAP3 PUSH2 0x3D3 JUMPI JUMPDEST PUSH1 0x40 DUP1 MLOAD PUSH10 0xFFFFFFFFFFFFFFFFFFFF SWAP6 DUP7 AND DUP2 MSTORE PUSH1 0x20 DUP2 ADD SWAP7 SWAP1 SWAP7 MSTORE DUP6 ADD MSTORE PUSH1 0x60 DUP5 ADD MSTORE AND PUSH1 0x80 DUP3 ADD MSTORE PUSH1 0xA0 SWAP1 RETURN JUMPDEST POP POP POP POP POP PUSH2 0x3FC PUSH2 0x13A SWAP2 PUSH1 0xA0 RETURNDATASIZE PUSH1 0xA0 GT PUSH2 0x408 JUMPI JUMPDEST PUSH2 0x3F4 DUP2 DUP4 PUSH2 0xC7D JUMP JUMPDEST DUP2 ADD SWAP1 PUSH2 0xEC3 JUMP JUMPDEST SWAP3 SWAP5 POP DUP5 SWAP4 SWAP3 SWAP2 PUSH2 0x3A4 JUMP JUMPDEST POP RETURNDATASIZE PUSH2 0x3EA JUMP JUMPDEST PUSH1 0x40 MLOAD RETURNDATASIZE PUSH1 0x0 DUP3 RETURNDATACOPY RETURNDATASIZE SWAP1 REVERT JUMPDEST CALLVALUE PUSH2 0x13E JUMPI PUSH1 0x0 CALLDATASIZE PUSH1 0x3 NOT ADD SLT PUSH2 0x13E JUMPI PUSH1 0x2 SLOAD PUSH1 0x40 MLOAD PUSH1 0x1 PUSH1 0x1 PUSH1 0xA0 SHL SUB SWAP1 SWAP2 AND DUP2 MSTORE PUSH1 0x20 SWAP1 RETURN JUMPDEST CALLVALUE PUSH2 0x13E JUMPI PUSH1 0x0 CALLDATASIZE PUSH1 0x3 NOT ADD SLT PUSH2 0x13E JUMPI PUSH1 0xA0 PUSH1 0x0 DUP1 PUSH1 0x4 DUP4 PUSH1 0x1 DUP1 DUP3 SHL SUB DUP5 SLOAD AND PUSH1 0x40 MLOAD SWAP3 DUP4 DUP1 SWAP3 PUSH4 0x3FABE5A3 PUSH1 0xE2 SHL DUP3 MSTORE GAS STATICCALL DUP4 SWAP2 DUP2 PUSH2 0x555 JUMPI JUMPDEST POP PUSH2 0x53D JUMPI JUMPDEST POP PUSH1 0x0 SWAP1 DUP2 PUSH1 0x4 DUP6 PUSH1 0x1 DUP1 DUP3 SHL SUB PUSH1 0x1 SLOAD AND PUSH1 0x40 MLOAD SWAP3 DUP4 DUP1 SWAP3 PUSH4 0x3FABE5A3 PUSH1 0xE2 SHL DUP3 MSTORE GAS STATICCALL DUP3 SWAP2 DUP2 PUSH2 0x519 JUMPI JUMPDEST POP PUSH2 0x502 JUMPI JUMPDEST POP DUP4 ISZERO PUSH2 0x4EC JUMPI PUSH1 0x0 SWAP4 JUMPDEST PUSH2 0x4D2 PUSH1 0x40 MLOAD DUP1 SWAP7 PUSH2 0xD4D JUMP JUMPDEST ISZERO ISZERO PUSH1 0x20 DUP6 ADD MSTORE ISZERO ISZERO PUSH1 0x40 DUP5 ADD MSTORE PUSH1 0x60 DUP4 ADD MSTORE PUSH1 0x80 DUP3 ADD MSTORE RETURN JUMPDEST DUP1 ISZERO PUSH2 0x4FA JUMPI PUSH1 0x1 SWAP4 PUSH2 0x4C5 JUMP JUMPDEST PUSH1 0x2 SWAP4 PUSH2 0x4C5 JUMP JUMPDEST SWAP3 POP POP PUSH2 0x5460 PUSH2 0x512 DUP4 TIMESTAMP PUSH2 0xEF5 JUMP JUMPDEST LT DUP6 PUSH2 0x4BA JUMP JUMPDEST PUSH2 0x531 SWAP2 SWAP3 POP DUP8 RETURNDATASIZE DUP10 GT PUSH2 0x408 JUMPI PUSH2 0x3F4 DUP2 DUP4 PUSH2 0xC7D JUMP JUMPDEST POP SWAP3 POP POP POP SWAP1 DUP8 PUSH2 0x4B4 JUMP JUMPDEST SWAP2 POP POP PUSH2 0x1C20 PUSH2 0x54D DUP3 TIMESTAMP PUSH2 0xEF5 JUMP JUMPDEST LT SWAP1 DUP4 PUSH2 0x487 JUMP JUMPDEST PUSH2 0x56D SWAP2 SWAP3 POP DUP6 RETURNDATASIZE DUP8 GT PUSH2 0x408 JUMPI PUSH2 0x3F4 DUP2 DUP4 PUSH2 0xC7D JUMP JUMPDEST POP SWAP3 POP POP POP SWAP1 DUP6 PUSH2 0x481 JUMP JUMPDEST CALLVALUE PUSH2 0x13E JUMPI PUSH1 0x0 CALLDATASIZE PUSH1 0x3 NOT ADD SLT PUSH2 0x13E JUMPI PUSH1 0x40 MLOAD PUSH1 0x0 PUSH1 0x3 SLOAD DUP1 PUSH1 0x1 SHR SWAP1 PUSH1 0x1 DUP2 AND DUP1 ISZERO PUSH2 0x67B JUMPI JUMPDEST PUSH1 0x20 DUP4 LT DUP2 EQ PUSH2 0x667 JUMPI DUP3 DUP6 MSTORE SWAP1 DUP2 ISZERO PUSH2 0x643 JUMPI POP PUSH1 0x1 EQ PUSH2 0x5E3 JUMPI JUMPDEST PUSH2 0x13A DUP4 PUSH2 0x5CF DUP2 DUP6 SUB DUP3 PUSH2 0xC7D JUMP JUMPDEST PUSH1 0x40 MLOAD SWAP2 DUP3 SWAP2 PUSH1 0x20 DUP4 MSTORE PUSH1 0x20 DUP4 ADD SWAP1 PUSH2 0xD0C JUMP JUMPDEST SWAP2 SWAP1 POP PUSH1 0x3 PUSH1 0x0 MSTORE PUSH32 0xC2575A0E9E593C00F959F8C92F12DB2869C3395A3B0502D05E2516446F71F85B SWAP2 PUSH1 0x0 SWAP1 JUMPDEST DUP1 DUP3 LT PUSH2 0x629 JUMPI POP SWAP1 SWAP2 POP DUP2 ADD PUSH1 0x20 ADD PUSH2 0x5CF PUSH2 0x5BF JUMP JUMPDEST SWAP2 SWAP3 PUSH1 0x1 DUP2 PUSH1 0x20 SWAP3 SLOAD DUP4 DUP6 DUP9 ADD ADD MSTORE ADD SWAP2 ADD SWAP1 SWAP3 SWAP2 PUSH2 0x611 JUMP JUMPDEST PUSH1 0xFF NOT AND PUSH1 0x20 DUP1 DUP7 ADD SWAP2 SWAP1 SWAP2 MSTORE SWAP2 ISZERO ISZERO PUSH1 0x5 SHL DUP5 ADD SWAP1 SWAP2 ADD SWAP2 POP PUSH2 0x5CF SWAP1 POP PUSH2 0x5BF JUMP JUMPDEST PUSH4 0x4E487B71 PUSH1 0xE0 SHL DUP5 MSTORE PUSH1 0x22 PUSH1 0x4 MSTORE PUSH1 0x24 DUP5 REVERT JUMPDEST SWAP2 PUSH1 0x7F AND SWAP2 PUSH2 0x5A2 JUMP JUMPDEST CALLVALUE PUSH2 0x13E JUMPI PUSH1 0x0 CALLDATASIZE PUSH1 0x3 NOT ADD SLT PUSH2 0x13E JUMPI PUSH1 0x1 SLOAD PUSH1 0x40 MLOAD PUSH1 0x1 PUSH1 0x1 PUSH1 0xA0 SHL SUB SWAP1 SWAP2 AND DUP2 MSTORE PUSH1 0x20 SWAP1 RETURN JUMPDEST CALLVALUE PUSH2 0x13E JUMPI PUSH1 0x0 CALLDATASIZE PUSH1 0x3 NOT ADD SLT PUSH2 0x13E JUMPI PUSH2 0x6D4 PUSH1 0x1 DUP1 PUSH1 0xA0 SHL SUB PUSH1 0x2 SLOAD AND CALLER EQ PUSH2 0xD70 JUMP JUMPDEST PUSH1 0x0 PUSH1 0x20 PUSH1 0x1 DUP1 PUSH1 0xA0 SHL SUB DUP3 SLOAD AND PUSH1 0x64 PUSH1 0x40 MLOAD DUP1 SWAP5 DUP2 SWAP4 PUSH4 0x31A51C1D PUSH1 0xE0 SHL DUP4 MSTORE DUP6 PUSH1 0x4 DUP5 ADD MSTORE PUSH1 0x8 PUSH1 0x24 DUP5 ADD MSTORE PUSH8 0x4E657720596F726B PUSH1 0xC0 SHL PUSH1 0x44 DUP5 ADD MSTORE GAS CALL DUP1 ISZERO PUSH2 0x40F JUMPI PUSH2 0x82A JUMPI JUMPDEST POP PUSH1 0x1 DUP1 PUSH1 0xA0 SHL SUB PUSH1 0x0 SLOAD AND PUSH1 0x20 PUSH1 0x40 MLOAD DUP1 SWAP3 PUSH4 0x20A61303 PUSH1 0xE2 SHL DUP3 MSTORE DUP2 PUSH1 0x0 DUP2 PUSH2 0x74D PUSH1 0x4 DUP3 ADD PUSH2 0xE6B JUMP JUMPDEST SUB SWAP3 GAS CALL DUP1 ISZERO PUSH2 0x40F JUMPI PUSH2 0x7FB JUMPI JUMPDEST POP PUSH1 0x1 DUP1 PUSH1 0xA0 SHL SUB PUSH1 0x0 SLOAD AND PUSH1 0x20 PUSH1 0x40 MLOAD DUP1 SWAP3 PUSH4 0x61E27917 PUSH1 0xE0 SHL DUP3 MSTORE DUP2 PUSH1 0x0 DUP2 PUSH2 0x789 PUSH1 0x4 DUP3 ADD PUSH2 0xE6B JUMP JUMPDEST SUB SWAP3 GAS CALL DUP1 ISZERO PUSH2 0x40F JUMPI PUSH2 0x7CC JUMPI JUMPDEST PUSH1 0x0 DUP1 MLOAD PUSH1 0x20 PUSH2 0x1367 DUP4 CODECOPY DUP2 MLOAD SWAP2 MSTORE PUSH1 0x80 PUSH1 0x40 MLOAD PUSH1 0x40 DUP2 MSTORE PUSH1 0x3 PUSH1 0x40 DUP3 ADD MSTORE PUSH3 0x185B1B PUSH1 0xEA SHL PUSH1 0x60 DUP3 ADD MSTORE TIMESTAMP PUSH1 0x20 DUP3 ADD MSTORE LOG1 STOP JUMPDEST PUSH1 0x20 DUP2 RETURNDATASIZE PUSH1 0x20 GT PUSH2 0x7F3 JUMPI JUMPDEST DUP2 PUSH2 0x7E5 PUSH1 0x20 SWAP4 DUP4 PUSH2 0xC7D JUMP JUMPDEST DUP2 ADD SUB SLT PUSH2 0x13E JUMPI MLOAD PUSH2 0x798 JUMP JUMPDEST RETURNDATASIZE SWAP2 POP PUSH2 0x7D8 JUMP JUMPDEST PUSH1 0x20 DUP2 RETURNDATASIZE PUSH1 0x20 GT PUSH2 0x822 JUMPI JUMPDEST DUP2 PUSH2 0x814 PUSH1 0x20 SWAP4 DUP4 PUSH2 0xC7D JUMP JUMPDEST DUP2 ADD SUB SLT PUSH2 0x13E JUMPI MLOAD PUSH2 0x75C JUMP JUMPDEST RETURNDATASIZE SWAP2 POP PUSH2 0x807 JUMP JUMPDEST PUSH1 0x20 DUP2 RETURNDATASIZE PUSH1 0x20 GT PUSH2 0x851 JUMPI JUMPDEST DUP2 PUSH2 0x843 PUSH1 0x20 SWAP4 DUP4 PUSH2 0xC7D JUMP JUMPDEST DUP2 ADD SUB SLT PUSH2 0x13E JUMPI MLOAD PUSH2 0x720 JUMP JUMPDEST RETURNDATASIZE SWAP2 POP PUSH2 0x836 JUMP JUMPDEST CALLVALUE PUSH2 0x13E JUMPI PUSH1 0x60 CALLDATASIZE PUSH1 0x3 NOT ADD SLT PUSH2 0x13E JUMPI PUSH1 0x4 CALLDATALOAD PUSH8 0xFFFFFFFFFFFFFFFF DUP2 GT PUSH2 0x13E JUMPI PUSH2 0x88A SWAP1 CALLDATASIZE SWAP1 PUSH1 0x4 ADD PUSH2 0xCB5 JUMP JUMPDEST PUSH1 0x24 CALLDATALOAD PUSH8 0xFFFFFFFFFFFFFFFF DUP2 GT PUSH2 0x13E JUMPI PUSH2 0x8AA SWAP1 CALLDATASIZE SWAP1 PUSH1 0x4 ADD PUSH2 0xCB5 JUMP JUMPDEST SWAP1 PUSH1 0x44 CALLDATALOAD PUSH8 0xFFFFFFFFFFFFFFFF DUP2 GT PUSH2 0x13E JUMPI PUSH2 0x8CB SWAP1 CALLDATASIZE SWAP1 PUSH1 0x4 ADD PUSH2 0xCB5 JUMP JUMPDEST SWAP2 PUSH2 0x8E1 PUSH1 0x1 DUP1 PUSH1 0xA0 SHL SUB PUSH1 0x2 SLOAD AND CALLER EQ PUSH2 0xD70 JUMP JUMPDEST DUP2 MLOAD ISZERO PUSH2 0xBEA JUMPI DUP1 MLOAD ISZERO PUSH2 0xBA5 JUMPI DUP2 MLOAD PUSH1 0x20 DUP4 ADD SWAP1 DUP2 KECCAK256 PUSH2 0x900 PUSH2 0xDC7 JUMP JUMPDEST PUSH1 0x20 DUP2 MLOAD SWAP2 ADD KECCAK256 EQ PUSH1 0x0 EQ PUSH2 0x9BC JUMPI POP PUSH1 0x0 SWAP3 POP PUSH2 0x948 PUSH1 0x20 SWAP2 PUSH1 0x1 DUP1 PUSH1 0xA0 SHL SUB DUP6 SLOAD AND SWAP1 PUSH1 0x40 MLOAD SWAP6 DUP7 DUP1 SWAP5 DUP2 SWAP4 PUSH4 0x31A51C1D PUSH1 0xE0 SHL DUP4 MSTORE DUP8 PUSH1 0x4 DUP5 ADD MSTORE PUSH1 0x24 DUP4 ADD SWAP1 PUSH2 0xD0C JUMP JUMPDEST SUB SWAP3 GAS CALL SWAP1 DUP2 ISZERO PUSH2 0x40F JUMPI PUSH1 0x0 DUP1 MLOAD PUSH1 0x20 PUSH2 0x1367 DUP4 CODECOPY DUP2 MLOAD SWAP2 MSTORE SWAP3 PUSH2 0x982 SWAP3 PUSH2 0x98D JUMPI JUMPDEST POP JUMPDEST PUSH1 0x40 MLOAD SWAP2 DUP3 SWAP2 PUSH1 0x40 DUP4 MSTORE PUSH1 0x40 DUP4 ADD SWAP1 PUSH2 0xD0C JUMP JUMPDEST TIMESTAMP PUSH1 0x20 DUP4 ADD MSTORE SUB SWAP1 LOG1 STOP JUMPDEST PUSH2 0x9AE SWAP1 PUSH1 0x20 RETURNDATASIZE PUSH1 0x20 GT PUSH2 0x9B5 JUMPI JUMPDEST PUSH2 0x9A6 DUP2 DUP4 PUSH2 0xC7D JUMP JUMPDEST DUP2 ADD SWAP1 PUSH2 0xE34 JUMP JUMPDEST POP DUP4 PUSH2 0x96C JUMP JUMPDEST POP RETURNDATASIZE PUSH2 0x99C JUMP JUMPDEST DUP3 MLOAD DUP2 KECCAK256 PUSH2 0x9C8 PUSH2 0xDE9 JUMP JUMPDEST PUSH1 0x20 DUP2 MLOAD SWAP2 ADD KECCAK256 EQ PUSH1 0x0 EQ PUSH2 0xA9E JUMPI POP DUP3 MLOAD ISZERO PUSH2 0xA59 JUMPI PUSH2 0xA10 SWAP3 PUSH1 0x20 SWAP2 PUSH1 0x1 DUP1 PUSH1 0xA0 SHL SUB PUSH1 0x0 SLOAD AND SWAP1 PUSH1 0x0 PUSH1 0x40 MLOAD DUP1 SWAP8 DUP2 SWAP6 DUP3 SWAP5 PUSH4 0x20A61303 PUSH1 0xE2 SHL DUP5 MSTORE PUSH1 0x4 DUP5 ADD PUSH2 0xE43 JUMP JUMPDEST SUB SWAP3 GAS CALL SWAP1 DUP2 ISZERO PUSH2 0x40F JUMPI PUSH1 0x0 DUP1 MLOAD PUSH1 0x20 PUSH2 0x1367 DUP4 CODECOPY DUP2 MLOAD SWAP2 MSTORE SWAP3 PUSH2 0x982 SWAP3 PUSH2 0xA3A JUMPI JUMPDEST POP PUSH2 0x96E JUMP JUMPDEST PUSH2 0xA52 SWAP1 PUSH1 0x20 RETURNDATASIZE PUSH1 0x20 GT PUSH2 0x9B5 JUMPI PUSH2 0x9A6 DUP2 DUP4 PUSH2 0xC7D JUMP JUMPDEST POP DUP4 PUSH2 0xA34 JUMP JUMPDEST PUSH1 0x40 MLOAD PUSH3 0x461BCD PUSH1 0xE5 SHL DUP2 MSTORE PUSH1 0x20 PUSH1 0x4 DUP3 ADD MSTORE PUSH1 0x1A PUSH1 0x24 DUP3 ADD MSTORE PUSH32 0x4C6F6E67697475646520726571756972656420666F7220434F32000000000000 PUSH1 0x44 DUP3 ADD MSTORE PUSH1 0x64 SWAP1 REVERT JUMPDEST DUP3 MLOAD SWAP1 KECCAK256 PUSH2 0xAAA PUSH2 0xE0A JUMP JUMPDEST PUSH1 0x20 DUP2 MLOAD SWAP2 ADD KECCAK256 EQ PUSH2 0xAD2 JUMPI JUMPDEST POP PUSH1 0x0 DUP1 MLOAD PUSH1 0x20 PUSH2 0x1367 DUP4 CODECOPY DUP2 MLOAD SWAP2 MSTORE SWAP2 POP PUSH2 0x982 SWAP1 PUSH2 0x96E JUMP JUMPDEST DUP3 MLOAD ISZERO PUSH2 0xB54 JUMPI PUSH2 0xB0A SWAP3 PUSH1 0x20 SWAP2 PUSH1 0x1 DUP1 PUSH1 0xA0 SHL SUB PUSH1 0x0 SLOAD AND SWAP1 PUSH1 0x0 PUSH1 0x40 MLOAD DUP1 SWAP8 DUP2 SWAP6 DUP3 SWAP5 PUSH4 0x61E27917 PUSH1 0xE0 SHL DUP5 MSTORE PUSH1 0x4 DUP5 ADD PUSH2 0xE43 JUMP JUMPDEST SUB SWAP3 GAS CALL SWAP1 DUP2 ISZERO PUSH2 0x40F JUMPI PUSH1 0x0 DUP1 MLOAD PUSH1 0x20 PUSH2 0x1367 DUP4 CODECOPY DUP2 MLOAD SWAP2 MSTORE SWAP3 PUSH2 0x982 SWAP3 PUSH2 0xB35 JUMPI JUMPDEST POP SWAP1 PUSH2 0xAB7 JUMP JUMPDEST PUSH2 0xB4D SWAP1 PUSH1 0x20 RETURNDATASIZE PUSH1 0x20 GT PUSH2 0x9B5 JUMPI PUSH2 0x9A6 DUP2 DUP4 PUSH2 0xC7D JUMP JUMPDEST POP DUP4 PUSH2 0xB2E JUMP JUMPDEST PUSH1 0x40 MLOAD PUSH3 0x461BCD PUSH1 0xE5 SHL DUP2 MSTORE PUSH1 0x20 PUSH1 0x4 DUP3 ADD MSTORE PUSH1 0x23 PUSH1 0x24 DUP3 ADD MSTORE PUSH32 0x4C6F6E67697475646520726571756972656420666F7220666F7265737420636F PUSH1 0x44 DUP3 ADD MSTORE PUSH3 0x3B32B9 PUSH1 0xE9 SHL PUSH1 0x64 DUP3 ADD MSTORE PUSH1 0x84 SWAP1 REVERT JUMPDEST PUSH1 0x40 MLOAD PUSH3 0x461BCD PUSH1 0xE5 SHL DUP2 MSTORE PUSH1 0x20 PUSH1 0x4 DUP3 ADD MSTORE PUSH1 0x18 PUSH1 0x24 DUP3 ADD MSTORE PUSH32 0x4C6F636174696F6E2063616E6E6F7420626520656D7074790000000000000000 PUSH1 0x44 DUP3 ADD MSTORE PUSH1 0x64 SWAP1 REVERT JUMPDEST PUSH1 0x40 MLOAD PUSH3 0x461BCD PUSH1 0xE5 SHL DUP2 MSTORE PUSH1 0x20 PUSH1 0x4 DUP3 ADD MSTORE PUSH1 0x16 PUSH1 0x24 DUP3 ADD MSTORE PUSH22 0x4D65747269632063616E6E6F7420626520656D707479 PUSH1 0x50 SHL PUSH1 0x44 DUP3 ADD MSTORE PUSH1 0x64 SWAP1 REVERT JUMPDEST CALLVALUE PUSH2 0x13E JUMPI PUSH1 0x0 CALLDATASIZE PUSH1 0x3 NOT ADD SLT PUSH2 0x13E JUMPI PUSH1 0x20 PUSH1 0x4 SLOAD PUSH1 0x40 MLOAD SWAP1 DUP2 MSTORE RETURN JUMPDEST CALLVALUE PUSH2 0x13E JUMPI PUSH1 0x0 CALLDATASIZE PUSH1 0x3 NOT ADD SLT PUSH2 0x13E JUMPI PUSH1 0x20 PUSH1 0x40 MLOAD PUSH1 0x2 DUP2 MSTORE RETURN JUMPDEST CALLVALUE PUSH2 0x13E JUMPI PUSH1 0x0 CALLDATASIZE PUSH1 0x3 NOT ADD SLT PUSH2 0x13E JUMPI DUP1 PUSH2 0x1C20 PUSH1 0x20 SWAP3 MSTORE RETURN JUMPDEST SWAP1 PUSH1 0x1F DUP1 NOT SWAP2 ADD AND DUP2 ADD SWAP1 DUP2 LT PUSH8 0xFFFFFFFFFFFFFFFF DUP3 GT OR PUSH2 0xC9F JUMPI PUSH1 0x40 MSTORE JUMP JUMPDEST PUSH4 0x4E487B71 PUSH1 0xE0 SHL PUSH1 0x0 MSTORE PUSH1 0x41 PUSH1 0x4 MSTORE PUSH1 0x24 PUSH1 0x0 REVERT JUMPDEST DUP2 PUSH1 0x1F DUP3 ADD SLT ISZERO PUSH2 0x13E JUMPI DUP1 CALLDATALOAD SWAP1 PUSH8 0xFFFFFFFFFFFFFFFF DUP3 GT PUSH2 0xC9F JUMPI PUSH1 0x40 MLOAD SWAP3 PUSH2 0xCEA PUSH1 0x1F DUP5 ADD PUSH1 0x1F NOT AND PUSH1 0x20 ADD DUP6 PUSH2 0xC7D JUMP JUMPDEST DUP3 DUP5 MSTORE PUSH1 0x20 DUP4 DUP4 ADD ADD GT PUSH2 0x13E JUMPI DUP2 PUSH1 0x0 SWAP3 PUSH1 0x20 DUP1 SWAP4 ADD DUP4 DUP7 ADD CALLDATACOPY DUP4 ADD ADD MSTORE SWAP1 JUMP JUMPDEST SWAP2 SWAP1 DUP3 MLOAD SWAP3 DUP4 DUP3 MSTORE PUSH1 0x0 JUMPDEST DUP5 DUP2 LT PUSH2 0xD38 JUMPI POP POP DUP3 PUSH1 0x0 PUSH1 0x20 DUP1 SWAP5 SWAP6 DUP5 ADD ADD MSTORE PUSH1 0x1F DUP1 NOT SWAP2 ADD AND ADD ADD SWAP1 JUMP JUMPDEST DUP1 PUSH1 0x20 DUP1 SWAP3 DUP5 ADD ADD MLOAD DUP3 DUP3 DUP7 ADD ADD MSTORE ADD PUSH2 0xD17 JUMP JUMPDEST SWAP1 PUSH1 0x3 DUP3 LT ISZERO PUSH2 0xD5A JUMPI MSTORE JUMP JUMPDEST PUSH4 0x4E487B71 PUSH1 0xE0 SHL PUSH1 0x0 MSTORE PUSH1 0x21 PUSH1 0x4 MSTORE PUSH1 0x24 PUSH1 0x0 REVERT JUMPDEST ISZERO PUSH2 0xD77 JUMPI JUMP JUMPDEST PUSH1 0x40 MLOAD PUSH3 0x461BCD PUSH1 0xE5 SHL DUP2 MSTORE PUSH1 0x20 PUSH1 0x4 DUP3 ADD MSTORE PUSH1 0x22 PUSH1 0x24 DUP3 ADD MSTORE PUSH32 0x4F6E6C79206F776E65722063616E20706572666F726D20746869732061637469 PUSH1 0x44 DUP3 ADD MSTORE PUSH2 0x37B7 PUSH1 0xF1 SHL PUSH1 0x64 DUP3 ADD MSTORE PUSH1 0x84 SWAP1 REVERT JUMPDEST PUSH1 0x40 MLOAD SWAP1 PUSH2 0xDD6 PUSH1 0x40 DUP4 PUSH2 0xC7D JUMP JUMPDEST PUSH1 0x4 DUP3 MSTORE PUSH4 0x706D3235 PUSH1 0xE0 SHL PUSH1 0x20 DUP4 ADD MSTORE JUMP JUMPDEST PUSH1 0x40 MLOAD SWAP1 PUSH2 0xDF8 PUSH1 0x40 DUP4 PUSH2 0xC7D JUMP JUMPDEST PUSH1 0x3 DUP3 MSTORE PUSH3 0x31B799 PUSH1 0xE9 SHL PUSH1 0x20 DUP4 ADD MSTORE JUMP JUMPDEST PUSH1 0x40 MLOAD SWAP1 PUSH2 0xE19 PUSH1 0x40 DUP4 PUSH2 0xC7D JUMP JUMPDEST PUSH1 0xC DUP3 MSTORE PUSH12 0x3337B932B9BA2FB1B7BB32B9 PUSH1 0xA1 SHL PUSH1 0x20 DUP4 ADD MSTORE JUMP JUMPDEST SWAP1 DUP2 PUSH1 0x20 SWAP2 SUB SLT PUSH2 0x13E JUMPI MLOAD SWAP1 JUMP JUMPDEST SWAP1 SWAP2 PUSH2 0xE5A PUSH2 0xE68 SWAP4 PUSH1 0x40 DUP5 MSTORE PUSH1 0x40 DUP5 ADD SWAP1 PUSH2 0xD0C JUMP JUMPDEST SWAP2 PUSH1 0x20 DUP2 DUP5 SUB SWAP2 ADD MSTORE PUSH2 0xD0C JUMP JUMPDEST SWAP1 JUMP JUMPDEST PUSH1 0xC0 SWAP1 PUSH1 0x40 DUP2 MSTORE PUSH1 0x7 PUSH1 0x40 DUP3 ADD MSTORE PUSH7 0x68605C6E62647 PUSH1 0xCB SHL PUSH1 0x60 DUP3 ADD MSTORE PUSH1 0x80 PUSH1 0x20 DUP3 ADD MSTORE PUSH1 0x8 PUSH1 0x80 DUP3 ADD MSTORE PUSH8 0x2D37342E3030363 PUSH1 0xC4 SHL PUSH1 0xA0 DUP3 ADD MSTORE ADD SWAP1 JUMP JUMPDEST MLOAD SWAP1 PUSH10 0xFFFFFFFFFFFFFFFFFFFF DUP3 AND DUP3 SUB PUSH2 0x13E JUMPI JUMP JUMPDEST SWAP1 DUP2 PUSH1 0xA0 SWAP2 SUB SLT PUSH2 0x13E JUMPI PUSH2 0xED7 DUP2 PUSH2 0xEAC JUMP JUMPDEST SWAP2 PUSH1 0x20 DUP3 ADD MLOAD SWAP2 PUSH1 0x40 DUP2 ADD MLOAD SWAP2 PUSH2 0xE68 PUSH1 0x80 PUSH1 0x60 DUP5 ADD MLOAD SWAP4 ADD PUSH2 0xEAC JUMP JUMPDEST SWAP2 SWAP1 DUP3 SUB SWAP2 DUP3 GT PUSH2 0xF02 JUMPI JUMP JUMPDEST PUSH4 0x4E487B71 PUSH1 0xE0 SHL PUSH1 0x0 MSTORE PUSH1 0x11 PUSH1 0x4 MSTORE PUSH1 0x24 PUSH1 0x0 REVERT JUMPDEST ISZERO PUSH2 0xF1F JUMPI JUMP JUMPDEST PUSH1 0x40 MLOAD PUSH3 0x461BCD PUSH1 0xE5 SHL DUP2 MSTORE PUSH1 0x20 PUSH1 0x4 DUP3 ADD MSTORE PUSH1 0xF PUSH1 0x24 DUP3 ADD MSTORE PUSH15 0x496E76616C69642061646472657373 PUSH1 0x88 SHL PUSH1 0x44 DUP3 ADD MSTORE PUSH1 0x64 SWAP1 REVERT JUMPDEST PUSH2 0xF5F DUP2 PUSH2 0x1188 JUMP JUMPDEST PUSH1 0x0 DUP2 SGT PUSH2 0x1015 JUMPI JUMPDEST POP PUSH1 0x1 SLOAD PUSH1 0x40 MLOAD PUSH4 0x1B380D1F PUSH1 0xE1 SHL DUP2 MSTORE PUSH1 0x20 PUSH1 0x4 DUP3 ADD MSTORE SWAP2 SWAP1 PUSH1 0xA0 SWAP1 DUP4 SWAP1 PUSH1 0x1 PUSH1 0x1 PUSH1 0xA0 SHL SUB AND DUP2 DUP1 PUSH2 0xF9F PUSH1 0x24 DUP3 ADD DUP8 PUSH2 0xD0C JUMP JUMPDEST SUB SWAP2 GAS STATICCALL DUP1 PUSH1 0x0 SWAP4 PUSH1 0x0 SWAP3 PUSH2 0xFEC JUMPI JUMPDEST POP PUSH2 0xFC0 JUMPI JUMPDEST POP PUSH2 0xE68 SWAP2 POP PUSH2 0x12C4 JUMP JUMPDEST PUSH2 0xFCD PUSH2 0x5460 SWAP2 TIMESTAMP PUSH2 0xEF5 JUMP JUMPDEST LT DUP1 PUSH2 0xFE2 JUMPI JUMPDEST PUSH2 0xFDE JUMPI DUP2 PUSH2 0xFB5 JUMP JUMPDEST POP SWAP1 JUMP JUMPDEST POP PUSH1 0x0 DUP3 SGT PUSH2 0xFD4 JUMP JUMPDEST SWAP1 SWAP4 POP PUSH2 0x1008 SWAP2 POP PUSH1 0xA0 RETURNDATASIZE PUSH1 0xA0 GT PUSH2 0x408 JUMPI PUSH2 0x3F4 DUP2 DUP4 PUSH2 0xC7D JUMP JUMPDEST POP SWAP5 SWAP3 POP POP SWAP3 SWAP1 CODESIZE PUSH2 0xFAF JUMP JUMPDEST PUSH1 0x0 SLOAD PUSH1 0x40 MLOAD PUSH4 0x3FABE5A3 PUSH1 0xE2 SHL DUP2 MSTORE SWAP1 PUSH1 0xA0 SWAP1 DUP3 SWAP1 PUSH1 0x4 SWAP1 DUP3 SWAP1 PUSH1 0x1 PUSH1 0x1 PUSH1 0xA0 SHL SUB AND GAS STATICCALL PUSH1 0x0 SWAP2 DUP2 PUSH2 0x106D JUMPI JUMPDEST POP PUSH2 0x1050 JUMPI JUMPDEST POP PUSH2 0xF68 JUMP JUMPDEST PUSH2 0x105D PUSH2 0x1C20 SWAP2 TIMESTAMP PUSH2 0xEF5 JUMP JUMPDEST LT PUSH2 0x1068 JUMPI DUP1 PUSH2 0x104A JUMP JUMPDEST SWAP1 POP SWAP1 JUMP JUMPDEST PUSH2 0x1087 SWAP2 SWAP3 POP PUSH1 0xA0 RETURNDATASIZE PUSH1 0xA0 GT PUSH2 0x408 JUMPI PUSH2 0x3F4 DUP2 DUP4 PUSH2 0xC7D JUMP JUMPDEST POP SWAP3 POP POP POP SWAP1 CODESIZE PUSH2 0x1044 JUMP JUMPDEST PUSH1 0x0 SLOAD PUSH1 0x40 MLOAD PUSH4 0x3FABE5A3 PUSH1 0xE2 SHL DUP2 MSTORE SWAP1 PUSH1 0xA0 SWAP1 DUP3 SWAP1 PUSH1 0x4 SWAP1 DUP3 SWAP1 PUSH1 0x1 PUSH1 0x1 PUSH1 0xA0 SHL SUB AND GAS STATICCALL SWAP1 PUSH1 0x0 SWAP1 DUP2 SWAP3 DUP3 DUP2 DUP2 SWAP4 DUP3 SWAP4 PUSH2 0x115C JUMPI JUMPDEST POP PUSH2 0x1146 JUMPI JUMPDEST POP POP PUSH1 0x1 SLOAD PUSH1 0x40 MLOAD PUSH4 0x3FABE5A3 PUSH1 0xE2 SHL DUP2 MSTORE SWAP4 POP PUSH1 0xA0 SWAP3 POP DUP4 SWAP2 POP PUSH1 0x4 SWAP1 DUP3 SWAP1 PUSH1 0x1 PUSH1 0x1 PUSH1 0xA0 SHL SUB AND GAS STATICCALL SWAP1 DUP2 ISZERO PUSH2 0x40F JUMPI PUSH1 0x0 SWAP2 DUP3 SWAP4 DUP4 DUP1 SWAP4 DUP2 SWAP4 PUSH2 0x1119 JUMPI JUMPDEST POP SWAP5 SWAP4 SWAP3 SWAP2 SWAP1 JUMP JUMPDEST SWAP4 POP POP SWAP4 POP POP PUSH2 0x1138 SWAP2 POP PUSH1 0xA0 RETURNDATASIZE PUSH1 0xA0 GT PUSH2 0x408 JUMPI PUSH2 0x3F4 DUP2 DUP4 PUSH2 0xC7D JUMP JUMPDEST SWAP3 SWAP5 SWAP2 SWAP4 SWAP1 SWAP3 SWAP2 SWAP1 CODESIZE PUSH2 0x1111 JUMP JUMPDEST PUSH2 0x1C20 PUSH2 0x1153 DUP5 TIMESTAMP PUSH2 0xEF5 JUMP JUMPDEST LT ISZERO PUSH2 0x10D0 JUMPI SWAP5 JUMP JUMPDEST SWAP4 POP SWAP5 POP POP POP PUSH2 0x117B SWAP2 POP PUSH1 0xA0 RETURNDATASIZE PUSH1 0xA0 GT PUSH2 0x408 JUMPI PUSH2 0x3F4 DUP2 DUP4 PUSH2 0xC7D JUMP JUMPDEST SWAP3 SWAP5 SWAP2 SWAP4 SWAP1 SWAP3 SWAP2 CODESIZE PUSH2 0x10CA JUMP JUMPDEST DUP1 MLOAD SWAP1 PUSH1 0x20 DUP2 ADD SWAP2 DUP3 KECCAK256 PUSH2 0x119A PUSH2 0xDC7 JUMP JUMPDEST PUSH1 0x20 DUP2 MLOAD SWAP2 ADD KECCAK256 EQ PUSH1 0x0 EQ PUSH2 0x1219 JUMPI POP POP PUSH1 0x0 SLOAD PUSH1 0x40 MLOAD PUSH4 0xB53EEB6F PUSH1 0xE0 SHL DUP2 MSTORE SWAP1 PUSH1 0x20 SWAP1 DUP3 SWAP1 PUSH1 0x4 SWAP1 DUP3 SWAP1 PUSH1 0x1 PUSH1 0x1 PUSH1 0xA0 SHL SUB AND GAS STATICCALL PUSH1 0x0 SWAP2 DUP2 PUSH2 0x11E5 JUMPI JUMPDEST POP PUSH2 0xE68 JUMPI POP PUSH1 0x0 SWAP1 JUMP JUMPDEST SWAP1 SWAP2 POP PUSH1 0x20 DUP2 RETURNDATASIZE PUSH1 0x20 GT PUSH2 0x1211 JUMPI JUMPDEST DUP2 PUSH2 0x1201 PUSH1 0x20 SWAP4 DUP4 PUSH2 0xC7D JUMP JUMPDEST DUP2 ADD SUB SLT PUSH2 0x13E JUMPI MLOAD SWAP1 CODESIZE PUSH2 0x11DA JUMP JUMPDEST RETURNDATASIZE SWAP2 POP PUSH2 0x11F4 JUMP JUMPDEST DUP1 MLOAD DUP3 KECCAK256 PUSH2 0x1225 PUSH2 0xDE9 JUMP JUMPDEST PUSH1 0x20 DUP2 MLOAD SWAP2 ADD KECCAK256 EQ PUSH1 0x0 EQ PUSH2 0x126F JUMPI POP POP PUSH1 0x0 SLOAD PUSH1 0x40 MLOAD PUSH4 0x5F87653F PUSH1 0xE1 SHL DUP2 MSTORE SWAP1 PUSH1 0x20 SWAP1 DUP3 SWAP1 PUSH1 0x4 SWAP1 DUP3 SWAP1 PUSH1 0x1 PUSH1 0x1 PUSH1 0xA0 SHL SUB AND GAS STATICCALL PUSH1 0x0 SWAP2 DUP2 PUSH2 0x11E5 JUMPI POP PUSH2 0xE68 JUMPI POP PUSH1 0x0 SWAP1 JUMP JUMPDEST MLOAD SWAP1 KECCAK256 PUSH2 0x127A PUSH2 0xE0A JUMP JUMPDEST PUSH1 0x20 DUP2 MLOAD SWAP2 ADD KECCAK256 EQ PUSH2 0x128B JUMPI PUSH1 0x0 SWAP1 JUMP JUMPDEST PUSH1 0x0 SLOAD PUSH1 0x40 MLOAD PUSH4 0xBB99B969 PUSH1 0xE0 SHL DUP2 MSTORE SWAP1 PUSH1 0x20 SWAP1 DUP3 SWAP1 PUSH1 0x4 SWAP1 DUP3 SWAP1 PUSH1 0x1 PUSH1 0x1 PUSH1 0xA0 SHL SUB AND GAS STATICCALL PUSH1 0x0 SWAP2 DUP2 PUSH2 0x11E5 JUMPI POP PUSH2 0xE68 JUMPI POP PUSH1 0x0 SWAP1 JUMP JUMPDEST DUP1 MLOAD SWAP1 PUSH1 0x20 DUP2 ADD SWAP2 DUP3 KECCAK256 PUSH2 0x12D6 PUSH2 0xDC7 JUMP JUMPDEST PUSH1 0x20 DUP2 MLOAD SWAP2 ADD KECCAK256 EQ PUSH1 0x0 EQ PUSH2 0x12ED JUMPI POP POP PUSH2 0x5DC SWAP1 JUMP JUMPDEST DUP1 MLOAD DUP3 KECCAK256 PUSH2 0x12F9 PUSH2 0xDE9 JUMP JUMPDEST PUSH1 0x20 DUP2 MLOAD SWAP2 ADD KECCAK256 EQ PUSH1 0x0 EQ PUSH2 0x1310 JUMPI POP POP PUSH2 0xA410 SWAP1 JUMP JUMPDEST DUP1 MLOAD DUP3 KECCAK256 PUSH2 0x131C PUSH2 0xE0A JUMP JUMPDEST PUSH1 0x20 DUP2 MLOAD SWAP2 ADD KECCAK256 EQ PUSH1 0x0 EQ PUSH2 0x1333 JUMPI POP POP PUSH2 0x1A90 SWAP1 JUMP JUMPDEST MLOAD SWAP1 KECCAK256 PUSH1 0x3 PUSH1 0x20 PUSH1 0x40 MLOAD PUSH2 0x1348 PUSH1 0x40 DUP3 PUSH2 0xC7D JUMP JUMPDEST DUP3 DUP2 MSTORE ADD PUSH3 0x617169 PUSH1 0xE8 SHL DUP2 MSTORE KECCAK256 EQ PUSH2 0x1360 JUMPI PUSH1 0x0 SWAP1 JUMP JUMPDEST PUSH2 0x2134 SWAP1 JUMP INVALID 0x2A SWAP6 0xE0 0xAA LOG1 0xAC PUSH11 0xFFED57D67AE75FDCE2FDBD STATICCALL 0x4D 0xD6 DUP16 0xD3 0x23 INVALID 0xF9 PUSH2 0x8559 0xA7 0xB5 MUL LOG2 PUSH5 0x6970667358 0x22 SLT KECCAK256 MLOAD BASEFEE 0xC7 DUP13 EQ SWAP3 CALLDATASIZE PUSH18 0xA7216C8E06910DF5E60652B22F8C539521FE 0x24 PUSH15 0xA6BB249364736F6C634300081C0033 "},"methodIdentifiers":{"CHAINLINK_TIMEOUT()":"048c0965","FALLBACK_TIMEOUT()":"d33b3505","chainlinkOracle()":"ef06e72c","currentStatus()":"ef8a9235","decimals()":"313ce567","description()":"7284e416","fallbackOracle()":"629838e5","getEnvironmentalData(string)":"d1b5f24d","getOracleStatus()":"82a0b84f","getRoundData(uint80)":"9a6fc8f5","latestRoundData()":"feaf968c","owner()":"8da5cb5b","requestAllEnvironmentalData()":"60c0e35f","requestChainlinkData(string,string,string)":"5fd0b34a","transferOwnership(address)":"f2fde38b","updateChainlinkOracle(address)":"d4bd4993","updateFallbackOracle(address)":"ae1acb23","version()":"54fd4d50"}}}}}