{"contracts/CivicXChainComplete.sol":{"CivicXChainComplete":{"abi":[{"inputs":[{"internalType":"address","name":"_environmentalOracle","type":"address"},{"internalType":"address","name":"_civicToken","type":"address"}],"stateMutability":"nonpayable","type":"constructor"},{"anonymous":false,"inputs":[{"indexed":true,"internalType":"uint256","name":"id","type":"uint256"},{"indexed":true,"internalType":"address","name":"official","type":"address"},{"indexed":false,"internalType":"string","name":"title","type":"string"},{"indexed":false,"internalType":"uint256","name":"targetValue","type":"uint256"},{"indexed":false,"internalType":"uint256","name":"deadline","type":"uint256"},{"indexed":false,"internalType":"string","name":"metricType","type":"string"}],"name":"CommitmentCreated","type":"event"},{"anonymous":false,"inputs":[{"indexed":true,"internalType":"uint256","name":"id","type":"uint256"},{"indexed":true,"internalType":"address","name":"official","type":"address"},{"indexed":false,"internalType":"uint256","name":"actualValue","type":"uint256"},{"indexed":false,"internalType":"uint256","name":"penalty","type":"uint256"}],"name":"CommitmentFailed","type":"event"},{"anonymous":false,"inputs":[{"indexed":true,"internalType":"uint256","name":"id","type":"uint256"},{"indexed":true,"internalType":"address","name":"official","type":"address"},{"indexed":false,"internalType":"uint256","name":"actualValue","type":"uint256"},{"indexed":false,"internalType":"uint256","name":"reward","type":"uint256"}],"name":"CommitmentFulfilled","type":"event"},{"anonymous":false,"inputs":[{"indexed":true,"internalType":"uint256","name":"id","type":"uint256"},{"indexed":false,"internalType":"bool","name":"success","type":"bool"},{"indexed":false,"internalType":"uint256","name":"actualValue","type":"uint256"}],"name":"CommitmentVerified","type":"event"},{"anonymous":false,"inputs":[{"indexed":true,"internalType":"address","name":"previousOwner","type":"address"},{"indexed":true,"internalType":"address","name":"newOwner","type":"address"}],"name":"OwnershipTransferred","type":"event"},{"inputs":[],"name":"civicToken","outputs":[{"internalType":"contract CivicToken","name":"","type":"address"}],"stateMutability":"view","type":"function"},{"inputs":[{"internalType":"uint256","name":"","type":"uint256"}],"name":"commitments","outputs":[{"internalType":"uint256","name":"id","type":"uint256"},{"internalType":"string","name":"title","type":"string"},{"internalType":"string","name":"description","type":"string"},{"internalType":"address","name":"official","type":"address"},{"internalType":"string","name":"officialName","type":"string"},{"internalType":"string","name":"role","type":"string"},{"internalType":"uint256","name":"targetValue","type":"uint256"},{"internalType":"uint256","name":"deadline","type":"uint256"},{"internalType":"uint256","name":"stakeAmount","type":"uint256"},{"internalType":"bool","name":"isActive","type":"bool"},{"internalType":"bool","name":"isFulfilled","type":"bool"},{"internalType":"bool","name":"isVerified","type":"bool"},{"internalType":"uint256","name":"createdAt","type":"uint256"},{"internalType":"uint256","name":"verifiedAt","type":"uint256"},{"internalType":"string","name":"metricType","type":"string"},{"internalType":"uint256","name":"actualValue","type":"uint256"},{"internalType":"uint256","name":"baselineValue","type":"uint256"}],"stateMutability":"view","type":"function"},{"inputs":[{"internalType":"string","name":"_title","type":"string"},{"internalType":"string","name":"_description","type":"string"},{"internalType":"string","name":"_officialName","type":"string"},{"internalType":"string","name":"_role","type":"string"},{"internalType":"uint256","name":"_targetValue","type":"uint256"},{"internalType":"uint256","name":"_deadline","type":"uint256"},{"internalType":"uint256","name":"_stakeAmount","type":"uint256"},{"internalType":"string","name":"_metricType","type":"string"}],"name":"createCommitment","outputs":[],"stateMutability":"nonpayable","type":"function"},{"inputs":[],"name":"environmentalOracle","outputs":[{"internalType":"contract EnvironmentalDataOracle","name":"","type":"address"}],"stateMutability":"view","type":"function"},{"inputs":[],"name":"failedCommitments","outputs":[{"internalType":"uint256","name":"","type":"uint256"}],"stateMutability":"view","type":"function"},{"inputs":[],"name":"fulfilledCommitments","outputs":[{"internalType":"uint256","name":"","type":"uint256"}],"stateMutability":"view","type":"function"},{"inputs":[{"internalType":"uint256","name":"_commitmentId","type":"uint256"}],"name":"getCommitment","outputs":[{"components":[{"internalType":"uint256","name":"id","type":"uint256"},{"internalType":"string","name":"title","type":"string"},{"internalType":"string","name":"description","type":"string"},{"internalType":"address","name":"official","type":"address"},{"internalType":"string","name":"officialName","type":"string"},{"internalType":"string","name":"role","type":"string"},{"internalType":"uint256","name":"targetValue","type":"uint256"},{"internalType":"uint256","name":"deadline","type":"uint256"},{"internalType":"uint256","name":"stakeAmount","type":"uint256"},{"internalType":"bool","name":"isActive","type":"bool"},{"internalType":"bool","name":"isFulfilled","type":"bool"},{"internalType":"bool","name":"isVerified","type":"bool"},{"internalType":"uint256","name":"createdAt","type":"uint256"},{"internalType":"uint256","name":"verifiedAt","type":"uint256"},{"internalType":"string","name":"metricType","type":"string"},{"internalType":"uint256","name":"actualValue","type":"uint256"},{"internalType":"uint256","name":"baselineValue","type":"uint256"}],"internalType":"struct CivicXChainComplete.Commitment","name":"","type":"tuple"}],"stateMutability":"view","type":"function"},{"inputs":[{"internalType":"string","name":"metricType","type":"string"}],"name":"getCurrentMetricValue","outputs":[{"internalType":"uint256","name":"","type":"uint256"}],"stateMutability":"view","type":"function"},{"inputs":[{"internalType":"address","name":"_official","type":"address"}],"name":"getOfficialCommitments","outputs":[{"internalType":"uint256[]","name":"","type":"uint256[]"}],"stateMutability":"view","type":"function"},{"inputs":[],"name":"getStats","outputs":[{"internalType":"uint256","name":"total","type":"uint256"},{"internalType":"uint256","name":"fulfilled","type":"uint256"},{"internalType":"uint256","name":"failed","type":"uint256"},{"internalType":"uint256","name":"active","type":"uint256"}],"stateMutability":"view","type":"function"},{"inputs":[{"internalType":"string","name":"","type":"string"}],"name":"metricThresholds","outputs":[{"internalType":"uint256","name":"","type":"uint256"}],"stateMutability":"view","type":"function"},{"inputs":[],"name":"minimumStake","outputs":[{"internalType":"uint256","name":"","type":"uint256"}],"stateMutability":"view","type":"function"},{"inputs":[],"name":"nextCommitmentId","outputs":[{"internalType":"uint256","name":"","type":"uint256"}],"stateMutability":"view","type":"function"},{"inputs":[{"internalType":"address","name":"","type":"address"},{"internalType":"uint256","name":"","type":"uint256"}],"name":"officialCommitments","outputs":[{"internalType":"uint256","name":"","type":"uint256"}],"stateMutability":"view","type":"function"},{"inputs":[],"name":"owner","outputs":[{"internalType":"address","name":"","type":"address"}],"stateMutability":"view","type":"function"},{"inputs":[],"name":"renounceOwnership","outputs":[],"stateMutability":"nonpayable","type":"function"},{"inputs":[],"name":"totalCommitments","outputs":[{"internalType":"uint256","name":"","type":"uint256"}],"stateMutability":"view","type":"function"},{"inputs":[{"internalType":"address","name":"newOwner","type":"address"}],"name":"transferOwnership","outputs":[],"stateMutability":"nonpayable","type":"function"},{"inputs":[{"internalType":"address","name":"_newOracle","type":"address"}],"name":"updateOracle","outputs":[],"stateMutability":"nonpayable","type":"function"},{"inputs":[{"internalType":"uint256","name":"_newWindow","type":"uint256"}],"name":"updateVerificationWindow","outputs":[],"stateMutability":"nonpayable","type":"function"},{"inputs":[],"name":"verificationWindow","outputs":[{"internalType":"uint256","name":"","type":"uint256"}],"stateMutability":"view","type":"function"},{"inputs":[{"internalType":"uint256","name":"_commitmentId","type":"uint256"}],"name":"verifyCommitment","outputs":[],"stateMutability":"nonpayable","type":"function"}],"evm":{"bytecode":{"linkReferences":{},"object":"60803461014357601f61237338819003918201601f19168301916001600160401b0383118484101761014857808492604094855283398101031261014357602481610057602061005060649561015e565b920161015e565b60008054336001600160a01b0319821681178355604051949290916001600160a01b0316907f8be0079c531659141344cd1fd0a4f28419497f9722a3daafe3b4186f6b6457e09080a360018055600160075562015180600b5568056bc75e2d63100000600c5560018060a01b031660018060a01b0319600254161760025560018060a01b031660018060a01b0319600354161760035563504d323560e01b8152600660048201522055606460236040516221a79960e91b815260066003820152205560326026604051651193d49154d560d21b8152600680820152205560405161220090816101738239f35b600080fd5b634e487b7160e01b600052604160045260246000fd5b51906001600160a01b03821682036101435756fe6080604052600436101561001257600080fd5b6000803560e01c80631cb44dfc14611a235780631f63855014611a055780632b208f73146119c75780632e2c138c1461199e5780633521e9f51461128a5780633e8554a21461126757806349ce8997146111025780635ac48e6d146110e457806369bcdb7d14610f1f578063715018a614610ec557806375242d7114610e6857806378bb86d314610e4a5780638da5cb5b14610e2357806390bb9a2914610dcc5780639707384214610dae57806397122a5d14610338578063b3e14b3114610283578063c59d48471461023c578063d9bb082914610213578063ec5ffac2146101f5578063f2fde38b1461012f5763f79f55b61461010f57600080fd5b3461012c578060031936011261012c576020600b54604051908152f35b80fd5b503461012c57602036600319011261012c57610149611a68565b610151612020565b6001600160a01b031680156101a15781546001600160a01b03198116821783556001600160a01b03167f8be0079c531659141344cd1fd0a4f28419497f9722a3daafe3b4186f6b6457e08380a380f35b60405162461bcd60e51b815260206004820152602660248201527f4f776e61626c653a206e6577206f776e657220697320746865207a65726f206160448201526564647265737360d01b6064820152608490fd5b503461012c578060031936011261012c576020600c54604051908152f35b503461012c578060031936011261012c576002546040516001600160a01b039091168152602090f35b503461012c578060031936011261012c576080600854600954600a5461026b816102668486612013565b612013565b91604051938452602084015260408301526060820152f35b503461012c57602036600319011261012c576001600160a01b036102a5611a68565b168152600560205260408120604051908160208254918281520190819285526020852090855b81811061032257505050826102e1910383611ab5565b604051928392602084019060208552518091526040840192915b818110610309575050500390f35b82518452859450602093840193909201916001016102fb565b82548452602090930192600192830192016102cb565b503461012c5761010036600319011261012c576004356001600160401b038111610daa5761036a903690600401611ad6565b6024356001600160401b038111610da657610389903690600401611ad6565b906044356001600160401b038111610da2576103a9903690600401611ad6565b916064356001600160401b038111610d9e576103c9903690600401611ad6565b9260c4359360e4356001600160401b038111610d9a576103ed903690600401611ad6565b946103f6612078565b4260a4351115610d5557600c548110610d1957855115610cdd576003546040516323b872dd60e01b81523360048201523060248201526044810183905290602090829060649082908c906001600160a01b03165af1908115610cd2578891610ca3575b5015610c665761046886611c80565b91600754936040519561047a87611a83565b8587528760208801526040870152336060870152608086015260a085015260843560c085015260a43560e08501526101008401526001610120840152856101408401528561016084015242610180840152856101a0840152846101c0840152856101e08401526102008301528452600460205260408420908051825560208101518051906001600160401b0382116109fc57819061051b6001860154611b2c565b601f8111610c16575b50602090601f8311600114610ba8578892610b9d575b50508160011b916000199060031b1c19161760018301555b60408101518051906001600160401b0382116109fc5781906105776002860154611b2c565b601f8111610b4d575b50602090601f8311600114610adf578892610ad4575b50508160011b916000199060031b1c19161760028301555b6003820160018060a01b036060830151166bffffffffffffffffffffffff60a01b82541617905560808101518051906001600160401b0382116109fc5781906105fa6004860154611b2c565b601f8111610a84575b50602090601f8311600114610a1b578892610a10575b50508160011b916000199060031b1c19161760048301555b60a08101518051906001600160401b0382116109fc5781906106566005860154611b2c565b601f81116109ac575b50602090601f8311600114610943578892610938575b50508160011b916000199060031b1c19161760058301555b60c0810151600683015560e08101516007830155610100810151600883015560098201610120820151151560ff80198354169116178155610140820151151561ff0082549160081b169061ff001916178155610160820151151562ff000082549160101b169062ff00001916179055610180810151600a8301556101a0810151600b830155600c82016101c08201518051906001600160401b038211610924576107378354611b2c565b601f81116108df575b50602090601f83116001146108755791806102009492600e96948b9261086a575b50508160011b916000199060031b1c19161790555b6101e0810151600d8501550151910155338352600560205260408320600754908054906801000000000000000082101561085657916107c38261084c969460016108259795018155611c52565b819291549060031b91821b91600019901b19161790556107e4600854611f43565b6008557f8df3aea74878b39de783d0f74ba234c6de78c600b1cb48ea42f1375abb305886600754938492610844604051928392608084526080840190611c2d565b608435602084015260a435604084015282810360608401523396611c2d565b0390a3611f43565b6007556001805580f35b634e487b7160e01b86526041600452602486fd5b015190503880610761565b8389528189209190601f1984168a5b8181106108c75750926001928592600e98966102009896106108ae575b505050811b019055610776565b015160001960f88460031b161c191690553880806108a1565b92936020600181928786015181550195019301610884565b83895260208920601f840160051c8101916020851061091a575b601f0160051c01905b81811061090f5750610740565b898155600101610902565b90915081906108f9565b634e487b7160e01b88526041600452602488fd5b015190503880610675565b6005860189528189209250601f198416895b818110610994575090846001959493921061097b575b505050811b01600583015561068d565b015160001960f88460031b161c1916905538808061096b565b92936020600181928786015181550195019301610955565b90915060058501885260208820601f840160051c8101602085106109f5575b90849392915b601f830160051c820181106109e757505061065f565b8a81558594506001016109d1565b50806109cb565b634e487b7160e01b87526041600452602487fd5b015190503880610619565b6004860189528189209250601f198416895b818110610a6c5750908460019594939210610a53575b505050811b016004830155610631565b015160001960f88460031b161c19169055388080610a43565b92936020600181928786015181550195019301610a2d565b90915060048501885260208820601f840160051c810160208510610acd575b90849392915b601f830160051c82018110610abf575050610603565b8a8155859450600101610aa9565b5080610aa3565b015190503880610596565b92506002850188528088209088935b601f1984168510610b32576001945083601f19811610610b19575b505050811b0160028301556105ae565b015160001960f88460031b161c19169055388080610b09565b81810151835560209485019460019093019290910190610aee565b90915060028501885260208820601f840160051c810160208510610b96575b90849392915b601f830160051c82018110610b88575050610580565b8a8155859450600101610b72565b5080610b6c565b01519050388061053a565b92506001850188528088209088935b601f1984168510610bfb576001945083601f19811610610be2575b505050811b016001830155610552565b015160001960f88460031b161c19169055388080610bd2565b81810151835560209485019460019093019290910190610bb7565b90915060018501885260208820601f840160051c810160208510610c5f575b90849392915b601f830160051c82018110610c51575050610524565b8a8155859450600101610c3b565b5080610c35565b60405162461bcd60e51b815260206004820152601560248201527414dd185ad9481d1c985b9cd9995c8819985a5b1959605a1b6044820152606490fd5b610cc5915060203d602011610ccb575b610cbd8183611ab5565b810190611ffb565b38610459565b503d610cb3565b6040513d8a823e3d90fd5b60405162461bcd60e51b815260206004820152601460248201527313595d1c9a58c81d1e5c19481c995c5d5a5c995960621b6044820152606490fd5b60405162461bcd60e51b81526020600482015260146024820152735374616b6520616d6f756e7420746f6f206c6f7760601b6044820152606490fd5b60405162461bcd60e51b815260206004820152601a60248201527f446561646c696e65206d75737420626520696e206675747572650000000000006044820152606490fd5b8680fd5b8480fd5b8380fd5b8280fd5b5080fd5b503461012c578060031936011261012c576020600954604051908152f35b503461012c57604036600319011261012c57610de6611a68565b6001600160a01b031681526005602052604081208054602435929083101561012c576020610e148484611c52565b90549060031b1c604051908152f35b503461012c578060031936011261012c57546040516001600160a01b039091168152602090f35b503461012c578060031936011261012c576020600854604051908152f35b503461012c57602036600319011261012c57600435906001600160401b03821161012c576020610eb281610e9f3660048701611ad6565b8160405193828580945193849201611c0a565b8101600681520301902054604051908152f35b503461012c578060031936011261012c57610ede612020565b80546001600160a01b03198116825581906001600160a01b03167f8be0079c531659141344cd1fd0a4f28419497f9722a3daafe3b4186f6b6457e08280a380f35b503461012c57602036600319011261012c57604081610fc1926102008351610f4681611a83565b8281526060602082015260608582015282606082015260606080820152606060a08201528260c08201528260e08201528261010082015282610120820152826101408201528261016082015282610180820152826101a082015260606101c0820152826101e082015201526004358152600460205220611e4f565b604051809160208252805160208301526102006110cd61105261103c611011610ffb602087015161022060408a0152610240890190611c2d565b6040870151888203601f190160608a0152611c2d565b60608601516001600160a01b0316608088810191909152860151878203601f190160a0890152611c2d565b60a0850151868203601f190160c0880152611c2d565b60c084015160e086015260e08401516101008601526101008401516101208601526101208401511515610140860152610140840151151561016086015261016084015115156101808601526101808401516101a08601526101a08401516101c08601526101c0840151601f19868303016101e0870152611c2d565b916101e08101518285015201516102208301520390f35b503461012c578060031936011261012c576020600754604051908152f35b503461012c57602036600319011261012c576004803582526020526040902080549061113060018201611b66565b9061113d60028201611b66565b600382015490936001600160a01b039091169061115c60048401611b66565b61116860058501611b66565b9060068501549160078601546008870154600988015491600a89015493600b8a015495600c8b0161119890611b66565b98600d8c01549b600e01549a6040519e8f9e8f93845260208401610220905261022084016111c591611c2d565b83810360408501526111d691611c2d565b91606001528c80820390608001526111ed91611c2d565b8b810360a08d01526111fe91611c2d565b9560c08b015260e08a015261010089015260ff811615156101208901528060081c60ff16151561014089015260101c60ff1615156101608801526101808701526101a08601528481036101c086015261125691611c2d565b916101e08401526102008301520390f35b503461012c57602036600319011261012c57611281612020565b600435600b5580f35b503461012c57602036600319011261012c576004356112a7612078565b8082526004602052604082206009810180549060ff8216156119615760ff8260101c166119295760078301548042106118ed57600b5481018091116118d957421161189457600c83016201000061130561130083611b66565b611c80565b9384600d87015542600b87015562ff0000191617825561132c61132785611e4f565b6120ce565b93841561161d579061137b9161010061ff0019855416178455611350600954611f43565b600955602060018060a01b03600354169260405180958192636984bf0760e01b835260048301611f68565b0381855afa928315610cd25788936115e5575b50600381018054600883015460405163a9059cbb60e01b81526001600160a01b03909216600483015260248201529092602090829060449082908d905af180156115da576115bd575b506003548254604051750233ab63334b63632b21031b7b6b6b4ba36b2b73a1d160551b602082015260019390930180546001600160a01b03928316948c949093169184919061142582611b2c565b918560018216918260001461159b57505060011461155e575b5050826114539103601f198101845283611ab5565b803b15610da65761148e93836040518096819582946306759c1760e11b845260048401528a6024840152606060448401526064830190611c2d565b03925af18015610cd25761150b575b509160409391867fe1b142cd7e48318879cd958fa0d9b615018d4fca77e7a842c0ce77ad970f526d866000805160206121ab833981519152989660018060a01b03905416938151908782526020820152a35b805460ff19169055825191151582526020820152a26001805580f35b91867fe1b142cd7e48318879cd958fa0d9b615018d4fca77e7a842c0ce77ad970f526d60408a61154f6000805160206121ab8339815191529a98969c839a98611ab5565b9a94969850505050919361149d565b90915084526020842084905b82821061158157505082016036018261145361143e565b8054603683870101528d955060209091019060010161156a565b9093915061145394506036925060ff191682840152801515028201019161143e565b6115d59060203d602011610ccb57610cbd8183611ab5565b6113d7565b6040513d8b823e3d90fd5b9092506020813d602011611615575b8161160160209383611ab5565b810103126116115751913861138e565b8780fd5b3d91506115f4565b9290939161162c600a54611f43565b600a55600354604051637854cf5960e01b81526001600160a01b03909116956020908290819061165f9060048301611f68565b0381895afa908115610cd2578891611862575b508760088601968754908382116000146117cf57505060035460405163a9059cbb60e01b8152600481018b905260248101849052979150602090889060449082908d906001600160a01b03165af19081156115da5761172b976020926117b4575b5060018060a01b03600354166116f78460018060a01b0360038b0154169354612013565b60405163a9059cbb60e01b81526001600160a01b0390931660048401526024830152909788919082908c9082906044820190565b03925af1948515610cd2577fa016602979aee78282c115343a0b7897ab7dd5d6086d988b41164391b393d0e7604089926000805160206121ab833981519152998299611795575b505b60030154815187815260208101959095526001600160a01b031693a36114ef565b6117ad9060203d602011610ccb57610cbd8183611ab5565b5038611772565b6117ca90833d8511610ccb57610cbd8183611ab5565b6116d3565b60405163a9059cbb60e01b8152600481018490526024810192909252909750602091889160449183915af1948515610cd2577fa016602979aee78282c115343a0b7897ab7dd5d6086d988b41164391b393d0e7604089926000805160206121ab833981519152998299611843575b50611774565b61185b9060203d602011610ccb57610cbd8183611ab5565b503861183d565b90506020813d60201161188c575b8161187d60209383611ab5565b81010312611611575138611672565b3d9150611870565b60405162461bcd60e51b815260206004820152601b60248201527f566572696669636174696f6e2077696e646f77206578706972656400000000006044820152606490fd5b634e487b7160e01b86526011600452602486fd5b60405162461bcd60e51b8152602060048201526014602482015273111958591b1a5b99481b9bdd081c995858da195960621b6044820152606490fd5b60405162461bcd60e51b815260206004820152601060248201526f105b1c9958591e481d995c9a599a595960821b6044820152606490fd5b60405162461bcd60e51b8152602060048201526015602482015274436f6d6d69746d656e74206e6f742061637469766560581b6044820152606490fd5b503461012c578060031936011261012c576003546040516001600160a01b039091168152602090f35b503461012c57602036600319011261012c57600435906001600160401b03821161012c5760206119fd6113003660048601611ad6565b604051908152f35b503461012c578060031936011261012c576020600a54604051908152f35b503461012c57602036600319011261012c57611a3d611a68565b611a45612020565b60018060a01b03166bffffffffffffffffffffffff60a01b600254161760025580f35b600435906001600160a01b0382168203611a7e57565b600080fd5b61022081019081106001600160401b03821117611a9f57604052565b634e487b7160e01b600052604160045260246000fd5b90601f801991011681019081106001600160401b03821117611a9f57604052565b81601f82011215611a7e578035906001600160401b038211611a9f5760405192611b0a601f8401601f191660200185611ab5565b82845260208383010111611a7e57816000926020809301838601378301015290565b90600182811c92168015611b5c575b6020831014611b4657565b634e487b7160e01b600052602260045260246000fd5b91607f1691611b3b565b9060405191826000825492611b7a84611b2c565b8084529360018116908115611be85750600114611ba1575b50611b9f92500383611ab5565b565b90506000929192526020600020906000915b818310611bcc575050906020611b9f9282010138611b92565b6020919350806001915483858901015201910190918492611bb3565b905060209250611b9f94915060ff191682840152151560051b82010138611b92565b60005b838110611c1d5750506000910152565b8181015183820152602001611c0d565b90602091611c4681518092818552858086019101611c0a565b601f01601f1916010190565b8054821015611c6a5760005260206000200190600090565b634e487b7160e01b600052603260045260246000fd5b604051611cae60208281611c9d8183019687815193849201611c0a565b81010301601f198101835282611ab5565b519020604051602081019063504d323560e01b825260048152611cd2602482611ab5565b5190208103611d4f575060025460405163b53eeb6f60e01b815290602090829060049082906001600160a01b03165afa908115611d4357600091611d14575090565b90506020813d602011611d3b575b81611d2f60209383611ab5565b81010312611a7e575190565b3d9150611d22565b6040513d6000823e3d90fd5b60405160208101906221a79960e91b825260038152611d6f602382611ab5565b5190208103611db15750600254604051635f87653f60e11b815290602090829060049082906001600160a01b03165afa908115611d4357600091611d14575090565b6040516020810190651193d49154d560d21b825260068152611dd4602682611ab5565b51902014611e175760405162461bcd60e51b8152602060048201526013602482015272556e6b6e6f776e206d6574726963207479706560681b6044820152606490fd5b60025460405163bb99b96960e01b815290602090829060049082906001600160a01b03165afa908115611d4357600091611d14575090565b90604051611e5c81611a83565b610200600e829480548452611e7360018201611b66565b6020850152611e8460028201611b66565b604085015260038101546001600160a01b03166060850152611ea860048201611b66565b6080850152611eb960058201611b66565b60a0850152600681015460c0850152600781015460e0850152600881015461010085015260ff60098201548181161515610120870152818160081c16151561014087015260101c161515610160850152600a810154610180850152600b8101546101a0850152611f2b600c8201611b66565b6101c0850152600d8101546101e08501520154910152565b6000198114611f525760010190565b634e487b7160e01b600052601160045260246000fd5b9060208252600091815491611f7c83611b2c565b92836020840152600181169081600014611fda5750600114611f9f575b50505090565b600090815260208120929350915b838310611fc35750604092500101388080611f99565b805460408484010152602090920191600101611fad565b9150506040935060ff929192191683830152151560051b0101388080611f99565b90816020910312611a7e57518015158103611a7e5790565b91908203918211611f5257565b6000546001600160a01b0316330361203457565b606460405162461bcd60e51b815260206004820152602060248201527f4f776e61626c653a2063616c6c6572206973206e6f7420746865206f776e65726044820152fd5b600260015414612089576002600155565b60405162461bcd60e51b815260206004820152601f60248201527f5265656e7472616e637947756172643a207265656e7472616e742063616c6c006044820152606490fd5b6101c08101516040516120f160208281611c9d8183019687815193849201611c0a565b519020604051602081019063504d323560e01b825260048152612115602482611ab5565b519020810361212f575060c06101e0820151910151101590565b60405160208101906221a79960e91b82526003815261214f602382611ab5565b5190208103612169575060c06101e0820151910151101590565b6040516020810190651193d49154d560d21b82526006815261218c602682611ab5565b5190201461219a5750600090565b60c06101e082015191015111159056fe8295b6aee88522da552713e5a38187047c06371972532ba73cb482e853ba4570a2646970667358221220a73bf2d4636f3ed0109c21d5675d64bdb3ec6101275ee39adb609362f5b68e5864736f6c634300081c0033","opcodes":"PUSH1 0x80 CALLVALUE PUSH2 0x143 JUMPI PUSH1 0x1F PUSH2 0x2373 CODESIZE DUP2 SWAP1 SUB SWAP2 DUP3 ADD PUSH1 0x1F NOT AND DUP4 ADD SWAP2 PUSH1 0x1 PUSH1 0x1 PUSH1 0x40 SHL SUB DUP4 GT DUP5 DUP5 LT OR PUSH2 0x148 JUMPI DUP1 DUP5 SWAP3 PUSH1 0x40 SWAP5 DUP6 MSTORE DUP4 CODECOPY DUP2 ADD SUB SLT PUSH2 0x143 JUMPI PUSH1 0x24 DUP2 PUSH2 0x57 PUSH1 0x20 PUSH2 0x50 PUSH1 0x64 SWAP6 PUSH2 0x15E JUMP JUMPDEST SWAP3 ADD PUSH2 0x15E JUMP JUMPDEST PUSH1 0x0 DUP1 SLOAD CALLER PUSH1 0x1 PUSH1 0x1 PUSH1 0xA0 SHL SUB NOT DUP3 AND DUP2 OR DUP4 SSTORE PUSH1 0x40 MLOAD SWAP5 SWAP3 SWAP1 SWAP2 PUSH1 0x1 PUSH1 0x1 PUSH1 0xA0 SHL SUB AND SWAP1 PUSH32 0x8BE0079C531659141344CD1FD0A4F28419497F9722A3DAAFE3B4186F6B6457E0 SWAP1 DUP1 LOG3 PUSH1 0x1 DUP1 SSTORE PUSH1 0x1 PUSH1 0x7 SSTORE PUSH3 0x15180 PUSH1 0xB SSTORE PUSH9 0x56BC75E2D63100000 PUSH1 0xC SSTORE PUSH1 0x1 DUP1 PUSH1 0xA0 SHL SUB AND PUSH1 0x1 DUP1 PUSH1 0xA0 SHL SUB NOT PUSH1 0x2 SLOAD AND OR PUSH1 0x2 SSTORE PUSH1 0x1 DUP1 PUSH1 0xA0 SHL SUB AND PUSH1 0x1 DUP1 PUSH1 0xA0 SHL SUB NOT PUSH1 0x3 SLOAD AND OR PUSH1 0x3 SSTORE PUSH4 0x504D3235 PUSH1 0xE0 SHL DUP2 MSTORE PUSH1 0x6 PUSH1 0x4 DUP3 ADD MSTORE KECCAK256 SSTORE PUSH1 0x64 PUSH1 0x23 PUSH1 0x40 MLOAD PUSH3 0x21A799 PUSH1 0xE9 SHL DUP2 MSTORE PUSH1 0x6 PUSH1 0x3 DUP3 ADD MSTORE KECCAK256 SSTORE PUSH1 0x32 PUSH1 0x26 PUSH1 0x40 MLOAD PUSH6 0x1193D49154D5 PUSH1 0xD2 SHL DUP2 MSTORE PUSH1 0x6 DUP1 DUP3 ADD MSTORE KECCAK256 SSTORE PUSH1 0x40 MLOAD PUSH2 0x2200 SWAP1 DUP2 PUSH2 0x173 DUP3 CODECOPY RETURN JUMPDEST PUSH1 0x0 DUP1 REVERT JUMPDEST PUSH4 0x4E487B71 PUSH1 0xE0 SHL PUSH1 0x0 MSTORE PUSH1 0x41 PUSH1 0x4 MSTORE PUSH1 0x24 PUSH1 0x0 REVERT JUMPDEST MLOAD SWAP1 PUSH1 0x1 PUSH1 0x1 PUSH1 0xA0 SHL SUB DUP3 AND DUP3 SUB PUSH2 0x143 JUMPI JUMP INVALID PUSH1 0x80 PUSH1 0x40 MSTORE PUSH1 0x4 CALLDATASIZE LT ISZERO PUSH2 0x12 JUMPI PUSH1 0x0 DUP1 REVERT JUMPDEST PUSH1 0x0 DUP1 CALLDATALOAD PUSH1 0xE0 SHR DUP1 PUSH4 0x1CB44DFC EQ PUSH2 0x1A23 JUMPI DUP1 PUSH4 0x1F638550 EQ PUSH2 0x1A05 JUMPI DUP1 PUSH4 0x2B208F73 EQ PUSH2 0x19C7 JUMPI DUP1 PUSH4 0x2E2C138C EQ PUSH2 0x199E JUMPI DUP1 PUSH4 0x3521E9F5 EQ PUSH2 0x128A JUMPI DUP1 PUSH4 0x3E8554A2 EQ PUSH2 0x1267 JUMPI DUP1 PUSH4 0x49CE8997 EQ PUSH2 0x1102 JUMPI DUP1 PUSH4 0x5AC48E6D EQ PUSH2 0x10E4 JUMPI DUP1 PUSH4 0x69BCDB7D EQ PUSH2 0xF1F JUMPI DUP1 PUSH4 0x715018A6 EQ PUSH2 0xEC5 JUMPI DUP1 PUSH4 0x75242D71 EQ PUSH2 0xE68 JUMPI DUP1 PUSH4 0x78BB86D3 EQ PUSH2 0xE4A JUMPI DUP1 PUSH4 0x8DA5CB5B EQ PUSH2 0xE23 JUMPI DUP1 PUSH4 0x90BB9A29 EQ PUSH2 0xDCC JUMPI DUP1 PUSH4 0x97073842 EQ PUSH2 0xDAE JUMPI DUP1 PUSH4 0x97122A5D EQ PUSH2 0x338 JUMPI DUP1 PUSH4 0xB3E14B31 EQ PUSH2 0x283 JUMPI DUP1 PUSH4 0xC59D4847 EQ PUSH2 0x23C JUMPI DUP1 PUSH4 0xD9BB0829 EQ PUSH2 0x213 JUMPI DUP1 PUSH4 0xEC5FFAC2 EQ PUSH2 0x1F5 JUMPI DUP1 PUSH4 0xF2FDE38B EQ PUSH2 0x12F JUMPI PUSH4 0xF79F55B6 EQ PUSH2 0x10F JUMPI PUSH1 0x0 DUP1 REVERT JUMPDEST CALLVALUE PUSH2 0x12C JUMPI DUP1 PUSH1 0x3 NOT CALLDATASIZE ADD SLT PUSH2 0x12C JUMPI PUSH1 0x20 PUSH1 0xB SLOAD PUSH1 0x40 MLOAD SWAP1 DUP2 MSTORE RETURN JUMPDEST DUP1 REVERT JUMPDEST POP CALLVALUE PUSH2 0x12C JUMPI PUSH1 0x20 CALLDATASIZE PUSH1 0x3 NOT ADD SLT PUSH2 0x12C JUMPI PUSH2 0x149 PUSH2 0x1A68 JUMP JUMPDEST PUSH2 0x151 PUSH2 0x2020 JUMP JUMPDEST PUSH1 0x1 PUSH1 0x1 PUSH1 0xA0 SHL SUB AND DUP1 ISZERO PUSH2 0x1A1 JUMPI DUP2 SLOAD PUSH1 0x1 PUSH1 0x1 PUSH1 0xA0 SHL SUB NOT DUP2 AND DUP3 OR DUP4 SSTORE PUSH1 0x1 PUSH1 0x1 PUSH1 0xA0 SHL SUB AND PUSH32 0x8BE0079C531659141344CD1FD0A4F28419497F9722A3DAAFE3B4186F6B6457E0 DUP4 DUP1 LOG3 DUP1 RETURN JUMPDEST PUSH1 0x40 MLOAD PUSH3 0x461BCD PUSH1 0xE5 SHL DUP2 MSTORE PUSH1 0x20 PUSH1 0x4 DUP3 ADD MSTORE PUSH1 0x26 PUSH1 0x24 DUP3 ADD MSTORE PUSH32 0x4F776E61626C653A206E6577206F776E657220697320746865207A65726F2061 PUSH1 0x44 DUP3 ADD MSTORE PUSH6 0x646472657373 PUSH1 0xD0 SHL PUSH1 0x64 DUP3 ADD MSTORE PUSH1 0x84 SWAP1 REVERT JUMPDEST POP CALLVALUE PUSH2 0x12C JUMPI DUP1 PUSH1 0x3 NOT CALLDATASIZE ADD SLT PUSH2 0x12C JUMPI PUSH1 0x20 PUSH1 0xC SLOAD PUSH1 0x40 MLOAD SWAP1 DUP2 MSTORE RETURN JUMPDEST POP CALLVALUE PUSH2 0x12C JUMPI DUP1 PUSH1 0x3 NOT CALLDATASIZE ADD SLT PUSH2 0x12C JUMPI PUSH1 0x2 SLOAD PUSH1 0x40 MLOAD PUSH1 0x1 PUSH1 0x1 PUSH1 0xA0 SHL SUB SWAP1 SWAP2 AND DUP2 MSTORE PUSH1 0x20 SWAP1 RETURN JUMPDEST POP CALLVALUE PUSH2 0x12C JUMPI DUP1 PUSH1 0x3 NOT CALLDATASIZE ADD SLT PUSH2 0x12C JUMPI PUSH1 0x80 PUSH1 0x8 SLOAD PUSH1 0x9 SLOAD PUSH1 0xA SLOAD PUSH2 0x26B DUP2 PUSH2 0x266 DUP5 DUP7 PUSH2 0x2013 JUMP JUMPDEST PUSH2 0x2013 JUMP JUMPDEST SWAP2 PUSH1 0x40 MLOAD SWAP4 DUP5 MSTORE PUSH1 0x20 DUP5 ADD MSTORE PUSH1 0x40 DUP4 ADD MSTORE PUSH1 0x60 DUP3 ADD MSTORE RETURN JUMPDEST POP CALLVALUE PUSH2 0x12C JUMPI PUSH1 0x20 CALLDATASIZE PUSH1 0x3 NOT ADD SLT PUSH2 0x12C JUMPI PUSH1 0x1 PUSH1 0x1 PUSH1 0xA0 SHL SUB PUSH2 0x2A5 PUSH2 0x1A68 JUMP JUMPDEST AND DUP2 MSTORE PUSH1 0x5 PUSH1 0x20 MSTORE PUSH1 0x40 DUP2 KECCAK256 PUSH1 0x40 MLOAD SWAP1 DUP2 PUSH1 0x20 DUP3 SLOAD SWAP2 DUP3 DUP2 MSTORE ADD SWAP1 DUP2 SWAP3 DUP6 MSTORE PUSH1 0x20 DUP6 KECCAK256 SWAP1 DUP6 JUMPDEST DUP2 DUP2 LT PUSH2 0x322 JUMPI POP POP POP DUP3 PUSH2 0x2E1 SWAP2 SUB DUP4 PUSH2 0x1AB5 JUMP JUMPDEST PUSH1 0x40 MLOAD SWAP3 DUP4 SWAP3 PUSH1 0x20 DUP5 ADD SWAP1 PUSH1 0x20 DUP6 MSTORE MLOAD DUP1 SWAP2 MSTORE PUSH1 0x40 DUP5 ADD SWAP3 SWAP2 JUMPDEST DUP2 DUP2 LT PUSH2 0x309 JUMPI POP POP POP SUB SWAP1 RETURN JUMPDEST DUP3 MLOAD DUP5 MSTORE DUP6 SWAP5 POP PUSH1 0x20 SWAP4 DUP5 ADD SWAP4 SWAP1 SWAP3 ADD SWAP2 PUSH1 0x1 ADD PUSH2 0x2FB JUMP JUMPDEST DUP3 SLOAD DUP5 MSTORE PUSH1 0x20 SWAP1 SWAP4 ADD SWAP3 PUSH1 0x1 SWAP3 DUP4 ADD SWAP3 ADD PUSH2 0x2CB JUMP JUMPDEST POP CALLVALUE PUSH2 0x12C JUMPI PUSH2 0x100 CALLDATASIZE PUSH1 0x3 NOT ADD SLT PUSH2 0x12C JUMPI PUSH1 0x4 CALLDATALOAD PUSH1 0x1 PUSH1 0x1 PUSH1 0x40 SHL SUB DUP2 GT PUSH2 0xDAA JUMPI PUSH2 0x36A SWAP1 CALLDATASIZE SWAP1 PUSH1 0x4 ADD PUSH2 0x1AD6 JUMP JUMPDEST PUSH1 0x24 CALLDATALOAD PUSH1 0x1 PUSH1 0x1 PUSH1 0x40 SHL SUB DUP2 GT PUSH2 0xDA6 JUMPI PUSH2 0x389 SWAP1 CALLDATASIZE SWAP1 PUSH1 0x4 ADD PUSH2 0x1AD6 JUMP JUMPDEST SWAP1 PUSH1 0x44 CALLDATALOAD PUSH1 0x1 PUSH1 0x1 PUSH1 0x40 SHL SUB DUP2 GT PUSH2 0xDA2 JUMPI PUSH2 0x3A9 SWAP1 CALLDATASIZE SWAP1 PUSH1 0x4 ADD PUSH2 0x1AD6 JUMP JUMPDEST SWAP2 PUSH1 0x64 CALLDATALOAD PUSH1 0x1 PUSH1 0x1 PUSH1 0x40 SHL SUB DUP2 GT PUSH2 0xD9E JUMPI PUSH2 0x3C9 SWAP1 CALLDATASIZE SWAP1 PUSH1 0x4 ADD PUSH2 0x1AD6 JUMP JUMPDEST SWAP3 PUSH1 0xC4 CALLDATALOAD SWAP4 PUSH1 0xE4 CALLDATALOAD PUSH1 0x1 PUSH1 0x1 PUSH1 0x40 SHL SUB DUP2 GT PUSH2 0xD9A JUMPI PUSH2 0x3ED SWAP1 CALLDATASIZE SWAP1 PUSH1 0x4 ADD PUSH2 0x1AD6 JUMP JUMPDEST SWAP5 PUSH2 0x3F6 PUSH2 0x2078 JUMP JUMPDEST TIMESTAMP PUSH1 0xA4 CALLDATALOAD GT ISZERO PUSH2 0xD55 JUMPI PUSH1 0xC SLOAD DUP2 LT PUSH2 0xD19 JUMPI DUP6 MLOAD ISZERO PUSH2 0xCDD JUMPI PUSH1 0x3 SLOAD PUSH1 0x40 MLOAD PUSH4 0x23B872DD PUSH1 0xE0 SHL DUP2 MSTORE CALLER PUSH1 0x4 DUP3 ADD MSTORE ADDRESS PUSH1 0x24 DUP3 ADD MSTORE PUSH1 0x44 DUP2 ADD DUP4 SWAP1 MSTORE SWAP1 PUSH1 0x20 SWAP1 DUP3 SWAP1 PUSH1 0x64 SWAP1 DUP3 SWAP1 DUP13 SWAP1 PUSH1 0x1 PUSH1 0x1 PUSH1 0xA0 SHL SUB AND GAS CALL SWAP1 DUP2 ISZERO PUSH2 0xCD2 JUMPI DUP9 SWAP2 PUSH2 0xCA3 JUMPI JUMPDEST POP ISZERO PUSH2 0xC66 JUMPI PUSH2 0x468 DUP7 PUSH2 0x1C80 JUMP JUMPDEST SWAP2 PUSH1 0x7 SLOAD SWAP4 PUSH1 0x40 MLOAD SWAP6 PUSH2 0x47A DUP8 PUSH2 0x1A83 JUMP JUMPDEST DUP6 DUP8 MSTORE DUP8 PUSH1 0x20 DUP9 ADD MSTORE PUSH1 0x40 DUP8 ADD MSTORE CALLER PUSH1 0x60 DUP8 ADD MSTORE PUSH1 0x80 DUP7 ADD MSTORE PUSH1 0xA0 DUP6 ADD MSTORE PUSH1 0x84 CALLDATALOAD PUSH1 0xC0 DUP6 ADD MSTORE PUSH1 0xA4 CALLDATALOAD PUSH1 0xE0 DUP6 ADD MSTORE PUSH2 0x100 DUP5 ADD MSTORE PUSH1 0x1 PUSH2 0x120 DUP5 ADD MSTORE DUP6 PUSH2 0x140 DUP5 ADD MSTORE DUP6 PUSH2 0x160 DUP5 ADD MSTORE TIMESTAMP PUSH2 0x180 DUP5 ADD MSTORE DUP6 PUSH2 0x1A0 DUP5 ADD MSTORE DUP5 PUSH2 0x1C0 DUP5 ADD MSTORE DUP6 PUSH2 0x1E0 DUP5 ADD MSTORE PUSH2 0x200 DUP4 ADD MSTORE DUP5 MSTORE PUSH1 0x4 PUSH1 0x20 MSTORE PUSH1 0x40 DUP5 KECCAK256 SWAP1 DUP1 MLOAD DUP3 SSTORE PUSH1 0x20 DUP2 ADD MLOAD DUP1 MLOAD SWAP1 PUSH1 0x1 PUSH1 0x1 PUSH1 0x40 SHL SUB DUP3 GT PUSH2 0x9FC JUMPI DUP2 SWAP1 PUSH2 0x51B PUSH1 0x1 DUP7 ADD SLOAD PUSH2 0x1B2C JUMP JUMPDEST PUSH1 0x1F DUP2 GT PUSH2 0xC16 JUMPI JUMPDEST POP PUSH1 0x20 SWAP1 PUSH1 0x1F DUP4 GT PUSH1 0x1 EQ PUSH2 0xBA8 JUMPI DUP9 SWAP3 PUSH2 0xB9D JUMPI JUMPDEST POP POP DUP2 PUSH1 0x1 SHL SWAP2 PUSH1 0x0 NOT SWAP1 PUSH1 0x3 SHL SHR NOT AND OR PUSH1 0x1 DUP4 ADD SSTORE JUMPDEST PUSH1 0x40 DUP2 ADD MLOAD DUP1 MLOAD SWAP1 PUSH1 0x1 PUSH1 0x1 PUSH1 0x40 SHL SUB DUP3 GT PUSH2 0x9FC JUMPI DUP2 SWAP1 PUSH2 0x577 PUSH1 0x2 DUP7 ADD SLOAD PUSH2 0x1B2C JUMP JUMPDEST PUSH1 0x1F DUP2 GT PUSH2 0xB4D JUMPI JUMPDEST POP PUSH1 0x20 SWAP1 PUSH1 0x1F DUP4 GT PUSH1 0x1 EQ PUSH2 0xADF JUMPI DUP9 SWAP3 PUSH2 0xAD4 JUMPI JUMPDEST POP POP DUP2 PUSH1 0x1 SHL SWAP2 PUSH1 0x0 NOT SWAP1 PUSH1 0x3 SHL SHR NOT AND OR PUSH1 0x2 DUP4 ADD SSTORE JUMPDEST PUSH1 0x3 DUP3 ADD PUSH1 0x1 DUP1 PUSH1 0xA0 SHL SUB PUSH1 0x60 DUP4 ADD MLOAD AND PUSH12 0xFFFFFFFFFFFFFFFFFFFFFFFF PUSH1 0xA0 SHL DUP3 SLOAD AND OR SWAP1 SSTORE PUSH1 0x80 DUP2 ADD MLOAD DUP1 MLOAD SWAP1 PUSH1 0x1 PUSH1 0x1 PUSH1 0x40 SHL SUB DUP3 GT PUSH2 0x9FC JUMPI DUP2 SWAP1 PUSH2 0x5FA PUSH1 0x4 DUP7 ADD SLOAD PUSH2 0x1B2C JUMP JUMPDEST PUSH1 0x1F DUP2 GT PUSH2 0xA84 JUMPI JUMPDEST POP PUSH1 0x20 SWAP1 PUSH1 0x1F DUP4 GT PUSH1 0x1 EQ PUSH2 0xA1B JUMPI DUP9 SWAP3 PUSH2 0xA10 JUMPI JUMPDEST POP POP DUP2 PUSH1 0x1 SHL SWAP2 PUSH1 0x0 NOT SWAP1 PUSH1 0x3 SHL SHR NOT AND OR PUSH1 0x4 DUP4 ADD SSTORE JUMPDEST PUSH1 0xA0 DUP2 ADD MLOAD DUP1 MLOAD SWAP1 PUSH1 0x1 PUSH1 0x1 PUSH1 0x40 SHL SUB DUP3 GT PUSH2 0x9FC JUMPI DUP2 SWAP1 PUSH2 0x656 PUSH1 0x5 DUP7 ADD SLOAD PUSH2 0x1B2C JUMP JUMPDEST PUSH1 0x1F DUP2 GT PUSH2 0x9AC JUMPI JUMPDEST POP PUSH1 0x20 SWAP1 PUSH1 0x1F DUP4 GT PUSH1 0x1 EQ PUSH2 0x943 JUMPI DUP9 SWAP3 PUSH2 0x938 JUMPI JUMPDEST POP POP DUP2 PUSH1 0x1 SHL SWAP2 PUSH1 0x0 NOT SWAP1 PUSH1 0x3 SHL SHR NOT AND OR PUSH1 0x5 DUP4 ADD SSTORE JUMPDEST PUSH1 0xC0 DUP2 ADD MLOAD PUSH1 0x6 DUP4 ADD SSTORE PUSH1 0xE0 DUP2 ADD MLOAD PUSH1 0x7 DUP4 ADD SSTORE PUSH2 0x100 DUP2 ADD MLOAD PUSH1 0x8 DUP4 ADD SSTORE PUSH1 0x9 DUP3 ADD PUSH2 0x120 DUP3 ADD MLOAD ISZERO ISZERO PUSH1 0xFF DUP1 NOT DUP4 SLOAD AND SWAP2 AND OR DUP2 SSTORE PUSH2 0x140 DUP3 ADD MLOAD ISZERO ISZERO PUSH2 0xFF00 DUP3 SLOAD SWAP2 PUSH1 0x8 SHL AND SWAP1 PUSH2 0xFF00 NOT AND OR DUP2 SSTORE PUSH2 0x160 DUP3 ADD MLOAD ISZERO ISZERO PUSH3 0xFF0000 DUP3 SLOAD SWAP2 PUSH1 0x10 SHL AND SWAP1 PUSH3 0xFF0000 NOT AND OR SWAP1 SSTORE PUSH2 0x180 DUP2 ADD MLOAD PUSH1 0xA DUP4 ADD SSTORE PUSH2 0x1A0 DUP2 ADD MLOAD PUSH1 0xB DUP4 ADD SSTORE PUSH1 0xC DUP3 ADD PUSH2 0x1C0 DUP3 ADD MLOAD DUP1 MLOAD SWAP1 PUSH1 0x1 PUSH1 0x1 PUSH1 0x40 SHL SUB DUP3 GT PUSH2 0x924 JUMPI PUSH2 0x737 DUP4 SLOAD PUSH2 0x1B2C JUMP JUMPDEST PUSH1 0x1F DUP2 GT PUSH2 0x8DF JUMPI JUMPDEST POP PUSH1 0x20 SWAP1 PUSH1 0x1F DUP4 GT PUSH1 0x1 EQ PUSH2 0x875 JUMPI SWAP2 DUP1 PUSH2 0x200 SWAP5 SWAP3 PUSH1 0xE SWAP7 SWAP5 DUP12 SWAP3 PUSH2 0x86A JUMPI JUMPDEST POP POP DUP2 PUSH1 0x1 SHL SWAP2 PUSH1 0x0 NOT SWAP1 PUSH1 0x3 SHL SHR NOT AND OR SWAP1 SSTORE JUMPDEST PUSH2 0x1E0 DUP2 ADD MLOAD PUSH1 0xD DUP6 ADD SSTORE ADD MLOAD SWAP2 ADD SSTORE CALLER DUP4 MSTORE PUSH1 0x5 PUSH1 0x20 MSTORE PUSH1 0x40 DUP4 KECCAK256 PUSH1 0x7 SLOAD SWAP1 DUP1 SLOAD SWAP1 PUSH9 0x10000000000000000 DUP3 LT ISZERO PUSH2 0x856 JUMPI SWAP2 PUSH2 0x7C3 DUP3 PUSH2 0x84C SWAP7 SWAP5 PUSH1 0x1 PUSH2 0x825 SWAP8 SWAP6 ADD DUP2 SSTORE PUSH2 0x1C52 JUMP JUMPDEST DUP2 SWAP3 SWAP2 SLOAD SWAP1 PUSH1 0x3 SHL SWAP2 DUP3 SHL SWAP2 PUSH1 0x0 NOT SWAP1 SHL NOT AND OR SWAP1 SSTORE PUSH2 0x7E4 PUSH1 0x8 SLOAD PUSH2 0x1F43 JUMP JUMPDEST PUSH1 0x8 SSTORE PUSH32 0x8DF3AEA74878B39DE783D0F74BA234C6DE78C600B1CB48EA42F1375ABB305886 PUSH1 0x7 SLOAD SWAP4 DUP5 SWAP3 PUSH2 0x844 PUSH1 0x40 MLOAD SWAP3 DUP4 SWAP3 PUSH1 0x80 DUP5 MSTORE PUSH1 0x80 DUP5 ADD SWAP1 PUSH2 0x1C2D JUMP JUMPDEST PUSH1 0x84 CALLDATALOAD PUSH1 0x20 DUP5 ADD MSTORE PUSH1 0xA4 CALLDATALOAD PUSH1 0x40 DUP5 ADD MSTORE DUP3 DUP2 SUB PUSH1 0x60 DUP5 ADD MSTORE CALLER SWAP7 PUSH2 0x1C2D JUMP JUMPDEST SUB SWAP1 LOG3 PUSH2 0x1F43 JUMP JUMPDEST PUSH1 0x7 SSTORE PUSH1 0x1 DUP1 SSTORE DUP1 RETURN JUMPDEST PUSH4 0x4E487B71 PUSH1 0xE0 SHL DUP7 MSTORE PUSH1 0x41 PUSH1 0x4 MSTORE PUSH1 0x24 DUP7 REVERT JUMPDEST ADD MLOAD SWAP1 POP CODESIZE DUP1 PUSH2 0x761 JUMP JUMPDEST DUP4 DUP10 MSTORE DUP2 DUP10 KECCAK256 SWAP2 SWAP1 PUSH1 0x1F NOT DUP5 AND DUP11 JUMPDEST DUP2 DUP2 LT PUSH2 0x8C7 JUMPI POP SWAP3 PUSH1 0x1 SWAP3 DUP6 SWAP3 PUSH1 0xE SWAP9 SWAP7 PUSH2 0x200 SWAP9 SWAP7 LT PUSH2 0x8AE JUMPI JUMPDEST POP POP POP DUP2 SHL ADD SWAP1 SSTORE PUSH2 0x776 JUMP JUMPDEST ADD MLOAD PUSH1 0x0 NOT PUSH1 0xF8 DUP5 PUSH1 0x3 SHL AND SHR NOT AND SWAP1 SSTORE CODESIZE DUP1 DUP1 PUSH2 0x8A1 JUMP JUMPDEST SWAP3 SWAP4 PUSH1 0x20 PUSH1 0x1 DUP2 SWAP3 DUP8 DUP7 ADD MLOAD DUP2 SSTORE ADD SWAP6 ADD SWAP4 ADD PUSH2 0x884 JUMP JUMPDEST DUP4 DUP10 MSTORE PUSH1 0x20 DUP10 KECCAK256 PUSH1 0x1F DUP5 ADD PUSH1 0x5 SHR DUP2 ADD SWAP2 PUSH1 0x20 DUP6 LT PUSH2 0x91A JUMPI JUMPDEST PUSH1 0x1F ADD PUSH1 0x5 SHR ADD SWAP1 JUMPDEST DUP2 DUP2 LT PUSH2 0x90F JUMPI POP PUSH2 0x740 JUMP JUMPDEST DUP10 DUP2 SSTORE PUSH1 0x1 ADD PUSH2 0x902 JUMP JUMPDEST SWAP1 SWAP2 POP DUP2 SWAP1 PUSH2 0x8F9 JUMP JUMPDEST PUSH4 0x4E487B71 PUSH1 0xE0 SHL DUP9 MSTORE PUSH1 0x41 PUSH1 0x4 MSTORE PUSH1 0x24 DUP9 REVERT JUMPDEST ADD MLOAD SWAP1 POP CODESIZE DUP1 PUSH2 0x675 JUMP JUMPDEST PUSH1 0x5 DUP7 ADD DUP10 MSTORE DUP2 DUP10 KECCAK256 SWAP3 POP PUSH1 0x1F NOT DUP5 AND DUP10 JUMPDEST DUP2 DUP2 LT PUSH2 0x994 JUMPI POP SWAP1 DUP5 PUSH1 0x1 SWAP6 SWAP5 SWAP4 SWAP3 LT PUSH2 0x97B JUMPI JUMPDEST POP POP POP DUP2 SHL ADD PUSH1 0x5 DUP4 ADD SSTORE PUSH2 0x68D JUMP JUMPDEST ADD MLOAD PUSH1 0x0 NOT PUSH1 0xF8 DUP5 PUSH1 0x3 SHL AND SHR NOT AND SWAP1 SSTORE CODESIZE DUP1 DUP1 PUSH2 0x96B JUMP JUMPDEST SWAP3 SWAP4 PUSH1 0x20 PUSH1 0x1 DUP2 SWAP3 DUP8 DUP7 ADD MLOAD DUP2 SSTORE ADD SWAP6 ADD SWAP4 ADD PUSH2 0x955 JUMP JUMPDEST SWAP1 SWAP2 POP PUSH1 0x5 DUP6 ADD DUP9 MSTORE PUSH1 0x20 DUP9 KECCAK256 PUSH1 0x1F DUP5 ADD PUSH1 0x5 SHR DUP2 ADD PUSH1 0x20 DUP6 LT PUSH2 0x9F5 JUMPI JUMPDEST SWAP1 DUP5 SWAP4 SWAP3 SWAP2 JUMPDEST PUSH1 0x1F DUP4 ADD PUSH1 0x5 SHR DUP3 ADD DUP2 LT PUSH2 0x9E7 JUMPI POP POP PUSH2 0x65F JUMP JUMPDEST DUP11 DUP2 SSTORE DUP6 SWAP5 POP PUSH1 0x1 ADD PUSH2 0x9D1 JUMP JUMPDEST POP DUP1 PUSH2 0x9CB JUMP JUMPDEST PUSH4 0x4E487B71 PUSH1 0xE0 SHL DUP8 MSTORE PUSH1 0x41 PUSH1 0x4 MSTORE PUSH1 0x24 DUP8 REVERT JUMPDEST ADD MLOAD SWAP1 POP CODESIZE DUP1 PUSH2 0x619 JUMP JUMPDEST PUSH1 0x4 DUP7 ADD DUP10 MSTORE DUP2 DUP10 KECCAK256 SWAP3 POP PUSH1 0x1F NOT DUP5 AND DUP10 JUMPDEST DUP2 DUP2 LT PUSH2 0xA6C JUMPI POP SWAP1 DUP5 PUSH1 0x1 SWAP6 SWAP5 SWAP4 SWAP3 LT PUSH2 0xA53 JUMPI JUMPDEST POP POP POP DUP2 SHL ADD PUSH1 0x4 DUP4 ADD SSTORE PUSH2 0x631 JUMP JUMPDEST ADD MLOAD PUSH1 0x0 NOT PUSH1 0xF8 DUP5 PUSH1 0x3 SHL AND SHR NOT AND SWAP1 SSTORE CODESIZE DUP1 DUP1 PUSH2 0xA43 JUMP JUMPDEST SWAP3 SWAP4 PUSH1 0x20 PUSH1 0x1 DUP2 SWAP3 DUP8 DUP7 ADD MLOAD DUP2 SSTORE ADD SWAP6 ADD SWAP4 ADD PUSH2 0xA2D JUMP JUMPDEST SWAP1 SWAP2 POP PUSH1 0x4 DUP6 ADD DUP9 MSTORE PUSH1 0x20 DUP9 KECCAK256 PUSH1 0x1F DUP5 ADD PUSH1 0x5 SHR DUP2 ADD PUSH1 0x20 DUP6 LT PUSH2 0xACD JUMPI JUMPDEST SWAP1 DUP5 SWAP4 SWAP3 SWAP2 JUMPDEST PUSH1 0x1F DUP4 ADD PUSH1 0x5 SHR DUP3 ADD DUP2 LT PUSH2 0xABF JUMPI POP POP PUSH2 0x603 JUMP JUMPDEST DUP11 DUP2 SSTORE DUP6 SWAP5 POP PUSH1 0x1 ADD PUSH2 0xAA9 JUMP JUMPDEST POP DUP1 PUSH2 0xAA3 JUMP JUMPDEST ADD MLOAD SWAP1 POP CODESIZE DUP1 PUSH2 0x596 JUMP JUMPDEST SWAP3 POP PUSH1 0x2 DUP6 ADD DUP9 MSTORE DUP1 DUP9 KECCAK256 SWAP1 DUP9 SWAP4 JUMPDEST PUSH1 0x1F NOT DUP5 AND DUP6 LT PUSH2 0xB32 JUMPI PUSH1 0x1 SWAP5 POP DUP4 PUSH1 0x1F NOT DUP2 AND LT PUSH2 0xB19 JUMPI JUMPDEST POP POP POP DUP2 SHL ADD PUSH1 0x2 DUP4 ADD SSTORE PUSH2 0x5AE JUMP JUMPDEST ADD MLOAD PUSH1 0x0 NOT PUSH1 0xF8 DUP5 PUSH1 0x3 SHL AND SHR NOT AND SWAP1 SSTORE CODESIZE DUP1 DUP1 PUSH2 0xB09 JUMP JUMPDEST DUP2 DUP2 ADD MLOAD DUP4 SSTORE PUSH1 0x20 SWAP5 DUP6 ADD SWAP5 PUSH1 0x1 SWAP1 SWAP4 ADD SWAP3 SWAP1 SWAP2 ADD SWAP1 PUSH2 0xAEE JUMP JUMPDEST SWAP1 SWAP2 POP PUSH1 0x2 DUP6 ADD DUP9 MSTORE PUSH1 0x20 DUP9 KECCAK256 PUSH1 0x1F DUP5 ADD PUSH1 0x5 SHR DUP2 ADD PUSH1 0x20 DUP6 LT PUSH2 0xB96 JUMPI JUMPDEST SWAP1 DUP5 SWAP4 SWAP3 SWAP2 JUMPDEST PUSH1 0x1F DUP4 ADD PUSH1 0x5 SHR DUP3 ADD DUP2 LT PUSH2 0xB88 JUMPI POP POP PUSH2 0x580 JUMP JUMPDEST DUP11 DUP2 SSTORE DUP6 SWAP5 POP PUSH1 0x1 ADD PUSH2 0xB72 JUMP JUMPDEST POP DUP1 PUSH2 0xB6C JUMP JUMPDEST ADD MLOAD SWAP1 POP CODESIZE DUP1 PUSH2 0x53A JUMP JUMPDEST SWAP3 POP PUSH1 0x1 DUP6 ADD DUP9 MSTORE DUP1 DUP9 KECCAK256 SWAP1 DUP9 SWAP4 JUMPDEST PUSH1 0x1F NOT DUP5 AND DUP6 LT PUSH2 0xBFB JUMPI PUSH1 0x1 SWAP5 POP DUP4 PUSH1 0x1F NOT DUP2 AND LT PUSH2 0xBE2 JUMPI JUMPDEST POP POP POP DUP2 SHL ADD PUSH1 0x1 DUP4 ADD SSTORE PUSH2 0x552 JUMP JUMPDEST ADD MLOAD PUSH1 0x0 NOT PUSH1 0xF8 DUP5 PUSH1 0x3 SHL AND SHR NOT AND SWAP1 SSTORE CODESIZE DUP1 DUP1 PUSH2 0xBD2 JUMP JUMPDEST DUP2 DUP2 ADD MLOAD DUP4 SSTORE PUSH1 0x20 SWAP5 DUP6 ADD SWAP5 PUSH1 0x1 SWAP1 SWAP4 ADD SWAP3 SWAP1 SWAP2 ADD SWAP1 PUSH2 0xBB7 JUMP JUMPDEST SWAP1 SWAP2 POP PUSH1 0x1 DUP6 ADD DUP9 MSTORE PUSH1 0x20 DUP9 KECCAK256 PUSH1 0x1F DUP5 ADD PUSH1 0x5 SHR DUP2 ADD PUSH1 0x20 DUP6 LT PUSH2 0xC5F JUMPI JUMPDEST SWAP1 DUP5 SWAP4 SWAP3 SWAP2 JUMPDEST PUSH1 0x1F DUP4 ADD PUSH1 0x5 SHR DUP3 ADD DUP2 LT PUSH2 0xC51 JUMPI POP POP PUSH2 0x524 JUMP JUMPDEST DUP11 DUP2 SSTORE DUP6 SWAP5 POP PUSH1 0x1 ADD PUSH2 0xC3B JUMP JUMPDEST POP DUP1 PUSH2 0xC35 JUMP JUMPDEST PUSH1 0x40 MLOAD PUSH3 0x461BCD PUSH1 0xE5 SHL DUP2 MSTORE PUSH1 0x20 PUSH1 0x4 DUP3 ADD MSTORE PUSH1 0x15 PUSH1 0x24 DUP3 ADD MSTORE PUSH21 0x14DD185AD9481D1C985B9CD9995C8819985A5B1959 PUSH1 0x5A SHL PUSH1 0x44 DUP3 ADD MSTORE PUSH1 0x64 SWAP1 REVERT JUMPDEST PUSH2 0xCC5 SWAP2 POP PUSH1 0x20 RETURNDATASIZE PUSH1 0x20 GT PUSH2 0xCCB JUMPI JUMPDEST PUSH2 0xCBD DUP2 DUP4 PUSH2 0x1AB5 JUMP JUMPDEST DUP2 ADD SWAP1 PUSH2 0x1FFB JUMP JUMPDEST CODESIZE PUSH2 0x459 JUMP JUMPDEST POP RETURNDATASIZE PUSH2 0xCB3 JUMP JUMPDEST PUSH1 0x40 MLOAD RETURNDATASIZE DUP11 DUP3 RETURNDATACOPY RETURNDATASIZE SWAP1 REVERT JUMPDEST PUSH1 0x40 MLOAD PUSH3 0x461BCD PUSH1 0xE5 SHL DUP2 MSTORE PUSH1 0x20 PUSH1 0x4 DUP3 ADD MSTORE PUSH1 0x14 PUSH1 0x24 DUP3 ADD MSTORE PUSH20 0x13595D1C9A58C81D1E5C19481C995C5D5A5C9959 PUSH1 0x62 SHL PUSH1 0x44 DUP3 ADD MSTORE PUSH1 0x64 SWAP1 REVERT JUMPDEST PUSH1 0x40 MLOAD PUSH3 0x461BCD PUSH1 0xE5 SHL DUP2 MSTORE PUSH1 0x20 PUSH1 0x4 DUP3 ADD MSTORE PUSH1 0x14 PUSH1 0x24 DUP3 ADD MSTORE PUSH20 0x5374616B6520616D6F756E7420746F6F206C6F77 PUSH1 0x60 SHL PUSH1 0x44 DUP3 ADD MSTORE PUSH1 0x64 SWAP1 REVERT JUMPDEST PUSH1 0x40 MLOAD PUSH3 0x461BCD PUSH1 0xE5 SHL DUP2 MSTORE PUSH1 0x20 PUSH1 0x4 DUP3 ADD MSTORE PUSH1 0x1A PUSH1 0x24 DUP3 ADD MSTORE PUSH32 0x446561646C696E65206D75737420626520696E20667574757265000000000000 PUSH1 0x44 DUP3 ADD MSTORE PUSH1 0x64 SWAP1 REVERT JUMPDEST DUP7 DUP1 REVERT JUMPDEST DUP5 DUP1 REVERT JUMPDEST DUP4 DUP1 REVERT JUMPDEST DUP3 DUP1 REVERT JUMPDEST POP DUP1 REVERT JUMPDEST POP CALLVALUE PUSH2 0x12C JUMPI DUP1 PUSH1 0x3 NOT CALLDATASIZE ADD SLT PUSH2 0x12C JUMPI PUSH1 0x20 PUSH1 0x9 SLOAD PUSH1 0x40 MLOAD SWAP1 DUP2 MSTORE RETURN JUMPDEST POP CALLVALUE PUSH2 0x12C JUMPI PUSH1 0x40 CALLDATASIZE PUSH1 0x3 NOT ADD SLT PUSH2 0x12C JUMPI PUSH2 0xDE6 PUSH2 0x1A68 JUMP JUMPDEST PUSH1 0x1 PUSH1 0x1 PUSH1 0xA0 SHL SUB AND DUP2 MSTORE PUSH1 0x5 PUSH1 0x20 MSTORE PUSH1 0x40 DUP2 KECCAK256 DUP1 SLOAD PUSH1 0x24 CALLDATALOAD SWAP3 SWAP1 DUP4 LT ISZERO PUSH2 0x12C JUMPI PUSH1 0x20 PUSH2 0xE14 DUP5 DUP5 PUSH2 0x1C52 JUMP JUMPDEST SWAP1 SLOAD SWAP1 PUSH1 0x3 SHL SHR PUSH1 0x40 MLOAD SWAP1 DUP2 MSTORE RETURN JUMPDEST POP CALLVALUE PUSH2 0x12C JUMPI DUP1 PUSH1 0x3 NOT CALLDATASIZE ADD SLT PUSH2 0x12C JUMPI SLOAD PUSH1 0x40 MLOAD PUSH1 0x1 PUSH1 0x1 PUSH1 0xA0 SHL SUB SWAP1 SWAP2 AND DUP2 MSTORE PUSH1 0x20 SWAP1 RETURN JUMPDEST POP CALLVALUE PUSH2 0x12C JUMPI DUP1 PUSH1 0x3 NOT CALLDATASIZE ADD SLT PUSH2 0x12C JUMPI PUSH1 0x20 PUSH1 0x8 SLOAD PUSH1 0x40 MLOAD SWAP1 DUP2 MSTORE RETURN JUMPDEST POP CALLVALUE PUSH2 0x12C JUMPI PUSH1 0x20 CALLDATASIZE PUSH1 0x3 NOT ADD SLT PUSH2 0x12C JUMPI PUSH1 0x4 CALLDATALOAD SWAP1 PUSH1 0x1 PUSH1 0x1 PUSH1 0x40 SHL SUB DUP3 GT PUSH2 0x12C JUMPI PUSH1 0x20 PUSH2 0xEB2 DUP2 PUSH2 0xE9F CALLDATASIZE PUSH1 0x4 DUP8 ADD PUSH2 0x1AD6 JUMP JUMPDEST DUP2 PUSH1 0x40 MLOAD SWAP4 DUP3 DUP6 DUP1 SWAP5 MLOAD SWAP4 DUP5 SWAP3 ADD PUSH2 0x1C0A JUMP JUMPDEST DUP2 ADD PUSH1 0x6 DUP2 MSTORE SUB ADD SWAP1 KECCAK256 SLOAD PUSH1 0x40 MLOAD SWAP1 DUP2 MSTORE RETURN JUMPDEST POP CALLVALUE PUSH2 0x12C JUMPI DUP1 PUSH1 0x3 NOT CALLDATASIZE ADD SLT PUSH2 0x12C JUMPI PUSH2 0xEDE PUSH2 0x2020 JUMP JUMPDEST DUP1 SLOAD PUSH1 0x1 PUSH1 0x1 PUSH1 0xA0 SHL SUB NOT DUP2 AND DUP3 SSTORE DUP2 SWAP1 PUSH1 0x1 PUSH1 0x1 PUSH1 0xA0 SHL SUB AND PUSH32 0x8BE0079C531659141344CD1FD0A4F28419497F9722A3DAAFE3B4186F6B6457E0 DUP3 DUP1 LOG3 DUP1 RETURN JUMPDEST POP CALLVALUE PUSH2 0x12C JUMPI PUSH1 0x20 CALLDATASIZE PUSH1 0x3 NOT ADD SLT PUSH2 0x12C JUMPI PUSH1 0x40 DUP2 PUSH2 0xFC1 SWAP3 PUSH2 0x200 DUP4 MLOAD PUSH2 0xF46 DUP2 PUSH2 0x1A83 JUMP JUMPDEST DUP3 DUP2 MSTORE PUSH1 0x60 PUSH1 0x20 DUP3 ADD MSTORE PUSH1 0x60 DUP6 DUP3 ADD MSTORE DUP3 PUSH1 0x60 DUP3 ADD MSTORE PUSH1 0x60 PUSH1 0x80 DUP3 ADD MSTORE PUSH1 0x60 PUSH1 0xA0 DUP3 ADD MSTORE DUP3 PUSH1 0xC0 DUP3 ADD MSTORE DUP3 PUSH1 0xE0 DUP3 ADD MSTORE DUP3 PUSH2 0x100 DUP3 ADD MSTORE DUP3 PUSH2 0x120 DUP3 ADD MSTORE DUP3 PUSH2 0x140 DUP3 ADD MSTORE DUP3 PUSH2 0x160 DUP3 ADD MSTORE DUP3 PUSH2 0x180 DUP3 ADD MSTORE DUP3 PUSH2 0x1A0 DUP3 ADD MSTORE PUSH1 0x60 PUSH2 0x1C0 DUP3 ADD MSTORE DUP3 PUSH2 0x1E0 DUP3 ADD MSTORE ADD MSTORE PUSH1 0x4 CALLDATALOAD DUP2 MSTORE PUSH1 0x4 PUSH1 0x20 MSTORE KECCAK256 PUSH2 0x1E4F JUMP JUMPDEST PUSH1 0x40 MLOAD DUP1 SWAP2 PUSH1 0x20 DUP3 MSTORE DUP1 MLOAD PUSH1 0x20 DUP4 ADD MSTORE PUSH2 0x200 PUSH2 0x10CD PUSH2 0x1052 PUSH2 0x103C PUSH2 0x1011 PUSH2 0xFFB PUSH1 0x20 DUP8 ADD MLOAD PUSH2 0x220 PUSH1 0x40 DUP11 ADD MSTORE PUSH2 0x240 DUP10 ADD SWAP1 PUSH2 0x1C2D JUMP JUMPDEST PUSH1 0x40 DUP8 ADD MLOAD DUP9 DUP3 SUB PUSH1 0x1F NOT ADD PUSH1 0x60 DUP11 ADD MSTORE PUSH2 0x1C2D JUMP JUMPDEST PUSH1 0x60 DUP7 ADD MLOAD PUSH1 0x1 PUSH1 0x1 PUSH1 0xA0 SHL SUB AND PUSH1 0x80 DUP9 DUP2 ADD SWAP2 SWAP1 SWAP2 MSTORE DUP7 ADD MLOAD DUP8 DUP3 SUB PUSH1 0x1F NOT ADD PUSH1 0xA0 DUP10 ADD MSTORE PUSH2 0x1C2D JUMP JUMPDEST PUSH1 0xA0 DUP6 ADD MLOAD DUP7 DUP3 SUB PUSH1 0x1F NOT ADD PUSH1 0xC0 DUP9 ADD MSTORE PUSH2 0x1C2D JUMP JUMPDEST PUSH1 0xC0 DUP5 ADD MLOAD PUSH1 0xE0 DUP7 ADD MSTORE PUSH1 0xE0 DUP5 ADD MLOAD PUSH2 0x100 DUP7 ADD MSTORE PUSH2 0x100 DUP5 ADD MLOAD PUSH2 0x120 DUP7 ADD MSTORE PUSH2 0x120 DUP5 ADD MLOAD ISZERO ISZERO PUSH2 0x140 DUP7 ADD MSTORE PUSH2 0x140 DUP5 ADD MLOAD ISZERO ISZERO PUSH2 0x160 DUP7 ADD MSTORE PUSH2 0x160 DUP5 ADD MLOAD ISZERO ISZERO PUSH2 0x180 DUP7 ADD MSTORE PUSH2 0x180 DUP5 ADD MLOAD PUSH2 0x1A0 DUP7 ADD MSTORE PUSH2 0x1A0 DUP5 ADD MLOAD PUSH2 0x1C0 DUP7 ADD MSTORE PUSH2 0x1C0 DUP5 ADD MLOAD PUSH1 0x1F NOT DUP7 DUP4 SUB ADD PUSH2 0x1E0 DUP8 ADD MSTORE PUSH2 0x1C2D JUMP JUMPDEST SWAP2 PUSH2 0x1E0 DUP2 ADD MLOAD DUP3 DUP6 ADD MSTORE ADD MLOAD PUSH2 0x220 DUP4 ADD MSTORE SUB SWAP1 RETURN JUMPDEST POP CALLVALUE PUSH2 0x12C JUMPI DUP1 PUSH1 0x3 NOT CALLDATASIZE ADD SLT PUSH2 0x12C JUMPI PUSH1 0x20 PUSH1 0x7 SLOAD PUSH1 0x40 MLOAD SWAP1 DUP2 MSTORE RETURN JUMPDEST POP CALLVALUE PUSH2 0x12C JUMPI PUSH1 0x20 CALLDATASIZE PUSH1 0x3 NOT ADD SLT PUSH2 0x12C JUMPI PUSH1 0x4 DUP1 CALLDATALOAD DUP3 MSTORE PUSH1 0x20 MSTORE PUSH1 0x40 SWAP1 KECCAK256 DUP1 SLOAD SWAP1 PUSH2 0x1130 PUSH1 0x1 DUP3 ADD PUSH2 0x1B66 JUMP JUMPDEST SWAP1 PUSH2 0x113D PUSH1 0x2 DUP3 ADD PUSH2 0x1B66 JUMP JUMPDEST PUSH1 0x3 DUP3 ADD SLOAD SWAP1 SWAP4 PUSH1 0x1 PUSH1 0x1 PUSH1 0xA0 SHL SUB SWAP1 SWAP2 AND SWAP1 PUSH2 0x115C PUSH1 0x4 DUP5 ADD PUSH2 0x1B66 JUMP JUMPDEST PUSH2 0x1168 PUSH1 0x5 DUP6 ADD PUSH2 0x1B66 JUMP JUMPDEST SWAP1 PUSH1 0x6 DUP6 ADD SLOAD SWAP2 PUSH1 0x7 DUP7 ADD SLOAD PUSH1 0x8 DUP8 ADD SLOAD PUSH1 0x9 DUP9 ADD SLOAD SWAP2 PUSH1 0xA DUP10 ADD SLOAD SWAP4 PUSH1 0xB DUP11 ADD SLOAD SWAP6 PUSH1 0xC DUP12 ADD PUSH2 0x1198 SWAP1 PUSH2 0x1B66 JUMP JUMPDEST SWAP9 PUSH1 0xD DUP13 ADD SLOAD SWAP12 PUSH1 0xE ADD SLOAD SWAP11 PUSH1 0x40 MLOAD SWAP15 DUP16 SWAP15 DUP16 SWAP4 DUP5 MSTORE PUSH1 0x20 DUP5 ADD PUSH2 0x220 SWAP1 MSTORE PUSH2 0x220 DUP5 ADD PUSH2 0x11C5 SWAP2 PUSH2 0x1C2D JUMP JUMPDEST DUP4 DUP2 SUB PUSH1 0x40 DUP6 ADD MSTORE PUSH2 0x11D6 SWAP2 PUSH2 0x1C2D JUMP JUMPDEST SWAP2 PUSH1 0x60 ADD MSTORE DUP13 DUP1 DUP3 SUB SWAP1 PUSH1 0x80 ADD MSTORE PUSH2 0x11ED SWAP2 PUSH2 0x1C2D JUMP JUMPDEST DUP12 DUP2 SUB PUSH1 0xA0 DUP14 ADD MSTORE PUSH2 0x11FE SWAP2 PUSH2 0x1C2D JUMP JUMPDEST SWAP6 PUSH1 0xC0 DUP12 ADD MSTORE PUSH1 0xE0 DUP11 ADD MSTORE PUSH2 0x100 DUP10 ADD MSTORE PUSH1 0xFF DUP2 AND ISZERO ISZERO PUSH2 0x120 DUP10 ADD MSTORE DUP1 PUSH1 0x8 SHR PUSH1 0xFF AND ISZERO ISZERO PUSH2 0x140 DUP10 ADD MSTORE PUSH1 0x10 SHR PUSH1 0xFF AND ISZERO ISZERO PUSH2 0x160 DUP9 ADD MSTORE PUSH2 0x180 DUP8 ADD MSTORE PUSH2 0x1A0 DUP7 ADD MSTORE DUP5 DUP2 SUB PUSH2 0x1C0 DUP7 ADD MSTORE PUSH2 0x1256 SWAP2 PUSH2 0x1C2D JUMP JUMPDEST SWAP2 PUSH2 0x1E0 DUP5 ADD MSTORE PUSH2 0x200 DUP4 ADD MSTORE SUB SWAP1 RETURN JUMPDEST POP CALLVALUE PUSH2 0x12C JUMPI PUSH1 0x20 CALLDATASIZE PUSH1 0x3 NOT ADD SLT PUSH2 0x12C JUMPI PUSH2 0x1281 PUSH2 0x2020 JUMP JUMPDEST PUSH1 0x4 CALLDATALOAD PUSH1 0xB SSTORE DUP1 RETURN JUMPDEST POP CALLVALUE PUSH2 0x12C JUMPI PUSH1 0x20 CALLDATASIZE PUSH1 0x3 NOT ADD SLT PUSH2 0x12C JUMPI PUSH1 0x4 CALLDATALOAD PUSH2 0x12A7 PUSH2 0x2078 JUMP JUMPDEST DUP1 DUP3 MSTORE PUSH1 0x4 PUSH1 0x20 MSTORE PUSH1 0x40 DUP3 KECCAK256 PUSH1 0x9 DUP2 ADD DUP1 SLOAD SWAP1 PUSH1 0xFF DUP3 AND ISZERO PUSH2 0x1961 JUMPI PUSH1 0xFF DUP3 PUSH1 0x10 SHR AND PUSH2 0x1929 JUMPI PUSH1 0x7 DUP4 ADD SLOAD DUP1 TIMESTAMP LT PUSH2 0x18ED JUMPI PUSH1 0xB SLOAD DUP2 ADD DUP1 SWAP2 GT PUSH2 0x18D9 JUMPI TIMESTAMP GT PUSH2 0x1894 JUMPI PUSH1 0xC DUP4 ADD PUSH3 0x10000 PUSH2 0x1305 PUSH2 0x1300 DUP4 PUSH2 0x1B66 JUMP JUMPDEST PUSH2 0x1C80 JUMP JUMPDEST SWAP4 DUP5 PUSH1 0xD DUP8 ADD SSTORE TIMESTAMP PUSH1 0xB DUP8 ADD SSTORE PUSH3 0xFF0000 NOT AND OR DUP3 SSTORE PUSH2 0x132C PUSH2 0x1327 DUP6 PUSH2 0x1E4F JUMP JUMPDEST PUSH2 0x20CE JUMP JUMPDEST SWAP4 DUP5 ISZERO PUSH2 0x161D JUMPI SWAP1 PUSH2 0x137B SWAP2 PUSH2 0x100 PUSH2 0xFF00 NOT DUP6 SLOAD AND OR DUP5 SSTORE PUSH2 0x1350 PUSH1 0x9 SLOAD PUSH2 0x1F43 JUMP JUMPDEST PUSH1 0x9 SSTORE PUSH1 0x20 PUSH1 0x1 DUP1 PUSH1 0xA0 SHL SUB PUSH1 0x3 SLOAD AND SWAP3 PUSH1 0x40 MLOAD DUP1 SWAP6 DUP2 SWAP3 PUSH4 0x6984BF07 PUSH1 0xE0 SHL DUP4 MSTORE PUSH1 0x4 DUP4 ADD PUSH2 0x1F68 JUMP JUMPDEST SUB DUP2 DUP6 GAS STATICCALL SWAP3 DUP4 ISZERO PUSH2 0xCD2 JUMPI DUP9 SWAP4 PUSH2 0x15E5 JUMPI JUMPDEST POP PUSH1 0x3 DUP2 ADD DUP1 SLOAD PUSH1 0x8 DUP4 ADD SLOAD PUSH1 0x40 MLOAD PUSH4 0xA9059CBB PUSH1 0xE0 SHL DUP2 MSTORE PUSH1 0x1 PUSH1 0x1 PUSH1 0xA0 SHL SUB SWAP1 SWAP3 AND PUSH1 0x4 DUP4 ADD MSTORE PUSH1 0x24 DUP3 ADD MSTORE SWAP1 SWAP3 PUSH1 0x20 SWAP1 DUP3 SWAP1 PUSH1 0x44 SWAP1 DUP3 SWAP1 DUP14 SWAP1 GAS CALL DUP1 ISZERO PUSH2 0x15DA JUMPI PUSH2 0x15BD JUMPI JUMPDEST POP PUSH1 0x3 SLOAD DUP3 SLOAD PUSH1 0x40 MLOAD PUSH22 0x233AB63334B63632B21031B7B6B6B4BA36B2B73A1D1 PUSH1 0x55 SHL PUSH1 0x20 DUP3 ADD MSTORE PUSH1 0x1 SWAP4 SWAP1 SWAP4 ADD DUP1 SLOAD PUSH1 0x1 PUSH1 0x1 PUSH1 0xA0 SHL SUB SWAP3 DUP4 AND SWAP5 DUP13 SWAP5 SWAP1 SWAP4 AND SWAP2 DUP5 SWAP2 SWAP1 PUSH2 0x1425 DUP3 PUSH2 0x1B2C JUMP JUMPDEST SWAP2 DUP6 PUSH1 0x1 DUP3 AND SWAP2 DUP3 PUSH1 0x0 EQ PUSH2 0x159B JUMPI POP POP PUSH1 0x1 EQ PUSH2 0x155E JUMPI JUMPDEST POP POP DUP3 PUSH2 0x1453 SWAP2 SUB PUSH1 0x1F NOT DUP2 ADD DUP5 MSTORE DUP4 PUSH2 0x1AB5 JUMP JUMPDEST DUP1 EXTCODESIZE ISZERO PUSH2 0xDA6 JUMPI PUSH2 0x148E SWAP4 DUP4 PUSH1 0x40 MLOAD DUP1 SWAP7 DUP2 SWAP6 DUP3 SWAP5 PUSH4 0x6759C17 PUSH1 0xE1 SHL DUP5 MSTORE PUSH1 0x4 DUP5 ADD MSTORE DUP11 PUSH1 0x24 DUP5 ADD MSTORE PUSH1 0x60 PUSH1 0x44 DUP5 ADD MSTORE PUSH1 0x64 DUP4 ADD SWAP1 PUSH2 0x1C2D JUMP JUMPDEST SUB SWAP3 GAS CALL DUP1 ISZERO PUSH2 0xCD2 JUMPI PUSH2 0x150B JUMPI JUMPDEST POP SWAP2 PUSH1 0x40 SWAP4 SWAP2 DUP7 PUSH32 0xE1B142CD7E48318879CD958FA0D9B615018D4FCA77E7A842C0CE77AD970F526D DUP7 PUSH1 0x0 DUP1 MLOAD PUSH1 0x20 PUSH2 0x21AB DUP4 CODECOPY DUP2 MLOAD SWAP2 MSTORE SWAP9 SWAP7 PUSH1 0x1 DUP1 PUSH1 0xA0 SHL SUB SWAP1 SLOAD AND SWAP4 DUP2 MLOAD SWAP1 DUP8 DUP3 MSTORE PUSH1 0x20 DUP3 ADD MSTORE LOG3 JUMPDEST DUP1 SLOAD PUSH1 0xFF NOT AND SWAP1 SSTORE DUP3 MLOAD SWAP2 ISZERO ISZERO DUP3 MSTORE PUSH1 0x20 DUP3 ADD MSTORE LOG2 PUSH1 0x1 DUP1 SSTORE DUP1 RETURN JUMPDEST SWAP2 DUP7 PUSH32 0xE1B142CD7E48318879CD958FA0D9B615018D4FCA77E7A842C0CE77AD970F526D PUSH1 0x40 DUP11 PUSH2 0x154F PUSH1 0x0 DUP1 MLOAD PUSH1 0x20 PUSH2 0x21AB DUP4 CODECOPY DUP2 MLOAD SWAP2 MSTORE SWAP11 SWAP9 SWAP7 SWAP13 DUP4 SWAP11 SWAP9 PUSH2 0x1AB5 JUMP JUMPDEST SWAP11 SWAP5 SWAP7 SWAP9 POP POP POP POP SWAP2 SWAP4 PUSH2 0x149D JUMP JUMPDEST SWAP1 SWAP2 POP DUP5 MSTORE PUSH1 0x20 DUP5 KECCAK256 DUP5 SWAP1 JUMPDEST DUP3 DUP3 LT PUSH2 0x1581 JUMPI POP POP DUP3 ADD PUSH1 0x36 ADD DUP3 PUSH2 0x1453 PUSH2 0x143E JUMP JUMPDEST DUP1 SLOAD PUSH1 0x36 DUP4 DUP8 ADD ADD MSTORE DUP14 SWAP6 POP PUSH1 0x20 SWAP1 SWAP2 ADD SWAP1 PUSH1 0x1 ADD PUSH2 0x156A JUMP JUMPDEST SWAP1 SWAP4 SWAP2 POP PUSH2 0x1453 SWAP5 POP PUSH1 0x36 SWAP3 POP PUSH1 0xFF NOT AND DUP3 DUP5 ADD MSTORE DUP1 ISZERO ISZERO MUL DUP3 ADD ADD SWAP2 PUSH2 0x143E JUMP JUMPDEST PUSH2 0x15D5 SWAP1 PUSH1 0x20 RETURNDATASIZE PUSH1 0x20 GT PUSH2 0xCCB JUMPI PUSH2 0xCBD DUP2 DUP4 PUSH2 0x1AB5 JUMP JUMPDEST PUSH2 0x13D7 JUMP JUMPDEST PUSH1 0x40 MLOAD RETURNDATASIZE DUP12 DUP3 RETURNDATACOPY RETURNDATASIZE SWAP1 REVERT JUMPDEST SWAP1 SWAP3 POP PUSH1 0x20 DUP2 RETURNDATASIZE PUSH1 0x20 GT PUSH2 0x1615 JUMPI JUMPDEST DUP2 PUSH2 0x1601 PUSH1 0x20 SWAP4 DUP4 PUSH2 0x1AB5 JUMP JUMPDEST DUP2 ADD SUB SLT PUSH2 0x1611 JUMPI MLOAD SWAP2 CODESIZE PUSH2 0x138E JUMP JUMPDEST DUP8 DUP1 REVERT JUMPDEST RETURNDATASIZE SWAP2 POP PUSH2 0x15F4 JUMP JUMPDEST SWAP3 SWAP1 SWAP4 SWAP2 PUSH2 0x162C PUSH1 0xA SLOAD PUSH2 0x1F43 JUMP JUMPDEST PUSH1 0xA SSTORE PUSH1 0x3 SLOAD PUSH1 0x40 MLOAD PUSH4 0x7854CF59 PUSH1 0xE0 SHL DUP2 MSTORE PUSH1 0x1 PUSH1 0x1 PUSH1 0xA0 SHL SUB SWAP1 SWAP2 AND SWAP6 PUSH1 0x20 SWAP1 DUP3 SWAP1 DUP2 SWAP1 PUSH2 0x165F SWAP1 PUSH1 0x4 DUP4 ADD PUSH2 0x1F68 JUMP JUMPDEST SUB DUP2 DUP10 GAS STATICCALL SWAP1 DUP2 ISZERO PUSH2 0xCD2 JUMPI DUP9 SWAP2 PUSH2 0x1862 JUMPI JUMPDEST POP DUP8 PUSH1 0x8 DUP7 ADD SWAP7 DUP8 SLOAD SWAP1 DUP4 DUP3 GT PUSH1 0x0 EQ PUSH2 0x17CF JUMPI POP POP PUSH1 0x3 SLOAD PUSH1 0x40 MLOAD PUSH4 0xA9059CBB PUSH1 0xE0 SHL DUP2 MSTORE PUSH1 0x4 DUP2 ADD DUP12 SWAP1 MSTORE PUSH1 0x24 DUP2 ADD DUP5 SWAP1 MSTORE SWAP8 SWAP2 POP PUSH1 0x20 SWAP1 DUP9 SWAP1 PUSH1 0x44 SWAP1 DUP3 SWAP1 DUP14 SWAP1 PUSH1 0x1 PUSH1 0x1 PUSH1 0xA0 SHL SUB AND GAS CALL SWAP1 DUP2 ISZERO PUSH2 0x15DA JUMPI PUSH2 0x172B SWAP8 PUSH1 0x20 SWAP3 PUSH2 0x17B4 JUMPI JUMPDEST POP PUSH1 0x1 DUP1 PUSH1 0xA0 SHL SUB PUSH1 0x3 SLOAD AND PUSH2 0x16F7 DUP5 PUSH1 0x1 DUP1 PUSH1 0xA0 SHL SUB PUSH1 0x3 DUP12 ADD SLOAD AND SWAP4 SLOAD PUSH2 0x2013 JUMP JUMPDEST PUSH1 0x40 MLOAD PUSH4 0xA9059CBB PUSH1 0xE0 SHL DUP2 MSTORE PUSH1 0x1 PUSH1 0x1 PUSH1 0xA0 SHL SUB SWAP1 SWAP4 AND PUSH1 0x4 DUP5 ADD MSTORE PUSH1 0x24 DUP4 ADD MSTORE SWAP1 SWAP8 DUP9 SWAP2 SWAP1 DUP3 SWAP1 DUP13 SWAP1 DUP3 SWAP1 PUSH1 0x44 DUP3 ADD SWAP1 JUMP JUMPDEST SUB SWAP3 GAS CALL SWAP5 DUP6 ISZERO PUSH2 0xCD2 JUMPI PUSH32 0xA016602979AEE78282C115343A0B7897AB7DD5D6086D988B41164391B393D0E7 PUSH1 0x40 DUP10 SWAP3 PUSH1 0x0 DUP1 MLOAD PUSH1 0x20 PUSH2 0x21AB DUP4 CODECOPY DUP2 MLOAD SWAP2 MSTORE SWAP10 DUP3 SWAP10 PUSH2 0x1795 JUMPI JUMPDEST POP JUMPDEST PUSH1 0x3 ADD SLOAD DUP2 MLOAD DUP8 DUP2 MSTORE PUSH1 0x20 DUP2 ADD SWAP6 SWAP1 SWAP6 MSTORE PUSH1 0x1 PUSH1 0x1 PUSH1 0xA0 SHL SUB AND SWAP4 LOG3 PUSH2 0x14EF JUMP JUMPDEST PUSH2 0x17AD SWAP1 PUSH1 0x20 RETURNDATASIZE PUSH1 0x20 GT PUSH2 0xCCB JUMPI PUSH2 0xCBD DUP2 DUP4 PUSH2 0x1AB5 JUMP JUMPDEST POP CODESIZE PUSH2 0x1772 JUMP JUMPDEST PUSH2 0x17CA SWAP1 DUP4 RETURNDATASIZE DUP6 GT PUSH2 0xCCB JUMPI PUSH2 0xCBD DUP2 DUP4 PUSH2 0x1AB5 JUMP JUMPDEST PUSH2 0x16D3 JUMP JUMPDEST PUSH1 0x40 MLOAD PUSH4 0xA9059CBB PUSH1 0xE0 SHL DUP2 MSTORE PUSH1 0x4 DUP2 ADD DUP5 SWAP1 MSTORE PUSH1 0x24 DUP2 ADD SWAP3 SWAP1 SWAP3 MSTORE SWAP1 SWAP8 POP PUSH1 0x20 SWAP2 DUP9 SWAP2 PUSH1 0x44 SWAP2 DUP4 SWAP2 GAS CALL SWAP5 DUP6 ISZERO PUSH2 0xCD2 JUMPI PUSH32 0xA016602979AEE78282C115343A0B7897AB7DD5D6086D988B41164391B393D0E7 PUSH1 0x40 DUP10 SWAP3 PUSH1 0x0 DUP1 MLOAD PUSH1 0x20 PUSH2 0x21AB DUP4 CODECOPY DUP2 MLOAD SWAP2 MSTORE SWAP10 DUP3 SWAP10 PUSH2 0x1843 JUMPI JUMPDEST POP PUSH2 0x1774 JUMP JUMPDEST PUSH2 0x185B SWAP1 PUSH1 0x20 RETURNDATASIZE PUSH1 0x20 GT PUSH2 0xCCB JUMPI PUSH2 0xCBD DUP2 DUP4 PUSH2 0x1AB5 JUMP JUMPDEST POP CODESIZE PUSH2 0x183D JUMP JUMPDEST SWAP1 POP PUSH1 0x20 DUP2 RETURNDATASIZE PUSH1 0x20 GT PUSH2 0x188C JUMPI JUMPDEST DUP2 PUSH2 0x187D PUSH1 0x20 SWAP4 DUP4 PUSH2 0x1AB5 JUMP JUMPDEST DUP2 ADD SUB SLT PUSH2 0x1611 JUMPI MLOAD CODESIZE PUSH2 0x1672 JUMP JUMPDEST RETURNDATASIZE SWAP2 POP PUSH2 0x1870 JUMP JUMPDEST PUSH1 0x40 MLOAD PUSH3 0x461BCD PUSH1 0xE5 SHL DUP2 MSTORE PUSH1 0x20 PUSH1 0x4 DUP3 ADD MSTORE PUSH1 0x1B PUSH1 0x24 DUP3 ADD MSTORE PUSH32 0x566572696669636174696F6E2077696E646F7720657870697265640000000000 PUSH1 0x44 DUP3 ADD MSTORE PUSH1 0x64 SWAP1 REVERT JUMPDEST PUSH4 0x4E487B71 PUSH1 0xE0 SHL DUP7 MSTORE PUSH1 0x11 PUSH1 0x4 MSTORE PUSH1 0x24 DUP7 REVERT JUMPDEST PUSH1 0x40 MLOAD PUSH3 0x461BCD PUSH1 0xE5 SHL DUP2 MSTORE PUSH1 0x20 PUSH1 0x4 DUP3 ADD MSTORE PUSH1 0x14 PUSH1 0x24 DUP3 ADD MSTORE PUSH20 0x111958591B1A5B99481B9BDD081C995858DA1959 PUSH1 0x62 SHL PUSH1 0x44 DUP3 ADD MSTORE PUSH1 0x64 SWAP1 REVERT JUMPDEST PUSH1 0x40 MLOAD PUSH3 0x461BCD PUSH1 0xE5 SHL DUP2 MSTORE PUSH1 0x20 PUSH1 0x4 DUP3 ADD MSTORE PUSH1 0x10 PUSH1 0x24 DUP3 ADD MSTORE PUSH16 0x105B1C9958591E481D995C9A599A5959 PUSH1 0x82 SHL PUSH1 0x44 DUP3 ADD MSTORE PUSH1 0x64 SWAP1 REVERT JUMPDEST PUSH1 0x40 MLOAD PUSH3 0x461BCD PUSH1 0xE5 SHL DUP2 MSTORE PUSH1 0x20 PUSH1 0x4 DUP3 ADD MSTORE PUSH1 0x15 PUSH1 0x24 DUP3 ADD MSTORE PUSH21 0x436F6D6D69746D656E74206E6F7420616374697665 PUSH1 0x58 SHL PUSH1 0x44 DUP3 ADD MSTORE PUSH1 0x64 SWAP1 REVERT JUMPDEST POP CALLVALUE PUSH2 0x12C JUMPI DUP1 PUSH1 0x3 NOT CALLDATASIZE ADD SLT PUSH2 0x12C JUMPI PUSH1 0x3 SLOAD PUSH1 0x40 MLOAD PUSH1 0x1 PUSH1 0x1 PUSH1 0xA0 SHL SUB SWAP1 SWAP2 AND DUP2 MSTORE PUSH1 0x20 SWAP1 RETURN JUMPDEST POP CALLVALUE PUSH2 0x12C JUMPI PUSH1 0x20 CALLDATASIZE PUSH1 0x3 NOT ADD SLT PUSH2 0x12C JUMPI PUSH1 0x4 CALLDATALOAD SWAP1 PUSH1 0x1 PUSH1 0x1 PUSH1 0x40 SHL SUB DUP3 GT PUSH2 0x12C JUMPI PUSH1 0x20 PUSH2 0x19FD PUSH2 0x1300 CALLDATASIZE PUSH1 0x4 DUP7 ADD PUSH2 0x1AD6 JUMP JUMPDEST PUSH1 0x40 MLOAD SWAP1 DUP2 MSTORE RETURN JUMPDEST POP CALLVALUE PUSH2 0x12C JUMPI DUP1 PUSH1 0x3 NOT CALLDATASIZE ADD SLT PUSH2 0x12C JUMPI PUSH1 0x20 PUSH1 0xA SLOAD PUSH1 0x40 MLOAD SWAP1 DUP2 MSTORE RETURN JUMPDEST POP CALLVALUE PUSH2 0x12C JUMPI PUSH1 0x20 CALLDATASIZE PUSH1 0x3 NOT ADD SLT PUSH2 0x12C JUMPI PUSH2 0x1A3D PUSH2 0x1A68 JUMP JUMPDEST PUSH2 0x1A45 PUSH2 0x2020 JUMP JUMPDEST PUSH1 0x1 DUP1 PUSH1 0xA0 SHL SUB AND PUSH12 0xFFFFFFFFFFFFFFFFFFFFFFFF PUSH1 0xA0 SHL PUSH1 0x2 SLOAD AND OR PUSH1 0x2 SSTORE DUP1 RETURN JUMPDEST PUSH1 0x4 CALLDATALOAD SWAP1 PUSH1 0x1 PUSH1 0x1 PUSH1 0xA0 SHL SUB DUP3 AND DUP3 SUB PUSH2 0x1A7E JUMPI JUMP JUMPDEST PUSH1 0x0 DUP1 REVERT JUMPDEST PUSH2 0x220 DUP2 ADD SWAP1 DUP2 LT PUSH1 0x1 PUSH1 0x1 PUSH1 0x40 SHL SUB DUP3 GT OR PUSH2 0x1A9F JUMPI PUSH1 0x40 MSTORE JUMP JUMPDEST PUSH4 0x4E487B71 PUSH1 0xE0 SHL PUSH1 0x0 MSTORE PUSH1 0x41 PUSH1 0x4 MSTORE PUSH1 0x24 PUSH1 0x0 REVERT JUMPDEST SWAP1 PUSH1 0x1F DUP1 NOT SWAP2 ADD AND DUP2 ADD SWAP1 DUP2 LT PUSH1 0x1 PUSH1 0x1 PUSH1 0x40 SHL SUB DUP3 GT OR PUSH2 0x1A9F JUMPI PUSH1 0x40 MSTORE JUMP JUMPDEST DUP2 PUSH1 0x1F DUP3 ADD SLT ISZERO PUSH2 0x1A7E JUMPI DUP1 CALLDATALOAD SWAP1 PUSH1 0x1 PUSH1 0x1 PUSH1 0x40 SHL SUB DUP3 GT PUSH2 0x1A9F JUMPI PUSH1 0x40 MLOAD SWAP3 PUSH2 0x1B0A PUSH1 0x1F DUP5 ADD PUSH1 0x1F NOT AND PUSH1 0x20 ADD DUP6 PUSH2 0x1AB5 JUMP JUMPDEST DUP3 DUP5 MSTORE PUSH1 0x20 DUP4 DUP4 ADD ADD GT PUSH2 0x1A7E JUMPI DUP2 PUSH1 0x0 SWAP3 PUSH1 0x20 DUP1 SWAP4 ADD DUP4 DUP7 ADD CALLDATACOPY DUP4 ADD ADD MSTORE SWAP1 JUMP JUMPDEST SWAP1 PUSH1 0x1 DUP3 DUP2 SHR SWAP3 AND DUP1 ISZERO PUSH2 0x1B5C JUMPI JUMPDEST PUSH1 0x20 DUP4 LT EQ PUSH2 0x1B46 JUMPI JUMP JUMPDEST PUSH4 0x4E487B71 PUSH1 0xE0 SHL PUSH1 0x0 MSTORE PUSH1 0x22 PUSH1 0x4 MSTORE PUSH1 0x24 PUSH1 0x0 REVERT JUMPDEST SWAP2 PUSH1 0x7F AND SWAP2 PUSH2 0x1B3B JUMP JUMPDEST SWAP1 PUSH1 0x40 MLOAD SWAP2 DUP3 PUSH1 0x0 DUP3 SLOAD SWAP3 PUSH2 0x1B7A DUP5 PUSH2 0x1B2C JUMP JUMPDEST DUP1 DUP5 MSTORE SWAP4 PUSH1 0x1 DUP2 AND SWAP1 DUP2 ISZERO PUSH2 0x1BE8 JUMPI POP PUSH1 0x1 EQ PUSH2 0x1BA1 JUMPI JUMPDEST POP PUSH2 0x1B9F SWAP3 POP SUB DUP4 PUSH2 0x1AB5 JUMP JUMPDEST JUMP JUMPDEST SWAP1 POP PUSH1 0x0 SWAP3 SWAP2 SWAP3 MSTORE PUSH1 0x20 PUSH1 0x0 KECCAK256 SWAP1 PUSH1 0x0 SWAP2 JUMPDEST DUP2 DUP4 LT PUSH2 0x1BCC JUMPI POP POP SWAP1 PUSH1 0x20 PUSH2 0x1B9F SWAP3 DUP3 ADD ADD CODESIZE PUSH2 0x1B92 JUMP JUMPDEST PUSH1 0x20 SWAP2 SWAP4 POP DUP1 PUSH1 0x1 SWAP2 SLOAD DUP4 DUP6 DUP10 ADD ADD MSTORE ADD SWAP2 ADD SWAP1 SWAP2 DUP5 SWAP3 PUSH2 0x1BB3 JUMP JUMPDEST SWAP1 POP PUSH1 0x20 SWAP3 POP PUSH2 0x1B9F SWAP5 SWAP2 POP PUSH1 0xFF NOT AND DUP3 DUP5 ADD MSTORE ISZERO ISZERO PUSH1 0x5 SHL DUP3 ADD ADD CODESIZE PUSH2 0x1B92 JUMP JUMPDEST PUSH1 0x0 JUMPDEST DUP4 DUP2 LT PUSH2 0x1C1D JUMPI POP POP PUSH1 0x0 SWAP2 ADD MSTORE JUMP JUMPDEST DUP2 DUP2 ADD MLOAD DUP4 DUP3 ADD MSTORE PUSH1 0x20 ADD PUSH2 0x1C0D JUMP JUMPDEST SWAP1 PUSH1 0x20 SWAP2 PUSH2 0x1C46 DUP2 MLOAD DUP1 SWAP3 DUP2 DUP6 MSTORE DUP6 DUP1 DUP7 ADD SWAP2 ADD PUSH2 0x1C0A JUMP JUMPDEST PUSH1 0x1F ADD PUSH1 0x1F NOT AND ADD ADD SWAP1 JUMP JUMPDEST DUP1 SLOAD DUP3 LT ISZERO PUSH2 0x1C6A JUMPI PUSH1 0x0 MSTORE PUSH1 0x20 PUSH1 0x0 KECCAK256 ADD SWAP1 PUSH1 0x0 SWAP1 JUMP JUMPDEST PUSH4 0x4E487B71 PUSH1 0xE0 SHL PUSH1 0x0 MSTORE PUSH1 0x32 PUSH1 0x4 MSTORE PUSH1 0x24 PUSH1 0x0 REVERT JUMPDEST PUSH1 0x40 MLOAD PUSH2 0x1CAE PUSH1 0x20 DUP3 DUP2 PUSH2 0x1C9D DUP2 DUP4 ADD SWAP7 DUP8 DUP2 MLOAD SWAP4 DUP5 SWAP3 ADD PUSH2 0x1C0A JUMP JUMPDEST DUP2 ADD SUB ADD PUSH1 0x1F NOT DUP2 ADD DUP4 MSTORE DUP3 PUSH2 0x1AB5 JUMP JUMPDEST MLOAD SWAP1 KECCAK256 PUSH1 0x40 MLOAD PUSH1 0x20 DUP2 ADD SWAP1 PUSH4 0x504D3235 PUSH1 0xE0 SHL DUP3 MSTORE PUSH1 0x4 DUP2 MSTORE PUSH2 0x1CD2 PUSH1 0x24 DUP3 PUSH2 0x1AB5 JUMP JUMPDEST MLOAD SWAP1 KECCAK256 DUP2 SUB PUSH2 0x1D4F JUMPI POP PUSH1 0x2 SLOAD PUSH1 0x40 MLOAD PUSH4 0xB53EEB6F PUSH1 0xE0 SHL DUP2 MSTORE SWAP1 PUSH1 0x20 SWAP1 DUP3 SWAP1 PUSH1 0x4 SWAP1 DUP3 SWAP1 PUSH1 0x1 PUSH1 0x1 PUSH1 0xA0 SHL SUB AND GAS STATICCALL SWAP1 DUP2 ISZERO PUSH2 0x1D43 JUMPI PUSH1 0x0 SWAP2 PUSH2 0x1D14 JUMPI POP SWAP1 JUMP JUMPDEST SWAP1 POP PUSH1 0x20 DUP2 RETURNDATASIZE PUSH1 0x20 GT PUSH2 0x1D3B JUMPI JUMPDEST DUP2 PUSH2 0x1D2F PUSH1 0x20 SWAP4 DUP4 PUSH2 0x1AB5 JUMP JUMPDEST DUP2 ADD SUB SLT PUSH2 0x1A7E JUMPI MLOAD SWAP1 JUMP JUMPDEST RETURNDATASIZE SWAP2 POP PUSH2 0x1D22 JUMP JUMPDEST PUSH1 0x40 MLOAD RETURNDATASIZE PUSH1 0x0 DUP3 RETURNDATACOPY RETURNDATASIZE SWAP1 REVERT JUMPDEST PUSH1 0x40 MLOAD PUSH1 0x20 DUP2 ADD SWAP1 PUSH3 0x21A799 PUSH1 0xE9 SHL DUP3 MSTORE PUSH1 0x3 DUP2 MSTORE PUSH2 0x1D6F PUSH1 0x23 DUP3 PUSH2 0x1AB5 JUMP JUMPDEST MLOAD SWAP1 KECCAK256 DUP2 SUB PUSH2 0x1DB1 JUMPI POP PUSH1 0x2 SLOAD PUSH1 0x40 MLOAD PUSH4 0x5F87653F PUSH1 0xE1 SHL DUP2 MSTORE SWAP1 PUSH1 0x20 SWAP1 DUP3 SWAP1 PUSH1 0x4 SWAP1 DUP3 SWAP1 PUSH1 0x1 PUSH1 0x1 PUSH1 0xA0 SHL SUB AND GAS STATICCALL SWAP1 DUP2 ISZERO PUSH2 0x1D43 JUMPI PUSH1 0x0 SWAP2 PUSH2 0x1D14 JUMPI POP SWAP1 JUMP JUMPDEST PUSH1 0x40 MLOAD PUSH1 0x20 DUP2 ADD SWAP1 PUSH6 0x1193D49154D5 PUSH1 0xD2 SHL DUP3 MSTORE PUSH1 0x6 DUP2 MSTORE PUSH2 0x1DD4 PUSH1 0x26 DUP3 PUSH2 0x1AB5 JUMP JUMPDEST MLOAD SWAP1 KECCAK256 EQ PUSH2 0x1E17 JUMPI PUSH1 0x40 MLOAD PUSH3 0x461BCD PUSH1 0xE5 SHL DUP2 MSTORE PUSH1 0x20 PUSH1 0x4 DUP3 ADD MSTORE PUSH1 0x13 PUSH1 0x24 DUP3 ADD MSTORE PUSH19 0x556E6B6E6F776E206D65747269632074797065 PUSH1 0x68 SHL PUSH1 0x44 DUP3 ADD MSTORE PUSH1 0x64 SWAP1 REVERT JUMPDEST PUSH1 0x2 SLOAD PUSH1 0x40 MLOAD PUSH4 0xBB99B969 PUSH1 0xE0 SHL DUP2 MSTORE SWAP1 PUSH1 0x20 SWAP1 DUP3 SWAP1 PUSH1 0x4 SWAP1 DUP3 SWAP1 PUSH1 0x1 PUSH1 0x1 PUSH1 0xA0 SHL SUB AND GAS STATICCALL SWAP1 DUP2 ISZERO PUSH2 0x1D43 JUMPI PUSH1 0x0 SWAP2 PUSH2 0x1D14 JUMPI POP SWAP1 JUMP JUMPDEST SWAP1 PUSH1 0x40 MLOAD PUSH2 0x1E5C DUP2 PUSH2 0x1A83 JUMP JUMPDEST PUSH2 0x200 PUSH1 0xE DUP3 SWAP5 DUP1 SLOAD DUP5 MSTORE PUSH2 0x1E73 PUSH1 0x1 DUP3 ADD PUSH2 0x1B66 JUMP JUMPDEST PUSH1 0x20 DUP6 ADD MSTORE PUSH2 0x1E84 PUSH1 0x2 DUP3 ADD PUSH2 0x1B66 JUMP JUMPDEST PUSH1 0x40 DUP6 ADD MSTORE PUSH1 0x3 DUP2 ADD SLOAD PUSH1 0x1 PUSH1 0x1 PUSH1 0xA0 SHL SUB AND PUSH1 0x60 DUP6 ADD MSTORE PUSH2 0x1EA8 PUSH1 0x4 DUP3 ADD PUSH2 0x1B66 JUMP JUMPDEST PUSH1 0x80 DUP6 ADD MSTORE PUSH2 0x1EB9 PUSH1 0x5 DUP3 ADD PUSH2 0x1B66 JUMP JUMPDEST PUSH1 0xA0 DUP6 ADD MSTORE PUSH1 0x6 DUP2 ADD SLOAD PUSH1 0xC0 DUP6 ADD MSTORE PUSH1 0x7 DUP2 ADD SLOAD PUSH1 0xE0 DUP6 ADD MSTORE PUSH1 0x8 DUP2 ADD SLOAD PUSH2 0x100 DUP6 ADD MSTORE PUSH1 0xFF PUSH1 0x9 DUP3 ADD SLOAD DUP2 DUP2 AND ISZERO ISZERO PUSH2 0x120 DUP8 ADD MSTORE DUP2 DUP2 PUSH1 0x8 SHR AND ISZERO ISZERO PUSH2 0x140 DUP8 ADD MSTORE PUSH1 0x10 SHR AND ISZERO ISZERO PUSH2 0x160 DUP6 ADD MSTORE PUSH1 0xA DUP2 ADD SLOAD PUSH2 0x180 DUP6 ADD MSTORE PUSH1 0xB DUP2 ADD SLOAD PUSH2 0x1A0 DUP6 ADD MSTORE PUSH2 0x1F2B PUSH1 0xC DUP3 ADD PUSH2 0x1B66 JUMP JUMPDEST PUSH2 0x1C0 DUP6 ADD MSTORE PUSH1 0xD DUP2 ADD SLOAD PUSH2 0x1E0 DUP6 ADD MSTORE ADD SLOAD SWAP2 ADD MSTORE JUMP JUMPDEST PUSH1 0x0 NOT DUP2 EQ PUSH2 0x1F52 JUMPI PUSH1 0x1 ADD SWAP1 JUMP JUMPDEST PUSH4 0x4E487B71 PUSH1 0xE0 SHL PUSH1 0x0 MSTORE PUSH1 0x11 PUSH1 0x4 MSTORE PUSH1 0x24 PUSH1 0x0 REVERT JUMPDEST SWAP1 PUSH1 0x20 DUP3 MSTORE PUSH1 0x0 SWAP2 DUP2 SLOAD SWAP2 PUSH2 0x1F7C DUP4 PUSH2 0x1B2C JUMP JUMPDEST SWAP3 DUP4 PUSH1 0x20 DUP5 ADD MSTORE PUSH1 0x1 DUP2 AND SWAP1 DUP2 PUSH1 0x0 EQ PUSH2 0x1FDA JUMPI POP PUSH1 0x1 EQ PUSH2 0x1F9F JUMPI JUMPDEST POP POP POP SWAP1 JUMP JUMPDEST PUSH1 0x0 SWAP1 DUP2 MSTORE PUSH1 0x20 DUP2 KECCAK256 SWAP3 SWAP4 POP SWAP2 JUMPDEST DUP4 DUP4 LT PUSH2 0x1FC3 JUMPI POP PUSH1 0x40 SWAP3 POP ADD ADD CODESIZE DUP1 DUP1 PUSH2 0x1F99 JUMP JUMPDEST DUP1 SLOAD PUSH1 0x40 DUP5 DUP5 ADD ADD MSTORE PUSH1 0x20 SWAP1 SWAP3 ADD SWAP2 PUSH1 0x1 ADD PUSH2 0x1FAD JUMP JUMPDEST SWAP2 POP POP PUSH1 0x40 SWAP4 POP PUSH1 0xFF SWAP3 SWAP2 SWAP3 NOT AND DUP4 DUP4 ADD MSTORE ISZERO ISZERO PUSH1 0x5 SHL ADD ADD CODESIZE DUP1 DUP1 PUSH2 0x1F99 JUMP JUMPDEST SWAP1 DUP2 PUSH1 0x20 SWAP2 SUB SLT PUSH2 0x1A7E JUMPI MLOAD DUP1 ISZERO ISZERO DUP2 SUB PUSH2 0x1A7E JUMPI SWAP1 JUMP JUMPDEST SWAP2 SWAP1 DUP3 SUB SWAP2 DUP3 GT PUSH2 0x1F52 JUMPI JUMP JUMPDEST PUSH1 0x0 SLOAD PUSH1 0x1 PUSH1 0x1 PUSH1 0xA0 SHL SUB AND CALLER SUB PUSH2 0x2034 JUMPI JUMP JUMPDEST PUSH1 0x64 PUSH1 0x40 MLOAD PUSH3 0x461BCD PUSH1 0xE5 SHL DUP2 MSTORE PUSH1 0x20 PUSH1 0x4 DUP3 ADD MSTORE PUSH1 0x20 PUSH1 0x24 DUP3 ADD MSTORE PUSH32 0x4F776E61626C653A2063616C6C6572206973206E6F7420746865206F776E6572 PUSH1 0x44 DUP3 ADD MSTORE REVERT JUMPDEST PUSH1 0x2 PUSH1 0x1 SLOAD EQ PUSH2 0x2089 JUMPI PUSH1 0x2 PUSH1 0x1 SSTORE JUMP JUMPDEST PUSH1 0x40 MLOAD PUSH3 0x461BCD PUSH1 0xE5 SHL DUP2 MSTORE PUSH1 0x20 PUSH1 0x4 DUP3 ADD MSTORE PUSH1 0x1F PUSH1 0x24 DUP3 ADD MSTORE PUSH32 0x5265656E7472616E637947756172643A207265656E7472616E742063616C6C00 PUSH1 0x44 DUP3 ADD MSTORE PUSH1 0x64 SWAP1 REVERT JUMPDEST PUSH2 0x1C0 DUP2 ADD MLOAD PUSH1 0x40 MLOAD PUSH2 0x20F1 PUSH1 0x20 DUP3 DUP2 PUSH2 0x1C9D DUP2 DUP4 ADD SWAP7 DUP8 DUP2 MLOAD SWAP4 DUP5 SWAP3 ADD PUSH2 0x1C0A JUMP JUMPDEST MLOAD SWAP1 KECCAK256 PUSH1 0x40 MLOAD PUSH1 0x20 DUP2 ADD SWAP1 PUSH4 0x504D3235 PUSH1 0xE0 SHL DUP3 MSTORE PUSH1 0x4 DUP2 MSTORE PUSH2 0x2115 PUSH1 0x24 DUP3 PUSH2 0x1AB5 JUMP JUMPDEST MLOAD SWAP1 KECCAK256 DUP2 SUB PUSH2 0x212F JUMPI POP PUSH1 0xC0 PUSH2 0x1E0 DUP3 ADD MLOAD SWAP2 ADD MLOAD LT ISZERO SWAP1 JUMP JUMPDEST PUSH1 0x40 MLOAD PUSH1 0x20 DUP2 ADD SWAP1 PUSH3 0x21A799 PUSH1 0xE9 SHL DUP3 MSTORE PUSH1 0x3 DUP2 MSTORE PUSH2 0x214F PUSH1 0x23 DUP3 PUSH2 0x1AB5 JUMP JUMPDEST MLOAD SWAP1 KECCAK256 DUP2 SUB PUSH2 0x2169 JUMPI POP PUSH1 0xC0 PUSH2 0x1E0 DUP3 ADD MLOAD SWAP2 ADD MLOAD LT ISZERO SWAP1 JUMP JUMPDEST PUSH1 0x40 MLOAD PUSH1 0x20 DUP2 ADD SWAP1 PUSH6 0x1193D49154D5 PUSH1 0xD2 SHL DUP3 MSTORE PUSH1 0x6 DUP2 MSTORE PUSH2 0x218C PUSH1 0x26 DUP3 PUSH2 0x1AB5 JUMP JUMPDEST MLOAD SWAP1 KECCAK256 EQ PUSH2 0x219A JUMPI POP PUSH1 0x0 SWAP1 JUMP JUMPDEST PUSH1 0xC0 PUSH2 0x1E0 DUP3 ADD MLOAD SWAP2 ADD MLOAD GT ISZERO SWAP1 JUMP INVALID DUP3 SWAP6 0xB6 0xAE 0xE8 DUP6 0x22 0xDA SSTORE 0x27 SGT 0xE5 LOG3 DUP2 DUP8 DIV PUSH29 0x6371972532BA73CB482E853BA4570A2646970667358221220A73BF2D4 PUSH4 0x6F3ED010 SWAP13 0x21 0xD5 PUSH8 0x5D64BDB3EC610127 MCOPY 0xE3 SWAP11 0xDB PUSH1 0x93 PUSH3 0xF5B68E PC PUSH5 0x736F6C6343 STOP ADDMOD SHR STOP CALLER "},"methodIdentifiers":{"civicToken()":"2e2c138c","commitments(uint256)":"49ce8997","createCommitment(string,string,string,string,uint256,uint256,uint256,string)":"97122a5d","environmentalOracle()":"d9bb0829","failedCommitments()":"1f638550","fulfilledCommitments()":"97073842","getCommitment(uint256)":"69bcdb7d","getCurrentMetricValue(string)":"2b208f73","getOfficialCommitments(address)":"b3e14b31","getStats()":"c59d4847","metricThresholds(string)":"75242d71","minimumStake()":"ec5ffac2","nextCommitmentId()":"5ac48e6d","officialCommitments(address,uint256)":"90bb9a29","owner()":"8da5cb5b","renounceOwnership()":"715018a6","totalCommitments()":"78bb86d3","transferOwnership(address)":"f2fde38b","updateOracle(address)":"1cb44dfc","updateVerificationWindow(uint256)":"3e8554a2","verificationWindow()":"f79f55b6","verifyCommitment(uint256)":"3521e9f5"}}}}}