{"contracts/EnvironmentalDataOracle.sol":{"EnvironmentalDataOracle":{"abi":[{"inputs":[],"stateMutability":"nonpayable","type":"constructor"},{"anonymous":false,"inputs":[{"indexed":false,"internalType":"string","name":"dataType","type":"string"},{"indexed":false,"internalType":"int256","name":"value","type":"int256"},{"indexed":false,"internalType":"uint256","name":"timestamp","type":"uint256"}],"name":"DataUpdated","type":"event"},{"inputs":[],"name":"co2Data","outputs":[{"internalType":"int256","name":"value","type":"int256"},{"internalType":"uint256","name":"timestamp","type":"uint256"},{"internalType":"uint256","name":"round","type":"uint256"}],"stateMutability":"view","type":"function"},{"inputs":[],"name":"decimals","outputs":[{"internalType":"uint8","name":"","type":"uint8"}],"stateMutability":"view","type":"function"},{"inputs":[],"name":"forestCoverData","outputs":[{"internalType":"int256","name":"value","type":"int256"},{"internalType":"uint256","name":"timestamp","type":"uint256"},{"internalType":"uint256","name":"round","type":"uint256"}],"stateMutability":"view","type":"function"},{"inputs":[],"name":"getEnvironmentalReport","outputs":[{"internalType":"int256","name":"pm25Value","type":"int256"},{"internalType":"int256","name":"co2Value","type":"int256"},{"internalType":"int256","name":"forestValue","type":"int256"},{"internalType":"uint256","name":"lastUpdated","type":"uint256"}],"stateMutability":"view","type":"function"},{"inputs":[],"name":"getLatestCO2Data","outputs":[{"internalType":"int256","name":"","type":"int256"}],"stateMutability":"view","type":"function"},{"inputs":[],"name":"getLatestForestCoverData","outputs":[{"internalType":"int256","name":"","type":"int256"}],"stateMutability":"view","type":"function"},{"inputs":[],"name":"getLatestPM25Data","outputs":[{"internalType":"int256","name":"","type":"int256"}],"stateMutability":"view","type":"function"},{"inputs":[],"name":"latestRoundData","outputs":[{"internalType":"uint80","name":"roundId","type":"uint80"},{"internalType":"int256","name":"answer","type":"int256"},{"internalType":"uint256","name":"startedAt","type":"uint256"},{"internalType":"uint256","name":"updatedAt","type":"uint256"},{"internalType":"uint80","name":"answeredInRound","type":"uint80"}],"stateMutability":"view","type":"function"},{"inputs":[],"name":"owner","outputs":[{"internalType":"address","name":"","type":"address"}],"stateMutability":"view","type":"function"},{"inputs":[],"name":"pm25Data","outputs":[{"internalType":"int256","name":"value","type":"int256"},{"internalType":"uint256","name":"timestamp","type":"uint256"},{"internalType":"uint256","name":"round","type":"uint256"}],"stateMutability":"view","type":"function"},{"inputs":[{"internalType":"int256","name":"_value","type":"int256"}],"name":"updateCO2Data","outputs":[],"stateMutability":"nonpayable","type":"function"},{"inputs":[{"internalType":"int256","name":"_value","type":"int256"}],"name":"updateForestCoverData","outputs":[],"stateMutability":"nonpayable","type":"function"},{"inputs":[{"internalType":"int256","name":"_value","type":"int256"}],"name":"updatePM25Data","outputs":[],"stateMutability":"nonpayable","type":"function"}],"evm":{"bytecode":{"linkReferences":{},"object":"608060405234609b57600080546001600160a01b0319163317905560016040602460a0565b6103dc815242602082015201526103dc60015542600255600160035560016040604a60a0565b61a4a68152426020820152015261a4a660045542600555600160065560016040607060a0565b611ac281524260208201520152611ac26007554260085560016009556040516104da90816100d58239f35b600080fd5b60405190606082016001600160401b0381118382101760be57604052565b634e487b7160e01b600052604160045260246000fdfe6080604052600436101561001257600080fd5b60003560e01c80631f4ca974146103a957806320da1e8414610377578063313ce5671461035b57806340f9fc13146103295780634e0f0f12146102f75780638da5cb5b146102ce578063a3c4f4c11461026e578063ad20d3b2146101e3578063b53eeb6f146101c5578063bb99b969146101a7578063bcf7545c14610115578063bf0eca7e146100f75763feaf968c146100ab57600080fd5b346100f25760003660031901126100f25760a069ffffffffffffffffffff600354166001549060025460405192828452602084015280604084015260608301526080820152f35b600080fd5b346100f25760003660031901126100f2576020600454604051908152f35b346100f25760203660031901126100f2577f732ee320a887fb5bfc6d04ed20fb7c242d0d36f91fcedbbd158ffd4fd4a0285460a0600435610160600180841b03600054163314610433565b806007554260085561017360095461047f565b6009556040519060608252600b60608301526a2337b932b9ba21b7bb32b960a91b60808301526020820152426040820152a1005b346100f25760003660031901126100f2576020600754604051908152f35b346100f25760003660031901126100f2576020600154604051908152f35b346100f25760203660031901126100f2577f732ee320a887fb5bfc6d04ed20fb7c242d0d36f91fcedbbd158ffd4fd4a0285460a060043561022e600180841b03600054163314610433565b806001554260025561024160035461047f565b60035560405190606082526004606083015263504d323560e01b60808301526020820152426040820152a1005b346100f25760003660031901126100f25760806002546005548181116102c6575b506008548181116102be575b506001549060045460075490604051938452602084015260408301526060820152f35b90508261029b565b90508261028f565b346100f25760003660031901126100f2576000546040516001600160a01b039091168152602090f35b346100f25760003660031901126100f25760075460085460095460408051938452602084019290925290820152606090f35b346100f25760003660031901126100f25760015460025460035460408051938452602084019290925290820152606090f35b346100f25760003660031901126100f257602060405160088152f35b346100f25760003660031901126100f25760045460055460065460408051938452602084019290925290820152606090f35b346100f25760203660031901126100f2577f732ee320a887fb5bfc6d04ed20fb7c242d0d36f91fcedbbd158ffd4fd4a0285460a06004356103f4600180841b03600054163314610433565b806004554260055561040760065461047f565b6006556040519060608252600360608301526221a79960e91b60808301526020820152426040820152a1005b1561043a57565b60405162461bcd60e51b815260206004820152601a60248201527f4f6e6c79206f776e65722063616e2075706461746520646174610000000000006044820152606490fd5b600019811461048e5760010190565b634e487b7160e01b600052601160045260246000fdfea26469706673582212207e63f212874b47cce9b57a806d6b661bbe6bd57ccf60ff3dad36eb77ee3c1e9e64736f6c634300081c0033","opcodes":"PUSH1 0x80 PUSH1 0x40 MSTORE CALLVALUE PUSH1 0x9B JUMPI PUSH1 0x0 DUP1 SLOAD PUSH1 0x1 PUSH1 0x1 PUSH1 0xA0 SHL SUB NOT AND CALLER OR SWAP1 SSTORE PUSH1 0x1 PUSH1 0x40 PUSH1 0x24 PUSH1 0xA0 JUMP JUMPDEST PUSH2 0x3DC DUP2 MSTORE TIMESTAMP PUSH1 0x20 DUP3 ADD MSTORE ADD MSTORE PUSH2 0x3DC PUSH1 0x1 SSTORE TIMESTAMP PUSH1 0x2 SSTORE PUSH1 0x1 PUSH1 0x3 SSTORE PUSH1 0x1 PUSH1 0x40 PUSH1 0x4A PUSH1 0xA0 JUMP JUMPDEST PUSH2 0xA4A6 DUP2 MSTORE TIMESTAMP PUSH1 0x20 DUP3 ADD MSTORE ADD MSTORE PUSH2 0xA4A6 PUSH1 0x4 SSTORE TIMESTAMP PUSH1 0x5 SSTORE PUSH1 0x1 PUSH1 0x6 SSTORE PUSH1 0x1 PUSH1 0x40 PUSH1 0x70 PUSH1 0xA0 JUMP JUMPDEST PUSH2 0x1AC2 DUP2 MSTORE TIMESTAMP PUSH1 0x20 DUP3 ADD MSTORE ADD MSTORE PUSH2 0x1AC2 PUSH1 0x7 SSTORE TIMESTAMP PUSH1 0x8 SSTORE PUSH1 0x1 PUSH1 0x9 SSTORE PUSH1 0x40 MLOAD PUSH2 0x4DA SWAP1 DUP2 PUSH2 0xD5 DUP3 CODECOPY RETURN JUMPDEST PUSH1 0x0 DUP1 REVERT JUMPDEST PUSH1 0x40 MLOAD SWAP1 PUSH1 0x60 DUP3 ADD PUSH1 0x1 PUSH1 0x1 PUSH1 0x40 SHL SUB DUP2 GT DUP4 DUP3 LT OR PUSH1 0xBE JUMPI PUSH1 0x40 MSTORE JUMP JUMPDEST PUSH4 0x4E487B71 PUSH1 0xE0 SHL PUSH1 0x0 MSTORE PUSH1 0x41 PUSH1 0x4 MSTORE PUSH1 0x24 PUSH1 0x0 REVERT INVALID PUSH1 0x80 PUSH1 0x40 MSTORE PUSH1 0x4 CALLDATASIZE LT ISZERO PUSH2 0x12 JUMPI PUSH1 0x0 DUP1 REVERT JUMPDEST PUSH1 0x0 CALLDATALOAD PUSH1 0xE0 SHR DUP1 PUSH4 0x1F4CA974 EQ PUSH2 0x3A9 JUMPI DUP1 PUSH4 0x20DA1E84 EQ PUSH2 0x377 JUMPI DUP1 PUSH4 0x313CE567 EQ PUSH2 0x35B JUMPI DUP1 PUSH4 0x40F9FC13 EQ PUSH2 0x329 JUMPI DUP1 PUSH4 0x4E0F0F12 EQ PUSH2 0x2F7 JUMPI DUP1 PUSH4 0x8DA5CB5B EQ PUSH2 0x2CE JUMPI DUP1 PUSH4 0xA3C4F4C1 EQ PUSH2 0x26E JUMPI DUP1 PUSH4 0xAD20D3B2 EQ PUSH2 0x1E3 JUMPI DUP1 PUSH4 0xB53EEB6F EQ PUSH2 0x1C5 JUMPI DUP1 PUSH4 0xBB99B969 EQ PUSH2 0x1A7 JUMPI DUP1 PUSH4 0xBCF7545C EQ PUSH2 0x115 JUMPI DUP1 PUSH4 0xBF0ECA7E EQ PUSH2 0xF7 JUMPI PUSH4 0xFEAF968C EQ PUSH2 0xAB JUMPI PUSH1 0x0 DUP1 REVERT JUMPDEST CALLVALUE PUSH2 0xF2 JUMPI PUSH1 0x0 CALLDATASIZE PUSH1 0x3 NOT ADD SLT PUSH2 0xF2 JUMPI PUSH1 0xA0 PUSH10 0xFFFFFFFFFFFFFFFFFFFF PUSH1 0x3 SLOAD AND PUSH1 0x1 SLOAD SWAP1 PUSH1 0x2 SLOAD PUSH1 0x40 MLOAD SWAP3 DUP3 DUP5 MSTORE PUSH1 0x20 DUP5 ADD MSTORE DUP1 PUSH1 0x40 DUP5 ADD MSTORE PUSH1 0x60 DUP4 ADD MSTORE PUSH1 0x80 DUP3 ADD MSTORE RETURN JUMPDEST PUSH1 0x0 DUP1 REVERT JUMPDEST CALLVALUE PUSH2 0xF2 JUMPI PUSH1 0x0 CALLDATASIZE PUSH1 0x3 NOT ADD SLT PUSH2 0xF2 JUMPI PUSH1 0x20 PUSH1 0x4 SLOAD PUSH1 0x40 MLOAD SWAP1 DUP2 MSTORE RETURN JUMPDEST CALLVALUE PUSH2 0xF2 JUMPI PUSH1 0x20 CALLDATASIZE PUSH1 0x3 NOT ADD SLT PUSH2 0xF2 JUMPI PUSH32 0x732EE320A887FB5BFC6D04ED20FB7C242D0D36F91FCEDBBD158FFD4FD4A02854 PUSH1 0xA0 PUSH1 0x4 CALLDATALOAD PUSH2 0x160 PUSH1 0x1 DUP1 DUP5 SHL SUB PUSH1 0x0 SLOAD AND CALLER EQ PUSH2 0x433 JUMP JUMPDEST DUP1 PUSH1 0x7 SSTORE TIMESTAMP PUSH1 0x8 SSTORE PUSH2 0x173 PUSH1 0x9 SLOAD PUSH2 0x47F JUMP JUMPDEST PUSH1 0x9 SSTORE PUSH1 0x40 MLOAD SWAP1 PUSH1 0x60 DUP3 MSTORE PUSH1 0xB PUSH1 0x60 DUP4 ADD MSTORE PUSH11 0x2337B932B9BA21B7BB32B9 PUSH1 0xA9 SHL PUSH1 0x80 DUP4 ADD MSTORE PUSH1 0x20 DUP3 ADD MSTORE TIMESTAMP PUSH1 0x40 DUP3 ADD MSTORE LOG1 STOP JUMPDEST CALLVALUE PUSH2 0xF2 JUMPI PUSH1 0x0 CALLDATASIZE PUSH1 0x3 NOT ADD SLT PUSH2 0xF2 JUMPI PUSH1 0x20 PUSH1 0x7 SLOAD PUSH1 0x40 MLOAD SWAP1 DUP2 MSTORE RETURN JUMPDEST CALLVALUE PUSH2 0xF2 JUMPI PUSH1 0x0 CALLDATASIZE PUSH1 0x3 NOT ADD SLT PUSH2 0xF2 JUMPI PUSH1 0x20 PUSH1 0x1 SLOAD PUSH1 0x40 MLOAD SWAP1 DUP2 MSTORE RETURN JUMPDEST CALLVALUE PUSH2 0xF2 JUMPI PUSH1 0x20 CALLDATASIZE PUSH1 0x3 NOT ADD SLT PUSH2 0xF2 JUMPI PUSH32 0x732EE320A887FB5BFC6D04ED20FB7C242D0D36F91FCEDBBD158FFD4FD4A02854 PUSH1 0xA0 PUSH1 0x4 CALLDATALOAD PUSH2 0x22E PUSH1 0x1 DUP1 DUP5 SHL SUB PUSH1 0x0 SLOAD AND CALLER EQ PUSH2 0x433 JUMP JUMPDEST DUP1 PUSH1 0x1 SSTORE TIMESTAMP PUSH1 0x2 SSTORE PUSH2 0x241 PUSH1 0x3 SLOAD PUSH2 0x47F JUMP JUMPDEST PUSH1 0x3 SSTORE PUSH1 0x40 MLOAD SWAP1 PUSH1 0x60 DUP3 MSTORE PUSH1 0x4 PUSH1 0x60 DUP4 ADD MSTORE PUSH4 0x504D3235 PUSH1 0xE0 SHL PUSH1 0x80 DUP4 ADD MSTORE PUSH1 0x20 DUP3 ADD MSTORE TIMESTAMP PUSH1 0x40 DUP3 ADD MSTORE LOG1 STOP JUMPDEST CALLVALUE PUSH2 0xF2 JUMPI PUSH1 0x0 CALLDATASIZE PUSH1 0x3 NOT ADD SLT PUSH2 0xF2 JUMPI PUSH1 0x80 PUSH1 0x2 SLOAD PUSH1 0x5 SLOAD DUP2 DUP2 GT PUSH2 0x2C6 JUMPI JUMPDEST POP PUSH1 0x8 SLOAD DUP2 DUP2 GT PUSH2 0x2BE JUMPI JUMPDEST POP PUSH1 0x1 SLOAD SWAP1 PUSH1 0x4 SLOAD PUSH1 0x7 SLOAD SWAP1 PUSH1 0x40 MLOAD SWAP4 DUP5 MSTORE PUSH1 0x20 DUP5 ADD MSTORE PUSH1 0x40 DUP4 ADD MSTORE PUSH1 0x60 DUP3 ADD MSTORE RETURN JUMPDEST SWAP1 POP DUP3 PUSH2 0x29B JUMP JUMPDEST SWAP1 POP DUP3 PUSH2 0x28F JUMP JUMPDEST CALLVALUE PUSH2 0xF2 JUMPI PUSH1 0x0 CALLDATASIZE PUSH1 0x3 NOT ADD SLT PUSH2 0xF2 JUMPI PUSH1 0x0 SLOAD PUSH1 0x40 MLOAD PUSH1 0x1 PUSH1 0x1 PUSH1 0xA0 SHL SUB SWAP1 SWAP2 AND DUP2 MSTORE PUSH1 0x20 SWAP1 RETURN JUMPDEST CALLVALUE PUSH2 0xF2 JUMPI PUSH1 0x0 CALLDATASIZE PUSH1 0x3 NOT ADD SLT PUSH2 0xF2 JUMPI PUSH1 0x7 SLOAD PUSH1 0x8 SLOAD PUSH1 0x9 SLOAD PUSH1 0x40 DUP1 MLOAD SWAP4 DUP5 MSTORE PUSH1 0x20 DUP5 ADD SWAP3 SWAP1 SWAP3 MSTORE SWAP1 DUP3 ADD MSTORE PUSH1 0x60 SWAP1 RETURN JUMPDEST CALLVALUE PUSH2 0xF2 JUMPI PUSH1 0x0 CALLDATASIZE PUSH1 0x3 NOT ADD SLT PUSH2 0xF2 JUMPI PUSH1 0x1 SLOAD PUSH1 0x2 SLOAD PUSH1 0x3 SLOAD PUSH1 0x40 DUP1 MLOAD SWAP4 DUP5 MSTORE PUSH1 0x20 DUP5 ADD SWAP3 SWAP1 SWAP3 MSTORE SWAP1 DUP3 ADD MSTORE PUSH1 0x60 SWAP1 RETURN JUMPDEST CALLVALUE PUSH2 0xF2 JUMPI PUSH1 0x0 CALLDATASIZE PUSH1 0x3 NOT ADD SLT PUSH2 0xF2 JUMPI PUSH1 0x20 PUSH1 0x40 MLOAD PUSH1 0x8 DUP2 MSTORE RETURN JUMPDEST CALLVALUE PUSH2 0xF2 JUMPI PUSH1 0x0 CALLDATASIZE PUSH1 0x3 NOT ADD SLT PUSH2 0xF2 JUMPI PUSH1 0x4 SLOAD PUSH1 0x5 SLOAD PUSH1 0x6 SLOAD PUSH1 0x40 DUP1 MLOAD SWAP4 DUP5 MSTORE PUSH1 0x20 DUP5 ADD SWAP3 SWAP1 SWAP3 MSTORE SWAP1 DUP3 ADD MSTORE PUSH1 0x60 SWAP1 RETURN JUMPDEST CALLVALUE PUSH2 0xF2 JUMPI PUSH1 0x20 CALLDATASIZE PUSH1 0x3 NOT ADD SLT PUSH2 0xF2 JUMPI PUSH32 0x732EE320A887FB5BFC6D04ED20FB7C242D0D36F91FCEDBBD158FFD4FD4A02854 PUSH1 0xA0 PUSH1 0x4 CALLDATALOAD PUSH2 0x3F4 PUSH1 0x1 DUP1 DUP5 SHL SUB PUSH1 0x0 SLOAD AND CALLER EQ PUSH2 0x433 JUMP JUMPDEST DUP1 PUSH1 0x4 SSTORE TIMESTAMP PUSH1 0x5 SSTORE PUSH2 0x407 PUSH1 0x6 SLOAD PUSH2 0x47F JUMP JUMPDEST PUSH1 0x6 SSTORE PUSH1 0x40 MLOAD SWAP1 PUSH1 0x60 DUP3 MSTORE PUSH1 0x3 PUSH1 0x60 DUP4 ADD MSTORE PUSH3 0x21A799 PUSH1 0xE9 SHL PUSH1 0x80 DUP4 ADD MSTORE PUSH1 0x20 DUP3 ADD MSTORE TIMESTAMP PUSH1 0x40 DUP3 ADD MSTORE LOG1 STOP JUMPDEST ISZERO PUSH2 0x43A JUMPI JUMP JUMPDEST PUSH1 0x40 MLOAD PUSH3 0x461BCD PUSH1 0xE5 SHL DUP2 MSTORE PUSH1 0x20 PUSH1 0x4 DUP3 ADD MSTORE PUSH1 0x1A PUSH1 0x24 DUP3 ADD MSTORE PUSH32 0x4F6E6C79206F776E65722063616E207570646174652064617461000000000000 PUSH1 0x44 DUP3 ADD MSTORE PUSH1 0x64 SWAP1 REVERT JUMPDEST PUSH1 0x0 NOT DUP2 EQ PUSH2 0x48E JUMPI PUSH1 0x1 ADD SWAP1 JUMP JUMPDEST PUSH4 0x4E487B71 PUSH1 0xE0 SHL PUSH1 0x0 MSTORE PUSH1 0x11 PUSH1 0x4 MSTORE PUSH1 0x24 PUSH1 0x0 REVERT INVALID LOG2 PUSH5 0x6970667358 0x22 SLT KECCAK256 PUSH31 0x63F212874B47CCE9B57A806D6B661BBE6BD57CCF60FF3DAD36EB77EE3C1E9E PUSH5 0x736F6C6343 STOP ADDMOD SHR STOP CALLER "},"methodIdentifiers":{"co2Data()":"20da1e84","decimals()":"313ce567","forestCoverData()":"4e0f0f12","getEnvironmentalReport()":"a3c4f4c1","getLatestCO2Data()":"bf0eca7e","getLatestForestCoverData()":"bb99b969","getLatestPM25Data()":"b53eeb6f","latestRoundData()":"feaf968c","owner()":"8da5cb5b","pm25Data()":"40f9fc13","updateCO2Data(int256)":"1f4ca974","updateForestCoverData(int256)":"bcf7545c","updatePM25Data(int256)":"ad20d3b2"}}}}}