{"contracts/ChainlinkEnvironmentalOracle.sol":{"ChainlinkEnvironmentalOracle":{"abi":[{"inputs":[],"stateMutability":"nonpayable","type":"constructor"},{"anonymous":false,"inputs":[{"indexed":true,"internalType":"bytes32","name":"id","type":"bytes32"}],"name":"ChainlinkCancelled","type":"event"},{"anonymous":false,"inputs":[{"indexed":true,"internalType":"bytes32","name":"id","type":"bytes32"}],"name":"ChainlinkFulfilled","type":"event"},{"anonymous":false,"inputs":[{"indexed":true,"internalType":"bytes32","name":"id","type":"bytes32"}],"name":"ChainlinkRequested","type":"event"},{"anonymous":false,"inputs":[{"indexed":true,"internalType":"bytes32","name":"requestId","type":"bytes32"},{"indexed":false,"internalType":"string","name":"metric","type":"string"},{"indexed":false,"internalType":"int256","name":"value","type":"int256"}],"name":"EnvironmentalDataReceived","type":"event"},{"anonymous":false,"inputs":[{"indexed":true,"internalType":"bytes32","name":"requestId","type":"bytes32"},{"indexed":false,"internalType":"string","name":"metric","type":"string"},{"indexed":false,"internalType":"string","name":"apiEndpoint","type":"string"}],"name":"EnvironmentalDataRequested","type":"event"},{"anonymous":false,"inputs":[{"indexed":false,"internalType":"address","name":"oracle","type":"address"},{"indexed":false,"internalType":"bytes32","name":"jobId","type":"bytes32"},{"indexed":false,"internalType":"uint256","name":"fee","type":"uint256"}],"name":"OracleConfigUpdated","type":"event"},{"anonymous":false,"inputs":[{"indexed":true,"internalType":"address","name":"from","type":"address"},{"indexed":true,"internalType":"address","name":"to","type":"address"}],"name":"OwnershipTransferRequested","type":"event"},{"anonymous":false,"inputs":[{"indexed":true,"internalType":"address","name":"from","type":"address"},{"indexed":true,"internalType":"address","name":"to","type":"address"}],"name":"OwnershipTransferred","type":"event"},{"inputs":[],"name":"acceptOwnership","outputs":[],"stateMutability":"nonpayable","type":"function"},{"inputs":[],"name":"decimals","outputs":[{"internalType":"uint8","name":"","type":"uint8"}],"stateMutability":"view","type":"function"},{"inputs":[],"name":"description","outputs":[{"internalType":"string","name":"","type":"string"}],"stateMutability":"view","type":"function"},{"inputs":[{"internalType":"string","name":"","type":"string"}],"name":"environmentalData","outputs":[{"internalType":"int256","name":"value","type":"int256"},{"internalType":"uint256","name":"timestamp","type":"uint256"},{"internalType":"uint80","name":"roundId","type":"uint80"},{"internalType":"bool","name":"isValid","type":"bool"}],"stateMutability":"view","type":"function"},{"inputs":[{"internalType":"bytes32","name":"_requestId","type":"bytes32"},{"internalType":"int256","name":"_temperature","type":"int256"}],"name":"fulfillCO2Data","outputs":[],"stateMutability":"nonpayable","type":"function"},{"inputs":[{"internalType":"bytes32","name":"_requestId","type":"bytes32"},{"internalType":"int256","name":"_vegIndex","type":"int256"}],"name":"fulfillForestCoverData","outputs":[],"stateMutability":"nonpayable","type":"function"},{"inputs":[{"internalType":"bytes32","name":"_requestId","type":"bytes32"},{"internalType":"int256","name":"_value","type":"int256"}],"name":"fulfillPM25Data","outputs":[],"stateMutability":"nonpayable","type":"function"},{"inputs":[],"name":"getLatestCO2Data","outputs":[{"internalType":"int256","name":"","type":"int256"}],"stateMutability":"view","type":"function"},{"inputs":[],"name":"getLatestForestCoverData","outputs":[{"internalType":"int256","name":"","type":"int256"}],"stateMutability":"view","type":"function"},{"inputs":[],"name":"getLatestPM25Data","outputs":[{"internalType":"int256","name":"","type":"int256"}],"stateMutability":"view","type":"function"},{"inputs":[{"internalType":"uint80","name":"_roundId","type":"uint80"}],"name":"getRoundData","outputs":[{"internalType":"uint80","name":"roundId","type":"uint80"},{"internalType":"int256","name":"answer","type":"int256"},{"internalType":"uint256","name":"startedAt","type":"uint256"},{"internalType":"uint256","name":"updatedAt","type":"uint256"},{"internalType":"uint80","name":"answeredInRound","type":"uint80"}],"stateMutability":"view","type":"function"},{"inputs":[],"name":"latestRoundData","outputs":[{"internalType":"uint80","name":"roundId","type":"uint80"},{"internalType":"int256","name":"answer","type":"int256"},{"internalType":"uint256","name":"startedAt","type":"uint256"},{"internalType":"uint256","name":"updatedAt","type":"uint256"},{"internalType":"uint80","name":"answeredInRound","type":"uint80"}],"stateMutability":"view","type":"function"},{"inputs":[{"internalType":"string","name":"","type":"string"}],"name":"latestRoundIds","outputs":[{"internalType":"uint80","name":"","type":"uint80"}],"stateMutability":"view","type":"function"},{"inputs":[],"name":"owner","outputs":[{"internalType":"address","name":"","type":"address"}],"stateMutability":"view","type":"function"},{"inputs":[],"name":"primaryMetric","outputs":[{"internalType":"string","name":"","type":"string"}],"stateMutability":"view","type":"function"},{"inputs":[],"name":"requestAllEnvironmentalData","outputs":[],"stateMutability":"nonpayable","type":"function"},{"inputs":[{"internalType":"string","name":"lat","type":"string"},{"internalType":"string","name":"lon","type":"string"}],"name":"requestCO2Data","outputs":[{"internalType":"bytes32","name":"requestId","type":"bytes32"}],"stateMutability":"nonpayable","type":"function"},{"inputs":[{"internalType":"string","name":"lat","type":"string"},{"internalType":"string","name":"lon","type":"string"}],"name":"requestForestCoverData","outputs":[{"internalType":"bytes32","name":"requestId","type":"bytes32"}],"stateMutability":"nonpayable","type":"function"},{"inputs":[{"internalType":"string","name":"location","type":"string"}],"name":"requestPM25Data","outputs":[{"internalType":"bytes32","name":"requestId","type":"bytes32"}],"stateMutability":"nonpayable","type":"function"},{"inputs":[{"internalType":"string","name":"_metric","type":"string"}],"name":"setPrimaryMetric","outputs":[],"stateMutability":"nonpayable","type":"function"},{"inputs":[{"internalType":"address","name":"to","type":"address"}],"name":"transferOwnership","outputs":[],"stateMutability":"nonpayable","type":"function"},{"inputs":[{"internalType":"address","name":"_oracle","type":"address"},{"internalType":"bytes32","name":"_jobId","type":"bytes32"},{"internalType":"uint256","name":"_fee","type":"uint256"}],"name":"updateOracleConfig","outputs":[],"stateMutability":"nonpayable","type":"function"},{"inputs":[],"name":"version","outputs":[{"internalType":"uint256","name":"","type":"uint256"}],"stateMutability":"view","type":"function"},{"inputs":[],"name":"withdrawLink","outputs":[],"stateMutability":"nonpayable","type":"function"}],"evm":{"bytecode":{"linkReferences":{},"object":"6080806040523461047b576001600455331561043957600680546001600160a01b03191633179055600d5461003390610480565b601f81116103ef575b50600863706d323560e01b01600d55600e5461005790610480565b601f8111610399575b6063600e9081556000527f436861696e6c696e6b20456e7669726f6e6d656e74616c2044617461204f72616000805160206129618339815191525570636c65202d204e4153412f4f70656e415160781b7fbb7b4a454dc3493923482f07822329ed19e8244eff582cc204f8554c3620c3fe556001600f55600280546001600160a01b031990811673779877a7b0d9e8603169ddbd7836e478b46247891790915560088054909116736090149792daaee9d1d568c9f9a6f6b46aa29efd1790557f636139383336366363373331343935376238633031326337326630356165656260095567016345785d8a0000600a556101576104ba565b6104e28152602081014281526002604083019260018452606081019260018452602460405163706d323560e01b8152600b60048201522091518255516001820155019160018060501b039060018060501b039051161660018060501b03198354161782555115156aff0000000000000000000082549160501b16906aff000000000000000000001916179055602460405163706d323560e01b8152600c6004820152206001808060501b03198254161790556102116104ba565b61a4a6815260208101428152600260408301926001845260608101926001845260236040516231b79960e91b8152600b60038201522091518255516001820155019160018060501b039060018060501b039051161660018060501b03198354161782555115156aff0000000000000000000082549160501b16906aff00000000000000000000191617905560236040516231b79960e91b8152600c6003820152206001808060501b03198254161790556102c96104ba565b611ac28152602081014281526002604083019260018452606081019260018452602c6040516b3337b932b9ba2fb1b7bb32b960a11b8152600b600c8201522091518255516001820155019160018060501b039060018060501b039051161660018060501b03198354161782555115156aff0000000000000000000082549160501b16906aff000000000000000000001916179055602c6040516b3337b932b9ba2fb1b7bb32b960a11b8152600c80820152206001808060501b031982541617905560405161247190816104f08239f35b600e600052601f0160051c600080516020612961833981519152017fbb7b4a454dc3493923482f07822329ed19e8244eff582cc204f8554c3620c3ff5b8181106103e35750610060565b600081556001016103d6565b600d600052601f0160051c7fd7b6990105719101dabeb77144f2a3385c8033acd3af97e9423a695e81ad1eb5908101905b81811061042d575061003c565b60008155600101610420565b62461bcd60e51b815260206004820152601860248201527f43616e6e6f7420736574206f776e657220746f207a65726f00000000000000006044820152606490fd5b600080fd5b90600182811c921680156104b0575b602083101461049a57565b634e487b7160e01b600052602260045260246000fd5b91607f169161048f565b60405190608082016001600160401b038111838210176104d957604052565b634e487b7160e01b600052604160045260246000fdfe6080604052600436101561001257600080fd5b60003560e01c806323fb9bc314610197578063313ce5671461019257806331a51c1d1461018d57806354fd4d501461018857806360c0e35f1461018357806361e279171461017e5780637284e4161461017957806379ba5097146101745780638002a7f81461016f57806382984c0c1461016a5780638409c4e6146101655780638da5cb5b146101605780638dc654a21461015b5780639a6fc8f514610156578063b53eeb6f14610151578063bb99b9691461014c578063bf0eca7e14610147578063c8e2457c14610142578063cee6fce01461013d578063d27cd36b14610138578063d4ec83c514610133578063e2eb188e1461012e578063f2fde38b146101295763feaf968c1461012457600080fd5b6113be565b611303565b6112b4565b6111ab565b611103565b61100e565b610f1e565b610ed6565b610e9b565b610e68565b610d88565b610c5d565b610c34565b610b3b565b6109ef565b61096b565b610894565b6107b4565b610622565b6104ab565b61048d565b61034b565b61032f565b610305565b634e487b7160e01b600052604160045260246000fd5b6080810190811067ffffffffffffffff8211176101ce57604052565b61019c565b90601f8019910116810190811067ffffffffffffffff8211176101ce57604052565b81601f8201121561024c5780359067ffffffffffffffff82116101ce576040519261022a601f8401601f1916602001856101d3565b8284526020838301011161024c57816000926020809301838601378301015290565b600080fd5b602060031982011261024c576004359067ffffffffffffffff821161024c5761027c916004016101f5565b90565b60005b8381106102925750506000910152565b8181015183820152602001610282565b906102b56020928281519485920161027f565b0190565b60206102d291816040519382858094519384920161027f565b8101600c81520301902090565b60206102f891816040519382858094519384920161027f565b8101600b81520301902090565b3461024c5760206001600160501b0361032561032036610251565b6102b9565b5416604051908152f35b3461024c57600036600319011261024c57602060405160028152f35b3461024c5760206104826103e660008051602061241c83398151915261047361037336610251565b61037b6119d9565b61042d61038b6009543090611a9d565b9161041f6040519687927f68747470733a2f2f6170692e6f70656e61712e6f72672f76322f6c61746573748b850152783f706172616d657465723d706d3235266c6f636174696f6e3d60381b604085015260598401906102a2565b7f266c696d69743d31266f726465725f62793d6c6173745570646174656426736f81526672743d6465736360c81b602082015260270190565b03601f1981018652856101d3565b61043f846104396114d2565b83611b7b565b61045961044a6114f3565b610452611515565b9083611b7b565b61046a610464611542565b82611b96565b600a5490611bc7565b92839260405191829182611565565b0390a2604051908152f35b3461024c57600036600319011261024c576020600f54604051908152f35b3461024c57600036600319011261024c576104c46119d9565b604060008051602061241c83398151915261059e6103e661059384516104ea86826101d3565b60088152674e657720596f726b60c01b60208201526105076119d9565b6105876105176009543090611a9d565b916105798851958692610573602085016039907f68747470733a2f2f6170692e6f70656e61712e6f72672f76322f6c61746573748152783f706172616d657465723d706d3235266c6f636174696f6e3d60381b60208201520190565b906102a2565b03601f1981018552846101d3565b61043f836104396114d2565b935191829182611565565b0390a26105ba6105ac611594565b6105b46115b9565b906116f7565b506105d46105c6611594565b6105ce6115b9565b906115df565b005b90604060031983011261024c5760043567ffffffffffffffff811161024c5782610602916004016101f5565b916024359067ffffffffffffffff821161024c5761027c916004016101f5565b3461024c5760206104826106c160008051602061241c83398151915261073561070561064d366105d6565b6106589291926119d9565b61041f6106d261066b6009543090611ae7565b94610573604051998a957f68747470733a2f2f6170692e6e6173612e676f762f706c616e65746172792f658e88015273617274682f737461746973746963733f6c6f6e3d60601b604088015260548701906102a2565b64266c61743d60d81b815260050190565b7f26646174653d323032342d30312d3031266170695f6b65793d44454d4f5f4b458152605960f81b602082015260210190565b610711846104396114d2565b61072461071c6114f3565b61045261168f565b61046a61072f611542565b82611bb1565b928392604051918291826116ca565b90600182811c92168015610774575b602083101461075e57565b634e487b7160e01b600052602260045260246000fd5b91607f1691610753565b906020916107978151809281855285808601910161027f565b601f01601f1916010190565b90602061027c92818152019061077e565b3461024c57600036600319011261024c57604051600e54600090816107d882610744565b808552916001811690811561086d5750600114610810575b61080c84610800818603826101d3565b604051918291826107a3565b0390f35b600e81527fbb7b4a454dc3493923482f07822329ed19e8244eff582cc204f8554c3620c3fd939250905b80821061085357509091508101602001610800826107f0565b91926001816020925483858801015201910190929161083a565b60ff191660208087019190915292151560051b8501909201925061080091508390506107f0565b3461024c57600036600319011261024c576007546001600160a01b03163303610917576006546001600160a01b0316600680546001600160a01b03191633179055600780546001600160a01b031916905533906001600160a01b03167f8be0079c531659141344cd1fd0a4f28419497f9722a3daafe3b4186f6b6457e0600080a3005b60405162461bcd60e51b815260206004820152601660248201527526bab9ba10313290383937b837b9b2b21037bbb732b960511b6044820152606490fd5b600435906001600160a01b038216820361024c57565b3461024c57606036600319011261024c577fc9d2a8c28a526d1f330842e83e25eba06aca2ab0fd2db6016ce82b191e0d44b660606109a7610955565b60243590604435906109b76119d9565b60018060a01b031691826001600160601b0360a01b60085416176008558060095581600a5560405192835260208301526040820152a1005b3461024c576020610482610abd60008051602061241c833981519152610b2c610b0d610a1a366105d6565b610a259291926119d9565b61041f610ad3610a386009543090611b31565b94610573604051998a957f68747470733a2f2f706f7765722e6c6172632e6e6173612e676f762f6170692f8e8801527f74656d706f72616c2f6461696c792f706f696e743f706172616d65746572733d60408801527f54324d26636f6d6d756e6974793d5245266c6f6e6769747564653d00000000006060880152607b8701906102a2565b69266c617469747564653d60b01b8152600a0190565b7f2673746172743d323032343031303126656e643d323032343132333126666f7281526736b0ba1ea529a7a760c11b602082015260280190565b610b19846104396114d2565b610459610b246114f3565b6104526117b5565b928392604051918291826117f0565b3461024c57610b4936610251565b610b516119d9565b805167ffffffffffffffff81116101ce57610b7681610b71600d54610744565b611814565b602091601f8211600114610bb657610ba69260009183610bab575b50508160011b916000199060031b1c19161790565b600d55005b015190503880610b91565b600d600052601f198216927fd7b6990105719101dabeb77144f2a3385c8033acd3af97e9423a695e81ad1eb59160005b858110610c1c57508360019510610c03575b505050811b01600d55005b015160001960f88460031b161c19169055388080610bf8565b91926020600181928685015181550194019201610be6565b3461024c57600036600319011261024c576006546040516001600160a01b039091168152602090f35b3461024c57600036600319011261024c57610c766119d9565b600254610c9b90610c8f9081906001600160a01b031681565b6001600160a01b031690565b6040516370a0823160e01b8152306004820152602081602481855afa908115610d4557600092602092610cfa928591610d4a575b5060405163a9059cbb60e01b8152336004820152602481019190915293849283919082906044820190565b03925af18015610d45576105d491600091610d16575b5061189a565b610d38915060203d602011610d3e575b610d3081836101d3565b810190611882565b38610d10565b503d610d26565b611876565b610d6a9150843d8611610d70575b610d6281836101d3565b810190611867565b38610ccf565b503d610d58565b6001600160501b0381160361024c57565b3461024c57602036600319011261024c57610da4600435610d77565b604051633fabe5a360e21b815260a081600481305afa8015610d455760009081928283918493610dfc575b50604080516001600160501b0395861681526020810196909652850152606084015216608082015260a090f35b93945050505060a0813d60a011610e60575b81610e1b60a093836101d3565b81010312610e5c5761080c815191610e3283610d77565b602081015192604082015194506080606083015192015190610e5382610d77565b93949092610dcf565b5080fd5b3d9150610e0e565b3461024c57600036600319011261024c576020602460405163706d323560e01b8152600b60048201522054604051908152f35b3461024c57600036600319011261024c576020602c6040516b3337b932b9ba2fb1b7bb32b960a11b8152600b600c8201522054604051908152f35b3461024c57600036600319011261024c57602060236040516231b79960e91b8152600b60038201522054604051908152f35b604090600319011261024c576004359060243590565b3461024c576110037f23e1e26674f6f3df31feea85c7ab64870fef7ee842de7a298e7506d69eae139f610f5036610f08565b816000949294526005602052610f7460018060a01b036040600020541633146118db565b83600052600560205260406000206001600160601b0360a01b8154169055837f7cc135e0cebb02c3480ae5d74d377283180a2601f8f644edf7987b009316c63a600080a2604090610fe1818351610fcb85826101d3565b6004815263706d323560e01b6020820152611c5d565b815192828493845283016040906004815263706d323560e01b60208201520190565b9060208301520390a2005b3461024c576110037f23e1e26674f6f3df31feea85c7ab64870fef7ee842de7a298e7506d69eae139f61104036610f08565b81600094929452600560205261106460018060a01b036040600020541633146118db565b83600052600560205260406000206001600160601b0360a01b8154169055837f7cc135e0cebb02c3480ae5d74d377283180a2601f8f644edf7987b009316c63a600080a26040906110d98183516110bb85826101d3565b600c81526b3337b932b9ba2fb1b7bb32b960a11b6020820152611c5d565b81519282849384528301604090600c81526b3337b932b9ba2fb1b7bb32b960a11b60208201520190565b3461024c57600036600319011261024c57604051600d546000908161112782610744565b808552916001811690811561086d575060011461114e5761080c84610800818603826101d3565b600d81527fd7b6990105719101dabeb77144f2a3385c8033acd3af97e9423a695e81ad1eb5939250905b80821061119157509091508101602001610800826107f0565b919260018160209254838588010152019101909291611178565b3461024c576111b936610f08565b8160005260056020526111da60018060a01b036040600020541633146118db565b81600052600560205260406000206001600160601b0360a01b8154169055817f7cc135e0cebb02c3480ae5d74d377283180a2601f8f644edf7987b009316c63a600080a26105db1981019081136001166112af57600a90058061a4a6019081126001166112af576110037f23e1e26674f6f3df31feea85c7ab64870fef7ee842de7a298e7506d69eae139f9160409061128e81835161127985826101d3565b600381526231b79960e91b6020820152611c5d565b81519283928084528301604090600381526231b79960e91b60208201520190565b611938565b3461024c5760806112cc6112c736610251565b6102df565b60ff815491600260018201549101549060405193845260208401526001600160501b038116604084015260501c1615156060820152f35b3461024c57602036600319011261024c5761131c610955565b6113246119d9565b6001600160a01b031633811461137957600780546001600160a01b031916821790556006546001600160a01b03167fed8889f560326eb138920d842192f0eb3dd22b4f139c87a2c57538e05bae1278600080a3005b60405162461bcd60e51b815260206004820152601760248201527f43616e6e6f74207472616e7366657220746f2073656c660000000000000000006044820152606490fd5b3461024c57600036600319011261024c57604051600090600d546113e181610744565b90600181169081156114bc5750600114611468575b5060208183600b61140b95520301902061194e565b61142061141b6060830151151590565b61198d565b60408101516001600160501b03168151602092830151604080516001600160501b0394909416808552948401929092529082018190526060820152608081019190915260a090f35b9150600d6000527fd7b6990105719101dabeb77144f2a3385c8033acd3af97e9423a695e81ad1eb56000905b8382106114a85750509081019060206113f6565b600181602092548486015201910190611494565b60ff1916835250801515028101915060206113f6565b604051906114e16040836101d3565b600382526219d95d60ea1b6020830152565b604051906115026040836101d3565b60048252630e0c2e8d60e31b6020830152565b604051906115246040836101d3565b600f82526e726573756c74732c302c76616c756560881b6020830152565b604051906115516040836101d3565b600582526474696d657360d81b6020830152565b604080825260049082015263706d323560e01b606082015261027c91608082015b91602081840391015261077e565b604051906115a36040836101d3565b6007825266068605c6e6264760cb1b6020830152565b604051906115c86040836101d3565b600882526702d37342e303036360c41b6020830152565b60008051602061241c833981519152610735602092610705611689956116036119d9565b61041f6106d26116166009543090611ae7565b94610573604051998a957f68747470733a2f2f6170692e6e6173612e676f762f706c616e65746172792f658288015273617274682f737461746973746963733f6c6f6e3d60601b604088015261167660548801918281519485920161027f565b0160059064266c61743d60d81b81520190565b0390a290565b6040519061169e6040836101d3565b601b82527f737461746973746963732c76656765746174696f6e5f696e64657800000000006020830152565b6040808252600c908201526b3337b932b9ba2fb1b7bb32b960a11b606082015261027c9160808201611586565b60008051602061241c833981519152610b2c610abd92610b0d6116899561171c6119d9565b61041f610ad361172f6009543090611b31565b94610573604051998a957f68747470733a2f2f706f7765722e6c6172632e6e6173612e676f762f6170692f60208801527f74656d706f72616c2f6461696c792f706f696e743f706172616d65746572733d60408801527f54324d26636f6d6d756e6974793d5245266c6f6e6769747564653d00000000006060880152607b8701906102a2565b604051906117c46040836101d3565b601882527f70726f706572746965732c706172616d657465722c54324d00000000000000006020830152565b60408082526003908201526231b79960e91b606082015261027c9160808201611586565b601f8111611820575050565b600d6000526020600020906020601f840160051c8301931061185d575b601f0160051c01905b818110611851575050565b60008155600101611846565b909150819061183d565b9081602091031261024c575190565b6040513d6000823e3d90fd5b9081602091031261024c5751801515810361024c5790565b156118a157565b60405162461bcd60e51b81526020600482015260126024820152712ab730b13632903a37903a3930b739b332b960711b6044820152606490fd5b156118e257565b60405162461bcd60e51b815260206004820152602860248201527f536f75726365206d75737420626520746865206f7261636c65206f6620746865604482015267081c995c5d595cdd60c21b6064820152608490fd5b634e487b7160e01b600052601160045260246000fd5b9060405161195b816101b2565b606060ff60028395805485526001810154602086015201546001600160501b038116604085015260501c161515910152565b1561199457565b60405162461bcd60e51b815260206004820152601760248201527f4e6f2076616c6964206461746120617661696c61626c650000000000000000006044820152606490fd5b6006546001600160a01b031633036119ed57565b60405162461bcd60e51b815260206004820152601660248201527527b7363c9031b0b63630b1363290313c9037bbb732b960511b6044820152606490fd5b604051906040820182811067ffffffffffffffff8211176101ce576040526000602083606081520152565b6040519060a0820182811067ffffffffffffffff8211176101ce5760405281600081526000602082015260006040820152600060608201526080611a98611a2b565b910152565b90611aa6611a56565b50611aaf611a56565b91611ab8611a56565b50611ac66080840151611e25565b5082526001600160a01b03166020820152633238915f60e21b604082015290565b90611af0611a56565b50611af9611a56565b91611b02611a56565b50611b106080840151611e25565b5082526001600160a01b0316602082015263067737e760e51b604082015290565b90611b3a611a56565b50611b43611a56565b91611b4c611a56565b50611b5a6080840151611e25565b5082526001600160a01b0316602082015263d4ec83c560e01b604082015290565b6080018051611b949392611b8e91611d2d565b51611d2d565b565b611b9491611bab608060649301918251611d2d565b51611e93565b611b9491611bab60806127109301918251611d2d565b6003546004546001810193916001600160a01b03168482116112af5761027c94600455611c58845161041f608063ffffffff60e01b604089015116970151516040519788936320214ca360e11b60208601526000602486015260006044860152606485015230608485015260a48401528560c4840152600160e484015261010061010484015261012483019061077e565b612090565b9060016001600160501b03611c71846102b9565b541601906001600160501b0382116112af57611b9492611d129160405190611c98826101b2565b815260208101428152611cf46001600160501b03600260408501948289168652606081019460018652611cca886102df565b915182555160018201550193511683906001600160501b03166001600160501b0319825416179055565b51815460ff60501b191690151560501b60ff60501b161790556102b9565b906001600160501b03166001600160501b0319825416179055565b8151611d6e92919067ffffffffffffffff1660178111611d7157611d6890611d6290611d5b60605b60ff1690565b1760ff1690565b8261219e565b50611f3a565b50565b60ff8111611d9357611d6890611d8c601860605b178461219e565b508261236c565b61ffff8111611db357611d6890611dac60196060611d85565b50826122fa565b63ffffffff8111611dd557611d6890611dce601a6060611d85565b5082612286565b611d6890611de5601b6060611d85565b508261220a565b90602082018092116112af57565b919082018092116112af57565b601f198101919082116112af57565b6000198101919082116112af57565b611e2d611a2b565b506101006020820152610120604051808352600081520160405290565b90611e53611a2b565b50601f811680611e79575b50806020830152604051808352600081520160200160405290565b602003602081116112af5781018091116112af5738611e5e565b9067ffffffffffffffff811660178111611ec15750611d6e9190611ebb90611d5b6000611d55565b9061219e565b905060ff8111611ee457611d6e91611ede601860005b178261219e565b5061236c565b61ffff8111611f0357611d6e91611efd60196000611ed7565b506122fa565b63ffffffff8111611f2457611d6e91611f1e601a6000611ed7565b50612286565b611d6e91611f34601b6000611ed7565b5061220a565b90611f43611a2b565b5081515190805190611f53611a2b565b50611f6181518311156123dd565b611f6b8284611dfa565b6020850151809111611fe9575b5060209084518051908386820101958501918211611fe1575b505001905b6020811015611fbb57600019906020036101000a019081199051169082511617905290565b9091611fd6611fd0611fdc9285518152611dec565b93611dec565b91611e07565b611f96565b523880611f91565b61200861200361200e92611ffd8787611dfa565b906123fa565b6123e4565b8561240a565b38611f78565b61027c939260609260018060a01b031682526020820152816040820152019061077e565b1561203f57565b60405162461bcd60e51b815260206004820152602360248201527f756e61626c6520746f207472616e73666572416e6443616c6c20746f206f7261604482015262636c6560e81b6064820152608490fd5b6040516bffffffffffffffffffffffff193060601b166020808301918252603480840195909552938252939594612163949092916120cf6054826101d3565b5190209561210a826120eb896000526005602052604060002090565b80546001600160a01b0319166001600160a01b03909216919091179055565b60006040518096819582948b7fb5e6e01e79f91267dc17b4e6314d5d4d03593d2ceee0fbb452b750bd70ea5af98680a260025461214f906001600160a01b0316610c8f565b630200057560e51b85529660048501612014565b03925af18015610d4557611b949160009161217f575b50612038565b612198915060203d602011610d3e57610d3081836101d3565b38612179565b906121a7611a2b565b508151516121b3611a2b565b506020830151808210156121e4575b50825191825191829160208286010153146121dc57505090565b600101905290565b6121f0612203916123e4565b6121fc85519186611e4a565b5084611f3a565b50386121c2565b90612213611a2b565b5081515190612220611a2b565b5081600801806008116112af5760208401518111612273575b5061224c68010000000000000000611e16565b835191600884840101911982511617905260088151920191821161226f57505090565b5290565b6121f061227f916123e4565b5038612239565b9061228f611a2b565b508151519061229c611a2b565b5081600401806004116112af57602084015181116122e7575b506122c4640100000000611e16565b835191600484840101911982511617905260048151920191821161226f57505090565b6121f06122f3916123e4565b50386122b5565b90612303611a2b565b5081515190612310611a2b565b5081600201806002116112af5760208401518111612359575b5061233662010000611e16565b835191600284840101911982511617905260028151920191821161226f57505090565b6121f0612365916123e4565b5038612329565b90612375611a2b565b5081515190612382611a2b565b5081600101806001116112af57602084015181116123ca575b506123a7610100611e16565b835191600184840101911982511617905260018151920191821161226f57505090565b6121f06123d6916123e4565b503861239b565b1561024c57565b908160011b91808304600214901517156112af57565b818111612405575090565b905090565b90611d6e91611d6881519282611e4a56fea38a5d9c7b6ae32e559e7eac95fb1638e6061f8748b1d8424bb32fa223ed1b0da26469706673582212207ef624b0566e48be605ef71ae91ea01b097f7f5692fe4e74ecbf09b535643f2d64736f6c634300081c0033bb7b4a454dc3493923482f07822329ed19e8244eff582cc204f8554c3620c3fd","opcodes":"PUSH1 0x80 DUP1 PUSH1 0x40 MSTORE CALLVALUE PUSH2 0x47B JUMPI PUSH1 0x1 PUSH1 0x4 SSTORE CALLER ISZERO PUSH2 0x439 JUMPI PUSH1 0x6 DUP1 SLOAD PUSH1 0x1 PUSH1 0x1 PUSH1 0xA0 SHL SUB NOT AND CALLER OR SWAP1 SSTORE PUSH1 0xD SLOAD PUSH2 0x33 SWAP1 PUSH2 0x480 JUMP JUMPDEST PUSH1 0x1F DUP2 GT PUSH2 0x3EF JUMPI JUMPDEST POP PUSH1 0x8 PUSH4 0x706D3235 PUSH1 0xE0 SHL ADD PUSH1 0xD SSTORE PUSH1 0xE SLOAD PUSH2 0x57 SWAP1 PUSH2 0x480 JUMP JUMPDEST PUSH1 0x1F DUP2 GT PUSH2 0x399 JUMPI JUMPDEST PUSH1 0x63 PUSH1 0xE SWAP1 DUP2 SSTORE PUSH1 0x0 MSTORE PUSH32 0x436861696E6C696E6B20456E7669726F6E6D656E74616C2044617461204F7261 PUSH1 0x0 DUP1 MLOAD PUSH1 0x20 PUSH2 0x2961 DUP4 CODECOPY DUP2 MLOAD SWAP2 MSTORE SSTORE PUSH17 0x636C65202D204E4153412F4F70656E4151 PUSH1 0x78 SHL PUSH32 0xBB7B4A454DC3493923482F07822329ED19E8244EFF582CC204F8554C3620C3FE SSTORE PUSH1 0x1 PUSH1 0xF SSTORE PUSH1 0x2 DUP1 SLOAD PUSH1 0x1 PUSH1 0x1 PUSH1 0xA0 SHL SUB NOT SWAP1 DUP2 AND PUSH20 0x779877A7B0D9E8603169DDBD7836E478B4624789 OR SWAP1 SWAP2 SSTORE PUSH1 0x8 DUP1 SLOAD SWAP1 SWAP2 AND PUSH20 0x6090149792DAAEE9D1D568C9F9A6F6B46AA29EFD OR SWAP1 SSTORE PUSH32 0x6361393833363663633733313439353762386330313263373266303561656562 PUSH1 0x9 SSTORE PUSH8 0x16345785D8A0000 PUSH1 0xA SSTORE PUSH2 0x157 PUSH2 0x4BA JUMP JUMPDEST PUSH2 0x4E2 DUP2 MSTORE PUSH1 0x20 DUP2 ADD TIMESTAMP DUP2 MSTORE PUSH1 0x2 PUSH1 0x40 DUP4 ADD SWAP3 PUSH1 0x1 DUP5 MSTORE PUSH1 0x60 DUP2 ADD SWAP3 PUSH1 0x1 DUP5 MSTORE PUSH1 0x24 PUSH1 0x40 MLOAD PUSH4 0x706D3235 PUSH1 0xE0 SHL DUP2 MSTORE PUSH1 0xB PUSH1 0x4 DUP3 ADD MSTORE KECCAK256 SWAP2 MLOAD DUP3 SSTORE MLOAD PUSH1 0x1 DUP3 ADD SSTORE ADD SWAP2 PUSH1 0x1 DUP1 PUSH1 0x50 SHL SUB SWAP1 PUSH1 0x1 DUP1 PUSH1 0x50 SHL SUB SWAP1 MLOAD AND AND PUSH1 0x1 DUP1 PUSH1 0x50 SHL SUB NOT DUP4 SLOAD AND OR DUP3 SSTORE MLOAD ISZERO ISZERO PUSH11 0xFF00000000000000000000 DUP3 SLOAD SWAP2 PUSH1 0x50 SHL AND SWAP1 PUSH11 0xFF00000000000000000000 NOT AND OR SWAP1 SSTORE PUSH1 0x24 PUSH1 0x40 MLOAD PUSH4 0x706D3235 PUSH1 0xE0 SHL DUP2 MSTORE PUSH1 0xC PUSH1 0x4 DUP3 ADD MSTORE KECCAK256 PUSH1 0x1 DUP1 DUP1 PUSH1 0x50 SHL SUB NOT DUP3 SLOAD AND OR SWAP1 SSTORE PUSH2 0x211 PUSH2 0x4BA JUMP JUMPDEST PUSH2 0xA4A6 DUP2 MSTORE PUSH1 0x20 DUP2 ADD TIMESTAMP DUP2 MSTORE PUSH1 0x2 PUSH1 0x40 DUP4 ADD SWAP3 PUSH1 0x1 DUP5 MSTORE PUSH1 0x60 DUP2 ADD SWAP3 PUSH1 0x1 DUP5 MSTORE PUSH1 0x23 PUSH1 0x40 MLOAD PUSH3 0x31B799 PUSH1 0xE9 SHL DUP2 MSTORE PUSH1 0xB PUSH1 0x3 DUP3 ADD MSTORE KECCAK256 SWAP2 MLOAD DUP3 SSTORE MLOAD PUSH1 0x1 DUP3 ADD SSTORE ADD SWAP2 PUSH1 0x1 DUP1 PUSH1 0x50 SHL SUB SWAP1 PUSH1 0x1 DUP1 PUSH1 0x50 SHL SUB SWAP1 MLOAD AND AND PUSH1 0x1 DUP1 PUSH1 0x50 SHL SUB NOT DUP4 SLOAD AND OR DUP3 SSTORE MLOAD ISZERO ISZERO PUSH11 0xFF00000000000000000000 DUP3 SLOAD SWAP2 PUSH1 0x50 SHL AND SWAP1 PUSH11 0xFF00000000000000000000 NOT AND OR SWAP1 SSTORE PUSH1 0x23 PUSH1 0x40 MLOAD PUSH3 0x31B799 PUSH1 0xE9 SHL DUP2 MSTORE PUSH1 0xC PUSH1 0x3 DUP3 ADD MSTORE KECCAK256 PUSH1 0x1 DUP1 DUP1 PUSH1 0x50 SHL SUB NOT DUP3 SLOAD AND OR SWAP1 SSTORE PUSH2 0x2C9 PUSH2 0x4BA JUMP JUMPDEST PUSH2 0x1AC2 DUP2 MSTORE PUSH1 0x20 DUP2 ADD TIMESTAMP DUP2 MSTORE PUSH1 0x2 PUSH1 0x40 DUP4 ADD SWAP3 PUSH1 0x1 DUP5 MSTORE PUSH1 0x60 DUP2 ADD SWAP3 PUSH1 0x1 DUP5 MSTORE PUSH1 0x2C PUSH1 0x40 MLOAD PUSH12 0x3337B932B9BA2FB1B7BB32B9 PUSH1 0xA1 SHL DUP2 MSTORE PUSH1 0xB PUSH1 0xC DUP3 ADD MSTORE KECCAK256 SWAP2 MLOAD DUP3 SSTORE MLOAD PUSH1 0x1 DUP3 ADD SSTORE ADD SWAP2 PUSH1 0x1 DUP1 PUSH1 0x50 SHL SUB SWAP1 PUSH1 0x1 DUP1 PUSH1 0x50 SHL SUB SWAP1 MLOAD AND AND PUSH1 0x1 DUP1 PUSH1 0x50 SHL SUB NOT DUP4 SLOAD AND OR DUP3 SSTORE MLOAD ISZERO ISZERO PUSH11 0xFF00000000000000000000 DUP3 SLOAD SWAP2 PUSH1 0x50 SHL AND SWAP1 PUSH11 0xFF00000000000000000000 NOT AND OR SWAP1 SSTORE PUSH1 0x2C PUSH1 0x40 MLOAD PUSH12 0x3337B932B9BA2FB1B7BB32B9 PUSH1 0xA1 SHL DUP2 MSTORE PUSH1 0xC DUP1 DUP3 ADD MSTORE KECCAK256 PUSH1 0x1 DUP1 DUP1 PUSH1 0x50 SHL SUB NOT DUP3 SLOAD AND OR SWAP1 SSTORE PUSH1 0x40 MLOAD PUSH2 0x2471 SWAP1 DUP2 PUSH2 0x4F0 DUP3 CODECOPY RETURN JUMPDEST PUSH1 0xE PUSH1 0x0 MSTORE PUSH1 0x1F ADD PUSH1 0x5 SHR PUSH1 0x0 DUP1 MLOAD PUSH1 0x20 PUSH2 0x2961 DUP4 CODECOPY DUP2 MLOAD SWAP2 MSTORE ADD PUSH32 0xBB7B4A454DC3493923482F07822329ED19E8244EFF582CC204F8554C3620C3FF JUMPDEST DUP2 DUP2 LT PUSH2 0x3E3 JUMPI POP PUSH2 0x60 JUMP JUMPDEST PUSH1 0x0 DUP2 SSTORE PUSH1 0x1 ADD PUSH2 0x3D6 JUMP JUMPDEST PUSH1 0xD PUSH1 0x0 MSTORE PUSH1 0x1F ADD PUSH1 0x5 SHR PUSH32 0xD7B6990105719101DABEB77144F2A3385C8033ACD3AF97E9423A695E81AD1EB5 SWAP1 DUP2 ADD SWAP1 JUMPDEST DUP2 DUP2 LT PUSH2 0x42D JUMPI POP PUSH2 0x3C JUMP JUMPDEST PUSH1 0x0 DUP2 SSTORE PUSH1 0x1 ADD PUSH2 0x420 JUMP JUMPDEST PUSH3 0x461BCD PUSH1 0xE5 SHL DUP2 MSTORE PUSH1 0x20 PUSH1 0x4 DUP3 ADD MSTORE PUSH1 0x18 PUSH1 0x24 DUP3 ADD MSTORE PUSH32 0x43616E6E6F7420736574206F776E657220746F207A65726F0000000000000000 PUSH1 0x44 DUP3 ADD MSTORE PUSH1 0x64 SWAP1 REVERT JUMPDEST PUSH1 0x0 DUP1 REVERT JUMPDEST SWAP1 PUSH1 0x1 DUP3 DUP2 SHR SWAP3 AND DUP1 ISZERO PUSH2 0x4B0 JUMPI JUMPDEST PUSH1 0x20 DUP4 LT EQ PUSH2 0x49A JUMPI JUMP JUMPDEST PUSH4 0x4E487B71 PUSH1 0xE0 SHL PUSH1 0x0 MSTORE PUSH1 0x22 PUSH1 0x4 MSTORE PUSH1 0x24 PUSH1 0x0 REVERT JUMPDEST SWAP2 PUSH1 0x7F AND SWAP2 PUSH2 0x48F JUMP JUMPDEST PUSH1 0x40 MLOAD SWAP1 PUSH1 0x80 DUP3 ADD PUSH1 0x1 PUSH1 0x1 PUSH1 0x40 SHL SUB DUP2 GT DUP4 DUP3 LT OR PUSH2 0x4D9 JUMPI PUSH1 0x40 MSTORE JUMP JUMPDEST PUSH4 0x4E487B71 PUSH1 0xE0 SHL PUSH1 0x0 MSTORE PUSH1 0x41 PUSH1 0x4 MSTORE PUSH1 0x24 PUSH1 0x0 REVERT INVALID PUSH1 0x80 PUSH1 0x40 MSTORE PUSH1 0x4 CALLDATASIZE LT ISZERO PUSH2 0x12 JUMPI PUSH1 0x0 DUP1 REVERT JUMPDEST PUSH1 0x0 CALLDATALOAD PUSH1 0xE0 SHR DUP1 PUSH4 0x23FB9BC3 EQ PUSH2 0x197 JUMPI DUP1 PUSH4 0x313CE567 EQ PUSH2 0x192 JUMPI DUP1 PUSH4 0x31A51C1D EQ PUSH2 0x18D JUMPI DUP1 PUSH4 0x54FD4D50 EQ PUSH2 0x188 JUMPI DUP1 PUSH4 0x60C0E35F EQ PUSH2 0x183 JUMPI DUP1 PUSH4 0x61E27917 EQ PUSH2 0x17E JUMPI DUP1 PUSH4 0x7284E416 EQ PUSH2 0x179 JUMPI DUP1 PUSH4 0x79BA5097 EQ PUSH2 0x174 JUMPI DUP1 PUSH4 0x8002A7F8 EQ PUSH2 0x16F JUMPI DUP1 PUSH4 0x82984C0C EQ PUSH2 0x16A JUMPI DUP1 PUSH4 0x8409C4E6 EQ PUSH2 0x165 JUMPI DUP1 PUSH4 0x8DA5CB5B EQ PUSH2 0x160 JUMPI DUP1 PUSH4 0x8DC654A2 EQ PUSH2 0x15B JUMPI DUP1 PUSH4 0x9A6FC8F5 EQ PUSH2 0x156 JUMPI DUP1 PUSH4 0xB53EEB6F EQ PUSH2 0x151 JUMPI DUP1 PUSH4 0xBB99B969 EQ PUSH2 0x14C JUMPI DUP1 PUSH4 0xBF0ECA7E EQ PUSH2 0x147 JUMPI DUP1 PUSH4 0xC8E2457C EQ PUSH2 0x142 JUMPI DUP1 PUSH4 0xCEE6FCE0 EQ PUSH2 0x13D JUMPI DUP1 PUSH4 0xD27CD36B EQ PUSH2 0x138 JUMPI DUP1 PUSH4 0xD4EC83C5 EQ PUSH2 0x133 JUMPI DUP1 PUSH4 0xE2EB188E EQ PUSH2 0x12E JUMPI DUP1 PUSH4 0xF2FDE38B EQ PUSH2 0x129 JUMPI PUSH4 0xFEAF968C EQ PUSH2 0x124 JUMPI PUSH1 0x0 DUP1 REVERT JUMPDEST PUSH2 0x13BE JUMP JUMPDEST PUSH2 0x1303 JUMP JUMPDEST PUSH2 0x12B4 JUMP JUMPDEST PUSH2 0x11AB JUMP JUMPDEST PUSH2 0x1103 JUMP JUMPDEST PUSH2 0x100E JUMP JUMPDEST PUSH2 0xF1E JUMP JUMPDEST PUSH2 0xED6 JUMP JUMPDEST PUSH2 0xE9B JUMP JUMPDEST PUSH2 0xE68 JUMP JUMPDEST PUSH2 0xD88 JUMP JUMPDEST PUSH2 0xC5D JUMP JUMPDEST PUSH2 0xC34 JUMP JUMPDEST PUSH2 0xB3B JUMP JUMPDEST PUSH2 0x9EF JUMP JUMPDEST PUSH2 0x96B JUMP JUMPDEST PUSH2 0x894 JUMP JUMPDEST PUSH2 0x7B4 JUMP JUMPDEST PUSH2 0x622 JUMP JUMPDEST PUSH2 0x4AB JUMP JUMPDEST PUSH2 0x48D JUMP JUMPDEST PUSH2 0x34B JUMP JUMPDEST PUSH2 0x32F JUMP JUMPDEST PUSH2 0x305 JUMP JUMPDEST PUSH4 0x4E487B71 PUSH1 0xE0 SHL PUSH1 0x0 MSTORE PUSH1 0x41 PUSH1 0x4 MSTORE PUSH1 0x24 PUSH1 0x0 REVERT JUMPDEST PUSH1 0x80 DUP2 ADD SWAP1 DUP2 LT PUSH8 0xFFFFFFFFFFFFFFFF DUP3 GT OR PUSH2 0x1CE JUMPI PUSH1 0x40 MSTORE JUMP JUMPDEST PUSH2 0x19C JUMP JUMPDEST SWAP1 PUSH1 0x1F DUP1 NOT SWAP2 ADD AND DUP2 ADD SWAP1 DUP2 LT PUSH8 0xFFFFFFFFFFFFFFFF DUP3 GT OR PUSH2 0x1CE JUMPI PUSH1 0x40 MSTORE JUMP JUMPDEST DUP2 PUSH1 0x1F DUP3 ADD SLT ISZERO PUSH2 0x24C JUMPI DUP1 CALLDATALOAD SWAP1 PUSH8 0xFFFFFFFFFFFFFFFF DUP3 GT PUSH2 0x1CE JUMPI PUSH1 0x40 MLOAD SWAP3 PUSH2 0x22A PUSH1 0x1F DUP5 ADD PUSH1 0x1F NOT AND PUSH1 0x20 ADD DUP6 PUSH2 0x1D3 JUMP JUMPDEST DUP3 DUP5 MSTORE PUSH1 0x20 DUP4 DUP4 ADD ADD GT PUSH2 0x24C JUMPI DUP2 PUSH1 0x0 SWAP3 PUSH1 0x20 DUP1 SWAP4 ADD DUP4 DUP7 ADD CALLDATACOPY DUP4 ADD ADD MSTORE SWAP1 JUMP JUMPDEST PUSH1 0x0 DUP1 REVERT JUMPDEST PUSH1 0x20 PUSH1 0x3 NOT DUP3 ADD SLT PUSH2 0x24C JUMPI PUSH1 0x4 CALLDATALOAD SWAP1 PUSH8 0xFFFFFFFFFFFFFFFF DUP3 GT PUSH2 0x24C JUMPI PUSH2 0x27C SWAP2 PUSH1 0x4 ADD PUSH2 0x1F5 JUMP JUMPDEST SWAP1 JUMP JUMPDEST PUSH1 0x0 JUMPDEST DUP4 DUP2 LT PUSH2 0x292 JUMPI POP POP PUSH1 0x0 SWAP2 ADD MSTORE JUMP JUMPDEST DUP2 DUP2 ADD MLOAD DUP4 DUP3 ADD MSTORE PUSH1 0x20 ADD PUSH2 0x282 JUMP JUMPDEST SWAP1 PUSH2 0x2B5 PUSH1 0x20 SWAP3 DUP3 DUP2 MLOAD SWAP5 DUP6 SWAP3 ADD PUSH2 0x27F JUMP JUMPDEST ADD SWAP1 JUMP JUMPDEST PUSH1 0x20 PUSH2 0x2D2 SWAP2 DUP2 PUSH1 0x40 MLOAD SWAP4 DUP3 DUP6 DUP1 SWAP5 MLOAD SWAP4 DUP5 SWAP3 ADD PUSH2 0x27F JUMP JUMPDEST DUP2 ADD PUSH1 0xC DUP2 MSTORE SUB ADD SWAP1 KECCAK256 SWAP1 JUMP JUMPDEST PUSH1 0x20 PUSH2 0x2F8 SWAP2 DUP2 PUSH1 0x40 MLOAD SWAP4 DUP3 DUP6 DUP1 SWAP5 MLOAD SWAP4 DUP5 SWAP3 ADD PUSH2 0x27F JUMP JUMPDEST DUP2 ADD PUSH1 0xB DUP2 MSTORE SUB ADD SWAP1 KECCAK256 SWAP1 JUMP JUMPDEST CALLVALUE PUSH2 0x24C JUMPI PUSH1 0x20 PUSH1 0x1 PUSH1 0x1 PUSH1 0x50 SHL SUB PUSH2 0x325 PUSH2 0x320 CALLDATASIZE PUSH2 0x251 JUMP JUMPDEST PUSH2 0x2B9 JUMP JUMPDEST SLOAD AND PUSH1 0x40 MLOAD SWAP1 DUP2 MSTORE RETURN JUMPDEST CALLVALUE PUSH2 0x24C JUMPI PUSH1 0x0 CALLDATASIZE PUSH1 0x3 NOT ADD SLT PUSH2 0x24C JUMPI PUSH1 0x20 PUSH1 0x40 MLOAD PUSH1 0x2 DUP2 MSTORE RETURN JUMPDEST CALLVALUE PUSH2 0x24C JUMPI PUSH1 0x20 PUSH2 0x482 PUSH2 0x3E6 PUSH1 0x0 DUP1 MLOAD PUSH1 0x20 PUSH2 0x241C DUP4 CODECOPY DUP2 MLOAD SWAP2 MSTORE PUSH2 0x473 PUSH2 0x373 CALLDATASIZE PUSH2 0x251 JUMP JUMPDEST PUSH2 0x37B PUSH2 0x19D9 JUMP JUMPDEST PUSH2 0x42D PUSH2 0x38B PUSH1 0x9 SLOAD ADDRESS SWAP1 PUSH2 0x1A9D JUMP JUMPDEST SWAP2 PUSH2 0x41F PUSH1 0x40 MLOAD SWAP7 DUP8 SWAP3 PUSH32 0x68747470733A2F2F6170692E6F70656E61712E6F72672F76322F6C6174657374 DUP12 DUP6 ADD MSTORE PUSH25 0x3F706172616D657465723D706D3235266C6F636174696F6E3D PUSH1 0x38 SHL PUSH1 0x40 DUP6 ADD MSTORE PUSH1 0x59 DUP5 ADD SWAP1 PUSH2 0x2A2 JUMP JUMPDEST PUSH32 0x266C696D69743D31266F726465725F62793D6C6173745570646174656426736F DUP2 MSTORE PUSH7 0x72743D64657363 PUSH1 0xC8 SHL PUSH1 0x20 DUP3 ADD MSTORE PUSH1 0x27 ADD SWAP1 JUMP JUMPDEST SUB PUSH1 0x1F NOT DUP2 ADD DUP7 MSTORE DUP6 PUSH2 0x1D3 JUMP JUMPDEST PUSH2 0x43F DUP5 PUSH2 0x439 PUSH2 0x14D2 JUMP JUMPDEST DUP4 PUSH2 0x1B7B JUMP JUMPDEST PUSH2 0x459 PUSH2 0x44A PUSH2 0x14F3 JUMP JUMPDEST PUSH2 0x452 PUSH2 0x1515 JUMP JUMPDEST SWAP1 DUP4 PUSH2 0x1B7B JUMP JUMPDEST PUSH2 0x46A PUSH2 0x464 PUSH2 0x1542 JUMP JUMPDEST DUP3 PUSH2 0x1B96 JUMP JUMPDEST PUSH1 0xA SLOAD SWAP1 PUSH2 0x1BC7 JUMP JUMPDEST SWAP3 DUP4 SWAP3 PUSH1 0x40 MLOAD SWAP2 DUP3 SWAP2 DUP3 PUSH2 0x1565 JUMP JUMPDEST SUB SWAP1 LOG2 PUSH1 0x40 MLOAD SWAP1 DUP2 MSTORE RETURN JUMPDEST CALLVALUE PUSH2 0x24C JUMPI PUSH1 0x0 CALLDATASIZE PUSH1 0x3 NOT ADD SLT PUSH2 0x24C JUMPI PUSH1 0x20 PUSH1 0xF SLOAD PUSH1 0x40 MLOAD SWAP1 DUP2 MSTORE RETURN JUMPDEST CALLVALUE PUSH2 0x24C JUMPI PUSH1 0x0 CALLDATASIZE PUSH1 0x3 NOT ADD SLT PUSH2 0x24C JUMPI PUSH2 0x4C4 PUSH2 0x19D9 JUMP JUMPDEST PUSH1 0x40 PUSH1 0x0 DUP1 MLOAD PUSH1 0x20 PUSH2 0x241C DUP4 CODECOPY DUP2 MLOAD SWAP2 MSTORE PUSH2 0x59E PUSH2 0x3E6 PUSH2 0x593 DUP5 MLOAD PUSH2 0x4EA DUP7 DUP3 PUSH2 0x1D3 JUMP JUMPDEST PUSH1 0x8 DUP2 MSTORE PUSH8 0x4E657720596F726B PUSH1 0xC0 SHL PUSH1 0x20 DUP3 ADD MSTORE PUSH2 0x507 PUSH2 0x19D9 JUMP JUMPDEST PUSH2 0x587 PUSH2 0x517 PUSH1 0x9 SLOAD ADDRESS SWAP1 PUSH2 0x1A9D JUMP JUMPDEST SWAP2 PUSH2 0x579 DUP9 MLOAD SWAP6 DUP7 SWAP3 PUSH2 0x573 PUSH1 0x20 DUP6 ADD PUSH1 0x39 SWAP1 PUSH32 0x68747470733A2F2F6170692E6F70656E61712E6F72672F76322F6C6174657374 DUP2 MSTORE PUSH25 0x3F706172616D657465723D706D3235266C6F636174696F6E3D PUSH1 0x38 SHL PUSH1 0x20 DUP3 ADD MSTORE ADD SWAP1 JUMP JUMPDEST SWAP1 PUSH2 0x2A2 JUMP JUMPDEST SUB PUSH1 0x1F NOT DUP2 ADD DUP6 MSTORE DUP5 PUSH2 0x1D3 JUMP JUMPDEST PUSH2 0x43F DUP4 PUSH2 0x439 PUSH2 0x14D2 JUMP JUMPDEST SWAP4 MLOAD SWAP2 DUP3 SWAP2 DUP3 PUSH2 0x1565 JUMP JUMPDEST SUB SWAP1 LOG2 PUSH2 0x5BA PUSH2 0x5AC PUSH2 0x1594 JUMP JUMPDEST PUSH2 0x5B4 PUSH2 0x15B9 JUMP JUMPDEST SWAP1 PUSH2 0x16F7 JUMP JUMPDEST POP PUSH2 0x5D4 PUSH2 0x5C6 PUSH2 0x1594 JUMP JUMPDEST PUSH2 0x5CE PUSH2 0x15B9 JUMP JUMPDEST SWAP1 PUSH2 0x15DF JUMP JUMPDEST STOP JUMPDEST SWAP1 PUSH1 0x40 PUSH1 0x3 NOT DUP4 ADD SLT PUSH2 0x24C JUMPI PUSH1 0x4 CALLDATALOAD PUSH8 0xFFFFFFFFFFFFFFFF DUP2 GT PUSH2 0x24C JUMPI DUP3 PUSH2 0x602 SWAP2 PUSH1 0x4 ADD PUSH2 0x1F5 JUMP JUMPDEST SWAP2 PUSH1 0x24 CALLDATALOAD SWAP1 PUSH8 0xFFFFFFFFFFFFFFFF DUP3 GT PUSH2 0x24C JUMPI PUSH2 0x27C SWAP2 PUSH1 0x4 ADD PUSH2 0x1F5 JUMP JUMPDEST CALLVALUE PUSH2 0x24C JUMPI PUSH1 0x20 PUSH2 0x482 PUSH2 0x6C1 PUSH1 0x0 DUP1 MLOAD PUSH1 0x20 PUSH2 0x241C DUP4 CODECOPY DUP2 MLOAD SWAP2 MSTORE PUSH2 0x735 PUSH2 0x705 PUSH2 0x64D CALLDATASIZE PUSH2 0x5D6 JUMP JUMPDEST PUSH2 0x658 SWAP3 SWAP2 SWAP3 PUSH2 0x19D9 JUMP JUMPDEST PUSH2 0x41F PUSH2 0x6D2 PUSH2 0x66B PUSH1 0x9 SLOAD ADDRESS SWAP1 PUSH2 0x1AE7 JUMP JUMPDEST SWAP5 PUSH2 0x573 PUSH1 0x40 MLOAD SWAP10 DUP11 SWAP6 PUSH32 0x68747470733A2F2F6170692E6E6173612E676F762F706C616E65746172792F65 DUP15 DUP9 ADD MSTORE PUSH20 0x617274682F737461746973746963733F6C6F6E3D PUSH1 0x60 SHL PUSH1 0x40 DUP9 ADD MSTORE PUSH1 0x54 DUP8 ADD SWAP1 PUSH2 0x2A2 JUMP JUMPDEST PUSH5 0x266C61743D PUSH1 0xD8 SHL DUP2 MSTORE PUSH1 0x5 ADD SWAP1 JUMP JUMPDEST PUSH32 0x26646174653D323032342D30312D3031266170695F6B65793D44454D4F5F4B45 DUP2 MSTORE PUSH1 0x59 PUSH1 0xF8 SHL PUSH1 0x20 DUP3 ADD MSTORE PUSH1 0x21 ADD SWAP1 JUMP JUMPDEST PUSH2 0x711 DUP5 PUSH2 0x439 PUSH2 0x14D2 JUMP JUMPDEST PUSH2 0x724 PUSH2 0x71C PUSH2 0x14F3 JUMP JUMPDEST PUSH2 0x452 PUSH2 0x168F JUMP JUMPDEST PUSH2 0x46A PUSH2 0x72F PUSH2 0x1542 JUMP JUMPDEST DUP3 PUSH2 0x1BB1 JUMP JUMPDEST SWAP3 DUP4 SWAP3 PUSH1 0x40 MLOAD SWAP2 DUP3 SWAP2 DUP3 PUSH2 0x16CA JUMP JUMPDEST SWAP1 PUSH1 0x1 DUP3 DUP2 SHR SWAP3 AND DUP1 ISZERO PUSH2 0x774 JUMPI JUMPDEST PUSH1 0x20 DUP4 LT EQ PUSH2 0x75E JUMPI JUMP JUMPDEST PUSH4 0x4E487B71 PUSH1 0xE0 SHL PUSH1 0x0 MSTORE PUSH1 0x22 PUSH1 0x4 MSTORE PUSH1 0x24 PUSH1 0x0 REVERT JUMPDEST SWAP2 PUSH1 0x7F AND SWAP2 PUSH2 0x753 JUMP JUMPDEST SWAP1 PUSH1 0x20 SWAP2 PUSH2 0x797 DUP2 MLOAD DUP1 SWAP3 DUP2 DUP6 MSTORE DUP6 DUP1 DUP7 ADD SWAP2 ADD PUSH2 0x27F JUMP JUMPDEST PUSH1 0x1F ADD PUSH1 0x1F NOT AND ADD ADD SWAP1 JUMP JUMPDEST SWAP1 PUSH1 0x20 PUSH2 0x27C SWAP3 DUP2 DUP2 MSTORE ADD SWAP1 PUSH2 0x77E JUMP JUMPDEST CALLVALUE PUSH2 0x24C JUMPI PUSH1 0x0 CALLDATASIZE PUSH1 0x3 NOT ADD SLT PUSH2 0x24C JUMPI PUSH1 0x40 MLOAD PUSH1 0xE SLOAD PUSH1 0x0 SWAP1 DUP2 PUSH2 0x7D8 DUP3 PUSH2 0x744 JUMP JUMPDEST DUP1 DUP6 MSTORE SWAP2 PUSH1 0x1 DUP2 AND SWAP1 DUP2 ISZERO PUSH2 0x86D JUMPI POP PUSH1 0x1 EQ PUSH2 0x810 JUMPI JUMPDEST PUSH2 0x80C DUP5 PUSH2 0x800 DUP2 DUP7 SUB DUP3 PUSH2 0x1D3 JUMP JUMPDEST PUSH1 0x40 MLOAD SWAP2 DUP3 SWAP2 DUP3 PUSH2 0x7A3 JUMP JUMPDEST SUB SWAP1 RETURN JUMPDEST PUSH1 0xE DUP2 MSTORE PUSH32 0xBB7B4A454DC3493923482F07822329ED19E8244EFF582CC204F8554C3620C3FD SWAP4 SWAP3 POP SWAP1 JUMPDEST DUP1 DUP3 LT PUSH2 0x853 JUMPI POP SWAP1 SWAP2 POP DUP2 ADD PUSH1 0x20 ADD PUSH2 0x800 DUP3 PUSH2 0x7F0 JUMP JUMPDEST SWAP2 SWAP3 PUSH1 0x1 DUP2 PUSH1 0x20 SWAP3 SLOAD DUP4 DUP6 DUP9 ADD ADD MSTORE ADD SWAP2 ADD SWAP1 SWAP3 SWAP2 PUSH2 0x83A JUMP JUMPDEST PUSH1 0xFF NOT AND PUSH1 0x20 DUP1 DUP8 ADD SWAP2 SWAP1 SWAP2 MSTORE SWAP3 ISZERO ISZERO PUSH1 0x5 SHL DUP6 ADD SWAP1 SWAP3 ADD SWAP3 POP PUSH2 0x800 SWAP2 POP DUP4 SWAP1 POP PUSH2 0x7F0 JUMP JUMPDEST CALLVALUE PUSH2 0x24C JUMPI PUSH1 0x0 CALLDATASIZE PUSH1 0x3 NOT ADD SLT PUSH2 0x24C JUMPI PUSH1 0x7 SLOAD PUSH1 0x1 PUSH1 0x1 PUSH1 0xA0 SHL SUB AND CALLER SUB PUSH2 0x917 JUMPI PUSH1 0x6 SLOAD PUSH1 0x1 PUSH1 0x1 PUSH1 0xA0 SHL SUB AND PUSH1 0x6 DUP1 SLOAD PUSH1 0x1 PUSH1 0x1 PUSH1 0xA0 SHL SUB NOT AND CALLER OR SWAP1 SSTORE PUSH1 0x7 DUP1 SLOAD PUSH1 0x1 PUSH1 0x1 PUSH1 0xA0 SHL SUB NOT AND SWAP1 SSTORE CALLER SWAP1 PUSH1 0x1 PUSH1 0x1 PUSH1 0xA0 SHL SUB AND PUSH32 0x8BE0079C531659141344CD1FD0A4F28419497F9722A3DAAFE3B4186F6B6457E0 PUSH1 0x0 DUP1 LOG3 STOP JUMPDEST PUSH1 0x40 MLOAD PUSH3 0x461BCD PUSH1 0xE5 SHL DUP2 MSTORE PUSH1 0x20 PUSH1 0x4 DUP3 ADD MSTORE PUSH1 0x16 PUSH1 0x24 DUP3 ADD MSTORE PUSH22 0x26BAB9BA10313290383937B837B9B2B21037BBB732B9 PUSH1 0x51 SHL PUSH1 0x44 DUP3 ADD MSTORE PUSH1 0x64 SWAP1 REVERT JUMPDEST PUSH1 0x4 CALLDATALOAD SWAP1 PUSH1 0x1 PUSH1 0x1 PUSH1 0xA0 SHL SUB DUP3 AND DUP3 SUB PUSH2 0x24C JUMPI JUMP JUMPDEST CALLVALUE PUSH2 0x24C JUMPI PUSH1 0x60 CALLDATASIZE PUSH1 0x3 NOT ADD SLT PUSH2 0x24C JUMPI PUSH32 0xC9D2A8C28A526D1F330842E83E25EBA06ACA2AB0FD2DB6016CE82B191E0D44B6 PUSH1 0x60 PUSH2 0x9A7 PUSH2 0x955 JUMP JUMPDEST PUSH1 0x24 CALLDATALOAD SWAP1 PUSH1 0x44 CALLDATALOAD SWAP1 PUSH2 0x9B7 PUSH2 0x19D9 JUMP JUMPDEST PUSH1 0x1 DUP1 PUSH1 0xA0 SHL SUB AND SWAP2 DUP3 PUSH1 0x1 PUSH1 0x1 PUSH1 0x60 SHL SUB PUSH1 0xA0 SHL PUSH1 0x8 SLOAD AND OR PUSH1 0x8 SSTORE DUP1 PUSH1 0x9 SSTORE DUP2 PUSH1 0xA SSTORE PUSH1 0x40 MLOAD SWAP3 DUP4 MSTORE PUSH1 0x20 DUP4 ADD MSTORE PUSH1 0x40 DUP3 ADD MSTORE LOG1 STOP JUMPDEST CALLVALUE PUSH2 0x24C JUMPI PUSH1 0x20 PUSH2 0x482 PUSH2 0xABD PUSH1 0x0 DUP1 MLOAD PUSH1 0x20 PUSH2 0x241C DUP4 CODECOPY DUP2 MLOAD SWAP2 MSTORE PUSH2 0xB2C PUSH2 0xB0D PUSH2 0xA1A CALLDATASIZE PUSH2 0x5D6 JUMP JUMPDEST PUSH2 0xA25 SWAP3 SWAP2 SWAP3 PUSH2 0x19D9 JUMP JUMPDEST PUSH2 0x41F PUSH2 0xAD3 PUSH2 0xA38 PUSH1 0x9 SLOAD ADDRESS SWAP1 PUSH2 0x1B31 JUMP JUMPDEST SWAP5 PUSH2 0x573 PUSH1 0x40 MLOAD SWAP10 DUP11 SWAP6 PUSH32 0x68747470733A2F2F706F7765722E6C6172632E6E6173612E676F762F6170692F DUP15 DUP9 ADD MSTORE PUSH32 0x74656D706F72616C2F6461696C792F706F696E743F706172616D65746572733D PUSH1 0x40 DUP9 ADD MSTORE PUSH32 0x54324D26636F6D6D756E6974793D5245266C6F6E6769747564653D0000000000 PUSH1 0x60 DUP9 ADD MSTORE PUSH1 0x7B DUP8 ADD SWAP1 PUSH2 0x2A2 JUMP JUMPDEST PUSH10 0x266C617469747564653D PUSH1 0xB0 SHL DUP2 MSTORE PUSH1 0xA ADD SWAP1 JUMP JUMPDEST PUSH32 0x2673746172743D323032343031303126656E643D323032343132333126666F72 DUP2 MSTORE PUSH8 0x36B0BA1EA529A7A7 PUSH1 0xC1 SHL PUSH1 0x20 DUP3 ADD MSTORE PUSH1 0x28 ADD SWAP1 JUMP JUMPDEST PUSH2 0xB19 DUP5 PUSH2 0x439 PUSH2 0x14D2 JUMP JUMPDEST PUSH2 0x459 PUSH2 0xB24 PUSH2 0x14F3 JUMP JUMPDEST PUSH2 0x452 PUSH2 0x17B5 JUMP JUMPDEST SWAP3 DUP4 SWAP3 PUSH1 0x40 MLOAD SWAP2 DUP3 SWAP2 DUP3 PUSH2 0x17F0 JUMP JUMPDEST CALLVALUE PUSH2 0x24C JUMPI PUSH2 0xB49 CALLDATASIZE PUSH2 0x251 JUMP JUMPDEST PUSH2 0xB51 PUSH2 0x19D9 JUMP JUMPDEST DUP1 MLOAD PUSH8 0xFFFFFFFFFFFFFFFF DUP2 GT PUSH2 0x1CE JUMPI PUSH2 0xB76 DUP2 PUSH2 0xB71 PUSH1 0xD SLOAD PUSH2 0x744 JUMP JUMPDEST PUSH2 0x1814 JUMP JUMPDEST PUSH1 0x20 SWAP2 PUSH1 0x1F DUP3 GT PUSH1 0x1 EQ PUSH2 0xBB6 JUMPI PUSH2 0xBA6 SWAP3 PUSH1 0x0 SWAP2 DUP4 PUSH2 0xBAB JUMPI JUMPDEST POP POP DUP2 PUSH1 0x1 SHL SWAP2 PUSH1 0x0 NOT SWAP1 PUSH1 0x3 SHL SHR NOT AND OR SWAP1 JUMP JUMPDEST PUSH1 0xD SSTORE STOP JUMPDEST ADD MLOAD SWAP1 POP CODESIZE DUP1 PUSH2 0xB91 JUMP JUMPDEST PUSH1 0xD PUSH1 0x0 MSTORE PUSH1 0x1F NOT DUP3 AND SWAP3 PUSH32 0xD7B6990105719101DABEB77144F2A3385C8033ACD3AF97E9423A695E81AD1EB5 SWAP2 PUSH1 0x0 JUMPDEST DUP6 DUP2 LT PUSH2 0xC1C JUMPI POP DUP4 PUSH1 0x1 SWAP6 LT PUSH2 0xC03 JUMPI JUMPDEST POP POP POP DUP2 SHL ADD PUSH1 0xD SSTORE STOP JUMPDEST ADD MLOAD PUSH1 0x0 NOT PUSH1 0xF8 DUP5 PUSH1 0x3 SHL AND SHR NOT AND SWAP1 SSTORE CODESIZE DUP1 DUP1 PUSH2 0xBF8 JUMP JUMPDEST SWAP2 SWAP3 PUSH1 0x20 PUSH1 0x1 DUP2 SWAP3 DUP7 DUP6 ADD MLOAD DUP2 SSTORE ADD SWAP5 ADD SWAP3 ADD PUSH2 0xBE6 JUMP JUMPDEST CALLVALUE PUSH2 0x24C JUMPI PUSH1 0x0 CALLDATASIZE PUSH1 0x3 NOT ADD SLT PUSH2 0x24C JUMPI PUSH1 0x6 SLOAD PUSH1 0x40 MLOAD PUSH1 0x1 PUSH1 0x1 PUSH1 0xA0 SHL SUB SWAP1 SWAP2 AND DUP2 MSTORE PUSH1 0x20 SWAP1 RETURN JUMPDEST CALLVALUE PUSH2 0x24C JUMPI PUSH1 0x0 CALLDATASIZE PUSH1 0x3 NOT ADD SLT PUSH2 0x24C JUMPI PUSH2 0xC76 PUSH2 0x19D9 JUMP JUMPDEST PUSH1 0x2 SLOAD PUSH2 0xC9B SWAP1 PUSH2 0xC8F SWAP1 DUP2 SWAP1 PUSH1 0x1 PUSH1 0x1 PUSH1 0xA0 SHL SUB AND DUP2 JUMP JUMPDEST PUSH1 0x1 PUSH1 0x1 PUSH1 0xA0 SHL SUB AND SWAP1 JUMP JUMPDEST PUSH1 0x40 MLOAD PUSH4 0x70A08231 PUSH1 0xE0 SHL DUP2 MSTORE ADDRESS PUSH1 0x4 DUP3 ADD MSTORE PUSH1 0x20 DUP2 PUSH1 0x24 DUP2 DUP6 GAS STATICCALL SWAP1 DUP2 ISZERO PUSH2 0xD45 JUMPI PUSH1 0x0 SWAP3 PUSH1 0x20 SWAP3 PUSH2 0xCFA SWAP3 DUP6 SWAP2 PUSH2 0xD4A JUMPI JUMPDEST POP PUSH1 0x40 MLOAD PUSH4 0xA9059CBB PUSH1 0xE0 SHL DUP2 MSTORE CALLER PUSH1 0x4 DUP3 ADD MSTORE PUSH1 0x24 DUP2 ADD SWAP2 SWAP1 SWAP2 MSTORE SWAP4 DUP5 SWAP3 DUP4 SWAP2 SWAP1 DUP3 SWAP1 PUSH1 0x44 DUP3 ADD SWAP1 JUMP JUMPDEST SUB SWAP3 GAS CALL DUP1 ISZERO PUSH2 0xD45 JUMPI PUSH2 0x5D4 SWAP2 PUSH1 0x0 SWAP2 PUSH2 0xD16 JUMPI JUMPDEST POP PUSH2 0x189A JUMP JUMPDEST PUSH2 0xD38 SWAP2 POP PUSH1 0x20 RETURNDATASIZE PUSH1 0x20 GT PUSH2 0xD3E JUMPI JUMPDEST PUSH2 0xD30 DUP2 DUP4 PUSH2 0x1D3 JUMP JUMPDEST DUP2 ADD SWAP1 PUSH2 0x1882 JUMP JUMPDEST CODESIZE PUSH2 0xD10 JUMP JUMPDEST POP RETURNDATASIZE PUSH2 0xD26 JUMP JUMPDEST PUSH2 0x1876 JUMP JUMPDEST PUSH2 0xD6A SWAP2 POP DUP5 RETURNDATASIZE DUP7 GT PUSH2 0xD70 JUMPI JUMPDEST PUSH2 0xD62 DUP2 DUP4 PUSH2 0x1D3 JUMP JUMPDEST DUP2 ADD SWAP1 PUSH2 0x1867 JUMP JUMPDEST CODESIZE PUSH2 0xCCF JUMP JUMPDEST POP RETURNDATASIZE PUSH2 0xD58 JUMP JUMPDEST PUSH1 0x1 PUSH1 0x1 PUSH1 0x50 SHL SUB DUP2 AND SUB PUSH2 0x24C JUMPI JUMP JUMPDEST CALLVALUE PUSH2 0x24C JUMPI PUSH1 0x20 CALLDATASIZE PUSH1 0x3 NOT ADD SLT PUSH2 0x24C JUMPI PUSH2 0xDA4 PUSH1 0x4 CALLDATALOAD PUSH2 0xD77 JUMP JUMPDEST PUSH1 0x40 MLOAD PUSH4 0x3FABE5A3 PUSH1 0xE2 SHL DUP2 MSTORE PUSH1 0xA0 DUP2 PUSH1 0x4 DUP2 ADDRESS GAS STATICCALL DUP1 ISZERO PUSH2 0xD45 JUMPI PUSH1 0x0 SWAP1 DUP2 SWAP3 DUP3 DUP4 SWAP2 DUP5 SWAP4 PUSH2 0xDFC JUMPI JUMPDEST POP PUSH1 0x40 DUP1 MLOAD PUSH1 0x1 PUSH1 0x1 PUSH1 0x50 SHL SUB SWAP6 DUP7 AND DUP2 MSTORE PUSH1 0x20 DUP2 ADD SWAP7 SWAP1 SWAP7 MSTORE DUP6 ADD MSTORE PUSH1 0x60 DUP5 ADD MSTORE AND PUSH1 0x80 DUP3 ADD MSTORE PUSH1 0xA0 SWAP1 RETURN JUMPDEST SWAP4 SWAP5 POP POP POP POP PUSH1 0xA0 DUP2 RETURNDATASIZE PUSH1 0xA0 GT PUSH2 0xE60 JUMPI JUMPDEST DUP2 PUSH2 0xE1B PUSH1 0xA0 SWAP4 DUP4 PUSH2 0x1D3 JUMP JUMPDEST DUP2 ADD SUB SLT PUSH2 0xE5C JUMPI PUSH2 0x80C DUP2 MLOAD SWAP2 PUSH2 0xE32 DUP4 PUSH2 0xD77 JUMP JUMPDEST PUSH1 0x20 DUP2 ADD MLOAD SWAP3 PUSH1 0x40 DUP3 ADD MLOAD SWAP5 POP PUSH1 0x80 PUSH1 0x60 DUP4 ADD MLOAD SWAP3 ADD MLOAD SWAP1 PUSH2 0xE53 DUP3 PUSH2 0xD77 JUMP JUMPDEST SWAP4 SWAP5 SWAP1 SWAP3 PUSH2 0xDCF JUMP JUMPDEST POP DUP1 REVERT JUMPDEST RETURNDATASIZE SWAP2 POP PUSH2 0xE0E JUMP JUMPDEST CALLVALUE PUSH2 0x24C JUMPI PUSH1 0x0 CALLDATASIZE PUSH1 0x3 NOT ADD SLT PUSH2 0x24C JUMPI PUSH1 0x20 PUSH1 0x24 PUSH1 0x40 MLOAD PUSH4 0x706D3235 PUSH1 0xE0 SHL DUP2 MSTORE PUSH1 0xB PUSH1 0x4 DUP3 ADD MSTORE KECCAK256 SLOAD PUSH1 0x40 MLOAD SWAP1 DUP2 MSTORE RETURN JUMPDEST CALLVALUE PUSH2 0x24C JUMPI PUSH1 0x0 CALLDATASIZE PUSH1 0x3 NOT ADD SLT PUSH2 0x24C JUMPI PUSH1 0x20 PUSH1 0x2C PUSH1 0x40 MLOAD PUSH12 0x3337B932B9BA2FB1B7BB32B9 PUSH1 0xA1 SHL DUP2 MSTORE PUSH1 0xB PUSH1 0xC DUP3 ADD MSTORE KECCAK256 SLOAD PUSH1 0x40 MLOAD SWAP1 DUP2 MSTORE RETURN JUMPDEST CALLVALUE PUSH2 0x24C JUMPI PUSH1 0x0 CALLDATASIZE PUSH1 0x3 NOT ADD SLT PUSH2 0x24C JUMPI PUSH1 0x20 PUSH1 0x23 PUSH1 0x40 MLOAD PUSH3 0x31B799 PUSH1 0xE9 SHL DUP2 MSTORE PUSH1 0xB PUSH1 0x3 DUP3 ADD MSTORE KECCAK256 SLOAD PUSH1 0x40 MLOAD SWAP1 DUP2 MSTORE RETURN JUMPDEST PUSH1 0x40 SWAP1 PUSH1 0x3 NOT ADD SLT PUSH2 0x24C JUMPI PUSH1 0x4 CALLDATALOAD SWAP1 PUSH1 0x24 CALLDATALOAD SWAP1 JUMP JUMPDEST CALLVALUE PUSH2 0x24C JUMPI PUSH2 0x1003 PUSH32 0x23E1E26674F6F3DF31FEEA85C7AB64870FEF7EE842DE7A298E7506D69EAE139F PUSH2 0xF50 CALLDATASIZE PUSH2 0xF08 JUMP JUMPDEST DUP2 PUSH1 0x0 SWAP5 SWAP3 SWAP5 MSTORE PUSH1 0x5 PUSH1 0x20 MSTORE PUSH2 0xF74 PUSH1 0x1 DUP1 PUSH1 0xA0 SHL SUB PUSH1 0x40 PUSH1 0x0 KECCAK256 SLOAD AND CALLER EQ PUSH2 0x18DB JUMP JUMPDEST DUP4 PUSH1 0x0 MSTORE PUSH1 0x5 PUSH1 0x20 MSTORE PUSH1 0x40 PUSH1 0x0 KECCAK256 PUSH1 0x1 PUSH1 0x1 PUSH1 0x60 SHL SUB PUSH1 0xA0 SHL DUP2 SLOAD AND SWAP1 SSTORE DUP4 PUSH32 0x7CC135E0CEBB02C3480AE5D74D377283180A2601F8F644EDF7987B009316C63A PUSH1 0x0 DUP1 LOG2 PUSH1 0x40 SWAP1 PUSH2 0xFE1 DUP2 DUP4 MLOAD PUSH2 0xFCB DUP6 DUP3 PUSH2 0x1D3 JUMP JUMPDEST PUSH1 0x4 DUP2 MSTORE PUSH4 0x706D3235 PUSH1 0xE0 SHL PUSH1 0x20 DUP3 ADD MSTORE PUSH2 0x1C5D JUMP JUMPDEST DUP2 MLOAD SWAP3 DUP3 DUP5 SWAP4 DUP5 MSTORE DUP4 ADD PUSH1 0x40 SWAP1 PUSH1 0x4 DUP2 MSTORE PUSH4 0x706D3235 PUSH1 0xE0 SHL PUSH1 0x20 DUP3 ADD MSTORE ADD SWAP1 JUMP JUMPDEST SWAP1 PUSH1 0x20 DUP4 ADD MSTORE SUB SWAP1 LOG2 STOP JUMPDEST CALLVALUE PUSH2 0x24C JUMPI PUSH2 0x1003 PUSH32 0x23E1E26674F6F3DF31FEEA85C7AB64870FEF7EE842DE7A298E7506D69EAE139F PUSH2 0x1040 CALLDATASIZE PUSH2 0xF08 JUMP JUMPDEST DUP2 PUSH1 0x0 SWAP5 SWAP3 SWAP5 MSTORE PUSH1 0x5 PUSH1 0x20 MSTORE PUSH2 0x1064 PUSH1 0x1 DUP1 PUSH1 0xA0 SHL SUB PUSH1 0x40 PUSH1 0x0 KECCAK256 SLOAD AND CALLER EQ PUSH2 0x18DB JUMP JUMPDEST DUP4 PUSH1 0x0 MSTORE PUSH1 0x5 PUSH1 0x20 MSTORE PUSH1 0x40 PUSH1 0x0 KECCAK256 PUSH1 0x1 PUSH1 0x1 PUSH1 0x60 SHL SUB PUSH1 0xA0 SHL DUP2 SLOAD AND SWAP1 SSTORE DUP4 PUSH32 0x7CC135E0CEBB02C3480AE5D74D377283180A2601F8F644EDF7987B009316C63A PUSH1 0x0 DUP1 LOG2 PUSH1 0x40 SWAP1 PUSH2 0x10D9 DUP2 DUP4 MLOAD PUSH2 0x10BB DUP6 DUP3 PUSH2 0x1D3 JUMP JUMPDEST PUSH1 0xC DUP2 MSTORE PUSH12 0x3337B932B9BA2FB1B7BB32B9 PUSH1 0xA1 SHL PUSH1 0x20 DUP3 ADD MSTORE PUSH2 0x1C5D JUMP JUMPDEST DUP2 MLOAD SWAP3 DUP3 DUP5 SWAP4 DUP5 MSTORE DUP4 ADD PUSH1 0x40 SWAP1 PUSH1 0xC DUP2 MSTORE PUSH12 0x3337B932B9BA2FB1B7BB32B9 PUSH1 0xA1 SHL PUSH1 0x20 DUP3 ADD MSTORE ADD SWAP1 JUMP JUMPDEST CALLVALUE PUSH2 0x24C JUMPI PUSH1 0x0 CALLDATASIZE PUSH1 0x3 NOT ADD SLT PUSH2 0x24C JUMPI PUSH1 0x40 MLOAD PUSH1 0xD SLOAD PUSH1 0x0 SWAP1 DUP2 PUSH2 0x1127 DUP3 PUSH2 0x744 JUMP JUMPDEST DUP1 DUP6 MSTORE SWAP2 PUSH1 0x1 DUP2 AND SWAP1 DUP2 ISZERO PUSH2 0x86D JUMPI POP PUSH1 0x1 EQ PUSH2 0x114E JUMPI PUSH2 0x80C DUP5 PUSH2 0x800 DUP2 DUP7 SUB DUP3 PUSH2 0x1D3 JUMP JUMPDEST PUSH1 0xD DUP2 MSTORE PUSH32 0xD7B6990105719101DABEB77144F2A3385C8033ACD3AF97E9423A695E81AD1EB5 SWAP4 SWAP3 POP SWAP1 JUMPDEST DUP1 DUP3 LT PUSH2 0x1191 JUMPI POP SWAP1 SWAP2 POP DUP2 ADD PUSH1 0x20 ADD PUSH2 0x800 DUP3 PUSH2 0x7F0 JUMP JUMPDEST SWAP2 SWAP3 PUSH1 0x1 DUP2 PUSH1 0x20 SWAP3 SLOAD DUP4 DUP6 DUP9 ADD ADD MSTORE ADD SWAP2 ADD SWAP1 SWAP3 SWAP2 PUSH2 0x1178 JUMP JUMPDEST CALLVALUE PUSH2 0x24C JUMPI PUSH2 0x11B9 CALLDATASIZE PUSH2 0xF08 JUMP JUMPDEST DUP2 PUSH1 0x0 MSTORE PUSH1 0x5 PUSH1 0x20 MSTORE PUSH2 0x11DA PUSH1 0x1 DUP1 PUSH1 0xA0 SHL SUB PUSH1 0x40 PUSH1 0x0 KECCAK256 SLOAD AND CALLER EQ PUSH2 0x18DB JUMP JUMPDEST DUP2 PUSH1 0x0 MSTORE PUSH1 0x5 PUSH1 0x20 MSTORE PUSH1 0x40 PUSH1 0x0 KECCAK256 PUSH1 0x1 PUSH1 0x1 PUSH1 0x60 SHL SUB PUSH1 0xA0 SHL DUP2 SLOAD AND SWAP1 SSTORE DUP2 PUSH32 0x7CC135E0CEBB02C3480AE5D74D377283180A2601F8F644EDF7987B009316C63A PUSH1 0x0 DUP1 LOG2 PUSH2 0x5DB NOT DUP2 ADD SWAP1 DUP2 SGT PUSH1 0x1 AND PUSH2 0x12AF JUMPI PUSH1 0xA SWAP1 SDIV DUP1 PUSH2 0xA4A6 ADD SWAP1 DUP2 SLT PUSH1 0x1 AND PUSH2 0x12AF JUMPI PUSH2 0x1003 PUSH32 0x23E1E26674F6F3DF31FEEA85C7AB64870FEF7EE842DE7A298E7506D69EAE139F SWAP2 PUSH1 0x40 SWAP1 PUSH2 0x128E DUP2 DUP4 MLOAD PUSH2 0x1279 DUP6 DUP3 PUSH2 0x1D3 JUMP JUMPDEST PUSH1 0x3 DUP2 MSTORE PUSH3 0x31B799 PUSH1 0xE9 SHL PUSH1 0x20 DUP3 ADD MSTORE PUSH2 0x1C5D JUMP JUMPDEST DUP2 MLOAD SWAP3 DUP4 SWAP3 DUP1 DUP5 MSTORE DUP4 ADD PUSH1 0x40 SWAP1 PUSH1 0x3 DUP2 MSTORE PUSH3 0x31B799 PUSH1 0xE9 SHL PUSH1 0x20 DUP3 ADD MSTORE ADD SWAP1 JUMP JUMPDEST PUSH2 0x1938 JUMP JUMPDEST CALLVALUE PUSH2 0x24C JUMPI PUSH1 0x80 PUSH2 0x12CC PUSH2 0x12C7 CALLDATASIZE PUSH2 0x251 JUMP JUMPDEST PUSH2 0x2DF JUMP JUMPDEST PUSH1 0xFF DUP2 SLOAD SWAP2 PUSH1 0x2 PUSH1 0x1 DUP3 ADD SLOAD SWAP2 ADD SLOAD SWAP1 PUSH1 0x40 MLOAD SWAP4 DUP5 MSTORE PUSH1 0x20 DUP5 ADD MSTORE PUSH1 0x1 PUSH1 0x1 PUSH1 0x50 SHL SUB DUP2 AND PUSH1 0x40 DUP5 ADD MSTORE PUSH1 0x50 SHR AND ISZERO ISZERO PUSH1 0x60 DUP3 ADD MSTORE RETURN JUMPDEST CALLVALUE PUSH2 0x24C JUMPI PUSH1 0x20 CALLDATASIZE PUSH1 0x3 NOT ADD SLT PUSH2 0x24C JUMPI PUSH2 0x131C PUSH2 0x955 JUMP JUMPDEST PUSH2 0x1324 PUSH2 0x19D9 JUMP JUMPDEST PUSH1 0x1 PUSH1 0x1 PUSH1 0xA0 SHL SUB AND CALLER DUP2 EQ PUSH2 0x1379 JUMPI PUSH1 0x7 DUP1 SLOAD PUSH1 0x1 PUSH1 0x1 PUSH1 0xA0 SHL SUB NOT AND DUP3 OR SWAP1 SSTORE PUSH1 0x6 SLOAD PUSH1 0x1 PUSH1 0x1 PUSH1 0xA0 SHL SUB AND PUSH32 0xED8889F560326EB138920D842192F0EB3DD22B4F139C87A2C57538E05BAE1278 PUSH1 0x0 DUP1 LOG3 STOP JUMPDEST PUSH1 0x40 MLOAD PUSH3 0x461BCD PUSH1 0xE5 SHL DUP2 MSTORE PUSH1 0x20 PUSH1 0x4 DUP3 ADD MSTORE PUSH1 0x17 PUSH1 0x24 DUP3 ADD MSTORE PUSH32 0x43616E6E6F74207472616E7366657220746F2073656C66000000000000000000 PUSH1 0x44 DUP3 ADD MSTORE PUSH1 0x64 SWAP1 REVERT JUMPDEST CALLVALUE PUSH2 0x24C JUMPI PUSH1 0x0 CALLDATASIZE PUSH1 0x3 NOT ADD SLT PUSH2 0x24C JUMPI PUSH1 0x40 MLOAD PUSH1 0x0 SWAP1 PUSH1 0xD SLOAD PUSH2 0x13E1 DUP2 PUSH2 0x744 JUMP JUMPDEST SWAP1 PUSH1 0x1 DUP2 AND SWAP1 DUP2 ISZERO PUSH2 0x14BC JUMPI POP PUSH1 0x1 EQ PUSH2 0x1468 JUMPI JUMPDEST POP PUSH1 0x20 DUP2 DUP4 PUSH1 0xB PUSH2 0x140B SWAP6 MSTORE SUB ADD SWAP1 KECCAK256 PUSH2 0x194E JUMP JUMPDEST PUSH2 0x1420 PUSH2 0x141B PUSH1 0x60 DUP4 ADD MLOAD ISZERO ISZERO SWAP1 JUMP JUMPDEST PUSH2 0x198D JUMP JUMPDEST PUSH1 0x40 DUP2 ADD MLOAD PUSH1 0x1 PUSH1 0x1 PUSH1 0x50 SHL SUB AND DUP2 MLOAD PUSH1 0x20 SWAP3 DUP4 ADD MLOAD PUSH1 0x40 DUP1 MLOAD PUSH1 0x1 PUSH1 0x1 PUSH1 0x50 SHL SUB SWAP5 SWAP1 SWAP5 AND DUP1 DUP6 MSTORE SWAP5 DUP5 ADD SWAP3 SWAP1 SWAP3 MSTORE SWAP1 DUP3 ADD DUP2 SWAP1 MSTORE PUSH1 0x60 DUP3 ADD MSTORE PUSH1 0x80 DUP2 ADD SWAP2 SWAP1 SWAP2 MSTORE PUSH1 0xA0 SWAP1 RETURN JUMPDEST SWAP2 POP PUSH1 0xD PUSH1 0x0 MSTORE PUSH32 0xD7B6990105719101DABEB77144F2A3385C8033ACD3AF97E9423A695E81AD1EB5 PUSH1 0x0 SWAP1 JUMPDEST DUP4 DUP3 LT PUSH2 0x14A8 JUMPI POP POP SWAP1 DUP2 ADD SWAP1 PUSH1 0x20 PUSH2 0x13F6 JUMP JUMPDEST PUSH1 0x1 DUP2 PUSH1 0x20 SWAP3 SLOAD DUP5 DUP7 ADD MSTORE ADD SWAP2 ADD SWAP1 PUSH2 0x1494 JUMP JUMPDEST PUSH1 0xFF NOT AND DUP4 MSTORE POP DUP1 ISZERO ISZERO MUL DUP2 ADD SWAP2 POP PUSH1 0x20 PUSH2 0x13F6 JUMP JUMPDEST PUSH1 0x40 MLOAD SWAP1 PUSH2 0x14E1 PUSH1 0x40 DUP4 PUSH2 0x1D3 JUMP JUMPDEST PUSH1 0x3 DUP3 MSTORE PUSH3 0x19D95D PUSH1 0xEA SHL PUSH1 0x20 DUP4 ADD MSTORE JUMP JUMPDEST PUSH1 0x40 MLOAD SWAP1 PUSH2 0x1502 PUSH1 0x40 DUP4 PUSH2 0x1D3 JUMP JUMPDEST PUSH1 0x4 DUP3 MSTORE PUSH4 0xE0C2E8D PUSH1 0xE3 SHL PUSH1 0x20 DUP4 ADD MSTORE JUMP JUMPDEST PUSH1 0x40 MLOAD SWAP1 PUSH2 0x1524 PUSH1 0x40 DUP4 PUSH2 0x1D3 JUMP JUMPDEST PUSH1 0xF DUP3 MSTORE PUSH15 0x726573756C74732C302C76616C7565 PUSH1 0x88 SHL PUSH1 0x20 DUP4 ADD MSTORE JUMP JUMPDEST PUSH1 0x40 MLOAD SWAP1 PUSH2 0x1551 PUSH1 0x40 DUP4 PUSH2 0x1D3 JUMP JUMPDEST PUSH1 0x5 DUP3 MSTORE PUSH5 0x74696D6573 PUSH1 0xD8 SHL PUSH1 0x20 DUP4 ADD MSTORE JUMP JUMPDEST PUSH1 0x40 DUP1 DUP3 MSTORE PUSH1 0x4 SWAP1 DUP3 ADD MSTORE PUSH4 0x706D3235 PUSH1 0xE0 SHL PUSH1 0x60 DUP3 ADD MSTORE PUSH2 0x27C SWAP2 PUSH1 0x80 DUP3 ADD JUMPDEST SWAP2 PUSH1 0x20 DUP2 DUP5 SUB SWAP2 ADD MSTORE PUSH2 0x77E JUMP JUMPDEST PUSH1 0x40 MLOAD SWAP1 PUSH2 0x15A3 PUSH1 0x40 DUP4 PUSH2 0x1D3 JUMP JUMPDEST PUSH1 0x7 DUP3 MSTORE PUSH7 0x68605C6E62647 PUSH1 0xCB SHL PUSH1 0x20 DUP4 ADD MSTORE JUMP JUMPDEST PUSH1 0x40 MLOAD SWAP1 PUSH2 0x15C8 PUSH1 0x40 DUP4 PUSH2 0x1D3 JUMP JUMPDEST PUSH1 0x8 DUP3 MSTORE PUSH8 0x2D37342E3030363 PUSH1 0xC4 SHL PUSH1 0x20 DUP4 ADD MSTORE JUMP JUMPDEST PUSH1 0x0 DUP1 MLOAD PUSH1 0x20 PUSH2 0x241C DUP4 CODECOPY DUP2 MLOAD SWAP2 MSTORE PUSH2 0x735 PUSH1 0x20 SWAP3 PUSH2 0x705 PUSH2 0x1689 SWAP6 PUSH2 0x1603 PUSH2 0x19D9 JUMP JUMPDEST PUSH2 0x41F PUSH2 0x6D2 PUSH2 0x1616 PUSH1 0x9 SLOAD ADDRESS SWAP1 PUSH2 0x1AE7 JUMP JUMPDEST SWAP5 PUSH2 0x573 PUSH1 0x40 MLOAD SWAP10 DUP11 SWAP6 PUSH32 0x68747470733A2F2F6170692E6E6173612E676F762F706C616E65746172792F65 DUP3 DUP9 ADD MSTORE PUSH20 0x617274682F737461746973746963733F6C6F6E3D PUSH1 0x60 SHL PUSH1 0x40 DUP9 ADD MSTORE PUSH2 0x1676 PUSH1 0x54 DUP9 ADD SWAP2 DUP3 DUP2 MLOAD SWAP5 DUP6 SWAP3 ADD PUSH2 0x27F JUMP JUMPDEST ADD PUSH1 0x5 SWAP1 PUSH5 0x266C61743D PUSH1 0xD8 SHL DUP2 MSTORE ADD SWAP1 JUMP JUMPDEST SUB SWAP1 LOG2 SWAP1 JUMP JUMPDEST PUSH1 0x40 MLOAD SWAP1 PUSH2 0x169E PUSH1 0x40 DUP4 PUSH2 0x1D3 JUMP JUMPDEST PUSH1 0x1B DUP3 MSTORE PUSH32 0x737461746973746963732C76656765746174696F6E5F696E6465780000000000 PUSH1 0x20 DUP4 ADD MSTORE JUMP JUMPDEST PUSH1 0x40 DUP1 DUP3 MSTORE PUSH1 0xC SWAP1 DUP3 ADD MSTORE PUSH12 0x3337B932B9BA2FB1B7BB32B9 PUSH1 0xA1 SHL PUSH1 0x60 DUP3 ADD MSTORE PUSH2 0x27C SWAP2 PUSH1 0x80 DUP3 ADD PUSH2 0x1586 JUMP JUMPDEST PUSH1 0x0 DUP1 MLOAD PUSH1 0x20 PUSH2 0x241C DUP4 CODECOPY DUP2 MLOAD SWAP2 MSTORE PUSH2 0xB2C PUSH2 0xABD SWAP3 PUSH2 0xB0D PUSH2 0x1689 SWAP6 PUSH2 0x171C PUSH2 0x19D9 JUMP JUMPDEST PUSH2 0x41F PUSH2 0xAD3 PUSH2 0x172F PUSH1 0x9 SLOAD ADDRESS SWAP1 PUSH2 0x1B31 JUMP JUMPDEST SWAP5 PUSH2 0x573 PUSH1 0x40 MLOAD SWAP10 DUP11 SWAP6 PUSH32 0x68747470733A2F2F706F7765722E6C6172632E6E6173612E676F762F6170692F PUSH1 0x20 DUP9 ADD MSTORE PUSH32 0x74656D706F72616C2F6461696C792F706F696E743F706172616D65746572733D PUSH1 0x40 DUP9 ADD MSTORE PUSH32 0x54324D26636F6D6D756E6974793D5245266C6F6E6769747564653D0000000000 PUSH1 0x60 DUP9 ADD MSTORE PUSH1 0x7B DUP8 ADD SWAP1 PUSH2 0x2A2 JUMP JUMPDEST PUSH1 0x40 MLOAD SWAP1 PUSH2 0x17C4 PUSH1 0x40 DUP4 PUSH2 0x1D3 JUMP JUMPDEST PUSH1 0x18 DUP3 MSTORE PUSH32 0x70726F706572746965732C706172616D657465722C54324D0000000000000000 PUSH1 0x20 DUP4 ADD MSTORE JUMP JUMPDEST PUSH1 0x40 DUP1 DUP3 MSTORE PUSH1 0x3 SWAP1 DUP3 ADD MSTORE PUSH3 0x31B799 PUSH1 0xE9 SHL PUSH1 0x60 DUP3 ADD MSTORE PUSH2 0x27C SWAP2 PUSH1 0x80 DUP3 ADD PUSH2 0x1586 JUMP JUMPDEST PUSH1 0x1F DUP2 GT PUSH2 0x1820 JUMPI POP POP JUMP JUMPDEST PUSH1 0xD PUSH1 0x0 MSTORE PUSH1 0x20 PUSH1 0x0 KECCAK256 SWAP1 PUSH1 0x20 PUSH1 0x1F DUP5 ADD PUSH1 0x5 SHR DUP4 ADD SWAP4 LT PUSH2 0x185D JUMPI JUMPDEST PUSH1 0x1F ADD PUSH1 0x5 SHR ADD SWAP1 JUMPDEST DUP2 DUP2 LT PUSH2 0x1851 JUMPI POP POP JUMP JUMPDEST PUSH1 0x0 DUP2 SSTORE PUSH1 0x1 ADD PUSH2 0x1846 JUMP JUMPDEST SWAP1 SWAP2 POP DUP2 SWAP1 PUSH2 0x183D JUMP JUMPDEST SWAP1 DUP2 PUSH1 0x20 SWAP2 SUB SLT PUSH2 0x24C JUMPI MLOAD SWAP1 JUMP JUMPDEST PUSH1 0x40 MLOAD RETURNDATASIZE PUSH1 0x0 DUP3 RETURNDATACOPY RETURNDATASIZE SWAP1 REVERT JUMPDEST SWAP1 DUP2 PUSH1 0x20 SWAP2 SUB SLT PUSH2 0x24C JUMPI MLOAD DUP1 ISZERO ISZERO DUP2 SUB PUSH2 0x24C JUMPI SWAP1 JUMP JUMPDEST ISZERO PUSH2 0x18A1 JUMPI JUMP JUMPDEST PUSH1 0x40 MLOAD PUSH3 0x461BCD PUSH1 0xE5 SHL DUP2 MSTORE PUSH1 0x20 PUSH1 0x4 DUP3 ADD MSTORE PUSH1 0x12 PUSH1 0x24 DUP3 ADD MSTORE PUSH18 0x2AB730B13632903A37903A3930B739B332B9 PUSH1 0x71 SHL PUSH1 0x44 DUP3 ADD MSTORE PUSH1 0x64 SWAP1 REVERT JUMPDEST ISZERO PUSH2 0x18E2 JUMPI JUMP JUMPDEST PUSH1 0x40 MLOAD PUSH3 0x461BCD PUSH1 0xE5 SHL DUP2 MSTORE PUSH1 0x20 PUSH1 0x4 DUP3 ADD MSTORE PUSH1 0x28 PUSH1 0x24 DUP3 ADD MSTORE PUSH32 0x536F75726365206D75737420626520746865206F7261636C65206F6620746865 PUSH1 0x44 DUP3 ADD MSTORE PUSH8 0x81C995C5D595CDD PUSH1 0xC2 SHL PUSH1 0x64 DUP3 ADD MSTORE PUSH1 0x84 SWAP1 REVERT JUMPDEST PUSH4 0x4E487B71 PUSH1 0xE0 SHL PUSH1 0x0 MSTORE PUSH1 0x11 PUSH1 0x4 MSTORE PUSH1 0x24 PUSH1 0x0 REVERT JUMPDEST SWAP1 PUSH1 0x40 MLOAD PUSH2 0x195B DUP2 PUSH2 0x1B2 JUMP JUMPDEST PUSH1 0x60 PUSH1 0xFF PUSH1 0x2 DUP4 SWAP6 DUP1 SLOAD DUP6 MSTORE PUSH1 0x1 DUP2 ADD SLOAD PUSH1 0x20 DUP7 ADD MSTORE ADD SLOAD PUSH1 0x1 PUSH1 0x1 PUSH1 0x50 SHL SUB DUP2 AND PUSH1 0x40 DUP6 ADD MSTORE PUSH1 0x50 SHR AND ISZERO ISZERO SWAP2 ADD MSTORE JUMP JUMPDEST ISZERO PUSH2 0x1994 JUMPI JUMP JUMPDEST PUSH1 0x40 MLOAD PUSH3 0x461BCD PUSH1 0xE5 SHL DUP2 MSTORE PUSH1 0x20 PUSH1 0x4 DUP3 ADD MSTORE PUSH1 0x17 PUSH1 0x24 DUP3 ADD MSTORE PUSH32 0x4E6F2076616C6964206461746120617661696C61626C65000000000000000000 PUSH1 0x44 DUP3 ADD MSTORE PUSH1 0x64 SWAP1 REVERT JUMPDEST PUSH1 0x6 SLOAD PUSH1 0x1 PUSH1 0x1 PUSH1 0xA0 SHL SUB AND CALLER SUB PUSH2 0x19ED JUMPI JUMP JUMPDEST PUSH1 0x40 MLOAD PUSH3 0x461BCD PUSH1 0xE5 SHL DUP2 MSTORE PUSH1 0x20 PUSH1 0x4 DUP3 ADD MSTORE PUSH1 0x16 PUSH1 0x24 DUP3 ADD MSTORE PUSH22 0x27B7363C9031B0B63630B1363290313C9037BBB732B9 PUSH1 0x51 SHL PUSH1 0x44 DUP3 ADD MSTORE PUSH1 0x64 SWAP1 REVERT JUMPDEST PUSH1 0x40 MLOAD SWAP1 PUSH1 0x40 DUP3 ADD DUP3 DUP2 LT PUSH8 0xFFFFFFFFFFFFFFFF DUP3 GT OR PUSH2 0x1CE JUMPI PUSH1 0x40 MSTORE PUSH1 0x0 PUSH1 0x20 DUP4 PUSH1 0x60 DUP2 MSTORE ADD MSTORE JUMP JUMPDEST PUSH1 0x40 MLOAD SWAP1 PUSH1 0xA0 DUP3 ADD DUP3 DUP2 LT PUSH8 0xFFFFFFFFFFFFFFFF DUP3 GT OR PUSH2 0x1CE JUMPI PUSH1 0x40 MSTORE DUP2 PUSH1 0x0 DUP2 MSTORE PUSH1 0x0 PUSH1 0x20 DUP3 ADD MSTORE PUSH1 0x0 PUSH1 0x40 DUP3 ADD MSTORE PUSH1 0x0 PUSH1 0x60 DUP3 ADD MSTORE PUSH1 0x80 PUSH2 0x1A98 PUSH2 0x1A2B JUMP JUMPDEST SWAP2 ADD MSTORE JUMP JUMPDEST SWAP1 PUSH2 0x1AA6 PUSH2 0x1A56 JUMP JUMPDEST POP PUSH2 0x1AAF PUSH2 0x1A56 JUMP JUMPDEST SWAP2 PUSH2 0x1AB8 PUSH2 0x1A56 JUMP JUMPDEST POP PUSH2 0x1AC6 PUSH1 0x80 DUP5 ADD MLOAD PUSH2 0x1E25 JUMP JUMPDEST POP DUP3 MSTORE PUSH1 0x1 PUSH1 0x1 PUSH1 0xA0 SHL SUB AND PUSH1 0x20 DUP3 ADD MSTORE PUSH4 0x3238915F PUSH1 0xE2 SHL PUSH1 0x40 DUP3 ADD MSTORE SWAP1 JUMP JUMPDEST SWAP1 PUSH2 0x1AF0 PUSH2 0x1A56 JUMP JUMPDEST POP PUSH2 0x1AF9 PUSH2 0x1A56 JUMP JUMPDEST SWAP2 PUSH2 0x1B02 PUSH2 0x1A56 JUMP JUMPDEST POP PUSH2 0x1B10 PUSH1 0x80 DUP5 ADD MLOAD PUSH2 0x1E25 JUMP JUMPDEST POP DUP3 MSTORE PUSH1 0x1 PUSH1 0x1 PUSH1 0xA0 SHL SUB AND PUSH1 0x20 DUP3 ADD MSTORE PUSH4 0x67737E7 PUSH1 0xE5 SHL PUSH1 0x40 DUP3 ADD MSTORE SWAP1 JUMP JUMPDEST SWAP1 PUSH2 0x1B3A PUSH2 0x1A56 JUMP JUMPDEST POP PUSH2 0x1B43 PUSH2 0x1A56 JUMP JUMPDEST SWAP2 PUSH2 0x1B4C PUSH2 0x1A56 JUMP JUMPDEST POP PUSH2 0x1B5A PUSH1 0x80 DUP5 ADD MLOAD PUSH2 0x1E25 JUMP JUMPDEST POP DUP3 MSTORE PUSH1 0x1 PUSH1 0x1 PUSH1 0xA0 SHL SUB AND PUSH1 0x20 DUP3 ADD MSTORE PUSH4 0xD4EC83C5 PUSH1 0xE0 SHL PUSH1 0x40 DUP3 ADD MSTORE SWAP1 JUMP JUMPDEST PUSH1 0x80 ADD DUP1 MLOAD PUSH2 0x1B94 SWAP4 SWAP3 PUSH2 0x1B8E SWAP2 PUSH2 0x1D2D JUMP JUMPDEST MLOAD PUSH2 0x1D2D JUMP JUMPDEST JUMP JUMPDEST PUSH2 0x1B94 SWAP2 PUSH2 0x1BAB PUSH1 0x80 PUSH1 0x64 SWAP4 ADD SWAP2 DUP3 MLOAD PUSH2 0x1D2D JUMP JUMPDEST MLOAD PUSH2 0x1E93 JUMP JUMPDEST PUSH2 0x1B94 SWAP2 PUSH2 0x1BAB PUSH1 0x80 PUSH2 0x2710 SWAP4 ADD SWAP2 DUP3 MLOAD PUSH2 0x1D2D JUMP JUMPDEST PUSH1 0x3 SLOAD PUSH1 0x4 SLOAD PUSH1 0x1 DUP2 ADD SWAP4 SWAP2 PUSH1 0x1 PUSH1 0x1 PUSH1 0xA0 SHL SUB AND DUP5 DUP3 GT PUSH2 0x12AF JUMPI PUSH2 0x27C SWAP5 PUSH1 0x4 SSTORE PUSH2 0x1C58 DUP5 MLOAD PUSH2 0x41F PUSH1 0x80 PUSH4 0xFFFFFFFF PUSH1 0xE0 SHL PUSH1 0x40 DUP10 ADD MLOAD AND SWAP8 ADD MLOAD MLOAD PUSH1 0x40 MLOAD SWAP8 DUP9 SWAP4 PUSH4 0x20214CA3 PUSH1 0xE1 SHL PUSH1 0x20 DUP7 ADD MSTORE PUSH1 0x0 PUSH1 0x24 DUP7 ADD MSTORE PUSH1 0x0 PUSH1 0x44 DUP7 ADD MSTORE PUSH1 0x64 DUP6 ADD MSTORE ADDRESS PUSH1 0x84 DUP6 ADD MSTORE PUSH1 0xA4 DUP5 ADD MSTORE DUP6 PUSH1 0xC4 DUP5 ADD MSTORE PUSH1 0x1 PUSH1 0xE4 DUP5 ADD MSTORE PUSH2 0x100 PUSH2 0x104 DUP5 ADD MSTORE PUSH2 0x124 DUP4 ADD SWAP1 PUSH2 0x77E JUMP JUMPDEST PUSH2 0x2090 JUMP JUMPDEST SWAP1 PUSH1 0x1 PUSH1 0x1 PUSH1 0x1 PUSH1 0x50 SHL SUB PUSH2 0x1C71 DUP5 PUSH2 0x2B9 JUMP JUMPDEST SLOAD AND ADD SWAP1 PUSH1 0x1 PUSH1 0x1 PUSH1 0x50 SHL SUB DUP3 GT PUSH2 0x12AF JUMPI PUSH2 0x1B94 SWAP3 PUSH2 0x1D12 SWAP2 PUSH1 0x40 MLOAD SWAP1 PUSH2 0x1C98 DUP3 PUSH2 0x1B2 JUMP JUMPDEST DUP2 MSTORE PUSH1 0x20 DUP2 ADD TIMESTAMP DUP2 MSTORE PUSH2 0x1CF4 PUSH1 0x1 PUSH1 0x1 PUSH1 0x50 SHL SUB PUSH1 0x2 PUSH1 0x40 DUP6 ADD SWAP5 DUP3 DUP10 AND DUP7 MSTORE PUSH1 0x60 DUP2 ADD SWAP5 PUSH1 0x1 DUP7 MSTORE PUSH2 0x1CCA DUP9 PUSH2 0x2DF JUMP JUMPDEST SWAP2 MLOAD DUP3 SSTORE MLOAD PUSH1 0x1 DUP3 ADD SSTORE ADD SWAP4 MLOAD AND DUP4 SWAP1 PUSH1 0x1 PUSH1 0x1 PUSH1 0x50 SHL SUB AND PUSH1 0x1 PUSH1 0x1 PUSH1 0x50 SHL SUB NOT DUP3 SLOAD AND OR SWAP1 SSTORE JUMP JUMPDEST MLOAD DUP2 SLOAD PUSH1 0xFF PUSH1 0x50 SHL NOT AND SWAP1 ISZERO ISZERO PUSH1 0x50 SHL PUSH1 0xFF PUSH1 0x50 SHL AND OR SWAP1 SSTORE PUSH2 0x2B9 JUMP JUMPDEST SWAP1 PUSH1 0x1 PUSH1 0x1 PUSH1 0x50 SHL SUB AND PUSH1 0x1 PUSH1 0x1 PUSH1 0x50 SHL SUB NOT DUP3 SLOAD AND OR SWAP1 SSTORE JUMP JUMPDEST DUP2 MLOAD PUSH2 0x1D6E SWAP3 SWAP2 SWAP1 PUSH8 0xFFFFFFFFFFFFFFFF AND PUSH1 0x17 DUP2 GT PUSH2 0x1D71 JUMPI PUSH2 0x1D68 SWAP1 PUSH2 0x1D62 SWAP1 PUSH2 0x1D5B PUSH1 0x60 JUMPDEST PUSH1 0xFF AND SWAP1 JUMP JUMPDEST OR PUSH1 0xFF AND SWAP1 JUMP JUMPDEST DUP3 PUSH2 0x219E JUMP JUMPDEST POP PUSH2 0x1F3A JUMP JUMPDEST POP JUMP JUMPDEST PUSH1 0xFF DUP2 GT PUSH2 0x1D93 JUMPI PUSH2 0x1D68 SWAP1 PUSH2 0x1D8C PUSH1 0x18 PUSH1 0x60 JUMPDEST OR DUP5 PUSH2 0x219E JUMP JUMPDEST POP DUP3 PUSH2 0x236C JUMP JUMPDEST PUSH2 0xFFFF DUP2 GT PUSH2 0x1DB3 JUMPI PUSH2 0x1D68 SWAP1 PUSH2 0x1DAC PUSH1 0x19 PUSH1 0x60 PUSH2 0x1D85 JUMP JUMPDEST POP DUP3 PUSH2 0x22FA JUMP JUMPDEST PUSH4 0xFFFFFFFF DUP2 GT PUSH2 0x1DD5 JUMPI PUSH2 0x1D68 SWAP1 PUSH2 0x1DCE PUSH1 0x1A PUSH1 0x60 PUSH2 0x1D85 JUMP JUMPDEST POP DUP3 PUSH2 0x2286 JUMP JUMPDEST PUSH2 0x1D68 SWAP1 PUSH2 0x1DE5 PUSH1 0x1B PUSH1 0x60 PUSH2 0x1D85 JUMP JUMPDEST POP DUP3 PUSH2 0x220A JUMP JUMPDEST SWAP1 PUSH1 0x20 DUP3 ADD DUP1 SWAP3 GT PUSH2 0x12AF JUMPI JUMP JUMPDEST SWAP2 SWAP1 DUP3 ADD DUP1 SWAP3 GT PUSH2 0x12AF JUMPI JUMP JUMPDEST PUSH1 0x1F NOT DUP2 ADD SWAP2 SWAP1 DUP3 GT PUSH2 0x12AF JUMPI JUMP JUMPDEST PUSH1 0x0 NOT DUP2 ADD SWAP2 SWAP1 DUP3 GT PUSH2 0x12AF JUMPI JUMP JUMPDEST PUSH2 0x1E2D PUSH2 0x1A2B JUMP JUMPDEST POP PUSH2 0x100 PUSH1 0x20 DUP3 ADD MSTORE PUSH2 0x120 PUSH1 0x40 MLOAD DUP1 DUP4 MSTORE PUSH1 0x0 DUP2 MSTORE ADD PUSH1 0x40 MSTORE SWAP1 JUMP JUMPDEST SWAP1 PUSH2 0x1E53 PUSH2 0x1A2B JUMP JUMPDEST POP PUSH1 0x1F DUP2 AND DUP1 PUSH2 0x1E79 JUMPI JUMPDEST POP DUP1 PUSH1 0x20 DUP4 ADD MSTORE PUSH1 0x40 MLOAD DUP1 DUP4 MSTORE PUSH1 0x0 DUP2 MSTORE ADD PUSH1 0x20 ADD PUSH1 0x40 MSTORE SWAP1 JUMP JUMPDEST PUSH1 0x20 SUB PUSH1 0x20 DUP2 GT PUSH2 0x12AF JUMPI DUP2 ADD DUP1 SWAP2 GT PUSH2 0x12AF JUMPI CODESIZE PUSH2 0x1E5E JUMP JUMPDEST SWAP1 PUSH8 0xFFFFFFFFFFFFFFFF DUP2 AND PUSH1 0x17 DUP2 GT PUSH2 0x1EC1 JUMPI POP PUSH2 0x1D6E SWAP2 SWAP1 PUSH2 0x1EBB SWAP1 PUSH2 0x1D5B PUSH1 0x0 PUSH2 0x1D55 JUMP JUMPDEST SWAP1 PUSH2 0x219E JUMP JUMPDEST SWAP1 POP PUSH1 0xFF DUP2 GT PUSH2 0x1EE4 JUMPI PUSH2 0x1D6E SWAP2 PUSH2 0x1EDE PUSH1 0x18 PUSH1 0x0 JUMPDEST OR DUP3 PUSH2 0x219E JUMP JUMPDEST POP PUSH2 0x236C JUMP JUMPDEST PUSH2 0xFFFF DUP2 GT PUSH2 0x1F03 JUMPI PUSH2 0x1D6E SWAP2 PUSH2 0x1EFD PUSH1 0x19 PUSH1 0x0 PUSH2 0x1ED7 JUMP JUMPDEST POP PUSH2 0x22FA JUMP JUMPDEST PUSH4 0xFFFFFFFF DUP2 GT PUSH2 0x1F24 JUMPI PUSH2 0x1D6E SWAP2 PUSH2 0x1F1E PUSH1 0x1A PUSH1 0x0 PUSH2 0x1ED7 JUMP JUMPDEST POP PUSH2 0x2286 JUMP JUMPDEST PUSH2 0x1D6E SWAP2 PUSH2 0x1F34 PUSH1 0x1B PUSH1 0x0 PUSH2 0x1ED7 JUMP JUMPDEST POP PUSH2 0x220A JUMP JUMPDEST SWAP1 PUSH2 0x1F43 PUSH2 0x1A2B JUMP JUMPDEST POP DUP2 MLOAD MLOAD SWAP1 DUP1 MLOAD SWAP1 PUSH2 0x1F53 PUSH2 0x1A2B JUMP JUMPDEST POP PUSH2 0x1F61 DUP2 MLOAD DUP4 GT ISZERO PUSH2 0x23DD JUMP JUMPDEST PUSH2 0x1F6B DUP3 DUP5 PUSH2 0x1DFA JUMP JUMPDEST PUSH1 0x20 DUP6 ADD MLOAD DUP1 SWAP2 GT PUSH2 0x1FE9 JUMPI JUMPDEST POP PUSH1 0x20 SWAP1 DUP5 MLOAD DUP1 MLOAD SWAP1 DUP4 DUP7 DUP3 ADD ADD SWAP6 DUP6 ADD SWAP2 DUP3 GT PUSH2 0x1FE1 JUMPI JUMPDEST POP POP ADD SWAP1 JUMPDEST PUSH1 0x20 DUP2 LT ISZERO PUSH2 0x1FBB JUMPI PUSH1 0x0 NOT SWAP1 PUSH1 0x20 SUB PUSH2 0x100 EXP ADD SWAP1 DUP2 NOT SWAP1 MLOAD AND SWAP1 DUP3 MLOAD AND OR SWAP1 MSTORE SWAP1 JUMP JUMPDEST SWAP1 SWAP2 PUSH2 0x1FD6 PUSH2 0x1FD0 PUSH2 0x1FDC SWAP3 DUP6 MLOAD DUP2 MSTORE PUSH2 0x1DEC JUMP JUMPDEST SWAP4 PUSH2 0x1DEC JUMP JUMPDEST SWAP2 PUSH2 0x1E07 JUMP JUMPDEST PUSH2 0x1F96 JUMP JUMPDEST MSTORE CODESIZE DUP1 PUSH2 0x1F91 JUMP JUMPDEST PUSH2 0x2008 PUSH2 0x2003 PUSH2 0x200E SWAP3 PUSH2 0x1FFD DUP8 DUP8 PUSH2 0x1DFA JUMP JUMPDEST SWAP1 PUSH2 0x23FA JUMP JUMPDEST PUSH2 0x23E4 JUMP JUMPDEST DUP6 PUSH2 0x240A JUMP JUMPDEST CODESIZE PUSH2 0x1F78 JUMP JUMPDEST PUSH2 0x27C SWAP4 SWAP3 PUSH1 0x60 SWAP3 PUSH1 0x1 DUP1 PUSH1 0xA0 SHL SUB AND DUP3 MSTORE PUSH1 0x20 DUP3 ADD MSTORE DUP2 PUSH1 0x40 DUP3 ADD MSTORE ADD SWAP1 PUSH2 0x77E JUMP JUMPDEST ISZERO PUSH2 0x203F JUMPI JUMP JUMPDEST PUSH1 0x40 MLOAD PUSH3 0x461BCD PUSH1 0xE5 SHL DUP2 MSTORE PUSH1 0x20 PUSH1 0x4 DUP3 ADD MSTORE PUSH1 0x23 PUSH1 0x24 DUP3 ADD MSTORE PUSH32 0x756E61626C6520746F207472616E73666572416E6443616C6C20746F206F7261 PUSH1 0x44 DUP3 ADD MSTORE PUSH3 0x636C65 PUSH1 0xE8 SHL PUSH1 0x64 DUP3 ADD MSTORE PUSH1 0x84 SWAP1 REVERT JUMPDEST PUSH1 0x40 MLOAD PUSH12 0xFFFFFFFFFFFFFFFFFFFFFFFF NOT ADDRESS PUSH1 0x60 SHL AND PUSH1 0x20 DUP1 DUP4 ADD SWAP2 DUP3 MSTORE PUSH1 0x34 DUP1 DUP5 ADD SWAP6 SWAP1 SWAP6 MSTORE SWAP4 DUP3 MSTORE SWAP4 SWAP6 SWAP5 PUSH2 0x2163 SWAP5 SWAP1 SWAP3 SWAP2 PUSH2 0x20CF PUSH1 0x54 DUP3 PUSH2 0x1D3 JUMP JUMPDEST MLOAD SWAP1 KECCAK256 SWAP6 PUSH2 0x210A DUP3 PUSH2 0x20EB DUP10 PUSH1 0x0 MSTORE PUSH1 0x5 PUSH1 0x20 MSTORE PUSH1 0x40 PUSH1 0x0 KECCAK256 SWAP1 JUMP JUMPDEST DUP1 SLOAD PUSH1 0x1 PUSH1 0x1 PUSH1 0xA0 SHL SUB NOT AND PUSH1 0x1 PUSH1 0x1 PUSH1 0xA0 SHL SUB SWAP1 SWAP3 AND SWAP2 SWAP1 SWAP2 OR SWAP1 SSTORE JUMP JUMPDEST PUSH1 0x0 PUSH1 0x40 MLOAD DUP1 SWAP7 DUP2 SWAP6 DUP3 SWAP5 DUP12 PUSH32 0xB5E6E01E79F91267DC17B4E6314D5D4D03593D2CEEE0FBB452B750BD70EA5AF9 DUP7 DUP1 LOG2 PUSH1 0x2 SLOAD PUSH2 0x214F SWAP1 PUSH1 0x1 PUSH1 0x1 PUSH1 0xA0 SHL SUB AND PUSH2 0xC8F JUMP JUMPDEST PUSH4 0x2000575 PUSH1 0xE5 SHL DUP6 MSTORE SWAP7 PUSH1 0x4 DUP6 ADD PUSH2 0x2014 JUMP JUMPDEST SUB SWAP3 GAS CALL DUP1 ISZERO PUSH2 0xD45 JUMPI PUSH2 0x1B94 SWAP2 PUSH1 0x0 SWAP2 PUSH2 0x217F JUMPI JUMPDEST POP PUSH2 0x2038 JUMP JUMPDEST PUSH2 0x2198 SWAP2 POP PUSH1 0x20 RETURNDATASIZE PUSH1 0x20 GT PUSH2 0xD3E JUMPI PUSH2 0xD30 DUP2 DUP4 PUSH2 0x1D3 JUMP JUMPDEST CODESIZE PUSH2 0x2179 JUMP JUMPDEST SWAP1 PUSH2 0x21A7 PUSH2 0x1A2B JUMP JUMPDEST POP DUP2 MLOAD MLOAD PUSH2 0x21B3 PUSH2 0x1A2B JUMP JUMPDEST POP PUSH1 0x20 DUP4 ADD MLOAD DUP1 DUP3 LT ISZERO PUSH2 0x21E4 JUMPI JUMPDEST POP DUP3 MLOAD SWAP2 DUP3 MLOAD SWAP2 DUP3 SWAP2 PUSH1 0x20 DUP3 DUP7 ADD ADD MSTORE8 EQ PUSH2 0x21DC JUMPI POP POP SWAP1 JUMP JUMPDEST PUSH1 0x1 ADD SWAP1 MSTORE SWAP1 JUMP JUMPDEST PUSH2 0x21F0 PUSH2 0x2203 SWAP2 PUSH2 0x23E4 JUMP JUMPDEST PUSH2 0x21FC DUP6 MLOAD SWAP2 DUP7 PUSH2 0x1E4A JUMP JUMPDEST POP DUP5 PUSH2 0x1F3A JUMP JUMPDEST POP CODESIZE PUSH2 0x21C2 JUMP JUMPDEST SWAP1 PUSH2 0x2213 PUSH2 0x1A2B JUMP JUMPDEST POP DUP2 MLOAD MLOAD SWAP1 PUSH2 0x2220 PUSH2 0x1A2B JUMP JUMPDEST POP DUP2 PUSH1 0x8 ADD DUP1 PUSH1 0x8 GT PUSH2 0x12AF JUMPI PUSH1 0x20 DUP5 ADD MLOAD DUP2 GT PUSH2 0x2273 JUMPI JUMPDEST POP PUSH2 0x224C PUSH9 0x10000000000000000 PUSH2 0x1E16 JUMP JUMPDEST DUP4 MLOAD SWAP2 PUSH1 0x8 DUP5 DUP5 ADD ADD SWAP2 NOT DUP3 MLOAD AND OR SWAP1 MSTORE PUSH1 0x8 DUP2 MLOAD SWAP3 ADD SWAP2 DUP3 GT PUSH2 0x226F JUMPI POP POP SWAP1 JUMP JUMPDEST MSTORE SWAP1 JUMP JUMPDEST PUSH2 0x21F0 PUSH2 0x227F SWAP2 PUSH2 0x23E4 JUMP JUMPDEST POP CODESIZE PUSH2 0x2239 JUMP JUMPDEST SWAP1 PUSH2 0x228F PUSH2 0x1A2B JUMP JUMPDEST POP DUP2 MLOAD MLOAD SWAP1 PUSH2 0x229C PUSH2 0x1A2B JUMP JUMPDEST POP DUP2 PUSH1 0x4 ADD DUP1 PUSH1 0x4 GT PUSH2 0x12AF JUMPI PUSH1 0x20 DUP5 ADD MLOAD DUP2 GT PUSH2 0x22E7 JUMPI JUMPDEST POP PUSH2 0x22C4 PUSH5 0x100000000 PUSH2 0x1E16 JUMP JUMPDEST DUP4 MLOAD SWAP2 PUSH1 0x4 DUP5 DUP5 ADD ADD SWAP2 NOT DUP3 MLOAD AND OR SWAP1 MSTORE PUSH1 0x4 DUP2 MLOAD SWAP3 ADD SWAP2 DUP3 GT PUSH2 0x226F JUMPI POP POP SWAP1 JUMP JUMPDEST PUSH2 0x21F0 PUSH2 0x22F3 SWAP2 PUSH2 0x23E4 JUMP JUMPDEST POP CODESIZE PUSH2 0x22B5 JUMP JUMPDEST SWAP1 PUSH2 0x2303 PUSH2 0x1A2B JUMP JUMPDEST POP DUP2 MLOAD MLOAD SWAP1 PUSH2 0x2310 PUSH2 0x1A2B JUMP JUMPDEST POP DUP2 PUSH1 0x2 ADD DUP1 PUSH1 0x2 GT PUSH2 0x12AF JUMPI PUSH1 0x20 DUP5 ADD MLOAD DUP2 GT PUSH2 0x2359 JUMPI JUMPDEST POP PUSH2 0x2336 PUSH3 0x10000 PUSH2 0x1E16 JUMP JUMPDEST DUP4 MLOAD SWAP2 PUSH1 0x2 DUP5 DUP5 ADD ADD SWAP2 NOT DUP3 MLOAD AND OR SWAP1 MSTORE PUSH1 0x2 DUP2 MLOAD SWAP3 ADD SWAP2 DUP3 GT PUSH2 0x226F JUMPI POP POP SWAP1 JUMP JUMPDEST PUSH2 0x21F0 PUSH2 0x2365 SWAP2 PUSH2 0x23E4 JUMP JUMPDEST POP CODESIZE PUSH2 0x2329 JUMP JUMPDEST SWAP1 PUSH2 0x2375 PUSH2 0x1A2B JUMP JUMPDEST POP DUP2 MLOAD MLOAD SWAP1 PUSH2 0x2382 PUSH2 0x1A2B JUMP JUMPDEST POP DUP2 PUSH1 0x1 ADD DUP1 PUSH1 0x1 GT PUSH2 0x12AF JUMPI PUSH1 0x20 DUP5 ADD MLOAD DUP2 GT PUSH2 0x23CA JUMPI JUMPDEST POP PUSH2 0x23A7 PUSH2 0x100 PUSH2 0x1E16 JUMP JUMPDEST DUP4 MLOAD SWAP2 PUSH1 0x1 DUP5 DUP5 ADD ADD SWAP2 NOT DUP3 MLOAD AND OR SWAP1 MSTORE PUSH1 0x1 DUP2 MLOAD SWAP3 ADD SWAP2 DUP3 GT PUSH2 0x226F JUMPI POP POP SWAP1 JUMP JUMPDEST PUSH2 0x21F0 PUSH2 0x23D6 SWAP2 PUSH2 0x23E4 JUMP JUMPDEST POP CODESIZE PUSH2 0x239B JUMP JUMPDEST ISZERO PUSH2 0x24C JUMPI JUMP JUMPDEST SWAP1 DUP2 PUSH1 0x1 SHL SWAP2 DUP1 DUP4 DIV PUSH1 0x2 EQ SWAP1 ISZERO OR ISZERO PUSH2 0x12AF JUMPI JUMP JUMPDEST DUP2 DUP2 GT PUSH2 0x2405 JUMPI POP SWAP1 JUMP JUMPDEST SWAP1 POP SWAP1 JUMP JUMPDEST SWAP1 PUSH2 0x1D6E SWAP2 PUSH2 0x1D68 DUP2 MLOAD SWAP3 DUP3 PUSH2 0x1E4A JUMP INVALID LOG3 DUP11 TSTORE SWAP13 PUSH28 0x6AE32E559E7EAC95FB1638E6061F8748B1D8424BB32FA223ED1B0DA2 PUSH5 0x6970667358 0x22 SLT KECCAK256 PUSH31 0xF624B0566E48BE605EF71AE91EA01B097F7F5692FE4E74ECBF09B535643F2D PUSH5 0x736F6C6343 STOP ADDMOD SHR STOP CALLER 0xBB PUSH28 0x4A454DC3493923482F07822329ED19E8244EFF582CC204F8554C3620 0xC3 REVERT "},"methodIdentifiers":{"acceptOwnership()":"79ba5097","decimals()":"313ce567","description()":"7284e416","environmentalData(string)":"e2eb188e","fulfillCO2Data(bytes32,int256)":"d4ec83c5","fulfillForestCoverData(bytes32,int256)":"cee6fce0","fulfillPM25Data(bytes32,int256)":"c8e2457c","getLatestCO2Data()":"bf0eca7e","getLatestForestCoverData()":"bb99b969","getLatestPM25Data()":"b53eeb6f","getRoundData(uint80)":"9a6fc8f5","latestRoundData()":"feaf968c","latestRoundIds(string)":"23fb9bc3","owner()":"8da5cb5b","primaryMetric()":"d27cd36b","requestAllEnvironmentalData()":"60c0e35f","requestCO2Data(string,string)":"82984c0c","requestForestCoverData(string,string)":"61e27917","requestPM25Data(string)":"31a51c1d","setPrimaryMetric(string)":"8409c4e6","transferOwnership(address)":"f2fde38b","updateOracleConfig(address,bytes32,uint256)":"8002a7f8","version()":"54fd4d50","withdrawLink()":"8dc654a2"}}}}}